{
  "_format": "hh-sol-artifact-1",
  "contractName": "FlowERC20Factory",
  "sourceName": "contracts/flow/erc20/FlowERC20Factory.sol",
  "abi": [
    {
      "inputs": [],
      "stateMutability": "nonpayable",
      "type": "constructor"
    },
    {
      "anonymous": false,
      "inputs": [
        {
          "indexed": false,
          "internalType": "address",
          "name": "sender",
          "type": "address"
        },
        {
          "indexed": false,
          "internalType": "address",
          "name": "implementation",
          "type": "address"
        }
      ],
      "name": "Implementation",
      "type": "event"
    },
    {
      "anonymous": false,
      "inputs": [
        {
          "indexed": false,
          "internalType": "uint8",
          "name": "version",
          "type": "uint8"
        }
      ],
      "name": "Initialized",
      "type": "event"
    },
    {
      "anonymous": false,
      "inputs": [
        {
          "indexed": false,
          "internalType": "address",
          "name": "sender",
          "type": "address"
        },
        {
          "indexed": false,
          "internalType": "address",
          "name": "child",
          "type": "address"
        }
      ],
      "name": "NewChild",
      "type": "event"
    },
    {
      "inputs": [
        {
          "internalType": "bytes",
          "name": "data_",
          "type": "bytes"
        }
      ],
      "name": "createChild",
      "outputs": [
        {
          "internalType": "address",
          "name": "",
          "type": "address"
        }
      ],
      "stateMutability": "nonpayable",
      "type": "function"
    },
    {
      "inputs": [
        {
          "components": [
            {
              "internalType": "string",
              "name": "name",
              "type": "string"
            },
            {
              "internalType": "string",
              "name": "symbol",
              "type": "string"
            },
            {
              "components": [
                {
                  "internalType": "bytes[]",
                  "name": "sources",
                  "type": "bytes[]"
                },
                {
                  "internalType": "uint256[]",
                  "name": "constants",
                  "type": "uint256[]"
                }
              ],
              "internalType": "struct StateConfig",
              "name": "stateConfig",
              "type": "tuple"
            },
            {
              "components": [
                {
                  "internalType": "address",
                  "name": "expressionDeployer",
                  "type": "address"
                },
                {
                  "internalType": "address",
                  "name": "interpreter",
                  "type": "address"
                },
                {
                  "components": [
                    {
                      "internalType": "bytes[]",
                      "name": "sources",
                      "type": "bytes[]"
                    },
                    {
                      "internalType": "uint256[]",
                      "name": "constants",
                      "type": "uint256[]"
                    }
                  ],
                  "internalType": "struct StateConfig[]",
                  "name": "flows",
                  "type": "tuple[]"
                }
              ],
              "internalType": "struct FlowCommonConfig",
              "name": "flowConfig",
              "type": "tuple"
            }
          ],
          "internalType": "struct FlowERC20Config",
          "name": "config_",
          "type": "tuple"
        }
      ],
      "name": "createChildTyped",
      "outputs": [
        {
          "internalType": "contract FlowERC20",
          "name": "",
          "type": "address"
        }
      ],
      "stateMutability": "nonpayable",
      "type": "function"
    },
    {
      "inputs": [],
      "name": "implementation",
      "outputs": [
        {
          "internalType": "address",
          "name": "",
          "type": "address"
        }
      ],
      "stateMutability": "view",
      "type": "function"
    },
    {
      "inputs": [
        {
          "internalType": "address",
          "name": "maybeChild_",
          "type": "address"
        }
      ],
      "name": "isChild",
      "outputs": [
        {
          "internalType": "bool",
          "name": "",
          "type": "bool"
        }
      ],
      "stateMutability": "view",
      "type": "function"
    }
  ],
  "bytecode": "0x60a060405234801561001057600080fd5b50610019610099565b600060405161002790610159565b604051809103906000f080158015610043573d6000803e3d6000fd5b50604080513381526001600160a01b03831660208201529192507f7fac34ecf0b1b374cd9659e3d17db602659d53f1162b1f20142e6c02694aed70910160405180910390a16001600160a01b0316608052610167565b600054610100900460ff16156101055760405162461bcd60e51b815260206004820152602760248201527f496e697469616c697a61626c653a20636f6e747261637420697320696e697469604482015266616c697a696e6760c81b606482015260840160405180910390fd5b60005460ff9081161015610157576000805460ff191660ff9081179091556040519081527f7f26b83ff96e1f2b6a682f133852f6798a09c465da95921460cefb38474024989060200160405180910390a15b565b614de9806200113983390190565b608051610fb062000189600039600081816093015261030a0152610fb06000f3fe608060405234801561001057600080fd5b506004361061004c5760003560e01c80632ea72a49146100515780635c60da1b1461008e578063cc913681146100b5578063fc91a897146100c8575b600080fd5b61006461005f366004610628565b610111565b60405173ffffffffffffffffffffffffffffffffffffffff90911681526020015b60405180910390f35b6100647f000000000000000000000000000000000000000000000000000000000000000081565b6100646100c33660046108d6565b6102ba565b6101016100d63660046109af565b73ffffffffffffffffffffffffffffffffffffffff1660009081526033602052604090205460ff1690565b6040519015158152602001610085565b6000600260015403610184576040517f08c379a000000000000000000000000000000000000000000000000000000000815260206004820152601f60248201527f5265656e7472616e637947756172643a207265656e7472616e742063616c6c0060448201526064015b60405180910390fd5b60026001556000610194836102ea565b73ffffffffffffffffffffffffffffffffffffffff811660009081526033602052604090205490915060ff1615610227576040517f08c379a000000000000000000000000000000000000000000000000000000000815260206004820152600f60248201527f4455504c49434154455f4348494c440000000000000000000000000000000000604482015260640161017b565b73ffffffffffffffffffffffffffffffffffffffff811660008181526033602090815260409182902080547fffffffffffffffffffffffffffffffffffffffffffffffffffffffffffffff001660011790558151338152908101929092527f7da70c4e5387d7038610b79ca7d304caaef815826e51e67cf247135387a79bce910160405180910390a16001805592915050565b60006102e4826040516020016102d09190610b06565b604051602081830303815290604052610111565b92915050565b600080828060200190518101906103019190610eb0565b9050600061032e7f00000000000000000000000000000000000000000000000000000000000000006103bd565b6040517f2f50e4be00000000000000000000000000000000000000000000000000000000815290915073ffffffffffffffffffffffffffffffffffffffff821690632f50e4be90610383908590600401610b06565b600060405180830381600087803b15801561039d57600080fd5b505af11580156103b1573d6000803e3d6000fd5b50929695505050505050565b60006040517f3d602d80600a3d3981f3363d3d373d3d3d363d7300000000000000000000000081528260601b60148201527f5af43d82803e903d91602b57fd5bf3000000000000000000000000000000000060288201526037816000f091505073ffffffffffffffffffffffffffffffffffffffff811661049a576040517f08c379a000000000000000000000000000000000000000000000000000000000815260206004820152601660248201527f455243313136373a20637265617465206661696c656400000000000000000000604482015260640161017b565b919050565b7f4e487b7100000000000000000000000000000000000000000000000000000000600052604160045260246000fd5b6040805190810167ffffffffffffffff811182821017156104f1576104f161049f565b60405290565b6040516060810167ffffffffffffffff811182821017156104f1576104f161049f565b6040516080810167ffffffffffffffff811182821017156104f1576104f161049f565b604051601f82017fffffffffffffffffffffffffffffffffffffffffffffffffffffffffffffffe016810167ffffffffffffffff811182821017156105845761058461049f565b604052919050565b600067ffffffffffffffff8211156105a6576105a661049f565b50601f017fffffffffffffffffffffffffffffffffffffffffffffffffffffffffffffffe01660200190565b600082601f8301126105e357600080fd5b81356105f66105f18261058c565b61053d565b81815284602083860101111561060b57600080fd5b816020850160208301376000918101602001919091529392505050565b60006020828403121561063a57600080fd5b813567ffffffffffffffff81111561065157600080fd5b61065d848285016105d2565b949350505050565b600067ffffffffffffffff82111561067f5761067f61049f565b5060051b60200190565b600082601f83011261069a57600080fd5b813560206106aa6105f183610665565b82815260059290921b840181019181810190868411156106c957600080fd5b8286015b848110156106e457803583529183019183016106cd565b509695505050505050565b60006040828403121561070157600080fd5b6107096104ce565b9050813567ffffffffffffffff8082111561072357600080fd5b818401915084601f83011261073757600080fd5b813560206107476105f183610665565b82815260059290921b8401810191818101908884111561076657600080fd5b8286015b8481101561079e578035868111156107825760008081fd5b6107908b86838b01016105d2565b84525091830191830161076a565b50865250858101359350828411156107b557600080fd5b6107c187858801610689565b818601525050505092915050565b73ffffffffffffffffffffffffffffffffffffffff811681146107f157600080fd5b50565b60006060828403121561080657600080fd5b61080e6104f7565b9050813561081b816107cf565b815260208281013561082c816107cf565b82820152604083013567ffffffffffffffff8082111561084b57600080fd5b818501915085601f83011261085f57600080fd5b813561086d6105f182610665565b81815260059190911b8301840190848101908883111561088c57600080fd5b8585015b838110156108c4578035858111156108a85760008081fd5b6108b68b89838a01016106ef565b845250918601918601610890565b50604087015250939695505050505050565b6000602082840312156108e857600080fd5b813567ffffffffffffffff8082111561090057600080fd5b908301906080828603121561091457600080fd5b61091c61051a565b82358281111561092b57600080fd5b610937878286016105d2565b82525060208301358281111561094c57600080fd5b610958878286016105d2565b60208301525060408301358281111561097057600080fd5b61097c878286016106ef565b60408301525060608301358281111561099457600080fd5b6109a0878286016107f4565b60608301525095945050505050565b6000602082840312156109c157600080fd5b81356109cc816107cf565b9392505050565b60005b838110156109ee5781810151838201526020016109d6565b50506000910152565b60008151808452610a0f8160208601602086016109d3565b601f017fffffffffffffffffffffffffffffffffffffffffffffffffffffffffffffffe0169290920160200192915050565b60006040830182516040855281815180845260608701915060608160051b88010193506020808401935060005b82811015610aba577fffffffffffffffffffffffffffffffffffffffffffffffffffffffffffffffa0898703018452610aa88686516109f7565b95509381019392810192600101610a6e565b508681015188860389830152805180875290820195600095508201935091505b81841015610afa5784518352938401936001939093019291820191610ada565b50909695505050505050565b600060208083528351608082850152610b2260a08501826109f7565b9050818501517fffffffffffffffffffffffffffffffffffffffffffffffffffffffffffffffe080868403016040870152610b5d83836109f7565b92506040870151915080868403016060870152610b7a8383610a41565b92506060870151915080868403016080870152506060820173ffffffffffffffffffffffffffffffffffffffff8083511684528085840151168585015250604082015191506060604084015280825180835260808501915060808160051b8601019250858401935060005b81811015610c31577fffffffffffffffffffffffffffffffffffffffffffffffffffffffffffffff80868503018352610c1f848651610a41565b94870194935091860191600101610be5565b509198975050505050505050565b6000610c4d6105f18461058c565b9050828152838383011115610c6157600080fd5b6109cc8360208301846109d3565b600082601f830112610c8057600080fd5b6109cc83835160208501610c3f565b600082601f830112610ca057600080fd5b81516020610cb06105f183610665565b82815260059290921b84018101918181019086841115610ccf57600080fd5b8286015b848110156106e45780518352918301918301610cd3565b60006040808385031215610cfd57600080fd5b610d056104ce565b9150825167ffffffffffffffff80821115610d1f57600080fd5b818501915085601f830112610d3357600080fd5b81516020610d436105f183610665565b82815260059290921b84018101918181019089841115610d6257600080fd5b8286015b84811015610dae57805186811115610d7e5760008081fd5b8701603f81018c13610d905760008081fd5b610da08c868301518b8401610c3f565b845250918301918301610d66565b5087525086810151945082851115610dc557600080fd5b610dd188868901610c8f565b81870152505050505092915050565b600060608284031215610df257600080fd5b610dfa6104f7565b90508151610e07816107cf565b8152602082810151610e18816107cf565b82820152604083015167ffffffffffffffff80821115610e3757600080fd5b818501915085601f830112610e4b57600080fd5b8151610e596105f182610665565b81815260059190911b83018401908481019088831115610e7857600080fd5b8585015b838110156108c457805185811115610e945760008081fd5b610ea28b89838a0101610cea565b845250918601918601610e7c565b600060208284031215610ec257600080fd5b815167ffffffffffffffff80821115610eda57600080fd5b9083019060808286031215610eee57600080fd5b610ef661051a565b825182811115610f0557600080fd5b610f1187828601610c6f565b825250602083015182811115610f2657600080fd5b610f3287828601610c6f565b602083015250604083015182811115610f4a57600080fd5b610f5687828601610cea565b604083015250606083015182811115610f6e57600080fd5b6109a087828601610de056fea26469706673582212206fd6ba2c1d35625402e5da9935d2e49e0c5e1ee65d2b4f15c73c92b616d046cd64736f6c6343000811003360806040523480156200001157600080fd5b506200001c62000022565b620000e4565b600054610100900460ff16156200008f5760405162461bcd60e51b815260206004820152602760248201527f496e697469616c697a61626c653a20636f6e747261637420697320696e697469604482015266616c697a696e6760c81b606482015260840160405180910390fd5b60005460ff9081161015620000e2576000805460ff191660ff9081179091556040519081527f7f26b83ff96e1f2b6a682f133852f6798a09c465da95921460cefb38474024989060200160405180910390a15b565b614cf580620000f46000396000f3fe6080604052600436106101485760003560e01c806370a08231116100c0578063a9059cbb11610074578063bc197c8111610059578063bc197c81146103e4578063dd62ed3e14610429578063f23a6e611461047d57600080fd5b8063a9059cbb14610397578063ac9650d8146103b757600080fd5b806395d89b41116100a557806395d89b411461034f578063a457c2d714610364578063a81db8f01461038457600080fd5b806370a08231146102de57806371a4ddab1461032257600080fd5b806318160ddd116101175780632f50e4be116100fc5780632f50e4be14610280578063313ce567146102a257806339509351146102be57600080fd5b806318160ddd1461024057806323b872dd1461026057600080fd5b806301ffc9a71461015457806306fdde0314610189578063095ea7b3146101ab578063150b7a02146101cb57600080fd5b3661014f57005b600080fd5b34801561016057600080fd5b5061017461016f366004613902565b6104c2565b60405190151581526020015b60405180910390f35b34801561019557600080fd5b5061019e61055b565b60405161018091906139b2565b3480156101b757600080fd5b506101746101c63660046139ea565b6105ee565b3480156101d757600080fd5b5061020f6101e6366004613b91565b7f150b7a0200000000000000000000000000000000000000000000000000000000949350505050565b6040517fffffffff000000000000000000000000000000000000000000000000000000009091168152602001610180565b34801561024c57600080fd5b50610163545b604051908152602001610180565b34801561026c57600080fd5b5061017461027b366004613bfd565b610606565b34801561028c57600080fd5b506102a061029b366004613e8f565b61062c565b005b3480156102ae57600080fd5b5060405160128152602001610180565b3480156102ca57600080fd5b506101746102d93660046139ea565b6108e7565b3480156102ea57600080fd5b506102526102f9366004613f68565b73ffffffffffffffffffffffffffffffffffffffff166000908152610161602052604090205490565b34801561032e57600080fd5b5061034261033d366004613f85565b610934565b6040516101809190614216565b34801561035b57600080fd5b5061019e610953565b34801561037057600080fd5b5061017461037f3660046139ea565b610963565b610342610392366004613f85565b610a40565b3480156103a357600080fd5b506101746103b23660046139ea565b610a5b565b3480156103c357600080fd5b506103d76103d2366004614337565b610a69565b6040516101809190614401565b3480156103f057600080fd5b5061020f6103ff366004614414565b7fbc197c810000000000000000000000000000000000000000000000000000000095945050505050565b34801561043557600080fd5b506102526104443660046144c2565b73ffffffffffffffffffffffffffffffffffffffff91821660009081526101626020908152604080832093909416825291909152205490565b34801561048957600080fd5b5061020f6104983660046144fb565b7ff23a6e610000000000000000000000000000000000000000000000000000000095945050505050565b60007fffffffff0000000000000000000000000000000000000000000000000000000082167f4e2312e000000000000000000000000000000000000000000000000000000000148061055557507f01ffc9a7000000000000000000000000000000000000000000000000000000007fffffffff000000000000000000000000000000000000000000000000000000008316145b92915050565b6060610164805461056b90614564565b80601f016020809104026020016040519081016040528092919081815260200182805461059790614564565b80156105e45780601f106105b9576101008083540402835291602001916105e4565b820191906000526020600020905b8154815290600101906020018083116105c757829003601f168201915b5050505050905090565b6000336105fc818585610b5e565b5060019392505050565b600033610614858285610d12565b61061f858585610dea565b60019150505b9392505050565b600054610100900460ff161580801561064c5750600054600160ff909116105b806106665750303b158015610666575060005460ff166001145b6106f7576040517f08c379a000000000000000000000000000000000000000000000000000000000815260206004820152602e60248201527f496e697469616c697a61626c653a20636f6e747261637420697320616c72656160448201527f647920696e697469616c697a656400000000000000000000000000000000000060648201526084015b60405180910390fd5b600080547fffffffffffffffffffffffffffffffffffffffffffffffffffffffffffffff00166001179055801561075557600080547fffffffffffffffffffffffffffffffffffffffffffffffffffffffffffff00ff166101001790555b7fe4fa4811d3444f99c056e3c3577b1c349bd70fb1a5719ccf5e76f8572fbca95f3383604051610786929190614615565b60405180910390a16107966110a5565b6107a882600001518360200151611146565b600082606001516000015173ffffffffffffffffffffffffffffffffffffffff16631ed061d984604001516107dd60016111e7565b6040518363ffffffff1660e01b81526004016107fa929190614752565b60408051808303816000875af1158015610818573d6000803e3d6000fd5b505050506040513d601f19601f8201168201806040525081019061083c9190614777565b509050602081901b77ffffffffffffffffffffffffffffffffffffffff000000001660011761019355606083015161087f9061087a600460026147d4565b611219565b5080156108e357600080547fffffffffffffffffffffffffffffffffffffffffffffffffffffffffffff00ff169055604051600181527f7f26b83ff96e1f2b6a682f133852f6798a09c465da95921460cefb38474024989060200160405180910390a15b5050565b3360008181526101626020908152604080832073ffffffffffffffffffffffffffffffffffffffff871684529091528120549091906105fc908290869061092f9087906147d4565b610b5e565b61093c6138b9565b60006109498585856114ec565b5095945050505050565b6060610165805461056b90614564565b3360008181526101626020908152604080832073ffffffffffffffffffffffffffffffffffffffff8716845290915281205490919083811015610a28576040517f08c379a000000000000000000000000000000000000000000000000000000000815260206004820152602560248201527f45524332303a2064656372656173656420616c6c6f77616e63652062656c6f7760448201527f207a65726f00000000000000000000000000000000000000000000000000000060648201526084016106ee565b610a358286868403610b5e565b506001949350505050565b610a486138b9565b610a5384848461160b565b949350505050565b6000336105fc818585610dea565b60608167ffffffffffffffff811115610a8457610a84613a16565b604051908082528060200260200182016040528015610ab757816020015b6060815260200190600190039081610aa25790505b50905060005b82811015610b5757610b2730858584818110610adb57610adb6147e7565b9050602002810190610aed9190614816565b8080601f0160208091040260200160405190810160405280939291908181526020018383808284376000920191909152506117a892505050565b828281518110610b3957610b396147e7565b60200260200101819052508080610b4f9061487b565b915050610abd565b5092915050565b73ffffffffffffffffffffffffffffffffffffffff8316610c00576040517f08c379a0000000000000000000000000000000000000000000000000000000008152602060048201526024808201527f45524332303a20617070726f76652066726f6d20746865207a65726f2061646460448201527f726573730000000000000000000000000000000000000000000000000000000060648201526084016106ee565b73ffffffffffffffffffffffffffffffffffffffff8216610ca3576040517f08c379a000000000000000000000000000000000000000000000000000000000815260206004820152602260248201527f45524332303a20617070726f766520746f20746865207a65726f20616464726560448201527f737300000000000000000000000000000000000000000000000000000000000060648201526084016106ee565b73ffffffffffffffffffffffffffffffffffffffff8381166000818152610162602090815260408083209487168084529482529182902085905590518481527f8c5be1e5ebec7d5bd14f71427d1e84f3dd0314c0f7b2291e5b200ac8c7c3b925910160405180910390a3505050565b73ffffffffffffffffffffffffffffffffffffffff838116600090815261016260209081526040808320938616835292905220547fffffffffffffffffffffffffffffffffffffffffffffffffffffffffffffffff8114610de45781811015610dd7576040517f08c379a000000000000000000000000000000000000000000000000000000000815260206004820152601d60248201527f45524332303a20696e73756666696369656e7420616c6c6f77616e636500000060448201526064016106ee565b610de48484848403610b5e565b50505050565b73ffffffffffffffffffffffffffffffffffffffff8316610e8d576040517f08c379a000000000000000000000000000000000000000000000000000000000815260206004820152602560248201527f45524332303a207472616e736665722066726f6d20746865207a65726f20616460448201527f647265737300000000000000000000000000000000000000000000000000000060648201526084016106ee565b73ffffffffffffffffffffffffffffffffffffffff8216610f30576040517f08c379a000000000000000000000000000000000000000000000000000000000815260206004820152602360248201527f45524332303a207472616e7366657220746f20746865207a65726f206164647260448201527f657373000000000000000000000000000000000000000000000000000000000060648201526084016106ee565b73ffffffffffffffffffffffffffffffffffffffff83166000908152610161602052604090205481811015610fe7576040517f08c379a000000000000000000000000000000000000000000000000000000000815260206004820152602660248201527f45524332303a207472616e7366657220616d6f756e742065786365656473206260448201527f616c616e6365000000000000000000000000000000000000000000000000000060648201526084016106ee565b73ffffffffffffffffffffffffffffffffffffffff8085166000908152610161602052604080822085850390559185168152908120805484929061102c9084906147d4565b925050819055508273ffffffffffffffffffffffffffffffffffffffff168473ffffffffffffffffffffffffffffffffffffffff167fddf252ad1be2c89b69c2b068fc378daa952ba7f163c4a11628f55a4df523b3ef8460405161109291815260200190565b60405180910390a3610de48484846118e7565b600054610100900460ff1661113c576040517f08c379a000000000000000000000000000000000000000000000000000000000815260206004820152602b60248201527f496e697469616c697a61626c653a20636f6e7472616374206973206e6f74206960448201527f6e697469616c697a696e6700000000000000000000000000000000000000000060648201526084016106ee565b611144611b5d565b565b600054610100900460ff166111dd576040517f08c379a000000000000000000000000000000000000000000000000000000000815260206004820152602b60248201527f496e697469616c697a61626c653a20636f6e7472616374206973206e6f74206960448201527f6e697469616c697a696e6700000000000000000000000000000000000000000060648201526084016106ee565b6108e38282611bfa565b604080516001808252818301909252606091600091906020808301908036833750505060208101939093525090919050565b600054610100900460ff166112b0576040517f08c379a000000000000000000000000000000000000000000000000000000000815260206004820152602b60248201527f496e697469616c697a61626c653a20636f6e7472616374206973206e6f74206960448201527f6e697469616c697a696e6700000000000000000000000000000000000000000060648201526084016106ee565b6112b8611cac565b6112c0611cac565b6112c8611cac565b6004811015611333576040517f08c379a000000000000000000000000000000000000000000000000000000000815260206004820152601560248201527f424144204d494e20535441434b53204c454e475448000000000000000000000060448201526064016106ee565b602082015161012d80547fffffffffffffffffffffffff00000000000000000000000000000000000000001673ffffffffffffffffffffffffffffffffffffffff90921691909117905560005b8260400151518110156114e7576000836000015173ffffffffffffffffffffffffffffffffffffffff16631ed061d9856040015184815181106113c5576113c56147e7565b60200260200101516113d6866111e7565b6040518363ffffffff1660e01b81526004016113f3929190614752565b60408051808303816000875af1158015611411573d6000803e3d6000fd5b505050506040513d601f19601f820116820180604052508101906114359190614777565b5090506000602082901b77ffffffffffffffffffffffffffffffffffffffff000000001661ffff17600081815261012e60209081526040918290206001905587810151825133815273ffffffffffffffffffffffffffffffffffffffff909116918101919091529081018290529091507f0392789afa55e5b564b41f5e52285c849fc771b31ccc0e222999b6de72bc55949060600160405180910390a1505080806114df9061487b565b915050611380565b505050565b6114f46138b9565b6060806114ff6138b9565b600080600061150f8a8a8a611d43565b60408051808201909152601881527f5241494e5f464c4f575f45524332305f53454e54494e454c00000000000000006020909101529194509250905061157882847ff339171dab445c29f9897dda2f42413426ee907dc7f8b52bd387bc7cf9384c6b600261211c565b80865260408051808201909152601881527f5241494e5f464c4f575f45524332305f53454e54494e454c0000000000000000602090910152955091506115e182847ff339171dab445c29f9897dda2f42413426ee907dc7f8b52bd387bc7cf9384c6b600261211c565b60208601819052955091506115f683836121ce565b60408501529299929850919650505050505050565b6116136138b9565b60026001540361167f576040517f08c379a000000000000000000000000000000000000000000000000000000000815260206004820152601f60248201527f5265656e7472616e637947756172643a207265656e7472616e742063616c6c0060448201526064016106ee565b60026001556000806116928686866114ec565b9150915060005b825151811015611701576116ef836000015182815181106116bc576116bc6147e7565b602002602001015160000151846000015183815181106116de576116de6147e7565b6020026020010151602001516123da565b806116f98161487b565b915050611699565b5060005b8260200151518110156117705761175e8360200151828151811061172b5761172b6147e7565b6020026020010151600001518460200151838151811061174d5761174d6147e7565b602002602001015160200151612504565b806117688161487b565b915050611705565b50604082015161012d5461179b919073ffffffffffffffffffffffffffffffffffffffff16836126fb565b5060018055949350505050565b606073ffffffffffffffffffffffffffffffffffffffff83163b61184e576040517f08c379a000000000000000000000000000000000000000000000000000000000815260206004820152602660248201527f416464726573733a2064656c65676174652063616c6c20746f206e6f6e2d636f60448201527f6e7472616374000000000000000000000000000000000000000000000000000060648201526084016106ee565b6000808473ffffffffffffffffffffffffffffffffffffffff168460405161187691906148b3565b600060405180830381855af49150503d80600081146118b1576040519150601f19603f3d011682016040523d82523d6000602084013e6118b6565b606091505b50915091506118de8282604051806060016040528060278152602001614c99602791396127ab565b95945050505050565b73ffffffffffffffffffffffffffffffffffffffff8316158061191e575073ffffffffffffffffffffffffffffffffffffffff8216155b6114e757600061195161194c3373ffffffffffffffffffffffffffffffffffffffff878116908716866127fe565b612841565b6101935461012d546040517f90e7d00b0000000000000000000000000000000000000000000000000000000081529293509091600091829173ffffffffffffffffffffffffffffffffffffffff909116906390e7d00b906119b890869088906004016148cf565b600060405180830381865afa1580156119d5573d6000803e3d6000fd5b505050506040513d6000823e601f3d9081017fffffffffffffffffffffffffffffffffffffffffffffffffffffffffffffffe0168201604052611a1b91908101906149b2565b915091506000611a5c611a3684805160209081029091010190565b7fffffffffffffffffffffffffffffffffffffffffffffffffffffffffffffffe0015190565b11611ac3576040517f08c379a000000000000000000000000000000000000000000000000000000000815260206004820152601060248201527f494e56414c49445f5452414e534645520000000000000000000000000000000060448201526064016106ee565b805115611b545761012d546040517fce0dd62800000000000000000000000000000000000000000000000000000000815273ffffffffffffffffffffffffffffffffffffffff9091169063ce0dd62890611b21908490600401614a16565b600060405180830381600087803b158015611b3b57600080fd5b505af1158015611b4f573d6000803e3d6000fd5b505050505b50505050505050565b600054610100900460ff16611bf4576040517f08c379a000000000000000000000000000000000000000000000000000000000815260206004820152602b60248201527f496e697469616c697a61626c653a20636f6e7472616374206973206e6f74206960448201527f6e697469616c697a696e6700000000000000000000000000000000000000000060648201526084016106ee565b60018055565b600054610100900460ff16611c91576040517f08c379a000000000000000000000000000000000000000000000000000000000815260206004820152602b60248201527f496e697469616c697a61626c653a20636f6e7472616374206973206e6f74206960448201527f6e697469616c697a696e6700000000000000000000000000000000000000000060648201526084016106ee565b610164611c9e8382614a77565b506101656114e78282614a77565b600054610100900460ff16611144576040517f08c379a000000000000000000000000000000000000000000000000000000000815260206004820152602b60248201527f496e697469616c697a61626c653a20636f6e7472616374206973206e6f74206960448201527f6e697469616c697a696e6700000000000000000000000000000000000000000060648201526084016106ee565b60008060606000611d54878761287f565b90506000855167ffffffffffffffff811115611d7257611d72613a16565b604051908082528060200260200182016040528015611d9b578160200160208202803683370190505b5090506000865160020167ffffffffffffffff811115611dbd57611dbd613a16565b604051908082528060200260200182016040528015611df057816020015b6060815260200190600190039081611ddb5790505b50905060005b8751811015611ff057878181518110611e1157611e116147e7565b60200260200101516000015173ffffffffffffffffffffffffffffffffffffffff16838281518110611e4557611e456147e7565b602002602001018181525050611f44888281518110611e6657611e666147e7565b602002602001015160000151611f218a8481518110611e8757611e876147e7565b602002602001015160400151604051602001611ea39190614b91565b604080517fffffffffffffffffffffffffffffffffffffffffffffffffffffffffffffffe081840301815282825280516020918201207f19457468657265756d205369676e6564204d6573736167653a0a33320000000084830152603c8085019190915282518085039091018152605c909301909152815191012090565b8a8481518110611f3357611f336147e7565b602002602001015160200151612902565b611faa576040517f08c379a000000000000000000000000000000000000000000000000000000000815260206004820152601160248201527f494e56414c49445f5349474e415455524500000000000000000000000000000060448201526064016106ee565b878181518110611fbc57611fbc6147e7565b602002602001015160400151828260020181518110611fdd57611fdd6147e7565b6020908102919091010152600101611df6565b508281600081518110612005576120056147e7565b60200260200101819052508181600181518110612024576120246147e7565b602090810291909101015261012d546040517f90e7d00b00000000000000000000000000000000000000000000000000000000815273ffffffffffffffffffffffffffffffffffffffff90911690600090819083906390e7d00b9061208f908f9088906004016148cf565b600060405180830381865afa1580156120ac573d6000803e3d6000fd5b505050506040513d6000823e601f3d9081017fffffffffffffffffffffffffffffffffffffffffffffffffffffffffffffffe01682016040526120f291908101906149b2565b915091506121008260200190565b8251909d6020918202909301019b509950975050505050505050565b600060608061212d87878787612acf565b80519198509150600090612142908690614bc7565b905060008167ffffffffffffffff81111561215f5761215f613a16565b604051908082528060200260200182016040528015612188578160200160208202803683370190505b5090506020810160208302810160208501602089025b828410156121b8578184526020909301929081019061219e565b508b975092955050505050505b94509492505050565b6121f96040518060800160405280606081526020016060815260200160608152602001606081525090565b6122246040518060800160405280606081526020016060815260200160608152602001606081525090565b60408051808201909152601281527f5241494e5f464c4f575f53454e54494e454c0000000000000000000000000000602090910152606061228884867ffea74d0c9bf4a3c28f0dd0674db22a3d7f8bf259c56af19f4ac1e735b156974f600361211c565b80845260408051808201909152601281527f5241494e5f464c4f575f53454e54494e454c000000000000000000000000000060209091015290945090506122f284867ffea74d0c9bf4a3c28f0dd0674db22a3d7f8bf259c56af19f4ac1e735b156974f600461211c565b602084810182905260408051808201909152601281527f5241494e5f464c4f575f53454e54494e454c0000000000000000000000000000910152909450905061235e84867ffea74d0c9bf4a3c28f0dd0674db22a3d7f8bf259c56af19f4ac1e735b156974f600461211c565b60408481018290528051808201909152601281527f5241494e5f464c4f575f53454e54494e454c000000000000000000000000000060209091015290945090506123cb84867ffea74d0c9bf4a3c28f0dd0674db22a3d7f8bf259c56af19f4ac1e735b156974f600561211c565b60608401525090949350505050565b73ffffffffffffffffffffffffffffffffffffffff8216612457576040517f08c379a000000000000000000000000000000000000000000000000000000000815260206004820152601f60248201527f45524332303a206d696e7420746f20746865207a65726f20616464726573730060448201526064016106ee565b80610163600082825461246a91906147d4565b909155505073ffffffffffffffffffffffffffffffffffffffff821660009081526101616020526040812080548392906124a59084906147d4565b909155505060405181815273ffffffffffffffffffffffffffffffffffffffff8316906000907fddf252ad1be2c89b69c2b068fc378daa952ba7f163c4a11628f55a4df523b3ef9060200160405180910390a36108e3600083836118e7565b73ffffffffffffffffffffffffffffffffffffffff82166125a7576040517f08c379a000000000000000000000000000000000000000000000000000000000815260206004820152602160248201527f45524332303a206275726e2066726f6d20746865207a65726f2061646472657360448201527f730000000000000000000000000000000000000000000000000000000000000060648201526084016106ee565b73ffffffffffffffffffffffffffffffffffffffff8216600090815261016160205260409020548181101561265e576040517f08c379a000000000000000000000000000000000000000000000000000000000815260206004820152602260248201527f45524332303a206275726e20616d6f756e7420657863656564732062616c616e60448201527f636500000000000000000000000000000000000000000000000000000000000060648201526084016106ee565b73ffffffffffffffffffffffffffffffffffffffff83166000908152610161602052604081208383039055610163805484929061269c908490614c02565b909155505060405182815260009073ffffffffffffffffffffffffffffffffffffffff8516907fddf252ad1be2c89b69c2b068fc378daa952ba7f163c4a11628f55a4df523b3ef9060200160405180910390a36114e7836000846118e7565b805115612787576040517fce0dd62800000000000000000000000000000000000000000000000000000000815273ffffffffffffffffffffffffffffffffffffffff83169063ce0dd62890612754908490600401614a16565b600060405180830381600087803b15801561276e57600080fd5b505af1158015612782573d6000803e3d6000fd5b505050505b61279083612b2f565b61279983612d5d565b6127a283612eeb565b6114e7836130a8565b606083156127ba575081610625565b8251156127ca5782518084602001fd5b816040517f08c379a00000000000000000000000000000000000000000000000000000000081526004016106ee91906139b2565b60408051600480825260a0820190925260609160009190602082016080803683375050506020810196909652505060408401929092526060830152608082015290565b60408051600180825281830190925260609160009190816020015b606081526020019060019003908161285c57505060208101939093525090919050565b600082815261012e60205260409020546060906128f8576040517f08c379a000000000000000000000000000000000000000000000000000000000815260206004820152601160248201527f554e524547495354455245445f464c4f5700000000000000000000000000000060448201526064016106ee565b6106253383613284565b600080600061291185856132b8565b9092509050600081600481111561292a5761292a614c15565b14801561296257508573ffffffffffffffffffffffffffffffffffffffff168273ffffffffffffffffffffffffffffffffffffffff16145b1561297257600192505050610625565b6000808773ffffffffffffffffffffffffffffffffffffffff16631626ba7e60e01b88886040516024016129a7929190614c44565b604080517fffffffffffffffffffffffffffffffffffffffffffffffffffffffffffffffe08184030181529181526020820180517bffffffffffffffffffffffffffffffffffffffffffffffffffffffff167fffffffff00000000000000000000000000000000000000000000000000000000909416939093179092529051612a3091906148b3565b600060405180830381855afa9150503d8060008114612a6b576040519150601f19603f3d011682016040523d82523d6000602084013e612a70565b606091505b5091509150818015612a83575080516020145b8015612ac3575080517f1626ba7e0000000000000000000000000000000000000000000000000000000090612ac19083016020908101908401614c5d565b145b98975050505050505050565b600060608085612ade57600080fd5b6000806020860260208a039950602089035b808b1115612b16578a518903612b08578a9350612b16565b998190039991870191612af0565b505081612b2257600080fd5b8152969795505050505050565b60408051606081018252600080825260208201819052918101829052819060005b845151811015612d3e578451805182908110612b6e57612b6e6147e7565b602002602001015191503373ffffffffffffffffffffffffffffffffffffffff16826000015173ffffffffffffffffffffffffffffffffffffffff1603612c4057602082015173ffffffffffffffffffffffffffffffffffffffff163014612c32576040517f08c379a000000000000000000000000000000000000000000000000000000000815260206004820152601760248201527f554e535550504f525445445f4e41544956455f464c4f5700000000000000000060448201526064016106ee565b816040015184019350612d36565b815173ffffffffffffffffffffffffffffffffffffffff163014612cc0576040517f08c379a000000000000000000000000000000000000000000000000000000000815260206004820152601760248201527f554e535550504f525445445f4e41544956455f464c4f5700000000000000000060448201526064016106ee565b3373ffffffffffffffffffffffffffffffffffffffff16826020015173ffffffffffffffffffffffffffffffffffffffff1603612d0557816040015183019250612d36565b612d368260400151836020015173ffffffffffffffffffffffffffffffffffffffff166132fd90919063ffffffff16565b600101612b50565b508215612d4d57823403820191505b8115610de457610de433836132fd565b6040805160808101825260008082526020820181905291810182905260608101829052905b8260200151518110156114e75782602001518181518110612da557612da56147e7565b602002602001015191503373ffffffffffffffffffffffffffffffffffffffff16826020015173ffffffffffffffffffffffffffffffffffffffff1603612e1c57604082015160608301518351612e179273ffffffffffffffffffffffffffffffffffffffff90911691339190613457565b612ee3565b3073ffffffffffffffffffffffffffffffffffffffff16826020015173ffffffffffffffffffffffffffffffffffffffff1603612e8157604082015160608301518351612e179273ffffffffffffffffffffffffffffffffffffffff90911691613533565b6040517f08c379a000000000000000000000000000000000000000000000000000000000815260206004820152601660248201527f554e535550504f525445445f45524332305f464c4f570000000000000000000060448201526064016106ee565b600101612d82565b6040805160808101825260008082526020820181905291810182905260608101829052905b8260400151518110156114e75782604001518181518110612f3357612f336147e7565b602002602001015191503373ffffffffffffffffffffffffffffffffffffffff16826020015173ffffffffffffffffffffffffffffffffffffffff161480612f945750602082015173ffffffffffffffffffffffffffffffffffffffff1630145b612ffa576040517f08c379a000000000000000000000000000000000000000000000000000000000815260206004820152601760248201527f554e535550504f525445445f4552433732315f464c4f5700000000000000000060448201526064016106ee565b81516020830151604080850151606086015191517f42842e0e00000000000000000000000000000000000000000000000000000000815273ffffffffffffffffffffffffffffffffffffffff9384166004820152908316602482015260448101919091529116906342842e0e90606401600060405180830381600087803b15801561308457600080fd5b505af1158015613098573d6000803e3d6000fd5b505060019092019150612f109050565b6040805160a0810182526000808252602082018190529181018290526060810182905260808101829052905b8260600151518110156114e757826060015181815181106130f7576130f76147e7565b602002602001015191503373ffffffffffffffffffffffffffffffffffffffff16826020015173ffffffffffffffffffffffffffffffffffffffff1614806131585750602082015173ffffffffffffffffffffffffffffffffffffffff1630145b6131be576040517f08c379a000000000000000000000000000000000000000000000000000000000815260206004820152601860248201527f554e535550504f525445445f455243313135355f464c4f57000000000000000060448201526064016106ee565b815160208301516040808501516060860151608087015192517ff242432a00000000000000000000000000000000000000000000000000000000815273ffffffffffffffffffffffffffffffffffffffff948516600482015291841660248301526044820152606481019190915260a06084820152600060a482015291169063f242432a9060c401600060405180830381600087803b15801561326057600080fd5b505af1158015613274573d6000803e3d6000fd5b5050600190920191506130d49050565b6040805160028082526060808301845292600092919060208301908036833750505060208101949094525050604082015290565b60008082516041036132ee5760208301516040840151606085015160001a6132e287828585613589565b945094505050506132f6565b506000905060025b9250929050565b80471015613367576040517f08c379a000000000000000000000000000000000000000000000000000000000815260206004820152601d60248201527f416464726573733a20696e73756666696369656e742062616c616e636500000060448201526064016106ee565b60008273ffffffffffffffffffffffffffffffffffffffff168260405160006040518083038185875af1925050503d80600081146133c1576040519150601f19603f3d011682016040523d82523d6000602084013e6133c6565b606091505b50509050806114e7576040517f08c379a000000000000000000000000000000000000000000000000000000000815260206004820152603a60248201527f416464726573733a20756e61626c6520746f2073656e642076616c75652c207260448201527f6563697069656e74206d6179206861766520726576657274656400000000000060648201526084016106ee565b60405173ffffffffffffffffffffffffffffffffffffffff80851660248301528316604482015260648101829052610de49085907f23b872dd00000000000000000000000000000000000000000000000000000000906084015b604080517fffffffffffffffffffffffffffffffffffffffffffffffffffffffffffffffe08184030181529190526020810180517bffffffffffffffffffffffffffffffffffffffffffffffffffffffff167fffffffff000000000000000000000000000000000000000000000000000000009093169290921790915261369e565b60405173ffffffffffffffffffffffffffffffffffffffff83166024820152604481018290526114e79084907fa9059cbb00000000000000000000000000000000000000000000000000000000906064016134b1565b6000807f7fffffffffffffffffffffffffffffff5d576e7357a4501ddfe92f46681b20a08311156135c057506000905060036121c5565b8460ff16601b141580156135d857508460ff16601c14155b156135e957506000905060046121c5565b6040805160008082526020820180845289905260ff881692820192909252606081018690526080810185905260019060a0016020604051602081039080840390855afa15801561363d573d6000803e3d6000fd5b50506040517fffffffffffffffffffffffffffffffffffffffffffffffffffffffffffffffe0015191505073ffffffffffffffffffffffffffffffffffffffff8116613691576000600192509250506121c5565b9660009650945050505050565b6000613700826040518060400160405280602081526020017f5361666545524332303a206c6f772d6c6576656c2063616c6c206661696c65648152508573ffffffffffffffffffffffffffffffffffffffff166137aa9092919063ffffffff16565b8051909150156114e7578080602001905181019061371e9190614c76565b6114e7576040517f08c379a000000000000000000000000000000000000000000000000000000000815260206004820152602a60248201527f5361666545524332303a204552433230206f7065726174696f6e20646964206e60448201527f6f7420737563636565640000000000000000000000000000000000000000000060648201526084016106ee565b6060610a5384846000858573ffffffffffffffffffffffffffffffffffffffff85163b613833576040517f08c379a000000000000000000000000000000000000000000000000000000000815260206004820152601d60248201527f416464726573733a2063616c6c20746f206e6f6e2d636f6e747261637400000060448201526064016106ee565b6000808673ffffffffffffffffffffffffffffffffffffffff16858760405161385c91906148b3565b60006040518083038185875af1925050503d8060008114613899576040519150601f19603f3d011682016040523d82523d6000602084013e61389e565b606091505b50915091506138ae8282866127ab565b979650505050505050565b604051806060016040528060608152602001606081526020016138fd6040518060800160405280606081526020016060815260200160608152602001606081525090565b905290565b60006020828403121561391457600080fd5b81357fffffffff000000000000000000000000000000000000000000000000000000008116811461062557600080fd5b60005b8381101561395f578181015183820152602001613947565b50506000910152565b60008151808452613980816020860160208601613944565b601f017fffffffffffffffffffffffffffffffffffffffffffffffffffffffffffffffe0169290920160200192915050565b6020815260006106256020830184613968565b73ffffffffffffffffffffffffffffffffffffffff811681146139e757600080fd5b50565b600080604083850312156139fd57600080fd5b8235613a08816139c5565b946020939093013593505050565b7f4e487b7100000000000000000000000000000000000000000000000000000000600052604160045260246000fd5b6040805190810167ffffffffffffffff81118282101715613a6857613a68613a16565b60405290565b6040516060810167ffffffffffffffff81118282101715613a6857613a68613a16565b6040516080810167ffffffffffffffff81118282101715613a6857613a68613a16565b604051601f82017fffffffffffffffffffffffffffffffffffffffffffffffffffffffffffffffe016810167ffffffffffffffff81118282101715613afb57613afb613a16565b604052919050565b600082601f830112613b1457600080fd5b813567ffffffffffffffff811115613b2e57613b2e613a16565b613b5f60207fffffffffffffffffffffffffffffffffffffffffffffffffffffffffffffffe0601f84011601613ab4565b818152846020838601011115613b7457600080fd5b816020850160208301376000918101602001919091529392505050565b60008060008060808587031215613ba757600080fd5b8435613bb2816139c5565b93506020850135613bc2816139c5565b925060408501359150606085013567ffffffffffffffff811115613be557600080fd5b613bf187828801613b03565b91505092959194509250565b600080600060608486031215613c1257600080fd5b8335613c1d816139c5565b92506020840135613c2d816139c5565b929592945050506040919091013590565b600067ffffffffffffffff821115613c5857613c58613a16565b5060051b60200190565b600082601f830112613c7357600080fd5b81356020613c88613c8383613c3e565b613ab4565b82815260059290921b84018101918181019086841115613ca757600080fd5b8286015b84811015613cc25780358352918301918301613cab565b509695505050505050565b600060408284031215613cdf57600080fd5b613ce7613a45565b9050813567ffffffffffffffff80821115613d0157600080fd5b818401915084601f830112613d1557600080fd5b81356020613d25613c8383613c3e565b82815260059290921b84018101918181019088841115613d4457600080fd5b8286015b84811015613d7c57803586811115613d605760008081fd5b613d6e8b86838b0101613b03565b845250918301918301613d48565b5086525085810135935082841115613d9357600080fd5b613d9f87858801613c62565b818601525050505092915050565b600060608284031215613dbf57600080fd5b613dc7613a6e565b90508135613dd4816139c5565b8152602082810135613de5816139c5565b82820152604083013567ffffffffffffffff80821115613e0457600080fd5b818501915085601f830112613e1857600080fd5b8135613e26613c8382613c3e565b81815260059190911b83018401908481019088831115613e4557600080fd5b8585015b83811015613e7d57803585811115613e615760008081fd5b613e6f8b89838a0101613ccd565b845250918601918601613e49565b50604087015250939695505050505050565b600060208284031215613ea157600080fd5b813567ffffffffffffffff80821115613eb957600080fd5b9083019060808286031215613ecd57600080fd5b613ed5613a91565b823582811115613ee457600080fd5b613ef087828601613b03565b825250602083013582811115613f0557600080fd5b613f1187828601613b03565b602083015250604083013582811115613f2957600080fd5b613f3587828601613ccd565b604083015250606083013582811115613f4d57600080fd5b613f5987828601613dad565b60608301525095945050505050565b600060208284031215613f7a57600080fd5b8135610625816139c5565b600080600060608486031215613f9a57600080fd5b833592506020808501359250604085013567ffffffffffffffff80821115613fc157600080fd5b818701915087601f830112613fd557600080fd5b8135613fe3613c8382613c3e565b81815260059190911b8301840190848101908a83111561400257600080fd5b8585015b838110156140c55780358581111561401e5760008081fd5b86016060818e037fffffffffffffffffffffffffffffffffffffffffffffffffffffffffffffffe00112156140535760008081fd5b61405b613a6e565b88820135614068816139c5565b815260408201358781111561407d5760008081fd5b61408b8f8b83860101613b03565b8a830152506060820135878111156140a35760008081fd5b6140b18f8b83860101613c62565b604083015250845250918601918601614006565b508096505050505050509250925092565b600081518084526020808501945080840160005b83811015614127578151805173ffffffffffffffffffffffffffffffffffffffff16885283015183880152604090960195908201906001016140ea565b509495945050505050565b600081518084526020808501945080840160005b83811015614127578151805173ffffffffffffffffffffffffffffffffffffffff9081168952848201518116858a0152604080830151909116908901526060908101519088015260809096019590820190600101614146565b600081518084526020808501945080840160005b83811015614127578151805173ffffffffffffffffffffffffffffffffffffffff9081168952848201518116858a015260408083015190911690890152606080820151908901526080908101519088015260a090960195908201906001016141b3565b6000602080835283516060808386015261423360808601836140d6565b9150828601517fffffffffffffffffffffffffffffffffffffffffffffffffffffffffffffffe0604081888603018189015261426f85846140d6565b89820151898203909301858a01528251608080835281519083018190529196509293509186019160009060a08701905b808310156142e9578451805173ffffffffffffffffffffffffffffffffffffffff90811684528a820151168a8401528401518483015293880193600192909201919086019061429f565b50878501519350868103888801526143018185614132565b97505050808301519150848603818601525061431d8582614132565b945050818101519050828403828401526138ae848261419f565b6000806020838503121561434a57600080fd5b823567ffffffffffffffff8082111561436257600080fd5b818501915085601f83011261437657600080fd5b81358181111561438557600080fd5b8660208260051b850101111561439a57600080fd5b60209290920196919550909350505050565b600081518084526020808501808196508360051b8101915082860160005b858110156143f45782840389526143e2848351613968565b988501989350908401906001016143ca565b5091979650505050505050565b60208152600061062560208301846143ac565b600080600080600060a0868803121561442c57600080fd5b8535614437816139c5565b94506020860135614447816139c5565b9350604086013567ffffffffffffffff8082111561446457600080fd5b61447089838a01613c62565b9450606088013591508082111561448657600080fd5b61449289838a01613c62565b935060808801359150808211156144a857600080fd5b506144b588828901613b03565b9150509295509295909350565b600080604083850312156144d557600080fd5b82356144e0816139c5565b915060208301356144f0816139c5565b809150509250929050565b600080600080600060a0868803121561451357600080fd5b853561451e816139c5565b9450602086013561452e816139c5565b93506040860135925060608601359150608086013567ffffffffffffffff81111561455857600080fd5b6144b588828901613b03565b600181811c9082168061457857607f821691505b6020821081036145b1577f4e487b7100000000000000000000000000000000000000000000000000000000600052602260045260246000fd5b50919050565b600081518084526020808501945080840160005b83811015614127578151875295820195908201906001016145cb565b60008151604084526145fc60408501826143ac565b9050602083015184820360208601526118de82826145b7565b600073ffffffffffffffffffffffffffffffffffffffff8085168352602060408185015284516080604086015261464f60c0860182613968565b9050818601517fffffffffffffffffffffffffffffffffffffffffffffffffffffffffffffffc08087840301606088015261468a8383613968565b925060408801519150808784030160808801526146a783836145e7565b60608981015189830390930160a08a0152825187168252858301519096168582015260409182015191810186905281519581018690529084019490925060808084019250600582901b8401019060005b81811015614743577fffffffffffffffffffffffffffffffffffffffffffffffffffffffffffffff808584030184526147318388516145e7565b968601969386019392506001016146f7565b50909998505050505050505050565b60408152600061476560408301856145e7565b82810360208401526118de81856145b7565b6000806040838503121561478a57600080fd5b8251614795816139c5565b6020939093015192949293505050565b7f4e487b7100000000000000000000000000000000000000000000000000000000600052601160045260246000fd5b80820180821115610555576105556147a5565b7f4e487b7100000000000000000000000000000000000000000000000000000000600052603260045260246000fd5b60008083357fffffffffffffffffffffffffffffffffffffffffffffffffffffffffffffffe184360301811261484b57600080fd5b83018035915067ffffffffffffffff82111561486657600080fd5b6020019150368190038213156132f657600080fd5b60007fffffffffffffffffffffffffffffffffffffffffffffffffffffffffffffffff82036148ac576148ac6147a5565b5060010190565b600082516148c5818460208701613944565b9190910192915050565b600060408201848352602060408185015281855180845260608601915060608160051b870101935082870160005b82811015614949577fffffffffffffffffffffffffffffffffffffffffffffffffffffffffffffffa08887030184526149378683516145b7565b955092840192908401906001016148fd565b509398975050505050505050565b600082601f83011261496857600080fd5b81516020614978613c8383613c3e565b82815260059290921b8401810191818101908684111561499757600080fd5b8286015b84811015613cc2578051835291830191830161499b565b600080604083850312156149c557600080fd5b825167ffffffffffffffff808211156149dd57600080fd5b6149e986838701614957565b935060208501519150808211156149ff57600080fd5b50614a0c85828601614957565b9150509250929050565b60208152600061062560208301846145b7565b601f8211156114e757600081815260208120601f850160051c81016020861015614a505750805b601f850160051c820191505b81811015614a6f57828155600101614a5c565b505050505050565b815167ffffffffffffffff811115614a9157614a91613a16565b614aa581614a9f8454614564565b84614a29565b602080601f831160018114614af85760008415614ac25750858301515b7fffffffffffffffffffffffffffffffffffffffffffffffffffffffffffffffff600386901b1c1916600185901b178555614a6f565b6000858152602081207fffffffffffffffffffffffffffffffffffffffffffffffffffffffffffffffe08616915b82811015614b4557888601518255948401946001909101908401614b26565b5085821015614b8157878501517fffffffffffffffffffffffffffffffffffffffffffffffffffffffffffffffff600388901b60f8161c191681555b5050505050600190811b01905550565b815160009082906020808601845b83811015614bbb57815185529382019390820190600101614b9f565b50929695505050505050565b600082614bfd577f4e487b7100000000000000000000000000000000000000000000000000000000600052601260045260246000fd5b500490565b81810381811115610555576105556147a5565b7f4e487b7100000000000000000000000000000000000000000000000000000000600052602160045260246000fd5b828152604060208201526000610a536040830184613968565b600060208284031215614c6f57600080fd5b5051919050565b600060208284031215614c8857600080fd5b8151801515811461062557600080fdfe416464726573733a206c6f772d6c6576656c2064656c65676174652063616c6c206661696c6564a264697066735822122061b79c68ae8a6a2514501b533500f3ba195187849fd2dc4f17ad0c4014c106a664736f6c63430008110033",
  "linkReferences": {},
  "deployedLinkReferences": {}
}