{
  "_format": "hh-sol-artifact-1",
  "contractName": "FlowERC20Factory",
  "sourceName": "contracts/flow/erc20/FlowERC20Factory.sol",
  "abi": [
    {
      "inputs": [],
      "stateMutability": "nonpayable",
      "type": "constructor"
    },
    {
      "inputs": [
        {
          "internalType": "address",
          "name": "child",
          "type": "address"
        }
      ],
      "name": "DuplicateChild",
      "type": "error"
    },
    {
      "anonymous": false,
      "inputs": [
        {
          "indexed": false,
          "internalType": "address",
          "name": "sender",
          "type": "address"
        },
        {
          "indexed": false,
          "internalType": "address",
          "name": "implementation",
          "type": "address"
        }
      ],
      "name": "Implementation",
      "type": "event"
    },
    {
      "anonymous": false,
      "inputs": [
        {
          "indexed": false,
          "internalType": "uint8",
          "name": "version",
          "type": "uint8"
        }
      ],
      "name": "Initialized",
      "type": "event"
    },
    {
      "anonymous": false,
      "inputs": [
        {
          "indexed": false,
          "internalType": "address",
          "name": "sender",
          "type": "address"
        },
        {
          "indexed": false,
          "internalType": "address",
          "name": "child",
          "type": "address"
        }
      ],
      "name": "NewChild",
      "type": "event"
    },
    {
      "inputs": [
        {
          "internalType": "bytes",
          "name": "data_",
          "type": "bytes"
        }
      ],
      "name": "createChild",
      "outputs": [
        {
          "internalType": "address",
          "name": "",
          "type": "address"
        }
      ],
      "stateMutability": "nonpayable",
      "type": "function"
    },
    {
      "inputs": [
        {
          "components": [
            {
              "internalType": "string",
              "name": "name",
              "type": "string"
            },
            {
              "internalType": "string",
              "name": "symbol",
              "type": "string"
            },
            {
              "components": [
                {
                  "internalType": "contract IExpressionDeployerV1",
                  "name": "deployer",
                  "type": "address"
                },
                {
                  "internalType": "contract IInterpreterV1",
                  "name": "interpreter",
                  "type": "address"
                },
                {
                  "internalType": "contract IInterpreterStoreV1",
                  "name": "store",
                  "type": "address"
                },
                {
                  "components": [
                    {
                      "internalType": "bytes[]",
                      "name": "sources",
                      "type": "bytes[]"
                    },
                    {
                      "internalType": "uint256[]",
                      "name": "constants",
                      "type": "uint256[]"
                    }
                  ],
                  "internalType": "struct ExpressionConfig",
                  "name": "expressionConfig",
                  "type": "tuple"
                }
              ],
              "internalType": "struct EvaluableConfig",
              "name": "evaluableConfig",
              "type": "tuple"
            },
            {
              "components": [
                {
                  "internalType": "contract IExpressionDeployerV1",
                  "name": "deployer",
                  "type": "address"
                },
                {
                  "internalType": "contract IInterpreterV1",
                  "name": "interpreter",
                  "type": "address"
                },
                {
                  "internalType": "contract IInterpreterStoreV1",
                  "name": "store",
                  "type": "address"
                },
                {
                  "components": [
                    {
                      "internalType": "bytes[]",
                      "name": "sources",
                      "type": "bytes[]"
                    },
                    {
                      "internalType": "uint256[]",
                      "name": "constants",
                      "type": "uint256[]"
                    }
                  ],
                  "internalType": "struct ExpressionConfig",
                  "name": "expressionConfig",
                  "type": "tuple"
                }
              ],
              "internalType": "struct EvaluableConfig[]",
              "name": "flowConfig",
              "type": "tuple[]"
            }
          ],
          "internalType": "struct FlowERC20Config",
          "name": "config_",
          "type": "tuple"
        }
      ],
      "name": "createChildTyped",
      "outputs": [
        {
          "internalType": "contract FlowERC20",
          "name": "",
          "type": "address"
        }
      ],
      "stateMutability": "nonpayable",
      "type": "function"
    },
    {
      "inputs": [],
      "name": "implementation",
      "outputs": [
        {
          "internalType": "address",
          "name": "",
          "type": "address"
        }
      ],
      "stateMutability": "view",
      "type": "function"
    },
    {
      "inputs": [
        {
          "internalType": "address",
          "name": "maybeChild_",
          "type": "address"
        }
      ],
      "name": "isChild",
      "outputs": [
        {
          "internalType": "bool",
          "name": "",
          "type": "bool"
        }
      ],
      "stateMutability": "view",
      "type": "function"
    }
  ],
  "bytecode": "0x60a060405234801561001057600080fd5b50610019610099565b600060405161002790610159565b604051809103906000f080158015610043573d6000803e3d6000fd5b50604080513381526001600160a01b03831660208201529192507f7fac34ecf0b1b374cd9659e3d17db602659d53f1162b1f20142e6c02694aed70910160405180910390a16001600160a01b0316608052610167565b600054610100900460ff16156101055760405162461bcd60e51b815260206004820152602760248201527f496e697469616c697a61626c653a20636f6e747261637420697320696e697469604482015266616c697a696e6760c81b606482015260840160405180910390fd5b60005460ff9081161015610157576000805460ff191660ff9081179091556040519081527f7f26b83ff96e1f2b6a682f133852f6798a09c465da95921460cefb38474024989060200160405180910390a15b565b614f4c80620010fc83390190565b608051610f736200018960003960008181609301526103020152610f736000f3fe608060405234801561001057600080fd5b506004361061004c5760003560e01c80632ea72a49146100515780635c60da1b1461008e578063cbd7a26b146100b5578063fc91a897146100c8575b600080fd5b61006461005f3660046105de565b610111565b60405173ffffffffffffffffffffffffffffffffffffffff90911681526020015b60405180910390f35b6100647f000000000000000000000000000000000000000000000000000000000000000081565b6100646100c336600461088d565b61023f565b6101016100d6366004610966565b73ffffffffffffffffffffffffffffffffffffffff1660009081526033602052604090205460ff1690565b6040519015158152602001610085565b600061011b61026f565b6000610126836102e2565b73ffffffffffffffffffffffffffffffffffffffff811660009081526033602052604090205490915060ff16156101a6576040517fd23867da00000000000000000000000000000000000000000000000000000000815273ffffffffffffffffffffffffffffffffffffffff821660048201526024015b60405180910390fd5b73ffffffffffffffffffffffffffffffffffffffff811660008181526033602090815260409182902080547fffffffffffffffffffffffffffffffffffffffffffffffffffffffffffffff001660011790558151338152908101929092527f7da70c4e5387d7038610b79ca7d304caaef815826e51e67cf247135387a79bce910160405180910390a1905061023a60018055565b919050565b6000610269826040516020016102559190610b16565b604051602081830303815290604052610111565b92915050565b6002600154036102db576040517f08c379a000000000000000000000000000000000000000000000000000000000815260206004820152601f60248201527f5265656e7472616e637947756172643a207265656e7472616e742063616c6c00604482015260640161019d565b6002600155565b600080828060200190518101906102f99190610e73565b905060006103267f00000000000000000000000000000000000000000000000000000000000000006103b5565b6040517fc33c041800000000000000000000000000000000000000000000000000000000815290915073ffffffffffffffffffffffffffffffffffffffff82169063c33c04189061037b908590600401610b16565b600060405180830381600087803b15801561039557600080fd5b505af11580156103a9573d6000803e3d6000fd5b50929695505050505050565b6000763d602d80600a3d3981f3363d3d373d3d3d363d730000008260601b60e81c176000526e5af43d82803e903d91602b57fd5bf38260781b17602052603760096000f0905073ffffffffffffffffffffffffffffffffffffffff811661023a576040517f08c379a000000000000000000000000000000000000000000000000000000000815260206004820152601660248201527f455243313136373a20637265617465206661696c656400000000000000000000604482015260640161019d565b7f4e487b7100000000000000000000000000000000000000000000000000000000600052604160045260246000fd5b6040516080810167ffffffffffffffff811182821017156104ca576104ca610478565b60405290565b6040805190810167ffffffffffffffff811182821017156104ca576104ca610478565b604051601f82017fffffffffffffffffffffffffffffffffffffffffffffffffffffffffffffffe016810167ffffffffffffffff8111828210171561053a5761053a610478565b604052919050565b600067ffffffffffffffff82111561055c5761055c610478565b50601f017fffffffffffffffffffffffffffffffffffffffffffffffffffffffffffffffe01660200190565b600082601f83011261059957600080fd5b81356105ac6105a782610542565b6104f3565b8181528460208386010111156105c157600080fd5b816020850160208301376000918101602001919091529392505050565b6000602082840312156105f057600080fd5b813567ffffffffffffffff81111561060757600080fd5b61061384828501610588565b949350505050565b73ffffffffffffffffffffffffffffffffffffffff8116811461063d57600080fd5b50565b600067ffffffffffffffff82111561065a5761065a610478565b5060051b60200190565b600082601f83011261067557600080fd5b813560206106856105a783610640565b82815260059290921b840181019181810190868411156106a457600080fd5b8286015b848110156106bf57803583529183019183016106a8565b509695505050505050565b6000608082840312156106dc57600080fd5b6106e46104a7565b905081356106f18161061b565b81526020828101356107028161061b565b8282015260408301356107148161061b565b6040830152606083013567ffffffffffffffff8082111561073457600080fd5b908401906040828703121561074857600080fd5b6107506104d0565b82358281111561075f57600080fd5b8301601f8101881361077057600080fd5b803561077e6105a782610640565b81815260059190911b8201860190868101908a83111561079d57600080fd5b8784015b838110156107d5578035878111156107b95760008081fd5b6107c78d8b83890101610588565b8452509188019188016107a1565b50845250505082840135828111156107ec57600080fd5b6107f888828601610664565b85830152508060608601525050505092915050565b600082601f83011261081e57600080fd5b8135602061082e6105a783610640565b82815260059290921b8401810191818101908684111561084d57600080fd5b8286015b848110156106bf57803567ffffffffffffffff8111156108715760008081fd5b61087f8986838b01016106ca565b845250918301918301610851565b60006020828403121561089f57600080fd5b813567ffffffffffffffff808211156108b757600080fd5b90830190608082860312156108cb57600080fd5b6108d36104a7565b8235828111156108e257600080fd5b6108ee87828601610588565b82525060208301358281111561090357600080fd5b61090f87828601610588565b60208301525060408301358281111561092757600080fd5b610933878286016106ca565b60408301525060608301358281111561094b57600080fd5b6109578782860161080d565b60608301525095945050505050565b60006020828403121561097857600080fd5b81356109838161061b565b9392505050565b60005b838110156109a557818101518382015260200161098d565b50506000910152565b600081518084526109c681602086016020860161098a565b601f017fffffffffffffffffffffffffffffffffffffffffffffffffffffffffffffffe0169290920160200192915050565b600073ffffffffffffffffffffffffffffffffffffffff808351168452602081818501511681860152816040850151166040860152606084015191506080606086015260c0850182516040608088015281815180845260e08901915060e08160051b8a01019350848301925060005b81811015610ab3577fffffffffffffffffffffffffffffffffffffffffffffffffffffffffffffff208a8603018352610aa18585516109ae565b94509285019291850191600101610a67565b50505050918101518583037fffffffffffffffffffffffffffffffffffffffffffffffffffffffffffffff800160a0870152805180845290820192600091908301905b808310156106bf5784518252938301936001929092019190830190610af6565b600060208083528351608082850152610b3260a08501826109ae565b9050818501517fffffffffffffffffffffffffffffffffffffffffffffffffffffffffffffffe080868403016040870152610b6d83836109ae565b92506040870151915080868403016060870152610b8a83836109f8565b60608801518782038301608089015280518083529194508501925084840190600581901b8501860160005b82811015610be15784878303018452610bcf8287516109f8565b95880195938801939150600101610bb5565b509998505050505050505050565b6000610bfd6105a784610542565b9050828152838383011115610c1157600080fd5b61098383602083018461098a565b600082601f830112610c3057600080fd5b61098383835160208501610bef565b600082601f830112610c5057600080fd5b81516020610c606105a783610640565b82815260059290921b84018101918181019086841115610c7f57600080fd5b8286015b848110156106bf5780518352918301918301610c83565b600060808284031215610cac57600080fd5b610cb46104a7565b90508151610cc18161061b565b8152602082810151610cd28161061b565b82820152604083810151610ce58161061b565b83820152606084015167ffffffffffffffff80821115610d0457600080fd5b8186019150828288031215610d1857600080fd5b610d206104d0565b825182811115610d2f57600080fd5b8301601f81018913610d4057600080fd5b8051610d4e6105a782610640565b81815260059190911b8201870190878101908b831115610d6d57600080fd5b8884015b83811015610db957805187811115610d895760008081fd5b8501603f81018e13610d9b5760008081fd5b610dab8e8c8301518c8401610bef565b845250918901918901610d71565b50845250505082850151935081841115610dd257600080fd5b610dde88858501610c3f565b85820152806060870152505050505092915050565b600082601f830112610e0457600080fd5b81516020610e146105a783610640565b82815260059290921b84018101918181019086841115610e3357600080fd5b8286015b848110156106bf57805167ffffffffffffffff811115610e575760008081fd5b610e658986838b0101610c9a565b845250918301918301610e37565b600060208284031215610e8557600080fd5b815167ffffffffffffffff80821115610e9d57600080fd5b9083019060808286031215610eb157600080fd5b610eb96104a7565b825182811115610ec857600080fd5b610ed487828601610c1f565b825250602083015182811115610ee957600080fd5b610ef587828601610c1f565b602083015250604083015182811115610f0d57600080fd5b610f1987828601610c9a565b604083015250606083015182811115610f3157600080fd5b61095787828601610df356fea2646970667358221220c5f8f411edc22fe1dd2b446adb7255dd53ccaa5025d83e1e299f52a13a5c764564736f6c6343000811003360806040523480156200001157600080fd5b506200001c62000022565b620000e4565b600054610100900460ff16156200008f5760405162461bcd60e51b815260206004820152602760248201527f496e697469616c697a61626c653a20636f6e747261637420697320696e697469604482015266616c697a696e6760c81b606482015260840160405180910390fd5b60005460ff9081161015620000e2576000805460ff191660ff9081179091556040519081527f7f26b83ff96e1f2b6a682f133852f6798a09c465da95921460cefb38474024989060200160405180910390a15b565b614e5880620000f46000396000f3fe6080604052600436106101485760003560e01c806395d89b41116100c0578063bffc7d4811610074578063dd62ed3e11610059578063dd62ed3e146103e5578063f23a6e6114610439578063f64201121461047e57600080fd5b8063bffc7d48146103a3578063c33c0418146103c357600080fd5b8063a9059cbb116100a5578063a9059cbb14610311578063ac9650d814610331578063bc197c811461035e57600080fd5b806395d89b41146102dc578063a457c2d7146102f157600080fd5b806318160ddd11610117578063313ce567116100fc578063313ce5671461025c578063395093511461027857806370a082311461029857600080fd5b806318160ddd1461021c57806323b872dd1461023c57600080fd5b806301ffc9a71461015457806306fdde0314610189578063095ea7b3146101ab578063150b7a02146101cb57600080fd5b3661014f57005b600080fd5b34801561016057600080fd5b5061017461016f366004613934565b61049e565b60405190151581526020015b60405180910390f35b34801561019557600080fd5b5061019e610537565b60405161018091906139e4565b3480156101b757600080fd5b506101746101c6366004613a1c565b6105ca565b3480156101d757600080fd5b506101eb6101e6366004613bc3565b6105e2565b6040517fffffffff000000000000000000000000000000000000000000000000000000009091168152602001610180565b34801561022857600080fd5b50610162545b604051908152602001610180565b34801561024857600080fd5b50610174610257366004613c2f565b61060c565b34801561026857600080fd5b5060405160128152602001610180565b34801561028457600080fd5b50610174610293366004613a1c565b610632565b3480156102a457600080fd5b5061022e6102b3366004613c70565b73ffffffffffffffffffffffffffffffffffffffff166000908152610160602052604090205490565b3480156102e857600080fd5b5061019e61067f565b3480156102fd57600080fd5b5061017461030c366004613a1c565b61068f565b34801561031d57600080fd5b5061017461032c366004613a1c565b610771565b34801561033d57600080fd5b5061035161034c366004613c8d565b61077f565b6040516101809190613d57565b34801561036a57600080fd5b506101eb610379366004613dee565b7fbc197c810000000000000000000000000000000000000000000000000000000095945050505050565b6103b66103b1366004613e9c565b610874565b6040516101809190614192565b3480156103cf57600080fd5b506103e36103de366004614476565b610887565b005b3480156103f157600080fd5b5061022e61040036600461454f565b73ffffffffffffffffffffffffffffffffffffffff91821660009081526101616020908152604080832093909416825291909152205490565b34801561044557600080fd5b506101eb610454366004614588565b7ff23a6e610000000000000000000000000000000000000000000000000000000095945050505050565b34801561048a57600080fd5b506103b6610499366004613e9c565b610be0565b60007fffffffff0000000000000000000000000000000000000000000000000000000082167f4e2312e000000000000000000000000000000000000000000000000000000000148061053157507f01ffc9a7000000000000000000000000000000000000000000000000000000007fffffffff000000000000000000000000000000000000000000000000000000008316145b92915050565b60606101638054610547906145f1565b80601f0160208091040260200160405190810160405280929190818152602001828054610573906145f1565b80156105c05780601f10610595576101008083540402835291602001916105c0565b820191906000526020600020905b8154815290600101906020018083116105a357829003601f168201915b5050505050905090565b6000336105d8818585610c43565b5060019392505050565b7f150b7a02000000000000000000000000000000000000000000000000000000005b949350505050565b60003361061a858285610df7565b610625858585610ecf565b60019150505b9392505050565b3360008181526101616020908152604080832073ffffffffffffffffffffffffffffffffffffffff871684529091528120549091906105d8908290869061067a908790614673565b610c43565b60606101648054610547906145f1565b3360008181526101616020908152604080832073ffffffffffffffffffffffffffffffffffffffff8716845290915281205490919083811015610759576040517f08c379a000000000000000000000000000000000000000000000000000000000815260206004820152602560248201527f45524332303a2064656372656173656420616c6c6f77616e63652062656c6f7760448201527f207a65726f00000000000000000000000000000000000000000000000000000060648201526084015b60405180910390fd5b6107668286868403610c43565b506001949350505050565b6000336105d8818585610ecf565b60608167ffffffffffffffff81111561079a5761079a613a48565b6040519080825280602002602001820160405280156107cd57816020015b60608152602001906001900390816107b85790505b50905060005b8281101561086d5761083d308585848181106107f1576107f1614686565b905060200281019061080391906146b5565b8080601f01602080910402602001604051908101604052809392919081815260200183838082843760009201919091525061114d92505050565b82828151811061084f5761084f614686565b602002602001018190525080806108659061471a565b9150506107d3565b5092915050565b61087c6138eb565b61060484848461128c565b600054610100900460ff16158080156108a75750600054600160ff909116105b806108c15750303b1580156108c1575060005460ff166001145b61094d576040517f08c379a000000000000000000000000000000000000000000000000000000000815260206004820152602e60248201527f496e697469616c697a61626c653a20636f6e747261637420697320616c72656160448201527f647920696e697469616c697a65640000000000000000000000000000000000006064820152608401610750565b600080547fffffffffffffffffffffffffffffffffffffffffffffffffffffffffffffff0016600117905580156109ab57600080547fffffffffffffffffffffffffffffffffffffffffffffffffffffffffffff00ff166101001790555b7fa80ba18d50befd584ddb863bdbbbe2e1afd717264df34012c5d5c0581062dba233836040516109dc9291906147ff565b60405180910390a16109ec6113da565b6109fe8260000151836020015161147b565b604051806060016040528083604001516020015173ffffffffffffffffffffffffffffffffffffffff16815260200183604001516040015173ffffffffffffffffffffffffffffffffffffffff16815260200183604001516000015173ffffffffffffffffffffffffffffffffffffffff16631ed061d9856040015160600151610a88600161151c565b6040518363ffffffff1660e01b8152600401610aa5929190614917565b6020604051808303816000875af1158015610ac4573d6000803e3d6000fd5b505050506040513d601f19601f82011682018060405250810190610ae8919061493c565b73ffffffffffffffffffffffffffffffffffffffff908116909152815161019280547fffffffffffffffffffffffff0000000000000000000000000000000000000000908116928416929092179055602083015161019380548316918416919091179055604090920151610194805490931691161790556060820151610b7990610b7460046002614673565b61154e565b8015610bdc57600080547fffffffffffffffffffffffffffffffffffffffffffffffffffffffffffff00ff169055604051600181527f7f26b83ff96e1f2b6a682f133852f6798a09c465da95921460cefb38474024989060200160405180910390a15b5050565b610be86138eb565b6000610c2a815b604051908082528060200260200182016040528015610c2257816020015b6060815260200190600190039081610c0d5790505b508585611848565b90506000610c388683611b4e565b509695505050505050565b73ffffffffffffffffffffffffffffffffffffffff8316610ce5576040517f08c379a0000000000000000000000000000000000000000000000000000000008152602060048201526024808201527f45524332303a20617070726f76652066726f6d20746865207a65726f2061646460448201527f72657373000000000000000000000000000000000000000000000000000000006064820152608401610750565b73ffffffffffffffffffffffffffffffffffffffff8216610d88576040517f08c379a000000000000000000000000000000000000000000000000000000000815260206004820152602260248201527f45524332303a20617070726f766520746f20746865207a65726f20616464726560448201527f73730000000000000000000000000000000000000000000000000000000000006064820152608401610750565b73ffffffffffffffffffffffffffffffffffffffff8381166000818152610161602090815260408083209487168084529482529182902085905590518481527f8c5be1e5ebec7d5bd14f71427d1e84f3dd0314c0f7b2291e5b200ac8c7c3b925910160405180910390a3505050565b73ffffffffffffffffffffffffffffffffffffffff838116600090815261016160209081526040808320938616835292905220547fffffffffffffffffffffffffffffffffffffffffffffffffffffffffffffffff8114610ec95781811015610ebc576040517f08c379a000000000000000000000000000000000000000000000000000000000815260206004820152601d60248201527f45524332303a20696e73756666696369656e7420616c6c6f77616e63650000006044820152606401610750565b610ec98484848403610c43565b50505050565b73ffffffffffffffffffffffffffffffffffffffff8316610f72576040517f08c379a000000000000000000000000000000000000000000000000000000000815260206004820152602560248201527f45524332303a207472616e736665722066726f6d20746865207a65726f20616460448201527f64726573730000000000000000000000000000000000000000000000000000006064820152608401610750565b73ffffffffffffffffffffffffffffffffffffffff8216611015576040517f08c379a000000000000000000000000000000000000000000000000000000000815260206004820152602360248201527f45524332303a207472616e7366657220746f20746865207a65726f206164647260448201527f65737300000000000000000000000000000000000000000000000000000000006064820152608401610750565b73ffffffffffffffffffffffffffffffffffffffff831660009081526101606020526040902054818110156110cc576040517f08c379a000000000000000000000000000000000000000000000000000000000815260206004820152602660248201527f45524332303a207472616e7366657220616d6f756e742065786365656473206260448201527f616c616e636500000000000000000000000000000000000000000000000000006064820152608401610750565b73ffffffffffffffffffffffffffffffffffffffff8085166000818152610160602052604080822086860390559286168082529083902080548601905591517fddf252ad1be2c89b69c2b068fc378daa952ba7f163c4a11628f55a4df523b3ef9061113a9086815260200190565b60405180910390a3610ec9848484611c6d565b606073ffffffffffffffffffffffffffffffffffffffff83163b6111f3576040517f08c379a000000000000000000000000000000000000000000000000000000000815260206004820152602660248201527f416464726573733a2064656c65676174652063616c6c20746f206e6f6e2d636f60448201527f6e747261637400000000000000000000000000000000000000000000000000006064820152608401610750565b6000808473ffffffffffffffffffffffffffffffffffffffff168460405161121b9190614959565b600060405180830381855af49150503d8060008114611256576040519150601f19603f3d011682016040523d82523d6000602084013e61125b565b606091505b50915091506112838282604051806060016040528060278152602001614dfc60279139611ea1565b95945050505050565b6112946138eb565b61129c611eba565b60006112a781610bef565b90507f17a5c0f3785132a57703932032f6863e7920434150aa1dc940e567b440fdce1f33826040516112da9291906149bd565b60405180910390a16000806112ef8784611b4e565b9150915060005b8251518110156113545761134c8360000151828151811061131957611319614686565b6020026020010151600001518460000151838151811061133b5761133b614686565b602002602001015160200151611f2d565b6001016112f6565b5060005b8260200151518110156113b9576113b18360200151828151811061137e5761137e614686565b602002602001015160000151846020015183815181106113a0576113a0614686565b60200260200101516020015161202c565b600101611358565b506113cd82604001518860200151836121fc565b5091505061062b60018055565b600054610100900460ff16611471576040517f08c379a000000000000000000000000000000000000000000000000000000000815260206004820152602b60248201527f496e697469616c697a61626c653a20636f6e7472616374206973206e6f74206960448201527f6e697469616c697a696e670000000000000000000000000000000000000000006064820152608401610750565b6114796122b5565b565b600054610100900460ff16611512576040517f08c379a000000000000000000000000000000000000000000000000000000000815260206004820152602b60248201527f496e697469616c697a61626c653a20636f6e7472616374206973206e6f74206960448201527f6e697469616c697a696e670000000000000000000000000000000000000000006064820152608401610750565b610bdc828261234c565b604080516001808252818301909252606091600091906020808301908036833750505060208101939093525090919050565b600054610100900460ff166115e5576040517f08c379a000000000000000000000000000000000000000000000000000000000815260206004820152602b60248201527f496e697469616c697a61626c653a20636f6e7472616374206973206e6f74206960448201527f6e697469616c697a696e670000000000000000000000000000000000000000006064820152608401610750565b6115ed6123fe565b6115f56123fe565b6115fd6123fe565b6004811015611668576040517f08c379a000000000000000000000000000000000000000000000000000000000815260206004820152601560248201527f424144204d494e20535441434b53204c454e47544800000000000000000000006044820152606401610750565b60005b825181101561184357600083828151811061168857611688614686565b60200260200101516000015173ffffffffffffffffffffffffffffffffffffffff16631ed061d98584815181106116c1576116c1614686565b6020026020010151606001516116d68661151c565b6040518363ffffffff1660e01b81526004016116f3929190614917565b6020604051808303816000875af1158015611712573d6000803e3d6000fd5b505050506040513d601f19601f82011682018060405250810190611736919061493c565b90506000604051806060016040528086858151811061175757611757614686565b60200260200101516020015173ffffffffffffffffffffffffffffffffffffffff16815260200186858151811061179057611790614686565b60200260200101516040015173ffffffffffffffffffffffffffffffffffffffff1681526020018373ffffffffffffffffffffffffffffffffffffffff168152509050600161012d60006117e384612495565b8152602001908152602001600020819055507fed510090abe2a95b97a621e3d2c947ea3c26eced1c87470474d17e353dcc533833826040516118269291906149ec565b60405180910390a15050808061183b9061471a565b91505061166b565b505050565b60606000825167ffffffffffffffff81111561186657611866613a48565b60405190808252806020026020018201604052801561188f578160200160208202803683370190505b5090506000808451116118a35760006118a9565b83516001015b865101600201905060008167ffffffffffffffff8111156118cc576118cc613a48565b6040519080825280602002602001820160405280156118ff57816020015b60608152602001906001900390816118ea5790505b509050600061190c6124c5565b82828151811061191e5761191e614686565b602002602001018190525060005b885181101561197c57818060010192505088818151811061194f5761194f614686565b602002602001015183838151811061196957611969614686565b602090810291909101015260010161192c565b5080806001019150508682828151811061199857611998614686565b6020908102919091010152855115610c38578080600101915050838282815181106119c5576119c5614686565b602002602001018190525060005b8651811015611b4257611a6c8782815181106119f1576119f1614686565b602002602001015160000151611a49898481518110611a1257611a12614686565b602002602001015160400151604051602001611a2e9190614a45565b604051602081830303815290604052805190602001206124d6565b898481518110611a5b57611a5b614686565b602002602001015160200151612511565b611aa5576040517f52bf984800000000000000000000000000000000000000000000000000000000815260048101829052602401610750565b868181518110611ab757611ab7614686565b60200260200101516000015173ffffffffffffffffffffffffffffffffffffffff16858281518110611aeb57611aeb614686565b6020026020010181815250508180600101925050868181518110611b1157611b11614686565b602002602001015160400151838381518110611b2f57611b2f614686565b60209081029190910101526001016119d3565b50509695505050505050565b611b566138eb565b606080611b616138eb565b6000806000611b7089896126de565b60408051808201909152601881527f5241494e5f464c4f575f45524332305f53454e54494e454c000000000000000060209091015291945092509050611bd982847ff339171dab445c29f9897dda2f42413426ee907dc7f8b52bd387bc7cf9384c6b600261281d565b80865260408051808201909152601881527f5241494e5f464c4f575f45524332305f53454e54494e454c000000000000000060209091015295509150611c4282847ff339171dab445c29f9897dda2f42413426ee907dc7f8b52bd387bc7cf9384c6b600261281d565b6020860181905295509150611c5783836128ce565b60408501529295509193505050505b9250929050565b73ffffffffffffffffffffffffffffffffffffffff83161580611ca4575073ffffffffffffffffffffffffffffffffffffffff8216155b61184357604080516060810182526101925473ffffffffffffffffffffffffffffffffffffffff908116825261019354811660208301526101945481169282019290925290600090611d0790611d0290339088811690881687612ada565b612b1d565b9050600080836000015173ffffffffffffffffffffffffffffffffffffffff16636715f82585602001516000611d408860400151612b5b565b876040518563ffffffff1660e01b8152600401611d609493929190614a7b565b600060405180830381865afa158015611d7d573d6000803e3d6000fd5b505050506040513d6000823e601f3d9081017fffffffffffffffffffffffffffffffffffffffffffffffffffffffffffffffe0168201604052611dc39190810190614b1b565b9150915081600183510381518110611ddd57611ddd614686565b6020026020010151600003611e1e576040517f2f35253100000000000000000000000000000000000000000000000000000000815260040160405180910390fd5b805115611e9857836020015173ffffffffffffffffffffffffffffffffffffffff1663946aadc66000836040518363ffffffff1660e01b8152600401611e65929190614b7f565b600060405180830381600087803b158015611e7f57600080fd5b505af1158015611e93573d6000803e3d6000fd5b505050505b50505050505050565b60608315611eb057508161062b565b61062b8383612b84565b600260015403611f26576040517f08c379a000000000000000000000000000000000000000000000000000000000815260206004820152601f60248201527f5265656e7472616e637947756172643a207265656e7472616e742063616c6c006044820152606401610750565b6002600155565b73ffffffffffffffffffffffffffffffffffffffff8216611faa576040517f08c379a000000000000000000000000000000000000000000000000000000000815260206004820152601f60248201527f45524332303a206d696e7420746f20746865207a65726f2061646472657373006044820152606401610750565b806101626000828254611fbd9190614673565b909155505073ffffffffffffffffffffffffffffffffffffffff8216600081815261016060209081526040808320805486019055518481527fddf252ad1be2c89b69c2b068fc378daa952ba7f163c4a11628f55a4df523b3ef910160405180910390a3610bdc60008383611c6d565b73ffffffffffffffffffffffffffffffffffffffff82166120cf576040517f08c379a000000000000000000000000000000000000000000000000000000000815260206004820152602160248201527f45524332303a206275726e2066726f6d20746865207a65726f2061646472657360448201527f73000000000000000000000000000000000000000000000000000000000000006064820152608401610750565b73ffffffffffffffffffffffffffffffffffffffff82166000908152610160602052604090205481811015612186576040517f08c379a000000000000000000000000000000000000000000000000000000000815260206004820152602260248201527f45524332303a206275726e20616d6f756e7420657863656564732062616c616e60448201527f63650000000000000000000000000000000000000000000000000000000000006064820152608401610750565b73ffffffffffffffffffffffffffffffffffffffff8316600081815261016060209081526040808320868603905561016280548790039055518581529192917fddf252ad1be2c89b69c2b068fc378daa952ba7f163c4a11628f55a4df523b3ef910160405180910390a361184383600084611c6d565b80511561228b576040517f946aadc600000000000000000000000000000000000000000000000000000000815273ffffffffffffffffffffffffffffffffffffffff83169063946aadc690612258906000908590600401614b7f565b600060405180830381600087803b15801561227257600080fd5b505af1158015612286573d6000803e3d6000fd5b505050505b61229483612bc8565b61229d83612d96565b6122a683612ef4565b61184383613085565b60018055565b600054610100900460ff166122af576040517f08c379a000000000000000000000000000000000000000000000000000000000815260206004820152602b60248201527f496e697469616c697a61626c653a20636f6e7472616374206973206e6f74206960448201527f6e697469616c697a696e670000000000000000000000000000000000000000006064820152608401610750565b600054610100900460ff166123e3576040517f08c379a000000000000000000000000000000000000000000000000000000000815260206004820152602b60248201527f496e697469616c697a61626c653a20636f6e7472616374206973206e6f74206960448201527f6e697469616c697a696e670000000000000000000000000000000000000000006064820152608401610750565b6101636123f08382614be6565b506101646118438282614be6565b600054610100900460ff16611479576040517f08c379a000000000000000000000000000000000000000000000000000000000815260206004820152602b60248201527f496e697469616c697a61626c653a20636f6e7472616374206973206e6f74206960448201527f6e697469616c697a696e670000000000000000000000000000000000000000006064820152608401610750565b6000816040516020016124a89190614d00565b604051602081830303815290604052805190602001209050919050565b60606124d13330613235565b905090565b6040517f19457468657265756d205369676e6564204d6573736167653a0a3332000000006020820152603c8101829052600090605c016124a8565b60008060006125208585613269565b9092509050600081600481111561253957612539614d3d565b14801561257157508573ffffffffffffffffffffffffffffffffffffffff168273ffffffffffffffffffffffffffffffffffffffff16145b156125815760019250505061062b565b6000808773ffffffffffffffffffffffffffffffffffffffff16631626ba7e60e01b88886040516024016125b6929190614d6c565b604080517fffffffffffffffffffffffffffffffffffffffffffffffffffffffffffffffe08184030181529181526020820180517bffffffffffffffffffffffffffffffffffffffffffffffffffffffff167fffffffff0000000000000000000000000000000000000000000000000000000090941693909317909252905161263f9190614959565b600060405180830381855afa9150503d806000811461267a576040519150601f19603f3d011682016040523d82523d6000602084013e61267f565b606091505b5091509150818015612692575080516020145b80156126d2575080517f1626ba7e00000000000000000000000000000000000000000000000000000000906126d09083016020908101908401614d85565b145b98975050505050505050565b60008060608460006126ef82612495565b600081815261012d60205260408120549192500361273c576040517f7a80ba4d00000000000000000000000000000000000000000000000000000000815260048101829052602401610750565b600080886000015173ffffffffffffffffffffffffffffffffffffffff16636715f8258a6020015160006127738d604001516132ab565b8c6040518563ffffffff1660e01b81526004016127939493929190614a7b565b600060405180830381865afa1580156127b0573d6000803e3d6000fd5b505050506040513d6000823e601f3d9081017fffffffffffffffffffffffffffffffffffffffffffffffffffffffffffffffe01682016040526127f69190810190614b1b565b915091506128048260200190565b8251909a60209182029093010198509650945050505050565b60006060818061282f888888886132d5565b9150915060008582516128429190614d9e565b905060008167ffffffffffffffff81111561285f5761285f613a48565b604051908082528060200260200182016040528015612888578160200160208202803683370190505b509050602081016020830281016020850160208a025b828410156128b8578184526020909301929081019061289e565b5095975091955050505050505b94509492505050565b6128f96040518060800160405280606081526020016060815260200160608152602001606081525090565b6129246040518060800160405280606081526020016060815260200160608152602001606081525090565b60408051808201909152601281527f5241494e5f464c4f575f53454e54494e454c0000000000000000000000000000602090910152606061298884867ffea74d0c9bf4a3c28f0dd0674db22a3d7f8bf259c56af19f4ac1e735b156974f600361281d565b80845260408051808201909152601281527f5241494e5f464c4f575f53454e54494e454c000000000000000000000000000060209091015290945090506129f284867ffea74d0c9bf4a3c28f0dd0674db22a3d7f8bf259c56af19f4ac1e735b156974f600461281d565b602084810182905260408051808201909152601281527f5241494e5f464c4f575f53454e54494e454c00000000000000000000000000009101529094509050612a5e84867ffea74d0c9bf4a3c28f0dd0674db22a3d7f8bf259c56af19f4ac1e735b156974f600461281d565b60408481018290528051808201909152601281527f5241494e5f464c4f575f53454e54494e454c00000000000000000000000000006020909101529094509050612acb84867ffea74d0c9bf4a3c28f0dd0674db22a3d7f8bf259c56af19f4ac1e735b156974f600561281d565b60608401525090949350505050565b60408051600480825260a0820190925260609160009190602082016080803683375050506020810196909652505060408401929092526060830152608082015290565b60408051600180825281830190925260609160009190816020015b6060815260200190600190039081612b3857505060208101939093525090919050565b6000602082901b77ffffffffffffffffffffffffffffffffffffffff0000000016600117610531565b815115612b945781518083602001fd5b806040517f08c379a000000000000000000000000000000000000000000000000000000000815260040161075091906139e4565b60408051606081018252600080825260208201819052918101829052819060005b845151811015612d77578451805182908110612c0757612c07614686565b602002602001015191503373ffffffffffffffffffffffffffffffffffffffff16826000015173ffffffffffffffffffffffffffffffffffffffff1603612ca957602082015173ffffffffffffffffffffffffffffffffffffffff163014612c9b576040517f56c7455200000000000000000000000000000000000000000000000000000000815260040160405180910390fd5b816040015184019350612d6f565b815173ffffffffffffffffffffffffffffffffffffffff163014612cf9576040517f56c7455200000000000000000000000000000000000000000000000000000000815260040160405180910390fd5b3373ffffffffffffffffffffffffffffffffffffffff16826020015173ffffffffffffffffffffffffffffffffffffffff1603612d3e57816040015183019250612d6f565b612d6f8260400151836020015173ffffffffffffffffffffffffffffffffffffffff1661333590919063ffffffff16565b600101612be9565b508215612d8657823403820191505b8115610ec957610ec93383613335565b6040805160808101825260008082526020820181905291810182905260608101829052905b8260200151518110156118435782602001518181518110612dde57612dde614686565b602002602001015191503373ffffffffffffffffffffffffffffffffffffffff16826020015173ffffffffffffffffffffffffffffffffffffffff1603612e5557604082015160608301518351612e509273ffffffffffffffffffffffffffffffffffffffff9091169133919061348f565b612eec565b3073ffffffffffffffffffffffffffffffffffffffff16826020015173ffffffffffffffffffffffffffffffffffffffff1603612eba57604082015160608301518351612e509273ffffffffffffffffffffffffffffffffffffffff9091169161356b565b6040517fa521c60f00000000000000000000000000000000000000000000000000000000815260040160405180910390fd5b600101612dbb565b6040805160808101825260008082526020820181905291810182905260608101829052905b8260400151518110156118435782604001518181518110612f3c57612f3c614686565b602002602001015191503373ffffffffffffffffffffffffffffffffffffffff16826020015173ffffffffffffffffffffffffffffffffffffffff1614158015612fa05750602082015173ffffffffffffffffffffffffffffffffffffffff163014155b15612fd7576040517f3a5befc500000000000000000000000000000000000000000000000000000000815260040160405180910390fd5b81516020830151604080850151606086015191517f42842e0e00000000000000000000000000000000000000000000000000000000815273ffffffffffffffffffffffffffffffffffffffff9384166004820152908316602482015260448101919091529116906342842e0e90606401600060405180830381600087803b15801561306157600080fd5b505af1158015613075573d6000803e3d6000fd5b505060019092019150612f199050565b6040805160a0810182526000808252602082018190529181018290526060810182905260808101829052905b82606001515181101561184357826060015181815181106130d4576130d4614686565b602002602001015191503373ffffffffffffffffffffffffffffffffffffffff16826020015173ffffffffffffffffffffffffffffffffffffffff16141580156131385750602082015173ffffffffffffffffffffffffffffffffffffffff163014155b1561316f576040517fc6a91ecc00000000000000000000000000000000000000000000000000000000815260040160405180910390fd5b815160208301516040808501516060860151608087015192517ff242432a00000000000000000000000000000000000000000000000000000000815273ffffffffffffffffffffffffffffffffffffffff948516600482015291841660248301526044820152606481019190915260a06084820152600060a482015291169063f242432a9060c401600060405180830381600087803b15801561321157600080fd5b505af1158015613225573d6000803e3d6000fd5b5050600190920191506130b19050565b6040805160028082526060808301845292600092919060208301908036833750505060208101949094525050604082015290565b600080825160410361329f5760208301516040840151606085015160001a613293878285856135c1565b94509450505050611c66565b50600090506002611c66565b6000602082901b77ffffffffffffffffffffffffffffffffffffffff000000001661ffff17610531565b6000606080856132e457600080fd5b6000806020860260208a039950602089035b808b111561331c578a51890361330e578a935061331c565b9981900399918701916132f6565b50508161332857600080fd5b8152969795505050505050565b8047101561339f576040517f08c379a000000000000000000000000000000000000000000000000000000000815260206004820152601d60248201527f416464726573733a20696e73756666696369656e742062616c616e63650000006044820152606401610750565b60008273ffffffffffffffffffffffffffffffffffffffff168260405160006040518083038185875af1925050503d80600081146133f9576040519150601f19603f3d011682016040523d82523d6000602084013e6133fe565b606091505b5050905080611843576040517f08c379a000000000000000000000000000000000000000000000000000000000815260206004820152603a60248201527f416464726573733a20756e61626c6520746f2073656e642076616c75652c207260448201527f6563697069656e74206d617920686176652072657665727465640000000000006064820152608401610750565b60405173ffffffffffffffffffffffffffffffffffffffff80851660248301528316604482015260648101829052610ec99085907f23b872dd00000000000000000000000000000000000000000000000000000000906084015b604080517fffffffffffffffffffffffffffffffffffffffffffffffffffffffffffffffe08184030181529190526020810180517bffffffffffffffffffffffffffffffffffffffffffffffffffffffff167fffffffff00000000000000000000000000000000000000000000000000000000909316929092179091526136ad565b60405173ffffffffffffffffffffffffffffffffffffffff83166024820152604481018290526118439084907fa9059cbb00000000000000000000000000000000000000000000000000000000906064016134e9565b6000807f7fffffffffffffffffffffffffffffff5d576e7357a4501ddfe92f46681b20a08311156135f857506000905060036128c5565b6040805160008082526020820180845289905260ff881692820192909252606081018690526080810185905260019060a0016020604051602081039080840390855afa15801561364c573d6000803e3d6000fd5b50506040517fffffffffffffffffffffffffffffffffffffffffffffffffffffffffffffffe0015191505073ffffffffffffffffffffffffffffffffffffffff81166136a0576000600192509250506128c5565b9660009650945050505050565b600061370f826040518060400160405280602081526020017f5361666545524332303a206c6f772d6c6576656c2063616c6c206661696c65648152508573ffffffffffffffffffffffffffffffffffffffff166137b99092919063ffffffff16565b805190915015611843578080602001905181019061372d9190614dd9565b611843576040517f08c379a000000000000000000000000000000000000000000000000000000000815260206004820152602a60248201527f5361666545524332303a204552433230206f7065726174696f6e20646964206e60448201527f6f742073756363656564000000000000000000000000000000000000000000006064820152608401610750565b60606106048484600085856000808673ffffffffffffffffffffffffffffffffffffffff1685876040516137ed9190614959565b60006040518083038185875af1925050503d806000811461382a576040519150601f19603f3d011682016040523d82523d6000602084013e61382f565b606091505b50915091506138408783838761384b565b979650505050505050565b606083156138e15782516000036138da5773ffffffffffffffffffffffffffffffffffffffff85163b6138da576040517f08c379a000000000000000000000000000000000000000000000000000000000815260206004820152601d60248201527f416464726573733a2063616c6c20746f206e6f6e2d636f6e74726163740000006044820152606401610750565b5081610604565b6106048383612b84565b6040518060600160405280606081526020016060815260200161392f6040518060800160405280606081526020016060815260200160608152602001606081525090565b905290565b60006020828403121561394657600080fd5b81357fffffffff000000000000000000000000000000000000000000000000000000008116811461062b57600080fd5b60005b83811015613991578181015183820152602001613979565b50506000910152565b600081518084526139b2816020860160208601613976565b601f017fffffffffffffffffffffffffffffffffffffffffffffffffffffffffffffffe0169290920160200192915050565b60208152600061062b602083018461399a565b73ffffffffffffffffffffffffffffffffffffffff81168114613a1957600080fd5b50565b60008060408385031215613a2f57600080fd5b8235613a3a816139f7565b946020939093013593505050565b7f4e487b7100000000000000000000000000000000000000000000000000000000600052604160045260246000fd5b6040516060810167ffffffffffffffff81118282101715613a9a57613a9a613a48565b60405290565b6040516080810167ffffffffffffffff81118282101715613a9a57613a9a613a48565b6040805190810167ffffffffffffffff81118282101715613a9a57613a9a613a48565b604051601f82017fffffffffffffffffffffffffffffffffffffffffffffffffffffffffffffffe016810167ffffffffffffffff81118282101715613b2d57613b2d613a48565b604052919050565b600082601f830112613b4657600080fd5b813567ffffffffffffffff811115613b6057613b60613a48565b613b9160207fffffffffffffffffffffffffffffffffffffffffffffffffffffffffffffffe0601f84011601613ae6565b818152846020838601011115613ba657600080fd5b816020850160208301376000918101602001919091529392505050565b60008060008060808587031215613bd957600080fd5b8435613be4816139f7565b93506020850135613bf4816139f7565b925060408501359150606085013567ffffffffffffffff811115613c1757600080fd5b613c2387828801613b35565b91505092959194509250565b600080600060608486031215613c4457600080fd5b8335613c4f816139f7565b92506020840135613c5f816139f7565b929592945050506040919091013590565b600060208284031215613c8257600080fd5b813561062b816139f7565b60008060208385031215613ca057600080fd5b823567ffffffffffffffff80821115613cb857600080fd5b818501915085601f830112613ccc57600080fd5b813581811115613cdb57600080fd5b8660208260051b8501011115613cf057600080fd5b60209290920196919550909350505050565b600081518084526020808501808196508360051b8101915082860160005b85811015613d4a578284038952613d3884835161399a565b98850198935090840190600101613d20565b5091979650505050505050565b60208152600061062b6020830184613d02565b600067ffffffffffffffff821115613d8457613d84613a48565b5060051b60200190565b600082601f830112613d9f57600080fd5b81356020613db4613daf83613d6a565b613ae6565b82815260059290921b84018101918181019086841115613dd357600080fd5b8286015b84811015610c385780358352918301918301613dd7565b600080600080600060a08688031215613e0657600080fd5b8535613e11816139f7565b94506020860135613e21816139f7565b9350604086013567ffffffffffffffff80821115613e3e57600080fd5b613e4a89838a01613d8e565b94506060880135915080821115613e6057600080fd5b613e6c89838a01613d8e565b93506080880135915080821115613e8257600080fd5b50613e8f88828901613b35565b9150509295509295909350565b600080600083850360a0811215613eb257600080fd5b6060811215613ec057600080fd5b50613ec9613a77565b8435613ed4816139f7565b8152602085810135613ee5816139f7565b828201526040860135613ef7816139f7565b604083015290935060608501359067ffffffffffffffff80831115613f1b57600080fd5b613f2788848901613d8e565b94506080870135925080831115613f3d57600080fd5b828701925087601f840112613f5157600080fd5b8235613f5f613daf82613d6a565b81815260059190911b8401830190838101908a831115613f7e57600080fd5b8486015b8381101561404157803585811115613f9a5760008081fd5b87016060818e037fffffffffffffffffffffffffffffffffffffffffffffffffffffffffffffffe0011215613fcf5760008081fd5b613fd7613a77565b87820135613fe4816139f7565b8152604082013587811115613ff95760008081fd5b6140078f8a83860101613b35565b898301525060608201358781111561401f5760008081fd5b61402d8f8a83860101613d8e565b604083015250845250918501918501613f82565b508096505050505050509250925092565b600081518084526020808501945080840160005b838110156140a3578151805173ffffffffffffffffffffffffffffffffffffffff1688528301518388015260409096019590820190600101614066565b509495945050505050565b600081518084526020808501945080840160005b838110156140a3578151805173ffffffffffffffffffffffffffffffffffffffff9081168952848201518116858a01526040808301519091169089015260609081015190880152608090960195908201906001016140c2565b600081518084526020808501945080840160005b838110156140a3578151805173ffffffffffffffffffffffffffffffffffffffff9081168952848201518116858a015260408083015190911690890152606080820151908901526080908101519088015260a0909601959082019060010161412f565b600060208083528351606080838601526141af6080860183614052565b9150828601517fffffffffffffffffffffffffffffffffffffffffffffffffffffffffffffffe060408188860301818901526141eb8584614052565b89820151898203909301858a01528251608080835281519083018190529196509293509186019160009060a08701905b80831015614265578451805173ffffffffffffffffffffffffffffffffffffffff90811684528a820151168a8401528401518483015293880193600192909201919086019061421b565b508785015193508681038888015261427d81856140ae565b97505050808301519150848603818601525061429985826140ae565b94505081810151905082840382840152613840848261411b565b6000608082840312156142c557600080fd5b6142cd613aa0565b905081356142da816139f7565b81526020828101356142eb816139f7565b8282015260408301356142fd816139f7565b6040830152606083013567ffffffffffffffff8082111561431d57600080fd5b908401906040828703121561433157600080fd5b614339613ac3565b82358281111561434857600080fd5b8301601f8101881361435957600080fd5b8035614367613daf82613d6a565b81815260059190911b8201860190868101908a83111561438657600080fd5b8784015b838110156143be578035878111156143a25760008081fd5b6143b08d8b83890101613b35565b84525091880191880161438a565b50845250505082840135828111156143d557600080fd5b6143e188828601613d8e565b85830152508060608601525050505092915050565b600082601f83011261440757600080fd5b81356020614417613daf83613d6a565b82815260059290921b8401810191818101908684111561443657600080fd5b8286015b84811015610c3857803567ffffffffffffffff81111561445a5760008081fd5b6144688986838b01016142b3565b84525091830191830161443a565b60006020828403121561448857600080fd5b813567ffffffffffffffff808211156144a057600080fd5b90830190608082860312156144b457600080fd5b6144bc613aa0565b8235828111156144cb57600080fd5b6144d787828601613b35565b8252506020830135828111156144ec57600080fd5b6144f887828601613b35565b60208301525060408301358281111561451057600080fd5b61451c878286016142b3565b60408301525060608301358281111561453457600080fd5b614540878286016143f6565b60608301525095945050505050565b6000806040838503121561456257600080fd5b823561456d816139f7565b9150602083013561457d816139f7565b809150509250929050565b600080600080600060a086880312156145a057600080fd5b85356145ab816139f7565b945060208601356145bb816139f7565b93506040860135925060608601359150608086013567ffffffffffffffff8111156145e557600080fd5b613e8f88828901613b35565b600181811c9082168061460557607f821691505b60208210810361463e577f4e487b7100000000000000000000000000000000000000000000000000000000600052602260045260246000fd5b50919050565b7f4e487b7100000000000000000000000000000000000000000000000000000000600052601160045260246000fd5b8082018082111561053157610531614644565b7f4e487b7100000000000000000000000000000000000000000000000000000000600052603260045260246000fd5b60008083357fffffffffffffffffffffffffffffffffffffffffffffffffffffffffffffffe18436030181126146ea57600080fd5b83018035915067ffffffffffffffff82111561470557600080fd5b602001915036819003821315611c6657600080fd5b60007fffffffffffffffffffffffffffffffffffffffffffffffffffffffffffffffff820361474b5761474b614644565b5060010190565b600081518084526020808501945080840160005b838110156140a357815187529582019590820190600101614766565b60008151604084526147976040850182613d02565b9050602083015184820360208601526112838282614752565b600073ffffffffffffffffffffffffffffffffffffffff808351168452806020840151166020850152806040840151166040850152506060820151608060608501526106046080850182614782565b73ffffffffffffffffffffffffffffffffffffffff831681526000602060408184015283516080604085015261483860c085018261399a565b9050818501517fffffffffffffffffffffffffffffffffffffffffffffffffffffffffffffffc080868403016060870152614873838361399a565b9250604087015191508086840301608087015261489083836147b0565b606088015187820390920160a08801528151808252909350908401915083830190600581901b8401850160005b82811015614909577fffffffffffffffffffffffffffffffffffffffffffffffffffffffffffffffe08683030184526148f78286516147b0565b948701949387019391506001016148bd565b509998505050505050505050565b60408152600061492a6040830185614782565b82810360208401526112838185614752565b60006020828403121561494e57600080fd5b815161062b816139f7565b6000825161496b818460208701613976565b9190910192915050565b600081518084526020808501808196508360051b8101915082860160005b85811015613d4a5782840389526149ab848351614752565b98850198935090840190600101614993565b73ffffffffffffffffffffffffffffffffffffffff831681526040602082015260006106046040830184614975565b73ffffffffffffffffffffffffffffffffffffffff831681526080810161062b6020830184805173ffffffffffffffffffffffffffffffffffffffff908116835260208083015182169084015260409182015116910152565b815160009082906020808601845b83811015614a6f57815185529382019390820190600101614a53565b50929695505050505050565b73ffffffffffffffffffffffffffffffffffffffff85168152836020820152826040820152608060608201526000614ab66080830184614975565b9695505050505050565b600082601f830112614ad157600080fd5b81516020614ae1613daf83613d6a565b82815260059290921b84018101918181019086841115614b0057600080fd5b8286015b84811015610c385780518352918301918301614b04565b60008060408385031215614b2e57600080fd5b825167ffffffffffffffff80821115614b4657600080fd5b614b5286838701614ac0565b93506020850151915080821115614b6857600080fd5b50614b7585828601614ac0565b9150509250929050565b8281526040602082015260006106046040830184614752565b601f82111561184357600081815260208120601f850160051c81016020861015614bbf5750805b601f850160051c820191505b81811015614bde57828155600101614bcb565b505050505050565b815167ffffffffffffffff811115614c0057614c00613a48565b614c1481614c0e84546145f1565b84614b98565b602080601f831160018114614c675760008415614c315750858301515b7fffffffffffffffffffffffffffffffffffffffffffffffffffffffffffffffff600386901b1c1916600185901b178555614bde565b6000858152602081207fffffffffffffffffffffffffffffffffffffffffffffffffffffffffffffffe08616915b82811015614cb457888601518255948401946001909101908401614c95565b5085821015614cf057878501517fffffffffffffffffffffffffffffffffffffffffffffffffffffffffffffffff600388901b60f8161c191681555b5050505050600190811b01905550565b606081016105318284805173ffffffffffffffffffffffffffffffffffffffff908116835260208083015182169084015260409182015116910152565b7f4e487b7100000000000000000000000000000000000000000000000000000000600052602160045260246000fd5b828152604060208201526000610604604083018461399a565b600060208284031215614d9757600080fd5b5051919050565b600082614dd4577f4e487b7100000000000000000000000000000000000000000000000000000000600052601260045260246000fd5b500490565b600060208284031215614deb57600080fd5b8151801515811461062b57600080fdfe416464726573733a206c6f772d6c6576656c2064656c65676174652063616c6c206661696c6564a26469706673582212203d5089c0ca3ec6a63d0856afa2f50d71339b7d707cfda9881801291a0f5eb71764736f6c63430008110033",
  "linkReferences": {},
  "deployedLinkReferences": {}
}