{
  "_format": "hh-sol-artifact-1",
  "contractName": "LobbyFactory",
  "sourceName": "contracts/lobby/LobbyFactory.sol",
  "abi": [
    {
      "inputs": [
        {
          "internalType": "uint256",
          "name": "maxTimeoutDuration_",
          "type": "uint256"
        }
      ],
      "stateMutability": "nonpayable",
      "type": "constructor"
    },
    {
      "inputs": [
        {
          "internalType": "address",
          "name": "child",
          "type": "address"
        }
      ],
      "name": "DuplicateChild",
      "type": "error"
    },
    {
      "anonymous": false,
      "inputs": [
        {
          "indexed": false,
          "internalType": "address",
          "name": "sender",
          "type": "address"
        },
        {
          "indexed": false,
          "internalType": "address",
          "name": "implementation",
          "type": "address"
        }
      ],
      "name": "Implementation",
      "type": "event"
    },
    {
      "anonymous": false,
      "inputs": [
        {
          "indexed": false,
          "internalType": "uint8",
          "name": "version",
          "type": "uint8"
        }
      ],
      "name": "Initialized",
      "type": "event"
    },
    {
      "anonymous": false,
      "inputs": [
        {
          "indexed": false,
          "internalType": "address",
          "name": "sender",
          "type": "address"
        },
        {
          "indexed": false,
          "internalType": "address",
          "name": "child",
          "type": "address"
        }
      ],
      "name": "NewChild",
      "type": "event"
    },
    {
      "inputs": [
        {
          "internalType": "bytes",
          "name": "data_",
          "type": "bytes"
        }
      ],
      "name": "createChild",
      "outputs": [
        {
          "internalType": "address",
          "name": "",
          "type": "address"
        }
      ],
      "stateMutability": "nonpayable",
      "type": "function"
    },
    {
      "inputs": [
        {
          "components": [
            {
              "internalType": "bool",
              "name": "refMustAgree",
              "type": "bool"
            },
            {
              "internalType": "address",
              "name": "ref",
              "type": "address"
            },
            {
              "internalType": "address",
              "name": "expressionDeployer",
              "type": "address"
            },
            {
              "internalType": "address",
              "name": "interpreter",
              "type": "address"
            },
            {
              "internalType": "address",
              "name": "token",
              "type": "address"
            },
            {
              "components": [
                {
                  "internalType": "bytes[]",
                  "name": "sources",
                  "type": "bytes[]"
                },
                {
                  "internalType": "uint256[]",
                  "name": "constants",
                  "type": "uint256[]"
                }
              ],
              "internalType": "struct StateConfig",
              "name": "stateConfig",
              "type": "tuple"
            },
            {
              "internalType": "bytes",
              "name": "description",
              "type": "bytes"
            },
            {
              "internalType": "uint256",
              "name": "timeoutDuration",
              "type": "uint256"
            }
          ],
          "internalType": "struct LobbyConfig",
          "name": "config_",
          "type": "tuple"
        }
      ],
      "name": "createChildTyped",
      "outputs": [
        {
          "internalType": "contract Lobby",
          "name": "",
          "type": "address"
        }
      ],
      "stateMutability": "nonpayable",
      "type": "function"
    },
    {
      "inputs": [],
      "name": "implementation",
      "outputs": [
        {
          "internalType": "address",
          "name": "",
          "type": "address"
        }
      ],
      "stateMutability": "view",
      "type": "function"
    },
    {
      "inputs": [
        {
          "internalType": "address",
          "name": "maybeChild_",
          "type": "address"
        }
      ],
      "name": "isChild",
      "outputs": [
        {
          "internalType": "bool",
          "name": "",
          "type": "bool"
        }
      ],
      "stateMutability": "view",
      "type": "function"
    }
  ],
  "bytecode": "0x60a060405234801561001057600080fd5b5060405162004461380380620044618339810160408190526100319161018f565b6100396100c1565b60008160405161004890610181565b908152602001604051809103906000f08015801561006a573d6000803e3d6000fd5b50604080513381526001600160a01b03831660208201529192507f7fac34ecf0b1b374cd9659e3d17db602659d53f1162b1f20142e6c02694aed70910160405180910390a16001600160a01b0316608052506101a8565b600054610100900460ff161561012d5760405162461bcd60e51b815260206004820152602760248201527f496e697469616c697a61626c653a20636f6e747261637420697320696e697469604482015266616c697a696e6760c81b606482015260840160405180910390fd5b60005460ff908116101561017f576000805460ff191660ff9081179091556040519081527f7f26b83ff96e1f2b6a682f133852f6798a09c465da95921460cefb38474024989060200160405180910390a15b565b6134c08062000fa183390190565b6000602082840312156101a157600080fd5b5051919050565b608051610dd7620001ca6000396000818160a601526103020152610dd76000f3fe608060405234801561001057600080fd5b506004361061004c5760003560e01c80632ea72a4914610051578063303b0ea21461008e5780635c60da1b146100a1578063fc91a897146100c8575b600080fd5b61006461005f3660046105df565b610111565b60405173ffffffffffffffffffffffffffffffffffffffff90911681526020015b60405180910390f35b61006461009c3660046107cf565b61023f565b6100647f000000000000000000000000000000000000000000000000000000000000000081565b6101016100d63660046108c3565b73ffffffffffffffffffffffffffffffffffffffff1660009081526033602052604090205460ff1690565b6040519015158152602001610085565b600061011b61026f565b6000610126836102e2565b73ffffffffffffffffffffffffffffffffffffffff811660009081526033602052604090205490915060ff16156101a6576040517fd23867da00000000000000000000000000000000000000000000000000000000815273ffffffffffffffffffffffffffffffffffffffff821660048201526024015b60405180910390fd5b73ffffffffffffffffffffffffffffffffffffffff811660008181526033602090815260409182902080547fffffffffffffffffffffffffffffffffffffffffffffffffffffffffffffff001660011790558151338152908101929092527f7da70c4e5387d7038610b79ca7d304caaef815826e51e67cf247135387a79bce910160405180910390a1905061023a60018055565b919050565b6000610269826040516020016102559190610a1a565b604051602081830303815290604052610111565b92915050565b6002600154036102db576040517f08c379a000000000000000000000000000000000000000000000000000000000815260206004820152601f60248201527f5265656e7472616e637947756172643a207265656e7472616e742063616c6c00604482015260640161019d565b6002600155565b600080828060200190518101906102f99190610cad565b905060006103267f00000000000000000000000000000000000000000000000000000000000000006103b5565b6040517f997b359e00000000000000000000000000000000000000000000000000000000815290915073ffffffffffffffffffffffffffffffffffffffff82169063997b359e9061037b908590600401610a1a565b600060405180830381600087803b15801561039557600080fd5b505af11580156103a9573d6000803e3d6000fd5b50929695505050505050565b6000763d602d80600a3d3981f3363d3d373d3d3d363d730000008260601b60e81c176000526e5af43d82803e903d91602b57fd5bf38260781b17602052603760096000f0905073ffffffffffffffffffffffffffffffffffffffff811661023a576040517f08c379a000000000000000000000000000000000000000000000000000000000815260206004820152601660248201527f455243313136373a20637265617465206661696c656400000000000000000000604482015260640161019d565b7f4e487b7100000000000000000000000000000000000000000000000000000000600052604160045260246000fd5b6040805190810167ffffffffffffffff811182821017156104ca576104ca610478565b60405290565b604051610100810167ffffffffffffffff811182821017156104ca576104ca610478565b604051601f82017fffffffffffffffffffffffffffffffffffffffffffffffffffffffffffffffe016810167ffffffffffffffff8111828210171561053b5761053b610478565b604052919050565b600067ffffffffffffffff82111561055d5761055d610478565b50601f017fffffffffffffffffffffffffffffffffffffffffffffffffffffffffffffffe01660200190565b600082601f83011261059a57600080fd5b81356105ad6105a882610543565b6104f4565b8181528460208386010111156105c257600080fd5b816020850160208301376000918101602001919091529392505050565b6000602082840312156105f157600080fd5b813567ffffffffffffffff81111561060857600080fd5b61061484828501610589565b949350505050565b801515811461062a57600080fd5b50565b803561023a8161061c565b73ffffffffffffffffffffffffffffffffffffffff8116811461062a57600080fd5b803561023a81610638565b600067ffffffffffffffff82111561067f5761067f610478565b5060051b60200190565b600082601f83011261069a57600080fd5b813560206106aa6105a883610665565b82815260059290921b840181019181810190868411156106c957600080fd5b8286015b848110156106e457803583529183019183016106cd565b509695505050505050565b60006040828403121561070157600080fd5b6107096104a7565b9050813567ffffffffffffffff8082111561072357600080fd5b818401915084601f83011261073757600080fd5b813560206107476105a883610665565b82815260059290921b8401810191818101908884111561076657600080fd5b8286015b8481101561079e578035868111156107825760008081fd5b6107908b86838b0101610589565b84525091830191830161076a565b50865250858101359350828411156107b557600080fd5b6107c187858801610689565b818601525050505092915050565b6000602082840312156107e157600080fd5b813567ffffffffffffffff808211156107f957600080fd5b90830190610100828603121561080e57600080fd5b6108166104d0565b61081f8361062d565b815261082d6020840161065a565b602082015261083e6040840161065a565b604082015261084f6060840161065a565b60608201526108606080840161065a565b608082015260a08301358281111561087757600080fd5b610883878286016106ef565b60a08301525060c08301358281111561089b57600080fd5b6108a787828601610589565b60c08301525060e083013560e082015280935050505092915050565b6000602082840312156108d557600080fd5b81356108e081610638565b9392505050565b60005b838110156109025781810151838201526020016108ea565b50506000910152565b600081518084526109238160208601602086016108e7565b601f017fffffffffffffffffffffffffffffffffffffffffffffffffffffffffffffffe0169290920160200192915050565b60006040830182516040855281815180845260608701915060608160051b88010193506020808401935060005b828110156109ce577fffffffffffffffffffffffffffffffffffffffffffffffffffffffffffffffa08987030184526109bc86865161090b565b95509381019392810192600101610982565b508681015188860389830152805180875290820195600095508201935091505b81841015610a0e57845183529384019360019390930192918201916109ee565b50909695505050505050565b6020815281511515602082015260006020830151610a50604084018273ffffffffffffffffffffffffffffffffffffffff169052565b50604083015173ffffffffffffffffffffffffffffffffffffffff8116606084015250606083015173ffffffffffffffffffffffffffffffffffffffff8116608084015250608083015173ffffffffffffffffffffffffffffffffffffffff811660a08401525060a08301516101008060c0850152610ad3610120850183610955565b915060c08501517fffffffffffffffffffffffffffffffffffffffffffffffffffffffffffffffe08584030160e0860152610b0e838261090b565b92505060e085015181850152508091505092915050565b805161023a8161061c565b805161023a81610638565b600082601f830112610b4c57600080fd5b8151610b5a6105a882610543565b818152846020838601011115610b6f57600080fd5b6106148260208301602087016108e7565b600082601f830112610b9157600080fd5b81516020610ba16105a883610665565b82815260059290921b84018101918181019086841115610bc057600080fd5b8286015b848110156106e45780518352918301918301610bc4565b600060408284031215610bed57600080fd5b610bf56104a7565b9050815167ffffffffffffffff80821115610c0f57600080fd5b818401915084601f830112610c2357600080fd5b81516020610c336105a883610665565b82815260059290921b84018101918181019088841115610c5257600080fd5b8286015b84811015610c8a57805186811115610c6e5760008081fd5b610c7c8b86838b0101610b3b565b845250918301918301610c56565b5086525085810151935082841115610ca157600080fd5b6107c187858801610b80565b600060208284031215610cbf57600080fd5b815167ffffffffffffffff80821115610cd757600080fd5b908301906101008286031215610cec57600080fd5b610cf46104d0565b610cfd83610b25565b8152610d0b60208401610b30565b6020820152610d1c60408401610b30565b6040820152610d2d60608401610b30565b6060820152610d3e60808401610b30565b608082015260a083015182811115610d5557600080fd5b610d6187828601610bdb565b60a08301525060c083015182811115610d7957600080fd5b610d8587828601610b3b565b60c08301525060e083015160e08201528093505050509291505056fea26469706673582212206c9ae029620b830db4b5e7694662fd61ac21431e9feffcb2df96d1c32061121e64736f6c6343000811003360a06040523480156200001157600080fd5b50604051620034c0380380620034c083398101604081905262000034916200003d565b60805262000057565b6000602082840312156200005057600080fd5b5051919050565b60805161344d620000736000396000610ec4015261344d6000f3fe608060405234801561001057600080fd5b50600436106100df5760003560e01c80637b3d9fb81161008c578063a03e60dd11610066578063a03e60dd146101a3578063b6b55f25146101b6578063cf8fd726146101c9578063d47b5fa4146101d157600080fd5b80637b3d9fb81461015557806393c9655714610168578063997b359e1461019057600080fd5b8063500db45e116100bd578063500db45e14610127578063590e1ae31461013a5780635d521c101461014257600080fd5b806301a4acfa146100e4578063055ad42e146100f95780631cf355e814610114575b600080fd5b6100f76100f2366004612a59565b6101e4565b005b6101016105c1565b6040519081526020015b60405180910390f35b610101610122366004612ad1565b61062b565b6100f7610135366004612a59565b61066a565b6100f76107bb565b610101610150366004612ad1565b6108ab565b6100f7610163366004612a59565b6108f2565b61017b610176366004612b67565b610cae565b60405163ffffffff909116815260200161010b565b6100f761019e366004612b80565b610cde565b6100f76101b1366004612a59565b611102565b6100f76101c4366004612b67565b611426565b6100f76114e2565b6100f76101df366004612c01565b6115e0565b6001806101ef6105c1565b1461025b576040517f08c379a000000000000000000000000000000000000000000000000000000000815260206004820152600960248201527f4241445f5048415345000000000000000000000000000000000000000000000060448201526064015b60405180910390fd5b336000908152603d6020526040902054156102d2576040517f08c379a000000000000000000000000000000000000000000000000000000000815260206004820152600f60248201527f4f4e4c595f4e4f4e5f504c4159455200000000000000000000000000000000006044820152606401610252565b60365473ffffffffffffffffffffffffffffffffffffffff163303610353576040517f08c379a000000000000000000000000000000000000000000000000000000000815260206004820152600c60248201527f4f4e4c595f4e4f4e5f52454600000000000000000000000000000000000000006044820152606401610252565b61035b6116bc565b60385460395473ffffffffffffffffffffffffffffffffffffffff90911690600090819083906390e7d00b906103c7845b6040519080825280602002602001820160405280156103bf57816020015b60608152602001906001900390816103aa5790505b508a8a61172d565b6040518363ffffffff1660e01b81526004016103e4929190612ca8565b600060405180830381865afa158015610401573d6000803e3d6000fd5b505050506040513d6000823e601f3d9081017fffffffffffffffffffffffffffffffffffffffffffffffffffffffffffffffe01682016040526104479190810190612d8b565b9150915060008260028451038151811061046357610463612de5565b6020026020010151905060008360018551038151811061048557610485612de5565b602090810291909101810151336000908152603d9092526040918290206001905590517fce0dd62800000000000000000000000000000000000000000000000000000000815290915073ffffffffffffffffffffffffffffffffffffffff86169063ce0dd628906104fa908690600401612e14565b600060405180830381600087803b15801561051457600080fd5b505af1158015610528573d6000803e3d6000fd5b5050505061053581611426565b6040513381527f0764c80c4165f118547b301a0b4b91eac21bd2f2d9b61d0ac723ff0aab27bb799060200160405180910390a181156105ad57610579600242611a36565b6040513381527f90918ab0d30e0330d3f5458a4e53d30ec3c03a164673a0a736814dc9fddcb71f9060200160405180910390a15b50505050506105bc6001600255565b505050565b60408051610100810191829052600091610626919083906008908280855b82829054906101000a900463ffffffff1663ffffffff16815260200190600401906020826003010492830192600103820291508084116105df5790505050505050426108ab565b905090565b600080821161063b57600061065d565b82610647600184612e56565b6008811061065757610657612de5565b60200201515b63ffffffff169392505050565b60036106746105c1565b036106db576040517f08c379a000000000000000000000000000000000000000000000000000000000815260206004820152600960248201527f4241445f504841534500000000000000000000000000000000000000000000006044820152606401610252565b6106e58282611cdf565b61074b576040517f08c379a000000000000000000000000000000000000000000000000000000000815260206004820152600b60248201527f4e4f545f494e56414c49440000000000000000000000000000000000000000006044820152606401610252565b60046107556105c1565b101561077c576107776107666105c1565b610771906001612e69565b42611a36565b61074b565b7f105efb54c1671406f08698f3253405ad85182c2f493d5c6f5f7e03aff28839b43383836040516107af93929190612f86565b60405180910390a15050565b6004806107c66105c1565b1461082d576040517f08c379a000000000000000000000000000000000000000000000000000000000815260206004820152600960248201527f4241445f504841534500000000000000000000000000000000000000000000006044820152606401610252565b336000818152603e602052604090205460375490916108639173ffffffffffffffffffffffffffffffffffffffff169083611e65565b336000818152603e6020908152604080832092909255815192835282018390527fbb28353e4598c3b9199101a66e0989549b659a59a54d2c27fbb183f1932c8e6d91016107af565b60005b60088110156108ec578281600881106108c9576108c9612de5565b602002015163ffffffff1682106108ec57806108e481612fd1565b9150506108ae565b92915050565b6003806108fd6105c1565b14610964576040517f08c379a000000000000000000000000000000000000000000000000000000000815260206004820152600960248201527f4241445f504841534500000000000000000000000000000000000000000000006044820152606401610252565b61096c6116bc565b61097582611f39565b603554146109df576040517f08c379a000000000000000000000000000000000000000000000000000000000815260206004820152600860248201527f4241445f484153480000000000000000000000000000000000000000000000006044820152606401610252565b336000908152604060208190528120549003610bd857603854603b54604080516000808252602082019092529092839273ffffffffffffffffffffffffffffffffffffffff909116916390e7d00b9190610a569085610a4e565b6060815260200190600190039081610a395790505b50898961172d565b6040518363ffffffff1660e01b8152600401610a73929190612ca8565b600060405180830381865afa158015610a90573d6000803e3d6000fd5b505050506040513d6000823e601f3d9081017fffffffffffffffffffffffffffffffffffffffffffffffffffffffffffffffe0168201604052610ad69190810190612d8b565b91509150610b35610afa604154670de0b6b3a7640000611f6990919063ffffffff16565b8351610b2f9060209081028601015b7fffffffffffffffffffffffffffffffffffffffffffffffffffffffffffffffe0015190565b90611f7f565b33600090815260406020819052902055805115610bd5576038546040517fce0dd62800000000000000000000000000000000000000000000000000000000815273ffffffffffffffffffffffffffffffffffffffff9091169063ce0dd62890610ba2908490600401612e14565b600060405180830381600087803b158015610bbc57600080fd5b505af1158015610bd0573d6000803e3d6000fd5b505050505b50505b3360009081526040602081905290205415610ca4573360009081526040602081815281832054604290915290822054603f54610c1e9291610c1891612e56565b90611f95565b603754909150610c459073ffffffffffffffffffffffffffffffffffffffff163383611e65565b603f543360008181526042602090815260408083209490945583815290839020548351928352908201529081018290527f34fcbac0073d7c3d388e51312faf357774904998eeb8fca628b9e6f65ee1cbf79060600160405180910390a1505b6105bc6001600255565b60008160088110610cbe57600080fd5b60089182820401919006600402915054906101000a900463ffffffff1681565b600154610100900460ff1615808015610cfb57506001805460ff16105b80610d145750303b158015610d1457506001805460ff16145b610da0576040517f08c379a000000000000000000000000000000000000000000000000000000000815260206004820152602e60248201527f496e697469616c697a61626c653a20636f6e747261637420697320616c72656160448201527f647920696e697469616c697a65640000000000000000000000000000000000006064820152608401610252565b600180547fffffffffffffffffffffffffffffffffffffffffffffffffffffffffffffff0016811790558015610dfd57600180547fffffffffffffffffffffffffffffffffffffffffffffffffffffffffffff00ff166101001790555b610e0a6020830183613017565b610e1957610e19600142611a36565b6000610e2b6060840160408501613034565b73ffffffffffffffffffffffffffffffffffffffff16631ed061d9610e5360a0860186613051565b610e606002600180611faa565b6040518363ffffffff1660e01b8152600401610e7d92919061318a565b6020604051808303816000875af1158015610e9c573d6000803e3d6000fd5b505050506040513d601f19601f82011682018060405250810190610ec091906132d2565b90507f00000000000000000000000000000000000000000000000000000000000000008360e001351115610f50576040517f08c379a000000000000000000000000000000000000000000000000000000000815260206004820152600b60248201527f4d41585f54494d454f55540000000000000000000000000000000000000000006044820152606401610252565b610f5e60e084013542612e69565b603455610f716040840160208501613034565b603680547fffffffffffffffffffffffff00000000000000000000000000000000000000001673ffffffffffffffffffffffffffffffffffffffff92909216919091179055610fc660a0840160808501613034565b603780547fffffffffffffffffffffffff00000000000000000000000000000000000000001673ffffffffffffffffffffffffffffffffffffffff9290921691909117905561101b6080840160608501613034565b6038805473ffffffffffffffffffffffffffffffffffffffff929092167fffffffffffffffffffffffff000000000000000000000000000000000000000090921691909117905560201b77ffffffffffffffffffffffffffffffffffffffff000000001660028117603955620100028117603a55620200018117603b556203000117603c5580156110fe57600180547fffffffffffffffffffffffffffffffffffffffffffffffffffffffffffff00ff1681556040519081527f7f26b83ff96e1f2b6a682f133852f6798a09c465da95921460cefb3847402498906020016107af565b5050565b60018061110d6105c1565b14611174576040517f08c379a000000000000000000000000000000000000000000000000000000000815260206004820152600960248201527f4241445f504841534500000000000000000000000000000000000000000000006044820152606401610252565b336000908152603d60205260409020546111ea576040517f08c379a000000000000000000000000000000000000000000000000000000000815260206004820152600b60248201527f4f4e4c595f504c415945520000000000000000000000000000000000000000006044820152606401610252565b6111f26116bc565b336000908152603d60209081526040808320839055603e909152812054603854603a54919291829173ffffffffffffffffffffffffffffffffffffffff16906390e7d00b906112408461038c565b6040518363ffffffff1660e01b815260040161125d929190612ca8565b600060405180830381865afa15801561127a573d6000803e3d6000fd5b505050506040513d6000823e601f3d9081017fffffffffffffffffffffffffffffffffffffffffffffffffffffffffffffffe01682016040526112c09190810190612d8b565b9150915060006112df84610b2f610b0986805160209081029091010190565b6037549091506113069073ffffffffffffffffffffffffffffffffffffffff163383611e65565b336000908152603e60205260408120819055603f805483929061132a908490612e56565b90915550506038546040517fce0dd62800000000000000000000000000000000000000000000000000000000815273ffffffffffffffffffffffffffffffffffffffff9091169063ce0dd62890611385908590600401612e14565b600060405180830381600087803b15801561139f57600080fd5b505af11580156113b3573d6000803e3d6000fd5b50506037546040805133815273ffffffffffffffffffffffffffffffffffffffff90921660208301528101879052606081018490527f788e2ff2e7a5d83f7f128f5d44d44a080dc83e52de350a6f04d5c548017ba1189250608001905060405180910390a1505050506105bc6001600255565b61142e6116bc565b336000908152603e60205260408120829055603f8054839290611452908490612e69565b909155505060375461147c9073ffffffffffffffffffffffffffffffffffffffff16333084611fe7565b6037546040805133815273ffffffffffffffffffffffffffffffffffffffff909216602083015281018290527f5548c837ab068cf56a2c2479df0882a4922fd203edb7517321831d95078c5f629060600160405180910390a16114df6001600255565b50565b60365473ffffffffffffffffffffffffffffffffffffffff163314611563576040517f08c379a000000000000000000000000000000000000000000000000000000000815260206004820152600860248201527f4f4e4c595f5245460000000000000000000000000000000000000000000000006044820152606401610252565b60008061156e6105c1565b146115d5576040517f08c379a000000000000000000000000000000000000000000000000000000000815260206004820152600960248201527f4241445f504841534500000000000000000000000000000000000000000000006044820152606401610252565b6114df600142611a36565b6002806115eb6105c1565b14611652576040517f08c379a000000000000000000000000000000000000000000000000000000000815260206004820152600960248201527f4241445f504841534500000000000000000000000000000000000000000000006044820152606401610252565b61166461165f83856132ef565b611f39565b603555611672600342611a36565b6116b585858080602002602001604051908101604052809392919081815260200183836020028082843760009201919091525061016392508691508790506132ef565b5050505050565b6002805403611727576040517f08c379a000000000000000000000000000000000000000000000000000000000815260206004820152601f60248201527f5265656e7472616e637947756172643a207265656e7472616e742063616c6c006044820152606401610252565b60028055565b60606000825167ffffffffffffffff81111561174b5761174b6127af565b604051908082528060200260200182016040528015611774578160200160208202803683370190505b50905060008084511161178857600061178e565b83516001015b865101600201905060008167ffffffffffffffff8111156117b1576117b16127af565b6040519080825280602002602001820160405280156117e457816020015b60608152602001906001900390816117cf5790505b50905060006117f161204b565b82828151811061180357611803612de5565b602002602001018190525060005b885181101561186157818060010192505088818151811061183457611834612de5565b602002602001015183838151811061184e5761184e612de5565b6020908102919091010152600101611811565b5080806001019150508682828151811061187d5761187d612de5565b6020908102919091010152855115611a29578080600101915050838282815181106118aa576118aa612de5565b602002602001018190525060005b8651811015611a27576119518782815181106118d6576118d6612de5565b60200260200101516000015161192e8984815181106118f7576118f7612de5565b60200260200101516040015160405160200161191391906132fc565b60405160208183030381529060405280519060200120612057565b89848151811061194057611940612de5565b602002602001015160200151612092565b61198a576040517f52bf984800000000000000000000000000000000000000000000000000000000815260048101829052602401610252565b86818151811061199c5761199c612de5565b60200260200101516000015173ffffffffffffffffffffffffffffffffffffffff168582815181106119d0576119d0612de5565b60200260200101818152505081806001019250508681815181106119f6576119f6612de5565b602002602001015160400151838381518110611a1457611a14612de5565b60209081029190910101526001016118b8565b505b50925050505b9392505050565b80421115611aa0576040517f08c379a000000000000000000000000000000000000000000000000000000000815260206004820152600e60248201527f4e4558545f54494d455f504153540000000000000000000000000000000000006044820152606401610252565b63ffffffff8110611b0d576040517f08c379a000000000000000000000000000000000000000000000000000000000815260206004820152601760248201527f4e4558545f54494d455f554e494e495449414c495a45440000000000000000006044820152606401610252565b7fffffffffffffffffffffffffffffffffffffffffffffffffffffffffffffffff820180611b396105c1565b14611ba0576040517f08c379a000000000000000000000000000000000000000000000000000000000815260206004820152600a60248201527f4e4558545f5048415345000000000000000000000000000000000000000000006044820152606401610252565b60008160088110611bb357611bb3612de5565b60088104919091015460079091166004026101000a900463ffffffff90811614611c39576040517f08c379a000000000000000000000000000000000000000000000000000000000815260206004820152600d60248201527f4e4558545f54494d455f534554000000000000000000000000000000000000006044820152606401610252565b8160008260088110611c4d57611c4d612de5565b600891828204019190066004026101000a81548163ffffffff021916908363ffffffff1602179055507fba85f6676f17ca992195e3cb204ae48c68666b109edc14a794e5d894387d25d3338484604051611cd29392919073ffffffffffffffffffffffffffffffffffffffff9390931683526020830191909152604082015260600190565b60405180910390a1505050565b6000603454421115611cf3575060016108ec565b603854603c5473ffffffffffffffffffffffffffffffffffffffff90911690600090819083906390e7d00b90611d288461038c565b6040518363ffffffff1660e01b8152600401611d45929190612ca8565b600060405180830381865afa158015611d62573d6000803e3d6000fd5b505050506040513d6000823e601f3d9081017fffffffffffffffffffffffffffffffffffffffffffffffffffffffffffffffe0168201604052611da89190810190612d8b565b8051919350915015611e39576040517fce0dd62800000000000000000000000000000000000000000000000000000000815273ffffffffffffffffffffffffffffffffffffffff84169063ce0dd62890611e06908490600401612e14565b600060405180830381600087803b158015611e2057600080fd5b505af1158015611e34573d6000803e3d6000fd5b505050505b600082600184510381518110611e5157611e51612de5565b602002602001015111935050505092915050565b60405173ffffffffffffffffffffffffffffffffffffffff83166024820152604481018290526105bc9084907fa9059cbb00000000000000000000000000000000000000000000000000000000906064015b604080517fffffffffffffffffffffffffffffffffffffffffffffffffffffffffffffffe08184030181529190526020810180517bffffffffffffffffffffffffffffffffffffffffffffffffffffffff167fffffffff000000000000000000000000000000000000000000000000000000009093169290921790915261225f565b600081604051602001611f4c9190613332565b604051602081830303815290604052805190602001209050919050565b6000818311611f79576000611a2f565b50900390565b6000818310611f8e5781611a2f565b5090919050565b6000611a2f8383670de0b6b3a764000061236b565b6040805160038082526080820190925260609160009190602082018480368337505050602081019590955250506040830191909152606082015290565b60405173ffffffffffffffffffffffffffffffffffffffff808516602483015283166044820152606481018290526120459085907f23b872dd0000000000000000000000000000000000000000000000000000000090608401611eb7565b50505050565b60606106263330612438565b6040517f19457468657265756d205369676e6564204d6573736167653a0a3332000000006020820152603c8101829052600090605c01611f4c565b60008060006120a1858561246c565b909250905060008160048111156120ba576120ba613345565b1480156120f257508573ffffffffffffffffffffffffffffffffffffffff168273ffffffffffffffffffffffffffffffffffffffff16145b1561210257600192505050611a2f565b6000808773ffffffffffffffffffffffffffffffffffffffff16631626ba7e60e01b8888604051602401612137929190613374565b604080517fffffffffffffffffffffffffffffffffffffffffffffffffffffffffffffffe08184030181529181526020820180517bffffffffffffffffffffffffffffffffffffffffffffffffffffffff167fffffffff000000000000000000000000000000000000000000000000000000009094169390931790925290516121c0919061338d565b600060405180830381855afa9150503d80600081146121fb576040519150601f19603f3d011682016040523d82523d6000602084013e612200565b606091505b5091509150818015612213575080516020145b8015612253575080517f1626ba7e0000000000000000000000000000000000000000000000000000000090612251908301602090810190840161339f565b145b98975050505050505050565b60006122c1826040518060400160405280602081526020017f5361666545524332303a206c6f772d6c6576656c2063616c6c206661696c65648152508573ffffffffffffffffffffffffffffffffffffffff166124b19092919063ffffffff16565b8051909150156105bc57808060200190518101906122df91906133b8565b6105bc576040517f08c379a000000000000000000000000000000000000000000000000000000000815260206004820152602a60248201527f5361666545524332303a204552433230206f7065726174696f6e20646964206e60448201527f6f742073756363656564000000000000000000000000000000000000000000006064820152608401610252565b600080807fffffffffffffffffffffffffffffffffffffffffffffffffffffffffffffffff858709858702925082811083820303915050806000036123c3578382816123b9576123b96133d5565b0492505050611a2f565b8084116123cf57600080fd5b60008486880960026001871981018816978890046003810283188082028403028082028403028082028403028082028403028082028403029081029092039091026000889003889004909101858311909403939093029303949094049190911702949350505050565b6040805160028082526060808301845292600092919060208301908036833750505060208101949094525050604082015290565b60008082516041036124a25760208301516040840151606085015160001a612496878285856124c8565b945094505050506124aa565b506000905060025b9250929050565b60606124c084846000856125b7565b949350505050565b6000807f7fffffffffffffffffffffffffffffff5d576e7357a4501ddfe92f46681b20a08311156124ff57506000905060036125ae565b6040805160008082526020820180845289905260ff881692820192909252606081018690526080810185905260019060a0016020604051602081039080840390855afa158015612553573d6000803e3d6000fd5b50506040517fffffffffffffffffffffffffffffffffffffffffffffffffffffffffffffffe0015191505073ffffffffffffffffffffffffffffffffffffffff81166125a7576000600192509250506125ae565b9150600090505b94509492505050565b606082471015612649576040517f08c379a000000000000000000000000000000000000000000000000000000000815260206004820152602660248201527f416464726573733a20696e73756666696369656e742062616c616e636520666f60448201527f722063616c6c00000000000000000000000000000000000000000000000000006064820152608401610252565b6000808673ffffffffffffffffffffffffffffffffffffffff168587604051612672919061338d565b60006040518083038185875af1925050503d80600081146126af576040519150601f19603f3d011682016040523d82523d6000602084013e6126b4565b606091505b50915091506126c5878383876126d0565b979650505050505050565b6060831561276657825160000361275f5773ffffffffffffffffffffffffffffffffffffffff85163b61275f576040517f08c379a000000000000000000000000000000000000000000000000000000000815260206004820152601d60248201527f416464726573733a2063616c6c20746f206e6f6e2d636f6e74726163740000006044820152606401610252565b50816124c0565b6124c0838381511561277b5781518083602001fd5b806040517f08c379a00000000000000000000000000000000000000000000000000000000081526004016102529190613404565b7f4e487b7100000000000000000000000000000000000000000000000000000000600052604160045260246000fd5b6040516060810167ffffffffffffffff81118282101715612801576128016127af565b60405290565b604051601f82017fffffffffffffffffffffffffffffffffffffffffffffffffffffffffffffffe016810167ffffffffffffffff8111828210171561284e5761284e6127af565b604052919050565b600067ffffffffffffffff821115612870576128706127af565b5060051b60200190565b600082601f83011261288b57600080fd5b813560206128a061289b83612856565b612807565b82815260059290921b840181019181810190868411156128bf57600080fd5b8286015b848110156128da57803583529183019183016128c3565b509695505050505050565b73ffffffffffffffffffffffffffffffffffffffff811681146114df57600080fd5b600061291561289b84612856565b8381529050602080820190600585901b84018681111561293457600080fd5b845b81811015612a4e57803567ffffffffffffffff808211156129575760008081fd5b908701906060828b03121561296c5760008081fd5b6129746127de565b823561297f816128e5565b815282860135828111156129935760008081fd5b8301601f8082018d136129a65760008081fd5b8135848111156129b8576129b86127af565b6129e7897fffffffffffffffffffffffffffffffffffffffffffffffffffffffffffffffe08484011601612807565b91508082528d898285010111156129fe5760008081fd5b808984018a84013760009250828982840101525080888401525060408085013584811115612a2a578283fd5b612a368e82880161287a565b91840191909152505086525050928201928201612936565b505050509392505050565b60008060408385031215612a6c57600080fd5b823567ffffffffffffffff80821115612a8457600080fd5b612a908683870161287a565b93506020850135915080821115612aa657600080fd5b508301601f81018513612ab857600080fd5b612ac785823560208401612907565b9150509250929050565b6000806101208385031215612ae557600080fd5b83601f840112612af457600080fd5b60405161010080820182811067ffffffffffffffff82111715612b1957612b196127af565b60405284018186821115612b2c57600080fd5b855b82811015612b5957803563ffffffff81168114612b4b5760008081fd5b825260209182019101612b2e565b509196903595509350505050565b600060208284031215612b7957600080fd5b5035919050565b600060208284031215612b9257600080fd5b813567ffffffffffffffff811115612ba957600080fd5b82016101008185031215611a2f57600080fd5b60008083601f840112612bce57600080fd5b50813567ffffffffffffffff811115612be657600080fd5b6020830191508360208260051b85010111156124aa57600080fd5b60008060008060408587031215612c1757600080fd5b843567ffffffffffffffff80821115612c2f57600080fd5b612c3b88838901612bbc565b90965094506020870135915080821115612c5457600080fd5b50612c6187828801612bbc565b95989497509550505050565b600081518084526020808501945080840160005b83811015612c9d57815187529582019590820190600101612c81565b509495945050505050565b600060408201848352602060408185015281855180845260608601915060608160051b870101935082870160005b82811015612d22577fffffffffffffffffffffffffffffffffffffffffffffffffffffffffffffffa0888703018452612d10868351612c6d565b95509284019290840190600101612cd6565b509398975050505050505050565b600082601f830112612d4157600080fd5b81516020612d5161289b83612856565b82815260059290921b84018101918181019086841115612d7057600080fd5b8286015b848110156128da5780518352918301918301612d74565b60008060408385031215612d9e57600080fd5b825167ffffffffffffffff80821115612db657600080fd5b612dc286838701612d30565b93506020850151915080821115612dd857600080fd5b50612ac785828601612d30565b7f4e487b7100000000000000000000000000000000000000000000000000000000600052603260045260246000fd5b602081526000611a2f6020830184612c6d565b7f4e487b7100000000000000000000000000000000000000000000000000000000600052601160045260246000fd5b818103818111156108ec576108ec612e27565b808201808211156108ec576108ec612e27565b60005b83811015612e97578181015183820152602001612e7f565b50506000910152565b60008151808452612eb8816020860160208601612e7c565b601f017fffffffffffffffffffffffffffffffffffffffffffffffffffffffffffffffe0169290920160200192915050565b600081518084526020808501808196508360051b8101915082860160005b85811015612f795782840389528151606073ffffffffffffffffffffffffffffffffffffffff8251168652868201518188880152612f4882880182612ea0565b91505060408083015192508682038188015250612f658183612c6d565b9a87019a9550505090840190600101612f08565b5091979650505050505050565b73ffffffffffffffffffffffffffffffffffffffff84168152606060208201526000612fb56060830185612c6d565b8281036040840152612fc78185612eea565b9695505050505050565b60007fffffffffffffffffffffffffffffffffffffffffffffffffffffffffffffffff820361300257613002612e27565b5060010190565b80151581146114df57600080fd5b60006020828403121561302957600080fd5b8135611a2f81613009565b60006020828403121561304657600080fd5b8135611a2f816128e5565b600082357fffffffffffffffffffffffffffffffffffffffffffffffffffffffffffffffc183360301811261308557600080fd5b9190910192915050565b60008083357fffffffffffffffffffffffffffffffffffffffffffffffffffffffffffffffe18436030181126130c457600080fd5b830160208101925035905067ffffffffffffffff8111156130e457600080fd5b8060051b36038213156124aa57600080fd5b8183528181602085013750600060208284010152600060207fffffffffffffffffffffffffffffffffffffffffffffffffffffffffffffffe0601f840116840101905092915050565b81835260007f07ffffffffffffffffffffffffffffffffffffffffffffffffffffffffffffff83111561317157600080fd5b8260051b80836020870137939093016020019392505050565b6040815260006080820161319e858661308f565b6040808601528281845260a08601905060a08260051b87010193508260005b8381101561326c577fffffffffffffffffffffffffffffffffffffffffffffffffffffffffffffff6088870301835281357fffffffffffffffffffffffffffffffffffffffffffffffffffffffffffffffe186360301811261321e57600080fd5b8501602081810191359067ffffffffffffffff82111561323d57600080fd5b81360383131561324c57600080fd5b6132578983856130f6565b985094850194939093019250506001016131bd565b505050505061327e602086018661308f565b7fffffffffffffffffffffffffffffffffffffffffffffffffffffffffffffffc08584030160608601526132b383828461313f565b9250505082810360208401526132c98185612c6d565b95945050505050565b6000602082840312156132e457600080fd5b8151611a2f816128e5565b6000611a2f368484612907565b815160009082906020808601845b838110156133265781518552938201939082019060010161330a565b50929695505050505050565b602081526000611a2f6020830184612eea565b7f4e487b7100000000000000000000000000000000000000000000000000000000600052602160045260246000fd5b8281526040602082015260006124c06040830184612ea0565b60008251613085818460208701612e7c565b6000602082840312156133b157600080fd5b5051919050565b6000602082840312156133ca57600080fd5b8151611a2f81613009565b7f4e487b7100000000000000000000000000000000000000000000000000000000600052601260045260246000fd5b602081526000611a2f6020830184612ea056fea264697066735822122073c871a026627a05f8b0f284696fa11594c3bed170829576c97c5f7b122aa47864736f6c63430008110033",
  "linkReferences": {},
  "deployedLinkReferences": {}
}