{
  "_format": "hh-sol-artifact-1",
  "contractName": "OrderBook",
  "sourceName": "contracts/orderbook/OrderBook.sol",
  "abi": [
    {
      "anonymous": false,
      "inputs": [
        {
          "indexed": false,
          "internalType": "address",
          "name": "sender",
          "type": "address"
        },
        {
          "components": [
            {
              "internalType": "address",
              "name": "owner",
              "type": "address"
            },
            {
              "internalType": "address",
              "name": "interpreter",
              "type": "address"
            },
            {
              "internalType": "address",
              "name": "expression",
              "type": "address"
            },
            {
              "internalType": "uint32",
              "name": "expiresAfter",
              "type": "uint32"
            },
            {
              "components": [
                {
                  "internalType": "address",
                  "name": "token",
                  "type": "address"
                },
                {
                  "internalType": "uint256",
                  "name": "vaultId",
                  "type": "uint256"
                }
              ],
              "internalType": "struct IO[]",
              "name": "validInputs",
              "type": "tuple[]"
            },
            {
              "components": [
                {
                  "internalType": "address",
                  "name": "token",
                  "type": "address"
                },
                {
                  "internalType": "uint256",
                  "name": "vaultId",
                  "type": "uint256"
                }
              ],
              "internalType": "struct IO[]",
              "name": "validOutputs",
              "type": "tuple[]"
            }
          ],
          "indexed": false,
          "internalType": "struct Order",
          "name": "order",
          "type": "tuple"
        },
        {
          "indexed": false,
          "internalType": "uint256",
          "name": "orderHash",
          "type": "uint256"
        }
      ],
      "name": "AddOrder",
      "type": "event"
    },
    {
      "anonymous": false,
      "inputs": [
        {
          "components": [
            {
              "internalType": "uint256",
              "name": "aOutput",
              "type": "uint256"
            },
            {
              "internalType": "uint256",
              "name": "bOutput",
              "type": "uint256"
            },
            {
              "internalType": "uint256",
              "name": "aInput",
              "type": "uint256"
            },
            {
              "internalType": "uint256",
              "name": "bInput",
              "type": "uint256"
            }
          ],
          "indexed": false,
          "internalType": "struct ClearStateChange",
          "name": "stateChange",
          "type": "tuple"
        }
      ],
      "name": "AfterClear",
      "type": "event"
    },
    {
      "anonymous": false,
      "inputs": [
        {
          "indexed": false,
          "internalType": "address",
          "name": "sender",
          "type": "address"
        },
        {
          "components": [
            {
              "internalType": "address",
              "name": "owner",
              "type": "address"
            },
            {
              "internalType": "address",
              "name": "interpreter",
              "type": "address"
            },
            {
              "internalType": "address",
              "name": "expression",
              "type": "address"
            },
            {
              "internalType": "uint32",
              "name": "expiresAfter",
              "type": "uint32"
            },
            {
              "components": [
                {
                  "internalType": "address",
                  "name": "token",
                  "type": "address"
                },
                {
                  "internalType": "uint256",
                  "name": "vaultId",
                  "type": "uint256"
                }
              ],
              "internalType": "struct IO[]",
              "name": "validInputs",
              "type": "tuple[]"
            },
            {
              "components": [
                {
                  "internalType": "address",
                  "name": "token",
                  "type": "address"
                },
                {
                  "internalType": "uint256",
                  "name": "vaultId",
                  "type": "uint256"
                }
              ],
              "internalType": "struct IO[]",
              "name": "validOutputs",
              "type": "tuple[]"
            }
          ],
          "indexed": false,
          "internalType": "struct Order",
          "name": "a",
          "type": "tuple"
        },
        {
          "components": [
            {
              "internalType": "address",
              "name": "owner",
              "type": "address"
            },
            {
              "internalType": "address",
              "name": "interpreter",
              "type": "address"
            },
            {
              "internalType": "address",
              "name": "expression",
              "type": "address"
            },
            {
              "internalType": "uint32",
              "name": "expiresAfter",
              "type": "uint32"
            },
            {
              "components": [
                {
                  "internalType": "address",
                  "name": "token",
                  "type": "address"
                },
                {
                  "internalType": "uint256",
                  "name": "vaultId",
                  "type": "uint256"
                }
              ],
              "internalType": "struct IO[]",
              "name": "validInputs",
              "type": "tuple[]"
            },
            {
              "components": [
                {
                  "internalType": "address",
                  "name": "token",
                  "type": "address"
                },
                {
                  "internalType": "uint256",
                  "name": "vaultId",
                  "type": "uint256"
                }
              ],
              "internalType": "struct IO[]",
              "name": "validOutputs",
              "type": "tuple[]"
            }
          ],
          "indexed": false,
          "internalType": "struct Order",
          "name": "b",
          "type": "tuple"
        },
        {
          "components": [
            {
              "internalType": "uint256",
              "name": "aInputIOIndex",
              "type": "uint256"
            },
            {
              "internalType": "uint256",
              "name": "aOutputIOIndex",
              "type": "uint256"
            },
            {
              "internalType": "uint256",
              "name": "bInputIOIndex",
              "type": "uint256"
            },
            {
              "internalType": "uint256",
              "name": "bOutputIOIndex",
              "type": "uint256"
            },
            {
              "internalType": "uint256",
              "name": "aBountyVaultId",
              "type": "uint256"
            },
            {
              "internalType": "uint256",
              "name": "bBountyVaultId",
              "type": "uint256"
            }
          ],
          "indexed": false,
          "internalType": "struct ClearConfig",
          "name": "clearConfig",
          "type": "tuple"
        }
      ],
      "name": "Clear",
      "type": "event"
    },
    {
      "anonymous": false,
      "inputs": [
        {
          "indexed": false,
          "internalType": "address",
          "name": "sender",
          "type": "address"
        },
        {
          "components": [
            {
              "internalType": "address",
              "name": "token",
              "type": "address"
            },
            {
              "internalType": "uint256",
              "name": "vaultId",
              "type": "uint256"
            },
            {
              "internalType": "uint256",
              "name": "amount",
              "type": "uint256"
            }
          ],
          "indexed": false,
          "internalType": "struct DepositConfig",
          "name": "config",
          "type": "tuple"
        }
      ],
      "name": "Deposit",
      "type": "event"
    },
    {
      "anonymous": false,
      "inputs": [
        {
          "indexed": false,
          "internalType": "address",
          "name": "sender",
          "type": "address"
        },
        {
          "indexed": false,
          "internalType": "address",
          "name": "owner",
          "type": "address"
        },
        {
          "indexed": false,
          "internalType": "uint256",
          "name": "orderHash",
          "type": "uint256"
        }
      ],
      "name": "OrderExceedsMaxRatio",
      "type": "event"
    },
    {
      "anonymous": false,
      "inputs": [
        {
          "indexed": false,
          "internalType": "address",
          "name": "sender",
          "type": "address"
        },
        {
          "indexed": false,
          "internalType": "address",
          "name": "owner",
          "type": "address"
        },
        {
          "indexed": false,
          "internalType": "uint256",
          "name": "orderHash",
          "type": "uint256"
        }
      ],
      "name": "OrderExpired",
      "type": "event"
    },
    {
      "anonymous": false,
      "inputs": [
        {
          "indexed": false,
          "internalType": "address",
          "name": "sender",
          "type": "address"
        },
        {
          "indexed": false,
          "internalType": "address",
          "name": "owner",
          "type": "address"
        },
        {
          "indexed": false,
          "internalType": "uint256",
          "name": "orderHash",
          "type": "uint256"
        }
      ],
      "name": "OrderNotFound",
      "type": "event"
    },
    {
      "anonymous": false,
      "inputs": [
        {
          "indexed": false,
          "internalType": "address",
          "name": "sender",
          "type": "address"
        },
        {
          "indexed": false,
          "internalType": "address",
          "name": "owner",
          "type": "address"
        },
        {
          "indexed": false,
          "internalType": "uint256",
          "name": "orderHash",
          "type": "uint256"
        }
      ],
      "name": "OrderZeroAmount",
      "type": "event"
    },
    {
      "anonymous": false,
      "inputs": [
        {
          "indexed": false,
          "internalType": "address",
          "name": "sender",
          "type": "address"
        },
        {
          "components": [
            {
              "internalType": "address",
              "name": "owner",
              "type": "address"
            },
            {
              "internalType": "address",
              "name": "interpreter",
              "type": "address"
            },
            {
              "internalType": "address",
              "name": "expression",
              "type": "address"
            },
            {
              "internalType": "uint32",
              "name": "expiresAfter",
              "type": "uint32"
            },
            {
              "components": [
                {
                  "internalType": "address",
                  "name": "token",
                  "type": "address"
                },
                {
                  "internalType": "uint256",
                  "name": "vaultId",
                  "type": "uint256"
                }
              ],
              "internalType": "struct IO[]",
              "name": "validInputs",
              "type": "tuple[]"
            },
            {
              "components": [
                {
                  "internalType": "address",
                  "name": "token",
                  "type": "address"
                },
                {
                  "internalType": "uint256",
                  "name": "vaultId",
                  "type": "uint256"
                }
              ],
              "internalType": "struct IO[]",
              "name": "validOutputs",
              "type": "tuple[]"
            }
          ],
          "indexed": false,
          "internalType": "struct Order",
          "name": "order",
          "type": "tuple"
        },
        {
          "indexed": false,
          "internalType": "uint256",
          "name": "orderHash",
          "type": "uint256"
        }
      ],
      "name": "RemoveOrder",
      "type": "event"
    },
    {
      "anonymous": false,
      "inputs": [
        {
          "indexed": false,
          "internalType": "address",
          "name": "sender",
          "type": "address"
        },
        {
          "components": [
            {
              "components": [
                {
                  "internalType": "address",
                  "name": "owner",
                  "type": "address"
                },
                {
                  "internalType": "address",
                  "name": "interpreter",
                  "type": "address"
                },
                {
                  "internalType": "address",
                  "name": "expression",
                  "type": "address"
                },
                {
                  "internalType": "uint32",
                  "name": "expiresAfter",
                  "type": "uint32"
                },
                {
                  "components": [
                    {
                      "internalType": "address",
                      "name": "token",
                      "type": "address"
                    },
                    {
                      "internalType": "uint256",
                      "name": "vaultId",
                      "type": "uint256"
                    }
                  ],
                  "internalType": "struct IO[]",
                  "name": "validInputs",
                  "type": "tuple[]"
                },
                {
                  "components": [
                    {
                      "internalType": "address",
                      "name": "token",
                      "type": "address"
                    },
                    {
                      "internalType": "uint256",
                      "name": "vaultId",
                      "type": "uint256"
                    }
                  ],
                  "internalType": "struct IO[]",
                  "name": "validOutputs",
                  "type": "tuple[]"
                }
              ],
              "internalType": "struct Order",
              "name": "order",
              "type": "tuple"
            },
            {
              "internalType": "uint256",
              "name": "inputIOIndex",
              "type": "uint256"
            },
            {
              "internalType": "uint256",
              "name": "outputIOIndex",
              "type": "uint256"
            }
          ],
          "indexed": false,
          "internalType": "struct TakeOrderConfig",
          "name": "takeOrder",
          "type": "tuple"
        },
        {
          "indexed": false,
          "internalType": "uint256",
          "name": "input",
          "type": "uint256"
        },
        {
          "indexed": false,
          "internalType": "uint256",
          "name": "output",
          "type": "uint256"
        }
      ],
      "name": "TakeOrder",
      "type": "event"
    },
    {
      "anonymous": false,
      "inputs": [
        {
          "indexed": false,
          "internalType": "address",
          "name": "sender",
          "type": "address"
        },
        {
          "components": [
            {
              "internalType": "address",
              "name": "token",
              "type": "address"
            },
            {
              "internalType": "uint256",
              "name": "vaultId",
              "type": "uint256"
            },
            {
              "internalType": "uint256",
              "name": "amount",
              "type": "uint256"
            }
          ],
          "indexed": false,
          "internalType": "struct WithdrawConfig",
          "name": "config",
          "type": "tuple"
        },
        {
          "indexed": false,
          "internalType": "uint256",
          "name": "amount",
          "type": "uint256"
        }
      ],
      "name": "Withdraw",
      "type": "event"
    },
    {
      "inputs": [
        {
          "components": [
            {
              "internalType": "address",
              "name": "expressionDeployer",
              "type": "address"
            },
            {
              "internalType": "address",
              "name": "interpreter",
              "type": "address"
            },
            {
              "internalType": "uint32",
              "name": "expiresAfter",
              "type": "uint32"
            },
            {
              "components": [
                {
                  "internalType": "bytes[]",
                  "name": "sources",
                  "type": "bytes[]"
                },
                {
                  "internalType": "uint256[]",
                  "name": "constants",
                  "type": "uint256[]"
                }
              ],
              "internalType": "struct StateConfig",
              "name": "interpreterStateConfig",
              "type": "tuple"
            },
            {
              "components": [
                {
                  "internalType": "address",
                  "name": "token",
                  "type": "address"
                },
                {
                  "internalType": "uint256",
                  "name": "vaultId",
                  "type": "uint256"
                }
              ],
              "internalType": "struct IO[]",
              "name": "validInputs",
              "type": "tuple[]"
            },
            {
              "components": [
                {
                  "internalType": "address",
                  "name": "token",
                  "type": "address"
                },
                {
                  "internalType": "uint256",
                  "name": "vaultId",
                  "type": "uint256"
                }
              ],
              "internalType": "struct IO[]",
              "name": "validOutputs",
              "type": "tuple[]"
            }
          ],
          "internalType": "struct OrderConfig",
          "name": "config_",
          "type": "tuple"
        }
      ],
      "name": "addOrder",
      "outputs": [],
      "stateMutability": "nonpayable",
      "type": "function"
    },
    {
      "inputs": [
        {
          "components": [
            {
              "internalType": "address",
              "name": "owner",
              "type": "address"
            },
            {
              "internalType": "address",
              "name": "interpreter",
              "type": "address"
            },
            {
              "internalType": "address",
              "name": "expression",
              "type": "address"
            },
            {
              "internalType": "uint32",
              "name": "expiresAfter",
              "type": "uint32"
            },
            {
              "components": [
                {
                  "internalType": "address",
                  "name": "token",
                  "type": "address"
                },
                {
                  "internalType": "uint256",
                  "name": "vaultId",
                  "type": "uint256"
                }
              ],
              "internalType": "struct IO[]",
              "name": "validInputs",
              "type": "tuple[]"
            },
            {
              "components": [
                {
                  "internalType": "address",
                  "name": "token",
                  "type": "address"
                },
                {
                  "internalType": "uint256",
                  "name": "vaultId",
                  "type": "uint256"
                }
              ],
              "internalType": "struct IO[]",
              "name": "validOutputs",
              "type": "tuple[]"
            }
          ],
          "internalType": "struct Order",
          "name": "a_",
          "type": "tuple"
        },
        {
          "components": [
            {
              "internalType": "address",
              "name": "owner",
              "type": "address"
            },
            {
              "internalType": "address",
              "name": "interpreter",
              "type": "address"
            },
            {
              "internalType": "address",
              "name": "expression",
              "type": "address"
            },
            {
              "internalType": "uint32",
              "name": "expiresAfter",
              "type": "uint32"
            },
            {
              "components": [
                {
                  "internalType": "address",
                  "name": "token",
                  "type": "address"
                },
                {
                  "internalType": "uint256",
                  "name": "vaultId",
                  "type": "uint256"
                }
              ],
              "internalType": "struct IO[]",
              "name": "validInputs",
              "type": "tuple[]"
            },
            {
              "components": [
                {
                  "internalType": "address",
                  "name": "token",
                  "type": "address"
                },
                {
                  "internalType": "uint256",
                  "name": "vaultId",
                  "type": "uint256"
                }
              ],
              "internalType": "struct IO[]",
              "name": "validOutputs",
              "type": "tuple[]"
            }
          ],
          "internalType": "struct Order",
          "name": "b_",
          "type": "tuple"
        },
        {
          "components": [
            {
              "internalType": "uint256",
              "name": "aInputIOIndex",
              "type": "uint256"
            },
            {
              "internalType": "uint256",
              "name": "aOutputIOIndex",
              "type": "uint256"
            },
            {
              "internalType": "uint256",
              "name": "bInputIOIndex",
              "type": "uint256"
            },
            {
              "internalType": "uint256",
              "name": "bOutputIOIndex",
              "type": "uint256"
            },
            {
              "internalType": "uint256",
              "name": "aBountyVaultId",
              "type": "uint256"
            },
            {
              "internalType": "uint256",
              "name": "bBountyVaultId",
              "type": "uint256"
            }
          ],
          "internalType": "struct ClearConfig",
          "name": "clearConfig_",
          "type": "tuple"
        }
      ],
      "name": "clear",
      "outputs": [],
      "stateMutability": "nonpayable",
      "type": "function"
    },
    {
      "inputs": [
        {
          "components": [
            {
              "internalType": "address",
              "name": "token",
              "type": "address"
            },
            {
              "internalType": "uint256",
              "name": "vaultId",
              "type": "uint256"
            },
            {
              "internalType": "uint256",
              "name": "amount",
              "type": "uint256"
            }
          ],
          "internalType": "struct DepositConfig",
          "name": "config_",
          "type": "tuple"
        }
      ],
      "name": "deposit",
      "outputs": [],
      "stateMutability": "nonpayable",
      "type": "function"
    },
    {
      "inputs": [
        {
          "components": [
            {
              "internalType": "address",
              "name": "owner",
              "type": "address"
            },
            {
              "internalType": "address",
              "name": "interpreter",
              "type": "address"
            },
            {
              "internalType": "address",
              "name": "expression",
              "type": "address"
            },
            {
              "internalType": "uint32",
              "name": "expiresAfter",
              "type": "uint32"
            },
            {
              "components": [
                {
                  "internalType": "address",
                  "name": "token",
                  "type": "address"
                },
                {
                  "internalType": "uint256",
                  "name": "vaultId",
                  "type": "uint256"
                }
              ],
              "internalType": "struct IO[]",
              "name": "validInputs",
              "type": "tuple[]"
            },
            {
              "components": [
                {
                  "internalType": "address",
                  "name": "token",
                  "type": "address"
                },
                {
                  "internalType": "uint256",
                  "name": "vaultId",
                  "type": "uint256"
                }
              ],
              "internalType": "struct IO[]",
              "name": "validOutputs",
              "type": "tuple[]"
            }
          ],
          "internalType": "struct Order",
          "name": "order_",
          "type": "tuple"
        }
      ],
      "name": "removeOrder",
      "outputs": [],
      "stateMutability": "nonpayable",
      "type": "function"
    },
    {
      "inputs": [
        {
          "components": [
            {
              "internalType": "address",
              "name": "output",
              "type": "address"
            },
            {
              "internalType": "address",
              "name": "input",
              "type": "address"
            },
            {
              "internalType": "uint256",
              "name": "minimumInput",
              "type": "uint256"
            },
            {
              "internalType": "uint256",
              "name": "maximumInput",
              "type": "uint256"
            },
            {
              "internalType": "uint256",
              "name": "maximumIORatio",
              "type": "uint256"
            },
            {
              "components": [
                {
                  "components": [
                    {
                      "internalType": "address",
                      "name": "owner",
                      "type": "address"
                    },
                    {
                      "internalType": "address",
                      "name": "interpreter",
                      "type": "address"
                    },
                    {
                      "internalType": "address",
                      "name": "expression",
                      "type": "address"
                    },
                    {
                      "internalType": "uint32",
                      "name": "expiresAfter",
                      "type": "uint32"
                    },
                    {
                      "components": [
                        {
                          "internalType": "address",
                          "name": "token",
                          "type": "address"
                        },
                        {
                          "internalType": "uint256",
                          "name": "vaultId",
                          "type": "uint256"
                        }
                      ],
                      "internalType": "struct IO[]",
                      "name": "validInputs",
                      "type": "tuple[]"
                    },
                    {
                      "components": [
                        {
                          "internalType": "address",
                          "name": "token",
                          "type": "address"
                        },
                        {
                          "internalType": "uint256",
                          "name": "vaultId",
                          "type": "uint256"
                        }
                      ],
                      "internalType": "struct IO[]",
                      "name": "validOutputs",
                      "type": "tuple[]"
                    }
                  ],
                  "internalType": "struct Order",
                  "name": "order",
                  "type": "tuple"
                },
                {
                  "internalType": "uint256",
                  "name": "inputIOIndex",
                  "type": "uint256"
                },
                {
                  "internalType": "uint256",
                  "name": "outputIOIndex",
                  "type": "uint256"
                }
              ],
              "internalType": "struct TakeOrderConfig[]",
              "name": "orders",
              "type": "tuple[]"
            }
          ],
          "internalType": "struct TakeOrdersConfig",
          "name": "takeOrders_",
          "type": "tuple"
        }
      ],
      "name": "takeOrders",
      "outputs": [
        {
          "internalType": "uint256",
          "name": "totalInput_",
          "type": "uint256"
        },
        {
          "internalType": "uint256",
          "name": "totalOutput_",
          "type": "uint256"
        }
      ],
      "stateMutability": "nonpayable",
      "type": "function"
    },
    {
      "inputs": [
        {
          "internalType": "address",
          "name": "",
          "type": "address"
        },
        {
          "internalType": "address",
          "name": "",
          "type": "address"
        },
        {
          "internalType": "uint256",
          "name": "",
          "type": "uint256"
        }
      ],
      "name": "vaultBalance",
      "outputs": [
        {
          "internalType": "uint256",
          "name": "",
          "type": "uint256"
        }
      ],
      "stateMutability": "view",
      "type": "function"
    },
    {
      "inputs": [
        {
          "components": [
            {
              "internalType": "address",
              "name": "token",
              "type": "address"
            },
            {
              "internalType": "uint256",
              "name": "vaultId",
              "type": "uint256"
            },
            {
              "internalType": "uint256",
              "name": "amount",
              "type": "uint256"
            }
          ],
          "internalType": "struct WithdrawConfig",
          "name": "config_",
          "type": "tuple"
        }
      ],
      "name": "withdraw",
      "outputs": [],
      "stateMutability": "nonpayable",
      "type": "function"
    }
  ],
  "bytecode": "0x608060405234801561001057600080fd5b50612d1e806100206000396000f3fe608060405234801561001057600080fd5b506004361061007d5760003560e01c8063580e01a81161005b578063580e01a8146100bd578063c42c2b1a146100ea578063d97b2e48146100fd578063e6b626361461013c57600080fd5b80630614666a1461008257806345621267146100975780634f266187146100aa575b600080fd5b610095610090366004611d8a565b61014f565b005b6100956100a5366004611d8a565b6103b9565b6100956100b8366004611dd1565b6104c9565b6100d06100cb366004611d8a565b61061d565b604080519283526020830191909152015b60405180910390f35b6100956100f836600461207e565b610bc4565b61012e61010b3660046120f4565b600160209081526000938452604080852082529284528284209052825290205481565b6040519081526020016100e1565b61009561014a366004611dd1565b611364565b600061015e6020830183612135565b73ffffffffffffffffffffffffffffffffffffffff16631ed061d96101866060850185612152565b6101906002611440565b6040518363ffffffff1660e01b81526004016101ad9291906122cd565b60408051808303816000875af11580156101cb573d6000803e3d6000fd5b505050506040513d601f19601f820116820180604052508101906101ef9190612415565b50905060006040518060c001604052803373ffffffffffffffffffffffffffffffffffffffff16815260200184602001602081019061022e9190612135565b73ffffffffffffffffffffffffffffffffffffffff1681526020018373ffffffffffffffffffffffffffffffffffffffff1681526020018460400160208101906102789190612443565b63ffffffff168152602001610290608086018661245e565b808060200260200160405190810160405280939291908181526020016000905b828210156102dc576102cd604083028601368190038101906124c6565b815260200190600101906102b0565b50505091835250506020016102f460a086018661245e565b808060200260200160405190810160405280939291908181526020016000905b8282101561034057610331604083028601368190038101906124c6565b81526020019060010190610314565b50505050508152509050600061035582611472565b9050816060015163ffffffff16600080838152602001908152602001600020819055507f36fac280a8b9196e1c478d650789fb1990a00c847a726b7ea8a5d241853eb7603383836040516103ab939291906125ab565b60405180910390a150505050565b6103c66020820182612135565b73ffffffffffffffffffffffffffffffffffffffff163373ffffffffffffffffffffffffffffffffffffffff161461045f576040517f08c379a000000000000000000000000000000000000000000000000000000000815260206004820152600560248201527f4f574e455200000000000000000000000000000000000000000000000000000060448201526064015b60405180910390fd5b600061047261046d836125ea565b611472565b9050600080828152602001908152602001600020600090557fa0ab241587b6d05d36fff85bdc331b3e735b394fb7e0d4a14b8353ad17f818dd3383836040516104bd939291906126b2565b60405180910390a15050565b33600090815260016020908152604082209082906104e990850185612135565b73ffffffffffffffffffffffffffffffffffffffff1681526020808201929092526040908101600090812085840135825290925280822054925061053090840135836114c1565b905061053c81836127e6565b3360009081526001602090815260408220919061055b90870187612135565b73ffffffffffffffffffffffffffffffffffffffff1673ffffffffffffffffffffffffffffffffffffffff168152602001908152602001600020600085602001358152602001908152602001600020819055507f2538ccc7ad2a119a36f2e65c1e2fc908beef800cd59b5d6680db24de18e7847a3384836040516105e193929190612831565b60405180910390a161061833826105fb6020870187612135565b73ffffffffffffffffffffffffffffffffffffffff1691906114db565b505050565b6000806000610674604080516101208101909152600060608083018281526080840183905260a0840183905260c084019290925260e083018190526101008301528190815260200160008152602001600081525090565b6040805160c0810182526000808252602082018190529181018290526060808201929092526080810182905260a08101829052908601355b6106b960a0880188612869565b9050841080156106c95750600081115b15610af7576106db60a0880188612869565b858181106106eb576106eb6128d1565b90506020028101906106fd9190612900565b61070690612934565b80519093509150600061071883611472565b6000818152602081905260408120549192500361078c5782516040805133815273ffffffffffffffffffffffffffffffffffffffff909216602083015281018290527fe721f6888210c87666d3888f93b4139a86ab7757999ce54e268cba700d642a3b9060600160405180910390a1610aeb565b6107996020890189612135565b73ffffffffffffffffffffffffffffffffffffffff1683608001518560200151815181106107c9576107c96128d1565b60200260200101516000015173ffffffffffffffffffffffffffffffffffffffff1614610852576040517f08c379a000000000000000000000000000000000000000000000000000000000815260206004820152600e60248201527f544f4b454e5f4d49534d415443480000000000000000000000000000000000006044820152606401610456565b6108626040890160208a01612135565b73ffffffffffffffffffffffffffffffffffffffff168360a00151856040015181518110610892576108926128d1565b60200260200101516000015173ffffffffffffffffffffffffffffffffffffffff161461091b576040517f08c379a000000000000000000000000000000000000000000000000000000000815260206004820152600e60248201527f544f4b454e5f4d49534d415443480000000000000000000000000000000000006044820152606401610456565b60008061092d858760400151336115af565b9150915042856060015163ffffffff1610156109a15784516040805133815273ffffffffffffffffffffffffffffffffffffffff909216602083015281018490527fd25206a8bea7a13334bf2b15c37225d5d7a3307708ce21ef9c6bb671b6b16074906060015b60405180910390a1610ae8565b8960800135811115610a025784516040805133815273ffffffffffffffffffffffffffffffffffffffff909216602083015281018490527f460c258f27efac20e56c4607a28003d235168e76997ffb7542637d26d45ea6d890606001610994565b81600003610a5f5784516040805133815273ffffffffffffffffffffffffffffffffffffffff909216602083015281018490527f3ba461a0ffd1b6782d4817ae7be605cfb1bbb4fa503c0dd613b8e50f1dcafacd90606001610994565b6000610a6b85846114c1565b90506000610a79828461177f565b9050610a8582876127e6565b9550610a91818b6129ac565b9950610aa8878960200151838b6040015186611794565b7fbc2fdedbdb7e89ce531caead3526faa0f7e0a694b6d91a87dfbe355eb6820ab633898484604051610add94939291906129bf565b60405180910390a150505b50505b506001909301926106ac565b610b058160608901356127e6565b95508660400135861015610b75576040517f08c379a000000000000000000000000000000000000000000000000000000000815260206004820152600960248201527f4d494e5f494e50555400000000000000000000000000000000000000000000006044820152606401610456565b610ba6333087610b8860208c018c612135565b73ffffffffffffffffffffffffffffffffffffffff169291906118b4565b610bbb33876105fb60408b0160208c01612135565b50505050915091565b8151835173ffffffffffffffffffffffffffffffffffffffff918216911603610c49576040517f08c379a000000000000000000000000000000000000000000000000000000000815260206004820152600a60248201527f53414d455f4f574e4552000000000000000000000000000000000000000000006044820152606401610456565b8160800151816040013581518110610c6357610c636128d1565b60200260200101516000015173ffffffffffffffffffffffffffffffffffffffff168360a00151826020013581518110610c9f57610c9f6128d1565b60200260200101516000015173ffffffffffffffffffffffffffffffffffffffff1614610d28576040517f08c379a000000000000000000000000000000000000000000000000000000000815260206004820152600e60248201527f544f4b454e5f4d49534d415443480000000000000000000000000000000000006044820152606401610456565b608083015180518235908110610d4057610d406128d1565b60200260200101516000015173ffffffffffffffffffffffffffffffffffffffff168260a00151826060013581518110610d7c57610d7c6128d1565b60200260200101516000015173ffffffffffffffffffffffffffffffffffffffff1614610e05576040517f08c379a000000000000000000000000000000000000000000000000000000000815260206004820152600e60248201527f544f4b454e5f4d49534d415443480000000000000000000000000000000000006044820152606401610456565b42836060015163ffffffff161015610e79576040517f08c379a000000000000000000000000000000000000000000000000000000000815260206004820152600960248201527f415f4558504952454400000000000000000000000000000000000000000000006044820152606401610456565b42826060015163ffffffff161015610eed576040517f08c379a000000000000000000000000000000000000000000000000000000000815260206004820152600960248201527f425f4558504952454400000000000000000000000000000000000000000000006044820152606401610456565b6000806000610efb86611472565b81526020019081526020016000205411610f71576040517f08c379a000000000000000000000000000000000000000000000000000000000815260206004820152600a60248201527f415f4e4f545f4c495645000000000000000000000000000000000000000000006044820152606401610456565b6000806000610f7f85611472565b81526020019081526020016000205411610ff5576040517f08c379a000000000000000000000000000000000000000000000000000000000815260206004820152600a60248201527f425f4e4f545f4c495645000000000000000000000000000000000000000000006044820152606401610456565b6110206040518060800160405280600081526020016000815260200160008152602001600081525090565b6000806000807f817d4255731aa79ca299f7550d20e70c64ddfb7673417198ff3466bae3d213843389898960405161105b9493929190612a1e565b60405180910390a161107688876020013589600001516115af565b895190955090925061108f9088906060890135906115af565b935090506110a76110a0828561177f565b83906114c1565b85526110bd6110b6838661177f565b82906114c1565b602086015284511515806110d5575060008560200151115b61113b576040517f08c379a000000000000000000000000000000000000000000000000000000000815260206004820152600760248201527f305f434c454152000000000000000000000000000000000000000000000000006044820152606401610456565b8451611147908561177f565b6040860152602085015161115b908461177f565b60608601525050506040820151825161117f92508691853591602087013590611794565b61119c838360400135836060015185606001358560200151611794565b606081015181516000916111af916127e6565b90506000826040015183602001516111c791906127e6565b9050811561126d57336000908152600160209081526040822060a08901518051869492938901359081106111fd576111fd6128d1565b60200260200101516000015173ffffffffffffffffffffffffffffffffffffffff1673ffffffffffffffffffffffffffffffffffffffff168152602001908152602001600020600086608001358152602001908152602001600020600082825461126791906129ac565b90915550505b80156113115733600090815260016020526040812060a087015180518493919060608901359081106112a1576112a16128d1565b60200260200101516000015173ffffffffffffffffffffffffffffffffffffffff1673ffffffffffffffffffffffffffffffffffffffff16815260200190815260200160002060008660a001358152602001908152602001600020600082825461130b91906129ac565b90915550505b50506040805182518152602080840151908201528183015191810191909152606080830151908201527f3e673c18070310617c4b157f17e875bbc59a81b0f5107d346dfed8775de6f0f7906080016103ab565b3360009081526001602090815260408083209084013592909161138990850185612135565b73ffffffffffffffffffffffffffffffffffffffff1673ffffffffffffffffffffffffffffffffffffffff16815260200190815260200160002060008360200135815260200190815260200160002060008282546113e791906129ac565b90915550506040517fadc7bd964a04a8a02261d33d2d09c6a7d9f539bc5eab77008e85fc6661ef12319061141e9033908490612aa8565b60405180910390a161143d33306040840135610b886020860186612135565b50565b604080516001808252818301909252606091600091906020808301908036833750505060208101939093525090919050565b6000816040516020016114859190612ad2565b604080517fffffffffffffffffffffffffffffffffffffffffffffffffffffffffffffffe0818403018152919052805160209091012092915050565b60008183106114d057816114d2565b825b90505b92915050565b60405173ffffffffffffffffffffffffffffffffffffffff83166024820152604481018290526106189084907fa9059cbb00000000000000000000000000000000000000000000000000000000906064015b604080517fffffffffffffffffffffffffffffffffffffffffffffffffffffffffffffffe08184030181529190526020810180517bffffffffffffffffffffffffffffffffffffffffffffffffffffffff167fffffffff0000000000000000000000000000000000000000000000000000000090931692909217909152611918565b60008060006115bd86611472565b905060006115ea6115e5833373ffffffffffffffffffffffffffffffffffffffff8916611a24565b611a67565b90506116f66116a9886020015173ffffffffffffffffffffffffffffffffffffffff166366ee83578a604001516000866040518463ffffffff1660e01b815260040161163893929190612ae5565b600060405180830381865afa158015611655573d6000803e3d6000fd5b505050506040513d6000823e601f3d9081017fffffffffffffffffffffffffffffffffffffffffffffffffffffffffffffffe016820160405261169b9190810190612b8a565b805160209081029091010190565b7fffffffffffffffffffffffffffffffffffffffffffffffffffffffffffffffc08101517fffffffffffffffffffffffffffffffffffffffffffffffffffffffffffffffe0909101519091565b809450819550505060008760a001518781518110611716576117166128d1565b602090810291909101810151895173ffffffffffffffffffffffffffffffffffffffff908116600090815260018452604080822084519093168252918452818120838501518252909352909120549091506117729086906114c1565b9450505050935093915050565b60006114d28383670de0b6b3a7640000611aa5565b6040805180820190915260008082526020820152831561182a57856080015185815181106117c4576117c46128d1565b602090810291909101810151875173ffffffffffffffffffffffffffffffffffffffff90811660009081526001845260408082208451909316825291845281812083850151825290935282208054919350869290916118249084906129ac565b90915550505b81156118ac578560a001518381518110611846576118466128d1565b602090810291909101810151875173ffffffffffffffffffffffffffffffffffffffff90811660009081526001845260408082208451909316825291845281812083850151825290935282208054919350849290916118a69084906127e6565b90915550505b505050505050565b60405173ffffffffffffffffffffffffffffffffffffffff808516602483015283166044820152606481018290526119129085907f23b872dd000000000000000000000000000000000000000000000000000000009060840161152d565b50505050565b600061197a826040518060400160405280602081526020017f5361666545524332303a206c6f772d6c6576656c2063616c6c206661696c65648152508573ffffffffffffffffffffffffffffffffffffffff16611b729092919063ffffffff16565b80519091501561061857808060200190518101906119989190612c10565b610618576040517f08c379a000000000000000000000000000000000000000000000000000000000815260206004820152602a60248201527f5361666545524332303a204552433230206f7065726174696f6e20646964206e60448201527f6f742073756363656564000000000000000000000000000000000000000000006064820152608401610456565b60408051600380825260808201909252606091600091906020820184803683375050506020810186905260408101859052606081018490529150505b9392505050565b60408051600180825281830190925260609160009190816020015b6060815260200190600190039081611a8257505060208101939093525090919050565b600080807fffffffffffffffffffffffffffffffffffffffffffffffffffffffffffffffff85870985870292508281108382030391505080600003611afd57838281611af357611af3612c32565b0492505050611a60565b808411611b0957600080fd5b60008486880960026001871981018816978890046003810283188082028403028082028403028082028403028082028403028082028403029081029092039091026000889003889004909101858311909403939093029303949094049190911702949350505050565b6060611b818484600085611b89565b949350505050565b606082471015611c1b576040517f08c379a000000000000000000000000000000000000000000000000000000000815260206004820152602660248201527f416464726573733a20696e73756666696369656e742062616c616e636520666f60448201527f722063616c6c00000000000000000000000000000000000000000000000000006064820152608401610456565b73ffffffffffffffffffffffffffffffffffffffff85163b611c99576040517f08c379a000000000000000000000000000000000000000000000000000000000815260206004820152601d60248201527f416464726573733a2063616c6c20746f206e6f6e2d636f6e74726163740000006044820152606401610456565b6000808673ffffffffffffffffffffffffffffffffffffffff168587604051611cc29190612c85565b60006040518083038185875af1925050503d8060008114611cff576040519150601f19603f3d011682016040523d82523d6000602084013e611d04565b606091505b5091509150611d14828286611d1f565b979650505050505050565b60608315611d2e575081611a60565b825115611d3e5782518084602001fd5b816040517f08c379a00000000000000000000000000000000000000000000000000000000081526004016104569190612c97565b600060c08284031215611d8457600080fd5b50919050565b600060208284031215611d9c57600080fd5b813567ffffffffffffffff811115611db357600080fd5b611b8184828501611d72565b600060608284031215611d8457600080fd5b600060608284031215611de357600080fd5b6114d28383611dbf565b7f4e487b7100000000000000000000000000000000000000000000000000000000600052604160045260246000fd5b60405160c0810167ffffffffffffffff81118282101715611e3f57611e3f611ded565b60405290565b604051601f82017fffffffffffffffffffffffffffffffffffffffffffffffffffffffffffffffe016810167ffffffffffffffff81118282101715611e8c57611e8c611ded565b604052919050565b73ffffffffffffffffffffffffffffffffffffffff8116811461143d57600080fd5b8035611ec181611e94565b919050565b803563ffffffff81168114611ec157600080fd5b600067ffffffffffffffff821115611ef457611ef4611ded565b5060051b60200190565b600060408284031215611f1057600080fd5b6040516040810181811067ffffffffffffffff82111715611f3357611f33611ded565b6040529050808235611f4481611e94565b8152602092830135920191909152919050565b600082601f830112611f6857600080fd5b81356020611f7d611f7883611eda565b611e45565b82815260069290921b84018101918181019086841115611f9c57600080fd5b8286015b84811015611fc057611fb28882611efe565b835291830191604001611fa0565b509695505050505050565b600060c08284031215611fdd57600080fd5b611fe5611e1c565b9050611ff082611eb6565b8152611ffe60208301611eb6565b602082015261200f60408301611eb6565b604082015261202060608301611ec6565b6060820152608082013567ffffffffffffffff8082111561204057600080fd5b61204c85838601611f57565b608084015260a084013591508082111561206557600080fd5b5061207284828501611f57565b60a08301525092915050565b6000806000610100848603121561209457600080fd5b833567ffffffffffffffff808211156120ac57600080fd5b6120b887838801611fcb565b945060208601359150808211156120ce57600080fd5b506120db86828701611fcb565b9250506120eb8560408601611d72565b90509250925092565b60008060006060848603121561210957600080fd5b833561211481611e94565b9250602084013561212481611e94565b929592945050506040919091013590565b60006020828403121561214757600080fd5b8135611a6081611e94565b600082357fffffffffffffffffffffffffffffffffffffffffffffffffffffffffffffffc183360301811261218657600080fd5b9190910192915050565b60008083357fffffffffffffffffffffffffffffffffffffffffffffffffffffffffffffffe18436030181126121c557600080fd5b830160208101925035905067ffffffffffffffff8111156121e557600080fd5b8060051b36038213156121f757600080fd5b9250929050565b8183528181602085013750600060208284010152600060207fffffffffffffffffffffffffffffffffffffffffffffffffffffffffffffffe0601f840116840101905092915050565b81835260007f07ffffffffffffffffffffffffffffffffffffffffffffffffffffffffffffff83111561227957600080fd5b8260051b80836020870137939093016020019392505050565b600081518084526020808501945080840160005b838110156122c2578151875295820195908201906001016122a6565b509495945050505050565b604081526000608082016122e18586612190565b6040808601528281845260a08601905060a08260051b87010193508260005b838110156123af577fffffffffffffffffffffffffffffffffffffffffffffffffffffffffffffff6088870301835281357fffffffffffffffffffffffffffffffffffffffffffffffffffffffffffffffe186360301811261236157600080fd5b8501602081810191359067ffffffffffffffff82111561238057600080fd5b81360383131561238f57600080fd5b61239a8983856121fe565b98509485019493909301925050600101612300565b50505050506123c16020860186612190565b7fffffffffffffffffffffffffffffffffffffffffffffffffffffffffffffffc08584030160608601526123f6838284612247565b92505050828103602084015261240c8185612292565b95945050505050565b6000806040838503121561242857600080fd5b825161243381611e94565b6020939093015192949293505050565b60006020828403121561245557600080fd5b6114d282611ec6565b60008083357fffffffffffffffffffffffffffffffffffffffffffffffffffffffffffffffe184360301811261249357600080fd5b83018035915067ffffffffffffffff8211156124ae57600080fd5b6020019150600681901b36038213156121f757600080fd5b6000604082840312156124d857600080fd5b6114d28383611efe565b600081518084526020808501945080840160005b838110156122c2578151805173ffffffffffffffffffffffffffffffffffffffff16885283015183880152604090960195908201906001016124f6565b600073ffffffffffffffffffffffffffffffffffffffff8083511684528060208401511660208501528060408401511660408501525063ffffffff6060830151166060840152608082015160c0608085015261259260c08501826124e2565b905060a083015184820360a086015261240c82826124e2565b73ffffffffffffffffffffffffffffffffffffffff841681526060602082015260006125da6060830185612533565b9050826040830152949350505050565b60006114d53683611fcb565b60008083357fffffffffffffffffffffffffffffffffffffffffffffffffffffffffffffffe184360301811261262b57600080fd5b830160208101925035905067ffffffffffffffff81111561264b57600080fd5b8060061b36038213156121f757600080fd5b8183526000602080850194508260005b858110156122c257813561268081611e94565b73ffffffffffffffffffffffffffffffffffffffff16875281830135838801526040968701969091019060010161266d565b600073ffffffffffffffffffffffffffffffffffffffff80861683526060602084015284356126e081611e94565b8116606084015260208501356126f581611e94565b166080830152604084013561270981611e94565b73ffffffffffffffffffffffffffffffffffffffff1660a083015261273060608501611ec6565b63ffffffff1660c083015261274860808501856125f6565b60c060e085015261275e6101208501828461265d565b91505061276e60a08601866125f6565b7fffffffffffffffffffffffffffffffffffffffffffffffffffffffffffffffa0858403016101008601526127a483828461265d565b9350505050826040830152949350505050565b7f4e487b7100000000000000000000000000000000000000000000000000000000600052601160045260246000fd5b818103818111156114d5576114d56127b7565b803561280481611e94565b73ffffffffffffffffffffffffffffffffffffffff16825260208181013590830152604090810135910152565b73ffffffffffffffffffffffffffffffffffffffff8416815260a0810161285b60208301856127f9565b826080830152949350505050565b60008083357fffffffffffffffffffffffffffffffffffffffffffffffffffffffffffffffe184360301811261289e57600080fd5b83018035915067ffffffffffffffff8211156128b957600080fd5b6020019150600581901b36038213156121f757600080fd5b7f4e487b7100000000000000000000000000000000000000000000000000000000600052603260045260246000fd5b600082357fffffffffffffffffffffffffffffffffffffffffffffffffffffffffffffffa183360301811261218657600080fd5b60006060823603121561294657600080fd5b6040516060810167ffffffffffffffff828210818311171561296a5761296a611ded565b81604052843591508082111561297f57600080fd5b5061298c36828601611fcb565b825250602083013560208201526040830135604082015280915050919050565b808201808211156114d5576114d56127b7565b73ffffffffffffffffffffffffffffffffffffffff851681526080602082015260008451606060808401526129f760e0840182612533565b602087015160a085015260409687015160c085015295830194909452506060015250919050565b600061012073ffffffffffffffffffffffffffffffffffffffff87168352806020840152612a4e81840187612533565b90508281036040840152612a628186612533565b9150508235606083015260208301356080830152604083013560a0830152606083013560c0830152608083013560e083015260a083013561010083015295945050505050565b73ffffffffffffffffffffffffffffffffffffffff8316815260808101611a6060208301846127f9565b6020815260006114d26020830184612533565b60006060820173ffffffffffffffffffffffffffffffffffffffff86168352602085818501526060604085015281855180845260808601915060808160051b870101935082870160005b82811015612b7b577fffffffffffffffffffffffffffffffffffffffffffffffffffffffffffffff80888703018452612b69868351612292565b95509284019290840190600101612b2f565b50939998505050505050505050565b60006020808385031215612b9d57600080fd5b825167ffffffffffffffff811115612bb457600080fd5b8301601f81018513612bc557600080fd5b8051612bd3611f7882611eda565b81815260059190911b82018301908381019087831115612bf257600080fd5b928401925b82841015611d1457835182529284019290840190612bf7565b600060208284031215612c2257600080fd5b81518015158114611a6057600080fd5b7f4e487b7100000000000000000000000000000000000000000000000000000000600052601260045260246000fd5b60005b83811015612c7c578181015183820152602001612c64565b50506000910152565b60008251612186818460208701612c61565b6020815260008251806020840152612cb6816040850160208701612c61565b601f017fffffffffffffffffffffffffffffffffffffffffffffffffffffffffffffffe016919091016040019291505056fea2646970667358221220814a69cbe220959f65e99cd9e667fbd339b72cc0601e926dff96619e172b8e3464736f6c63430008110033",
  "linkReferences": {},
  "deployedLinkReferences": {}
}