{
  "_format": "hh-sol-artifact-1",
  "contractName": "OrderBook",
  "sourceName": "contracts/orderbook/OrderBook.sol",
  "abi": [
    {
      "inputs": [
        {
          "components": [
            {
              "internalType": "address",
              "name": "deployer",
              "type": "address"
            },
            {
              "internalType": "bytes",
              "name": "meta",
              "type": "bytes"
            }
          ],
          "internalType": "struct InterpreterCallerV1ConstructionConfig",
          "name": "config_",
          "type": "tuple"
        }
      ],
      "stateMutability": "nonpayable",
      "type": "constructor"
    },
    {
      "inputs": [
        {
          "internalType": "address",
          "name": "receiver",
          "type": "address"
        },
        {
          "internalType": "address",
          "name": "token",
          "type": "address"
        },
        {
          "internalType": "uint256",
          "name": "amount",
          "type": "uint256"
        }
      ],
      "name": "ActiveDebt",
      "type": "error"
    },
    {
      "inputs": [
        {
          "internalType": "bytes32",
          "name": "result",
          "type": "bytes32"
        }
      ],
      "name": "FlashLenderCallbackFailed",
      "type": "error"
    },
    {
      "inputs": [
        {
          "internalType": "uint256",
          "name": "minimumInput",
          "type": "uint256"
        },
        {
          "internalType": "uint256",
          "name": "input",
          "type": "uint256"
        }
      ],
      "name": "MinimumInput",
      "type": "error"
    },
    {
      "inputs": [
        {
          "internalType": "address",
          "name": "sender",
          "type": "address"
        },
        {
          "internalType": "address",
          "name": "owner",
          "type": "address"
        }
      ],
      "name": "NotOrderOwner",
      "type": "error"
    },
    {
      "inputs": [
        {
          "internalType": "bytes",
          "name": "unmeta",
          "type": "bytes"
        }
      ],
      "name": "NotRainMetaV1",
      "type": "error"
    },
    {
      "inputs": [
        {
          "internalType": "address",
          "name": "owner",
          "type": "address"
        }
      ],
      "name": "SameOwner",
      "type": "error"
    },
    {
      "inputs": [
        {
          "internalType": "address",
          "name": "a",
          "type": "address"
        },
        {
          "internalType": "address",
          "name": "b",
          "type": "address"
        }
      ],
      "name": "TokenMismatch",
      "type": "error"
    },
    {
      "inputs": [
        {
          "internalType": "bytes32",
          "name": "expectedHash",
          "type": "bytes32"
        },
        {
          "internalType": "bytes32",
          "name": "actualHash",
          "type": "bytes32"
        }
      ],
      "name": "UnexpectedMetaHash",
      "type": "error"
    },
    {
      "anonymous": false,
      "inputs": [
        {
          "indexed": false,
          "internalType": "address",
          "name": "sender",
          "type": "address"
        },
        {
          "indexed": false,
          "internalType": "contract IExpressionDeployerV1",
          "name": "expressionDeployer",
          "type": "address"
        },
        {
          "components": [
            {
              "internalType": "address",
              "name": "owner",
              "type": "address"
            },
            {
              "internalType": "bool",
              "name": "handleIO",
              "type": "bool"
            },
            {
              "components": [
                {
                  "internalType": "contract IInterpreterV1",
                  "name": "interpreter",
                  "type": "address"
                },
                {
                  "internalType": "contract IInterpreterStoreV1",
                  "name": "store",
                  "type": "address"
                },
                {
                  "internalType": "address",
                  "name": "expression",
                  "type": "address"
                }
              ],
              "internalType": "struct Evaluable",
              "name": "evaluable",
              "type": "tuple"
            },
            {
              "components": [
                {
                  "internalType": "address",
                  "name": "token",
                  "type": "address"
                },
                {
                  "internalType": "uint8",
                  "name": "decimals",
                  "type": "uint8"
                },
                {
                  "internalType": "uint256",
                  "name": "vaultId",
                  "type": "uint256"
                }
              ],
              "internalType": "struct IO[]",
              "name": "validInputs",
              "type": "tuple[]"
            },
            {
              "components": [
                {
                  "internalType": "address",
                  "name": "token",
                  "type": "address"
                },
                {
                  "internalType": "uint8",
                  "name": "decimals",
                  "type": "uint8"
                },
                {
                  "internalType": "uint256",
                  "name": "vaultId",
                  "type": "uint256"
                }
              ],
              "internalType": "struct IO[]",
              "name": "validOutputs",
              "type": "tuple[]"
            },
            {
              "internalType": "bytes",
              "name": "data",
              "type": "bytes"
            }
          ],
          "indexed": false,
          "internalType": "struct Order",
          "name": "order",
          "type": "tuple"
        },
        {
          "indexed": false,
          "internalType": "uint256",
          "name": "orderHash",
          "type": "uint256"
        }
      ],
      "name": "AddOrder",
      "type": "event"
    },
    {
      "anonymous": false,
      "inputs": [
        {
          "indexed": false,
          "internalType": "address",
          "name": "sender",
          "type": "address"
        },
        {
          "components": [
            {
              "internalType": "uint256",
              "name": "aOutput",
              "type": "uint256"
            },
            {
              "internalType": "uint256",
              "name": "bOutput",
              "type": "uint256"
            },
            {
              "internalType": "uint256",
              "name": "aInput",
              "type": "uint256"
            },
            {
              "internalType": "uint256",
              "name": "bInput",
              "type": "uint256"
            }
          ],
          "indexed": false,
          "internalType": "struct ClearStateChange",
          "name": "clearStateChange",
          "type": "tuple"
        }
      ],
      "name": "AfterClear",
      "type": "event"
    },
    {
      "anonymous": false,
      "inputs": [
        {
          "indexed": false,
          "internalType": "address",
          "name": "sender",
          "type": "address"
        },
        {
          "components": [
            {
              "internalType": "address",
              "name": "owner",
              "type": "address"
            },
            {
              "internalType": "bool",
              "name": "handleIO",
              "type": "bool"
            },
            {
              "components": [
                {
                  "internalType": "contract IInterpreterV1",
                  "name": "interpreter",
                  "type": "address"
                },
                {
                  "internalType": "contract IInterpreterStoreV1",
                  "name": "store",
                  "type": "address"
                },
                {
                  "internalType": "address",
                  "name": "expression",
                  "type": "address"
                }
              ],
              "internalType": "struct Evaluable",
              "name": "evaluable",
              "type": "tuple"
            },
            {
              "components": [
                {
                  "internalType": "address",
                  "name": "token",
                  "type": "address"
                },
                {
                  "internalType": "uint8",
                  "name": "decimals",
                  "type": "uint8"
                },
                {
                  "internalType": "uint256",
                  "name": "vaultId",
                  "type": "uint256"
                }
              ],
              "internalType": "struct IO[]",
              "name": "validInputs",
              "type": "tuple[]"
            },
            {
              "components": [
                {
                  "internalType": "address",
                  "name": "token",
                  "type": "address"
                },
                {
                  "internalType": "uint8",
                  "name": "decimals",
                  "type": "uint8"
                },
                {
                  "internalType": "uint256",
                  "name": "vaultId",
                  "type": "uint256"
                }
              ],
              "internalType": "struct IO[]",
              "name": "validOutputs",
              "type": "tuple[]"
            },
            {
              "internalType": "bytes",
              "name": "data",
              "type": "bytes"
            }
          ],
          "indexed": false,
          "internalType": "struct Order",
          "name": "a",
          "type": "tuple"
        },
        {
          "components": [
            {
              "internalType": "address",
              "name": "owner",
              "type": "address"
            },
            {
              "internalType": "bool",
              "name": "handleIO",
              "type": "bool"
            },
            {
              "components": [
                {
                  "internalType": "contract IInterpreterV1",
                  "name": "interpreter",
                  "type": "address"
                },
                {
                  "internalType": "contract IInterpreterStoreV1",
                  "name": "store",
                  "type": "address"
                },
                {
                  "internalType": "address",
                  "name": "expression",
                  "type": "address"
                }
              ],
              "internalType": "struct Evaluable",
              "name": "evaluable",
              "type": "tuple"
            },
            {
              "components": [
                {
                  "internalType": "address",
                  "name": "token",
                  "type": "address"
                },
                {
                  "internalType": "uint8",
                  "name": "decimals",
                  "type": "uint8"
                },
                {
                  "internalType": "uint256",
                  "name": "vaultId",
                  "type": "uint256"
                }
              ],
              "internalType": "struct IO[]",
              "name": "validInputs",
              "type": "tuple[]"
            },
            {
              "components": [
                {
                  "internalType": "address",
                  "name": "token",
                  "type": "address"
                },
                {
                  "internalType": "uint8",
                  "name": "decimals",
                  "type": "uint8"
                },
                {
                  "internalType": "uint256",
                  "name": "vaultId",
                  "type": "uint256"
                }
              ],
              "internalType": "struct IO[]",
              "name": "validOutputs",
              "type": "tuple[]"
            },
            {
              "internalType": "bytes",
              "name": "data",
              "type": "bytes"
            }
          ],
          "indexed": false,
          "internalType": "struct Order",
          "name": "b",
          "type": "tuple"
        },
        {
          "components": [
            {
              "internalType": "uint256",
              "name": "aInputIOIndex",
              "type": "uint256"
            },
            {
              "internalType": "uint256",
              "name": "aOutputIOIndex",
              "type": "uint256"
            },
            {
              "internalType": "uint256",
              "name": "bInputIOIndex",
              "type": "uint256"
            },
            {
              "internalType": "uint256",
              "name": "bOutputIOIndex",
              "type": "uint256"
            },
            {
              "internalType": "uint256",
              "name": "aBountyVaultId",
              "type": "uint256"
            },
            {
              "internalType": "uint256",
              "name": "bBountyVaultId",
              "type": "uint256"
            }
          ],
          "indexed": false,
          "internalType": "struct ClearConfig",
          "name": "clearConfig",
          "type": "tuple"
        }
      ],
      "name": "Clear",
      "type": "event"
    },
    {
      "anonymous": false,
      "inputs": [
        {
          "indexed": false,
          "internalType": "address",
          "name": "sender",
          "type": "address"
        },
        {
          "indexed": false,
          "internalType": "uint256[][]",
          "name": "context",
          "type": "uint256[][]"
        }
      ],
      "name": "Context",
      "type": "event"
    },
    {
      "anonymous": false,
      "inputs": [
        {
          "indexed": false,
          "internalType": "address",
          "name": "sender",
          "type": "address"
        },
        {
          "components": [
            {
              "internalType": "address",
              "name": "token",
              "type": "address"
            },
            {
              "internalType": "uint256",
              "name": "vaultId",
              "type": "uint256"
            },
            {
              "internalType": "uint256",
              "name": "amount",
              "type": "uint256"
            }
          ],
          "indexed": false,
          "internalType": "struct DepositConfig",
          "name": "config",
          "type": "tuple"
        }
      ],
      "name": "Deposit",
      "type": "event"
    },
    {
      "anonymous": false,
      "inputs": [
        {
          "indexed": false,
          "internalType": "uint8",
          "name": "version",
          "type": "uint8"
        }
      ],
      "name": "Initialized",
      "type": "event"
    },
    {
      "anonymous": false,
      "inputs": [
        {
          "indexed": false,
          "internalType": "address",
          "name": "sender",
          "type": "address"
        },
        {
          "indexed": false,
          "internalType": "bytes",
          "name": "meta",
          "type": "bytes"
        }
      ],
      "name": "Meta",
      "type": "event"
    },
    {
      "anonymous": false,
      "inputs": [
        {
          "indexed": false,
          "internalType": "address",
          "name": "sender",
          "type": "address"
        },
        {
          "indexed": false,
          "internalType": "address",
          "name": "owner",
          "type": "address"
        },
        {
          "indexed": false,
          "internalType": "uint256",
          "name": "orderHash",
          "type": "uint256"
        }
      ],
      "name": "OrderExceedsMaxRatio",
      "type": "event"
    },
    {
      "anonymous": false,
      "inputs": [
        {
          "indexed": false,
          "internalType": "address",
          "name": "sender",
          "type": "address"
        },
        {
          "indexed": false,
          "internalType": "address",
          "name": "owner",
          "type": "address"
        },
        {
          "indexed": false,
          "internalType": "uint256",
          "name": "orderHash",
          "type": "uint256"
        }
      ],
      "name": "OrderNotFound",
      "type": "event"
    },
    {
      "anonymous": false,
      "inputs": [
        {
          "indexed": false,
          "internalType": "address",
          "name": "sender",
          "type": "address"
        },
        {
          "indexed": false,
          "internalType": "address",
          "name": "owner",
          "type": "address"
        },
        {
          "indexed": false,
          "internalType": "uint256",
          "name": "orderHash",
          "type": "uint256"
        }
      ],
      "name": "OrderZeroAmount",
      "type": "event"
    },
    {
      "anonymous": false,
      "inputs": [
        {
          "indexed": false,
          "internalType": "address",
          "name": "sender",
          "type": "address"
        },
        {
          "components": [
            {
              "internalType": "address",
              "name": "owner",
              "type": "address"
            },
            {
              "internalType": "bool",
              "name": "handleIO",
              "type": "bool"
            },
            {
              "components": [
                {
                  "internalType": "contract IInterpreterV1",
                  "name": "interpreter",
                  "type": "address"
                },
                {
                  "internalType": "contract IInterpreterStoreV1",
                  "name": "store",
                  "type": "address"
                },
                {
                  "internalType": "address",
                  "name": "expression",
                  "type": "address"
                }
              ],
              "internalType": "struct Evaluable",
              "name": "evaluable",
              "type": "tuple"
            },
            {
              "components": [
                {
                  "internalType": "address",
                  "name": "token",
                  "type": "address"
                },
                {
                  "internalType": "uint8",
                  "name": "decimals",
                  "type": "uint8"
                },
                {
                  "internalType": "uint256",
                  "name": "vaultId",
                  "type": "uint256"
                }
              ],
              "internalType": "struct IO[]",
              "name": "validInputs",
              "type": "tuple[]"
            },
            {
              "components": [
                {
                  "internalType": "address",
                  "name": "token",
                  "type": "address"
                },
                {
                  "internalType": "uint8",
                  "name": "decimals",
                  "type": "uint8"
                },
                {
                  "internalType": "uint256",
                  "name": "vaultId",
                  "type": "uint256"
                }
              ],
              "internalType": "struct IO[]",
              "name": "validOutputs",
              "type": "tuple[]"
            },
            {
              "internalType": "bytes",
              "name": "data",
              "type": "bytes"
            }
          ],
          "indexed": false,
          "internalType": "struct Order",
          "name": "order",
          "type": "tuple"
        },
        {
          "indexed": false,
          "internalType": "uint256",
          "name": "orderHash",
          "type": "uint256"
        }
      ],
      "name": "RemoveOrder",
      "type": "event"
    },
    {
      "anonymous": false,
      "inputs": [
        {
          "indexed": false,
          "internalType": "address",
          "name": "sender",
          "type": "address"
        },
        {
          "components": [
            {
              "components": [
                {
                  "internalType": "address",
                  "name": "owner",
                  "type": "address"
                },
                {
                  "internalType": "bool",
                  "name": "handleIO",
                  "type": "bool"
                },
                {
                  "components": [
                    {
                      "internalType": "contract IInterpreterV1",
                      "name": "interpreter",
                      "type": "address"
                    },
                    {
                      "internalType": "contract IInterpreterStoreV1",
                      "name": "store",
                      "type": "address"
                    },
                    {
                      "internalType": "address",
                      "name": "expression",
                      "type": "address"
                    }
                  ],
                  "internalType": "struct Evaluable",
                  "name": "evaluable",
                  "type": "tuple"
                },
                {
                  "components": [
                    {
                      "internalType": "address",
                      "name": "token",
                      "type": "address"
                    },
                    {
                      "internalType": "uint8",
                      "name": "decimals",
                      "type": "uint8"
                    },
                    {
                      "internalType": "uint256",
                      "name": "vaultId",
                      "type": "uint256"
                    }
                  ],
                  "internalType": "struct IO[]",
                  "name": "validInputs",
                  "type": "tuple[]"
                },
                {
                  "components": [
                    {
                      "internalType": "address",
                      "name": "token",
                      "type": "address"
                    },
                    {
                      "internalType": "uint8",
                      "name": "decimals",
                      "type": "uint8"
                    },
                    {
                      "internalType": "uint256",
                      "name": "vaultId",
                      "type": "uint256"
                    }
                  ],
                  "internalType": "struct IO[]",
                  "name": "validOutputs",
                  "type": "tuple[]"
                },
                {
                  "internalType": "bytes",
                  "name": "data",
                  "type": "bytes"
                }
              ],
              "internalType": "struct Order",
              "name": "order",
              "type": "tuple"
            },
            {
              "internalType": "uint256",
              "name": "inputIOIndex",
              "type": "uint256"
            },
            {
              "internalType": "uint256",
              "name": "outputIOIndex",
              "type": "uint256"
            }
          ],
          "indexed": false,
          "internalType": "struct TakeOrderConfig",
          "name": "config",
          "type": "tuple"
        },
        {
          "indexed": false,
          "internalType": "uint256",
          "name": "input",
          "type": "uint256"
        },
        {
          "indexed": false,
          "internalType": "uint256",
          "name": "output",
          "type": "uint256"
        }
      ],
      "name": "TakeOrder",
      "type": "event"
    },
    {
      "anonymous": false,
      "inputs": [
        {
          "indexed": false,
          "internalType": "address",
          "name": "sender",
          "type": "address"
        },
        {
          "components": [
            {
              "internalType": "address",
              "name": "token",
              "type": "address"
            },
            {
              "internalType": "uint256",
              "name": "vaultId",
              "type": "uint256"
            },
            {
              "internalType": "uint256",
              "name": "amount",
              "type": "uint256"
            }
          ],
          "indexed": false,
          "internalType": "struct WithdrawConfig",
          "name": "config",
          "type": "tuple"
        },
        {
          "indexed": false,
          "internalType": "uint256",
          "name": "amount",
          "type": "uint256"
        }
      ],
      "name": "Withdraw",
      "type": "event"
    },
    {
      "inputs": [
        {
          "components": [
            {
              "components": [
                {
                  "internalType": "address",
                  "name": "token",
                  "type": "address"
                },
                {
                  "internalType": "uint8",
                  "name": "decimals",
                  "type": "uint8"
                },
                {
                  "internalType": "uint256",
                  "name": "vaultId",
                  "type": "uint256"
                }
              ],
              "internalType": "struct IO[]",
              "name": "validInputs",
              "type": "tuple[]"
            },
            {
              "components": [
                {
                  "internalType": "address",
                  "name": "token",
                  "type": "address"
                },
                {
                  "internalType": "uint8",
                  "name": "decimals",
                  "type": "uint8"
                },
                {
                  "internalType": "uint256",
                  "name": "vaultId",
                  "type": "uint256"
                }
              ],
              "internalType": "struct IO[]",
              "name": "validOutputs",
              "type": "tuple[]"
            },
            {
              "components": [
                {
                  "internalType": "contract IExpressionDeployerV1",
                  "name": "deployer",
                  "type": "address"
                },
                {
                  "internalType": "bytes[]",
                  "name": "sources",
                  "type": "bytes[]"
                },
                {
                  "internalType": "uint256[]",
                  "name": "constants",
                  "type": "uint256[]"
                }
              ],
              "internalType": "struct EvaluableConfig",
              "name": "evaluableConfig",
              "type": "tuple"
            },
            {
              "internalType": "bytes",
              "name": "data",
              "type": "bytes"
            }
          ],
          "internalType": "struct OrderConfig",
          "name": "config_",
          "type": "tuple"
        }
      ],
      "name": "addOrder",
      "outputs": [],
      "stateMutability": "nonpayable",
      "type": "function"
    },
    {
      "inputs": [
        {
          "components": [
            {
              "internalType": "address",
              "name": "owner",
              "type": "address"
            },
            {
              "internalType": "bool",
              "name": "handleIO",
              "type": "bool"
            },
            {
              "components": [
                {
                  "internalType": "contract IInterpreterV1",
                  "name": "interpreter",
                  "type": "address"
                },
                {
                  "internalType": "contract IInterpreterStoreV1",
                  "name": "store",
                  "type": "address"
                },
                {
                  "internalType": "address",
                  "name": "expression",
                  "type": "address"
                }
              ],
              "internalType": "struct Evaluable",
              "name": "evaluable",
              "type": "tuple"
            },
            {
              "components": [
                {
                  "internalType": "address",
                  "name": "token",
                  "type": "address"
                },
                {
                  "internalType": "uint8",
                  "name": "decimals",
                  "type": "uint8"
                },
                {
                  "internalType": "uint256",
                  "name": "vaultId",
                  "type": "uint256"
                }
              ],
              "internalType": "struct IO[]",
              "name": "validInputs",
              "type": "tuple[]"
            },
            {
              "components": [
                {
                  "internalType": "address",
                  "name": "token",
                  "type": "address"
                },
                {
                  "internalType": "uint8",
                  "name": "decimals",
                  "type": "uint8"
                },
                {
                  "internalType": "uint256",
                  "name": "vaultId",
                  "type": "uint256"
                }
              ],
              "internalType": "struct IO[]",
              "name": "validOutputs",
              "type": "tuple[]"
            },
            {
              "internalType": "bytes",
              "name": "data",
              "type": "bytes"
            }
          ],
          "internalType": "struct Order",
          "name": "a_",
          "type": "tuple"
        },
        {
          "components": [
            {
              "internalType": "address",
              "name": "owner",
              "type": "address"
            },
            {
              "internalType": "bool",
              "name": "handleIO",
              "type": "bool"
            },
            {
              "components": [
                {
                  "internalType": "contract IInterpreterV1",
                  "name": "interpreter",
                  "type": "address"
                },
                {
                  "internalType": "contract IInterpreterStoreV1",
                  "name": "store",
                  "type": "address"
                },
                {
                  "internalType": "address",
                  "name": "expression",
                  "type": "address"
                }
              ],
              "internalType": "struct Evaluable",
              "name": "evaluable",
              "type": "tuple"
            },
            {
              "components": [
                {
                  "internalType": "address",
                  "name": "token",
                  "type": "address"
                },
                {
                  "internalType": "uint8",
                  "name": "decimals",
                  "type": "uint8"
                },
                {
                  "internalType": "uint256",
                  "name": "vaultId",
                  "type": "uint256"
                }
              ],
              "internalType": "struct IO[]",
              "name": "validInputs",
              "type": "tuple[]"
            },
            {
              "components": [
                {
                  "internalType": "address",
                  "name": "token",
                  "type": "address"
                },
                {
                  "internalType": "uint8",
                  "name": "decimals",
                  "type": "uint8"
                },
                {
                  "internalType": "uint256",
                  "name": "vaultId",
                  "type": "uint256"
                }
              ],
              "internalType": "struct IO[]",
              "name": "validOutputs",
              "type": "tuple[]"
            },
            {
              "internalType": "bytes",
              "name": "data",
              "type": "bytes"
            }
          ],
          "internalType": "struct Order",
          "name": "b_",
          "type": "tuple"
        },
        {
          "components": [
            {
              "internalType": "uint256",
              "name": "aInputIOIndex",
              "type": "uint256"
            },
            {
              "internalType": "uint256",
              "name": "aOutputIOIndex",
              "type": "uint256"
            },
            {
              "internalType": "uint256",
              "name": "bInputIOIndex",
              "type": "uint256"
            },
            {
              "internalType": "uint256",
              "name": "bOutputIOIndex",
              "type": "uint256"
            },
            {
              "internalType": "uint256",
              "name": "aBountyVaultId",
              "type": "uint256"
            },
            {
              "internalType": "uint256",
              "name": "bBountyVaultId",
              "type": "uint256"
            }
          ],
          "internalType": "struct ClearConfig",
          "name": "clearConfig_",
          "type": "tuple"
        }
      ],
      "name": "clear",
      "outputs": [],
      "stateMutability": "nonpayable",
      "type": "function"
    },
    {
      "inputs": [
        {
          "components": [
            {
              "internalType": "address",
              "name": "token",
              "type": "address"
            },
            {
              "internalType": "uint256",
              "name": "vaultId",
              "type": "uint256"
            },
            {
              "internalType": "uint256",
              "name": "amount",
              "type": "uint256"
            }
          ],
          "internalType": "struct DepositConfig",
          "name": "config_",
          "type": "tuple"
        }
      ],
      "name": "deposit",
      "outputs": [],
      "stateMutability": "nonpayable",
      "type": "function"
    },
    {
      "inputs": [
        {
          "internalType": "address",
          "name": "",
          "type": "address"
        },
        {
          "internalType": "uint256",
          "name": "",
          "type": "uint256"
        }
      ],
      "name": "flashFee",
      "outputs": [
        {
          "internalType": "uint256",
          "name": "",
          "type": "uint256"
        }
      ],
      "stateMutability": "pure",
      "type": "function"
    },
    {
      "inputs": [
        {
          "internalType": "contract IERC3156FlashBorrower",
          "name": "receiver_",
          "type": "address"
        },
        {
          "internalType": "address",
          "name": "token_",
          "type": "address"
        },
        {
          "internalType": "uint256",
          "name": "amount_",
          "type": "uint256"
        },
        {
          "internalType": "bytes",
          "name": "data_",
          "type": "bytes"
        }
      ],
      "name": "flashLoan",
      "outputs": [
        {
          "internalType": "bool",
          "name": "",
          "type": "bool"
        }
      ],
      "stateMutability": "nonpayable",
      "type": "function"
    },
    {
      "inputs": [
        {
          "internalType": "address",
          "name": "token_",
          "type": "address"
        }
      ],
      "name": "maxFlashLoan",
      "outputs": [
        {
          "internalType": "uint256",
          "name": "",
          "type": "uint256"
        }
      ],
      "stateMutability": "view",
      "type": "function"
    },
    {
      "inputs": [
        {
          "internalType": "bytes[]",
          "name": "data",
          "type": "bytes[]"
        }
      ],
      "name": "multicall",
      "outputs": [
        {
          "internalType": "bytes[]",
          "name": "results",
          "type": "bytes[]"
        }
      ],
      "stateMutability": "nonpayable",
      "type": "function"
    },
    {
      "inputs": [
        {
          "components": [
            {
              "internalType": "address",
              "name": "owner",
              "type": "address"
            },
            {
              "internalType": "bool",
              "name": "handleIO",
              "type": "bool"
            },
            {
              "components": [
                {
                  "internalType": "contract IInterpreterV1",
                  "name": "interpreter",
                  "type": "address"
                },
                {
                  "internalType": "contract IInterpreterStoreV1",
                  "name": "store",
                  "type": "address"
                },
                {
                  "internalType": "address",
                  "name": "expression",
                  "type": "address"
                }
              ],
              "internalType": "struct Evaluable",
              "name": "evaluable",
              "type": "tuple"
            },
            {
              "components": [
                {
                  "internalType": "address",
                  "name": "token",
                  "type": "address"
                },
                {
                  "internalType": "uint8",
                  "name": "decimals",
                  "type": "uint8"
                },
                {
                  "internalType": "uint256",
                  "name": "vaultId",
                  "type": "uint256"
                }
              ],
              "internalType": "struct IO[]",
              "name": "validInputs",
              "type": "tuple[]"
            },
            {
              "components": [
                {
                  "internalType": "address",
                  "name": "token",
                  "type": "address"
                },
                {
                  "internalType": "uint8",
                  "name": "decimals",
                  "type": "uint8"
                },
                {
                  "internalType": "uint256",
                  "name": "vaultId",
                  "type": "uint256"
                }
              ],
              "internalType": "struct IO[]",
              "name": "validOutputs",
              "type": "tuple[]"
            },
            {
              "internalType": "bytes",
              "name": "data",
              "type": "bytes"
            }
          ],
          "internalType": "struct Order",
          "name": "order_",
          "type": "tuple"
        }
      ],
      "name": "removeOrder",
      "outputs": [],
      "stateMutability": "nonpayable",
      "type": "function"
    },
    {
      "inputs": [
        {
          "components": [
            {
              "internalType": "address",
              "name": "output",
              "type": "address"
            },
            {
              "internalType": "address",
              "name": "input",
              "type": "address"
            },
            {
              "internalType": "uint256",
              "name": "minimumInput",
              "type": "uint256"
            },
            {
              "internalType": "uint256",
              "name": "maximumInput",
              "type": "uint256"
            },
            {
              "internalType": "uint256",
              "name": "maximumIORatio",
              "type": "uint256"
            },
            {
              "components": [
                {
                  "components": [
                    {
                      "internalType": "address",
                      "name": "owner",
                      "type": "address"
                    },
                    {
                      "internalType": "bool",
                      "name": "handleIO",
                      "type": "bool"
                    },
                    {
                      "components": [
                        {
                          "internalType": "contract IInterpreterV1",
                          "name": "interpreter",
                          "type": "address"
                        },
                        {
                          "internalType": "contract IInterpreterStoreV1",
                          "name": "store",
                          "type": "address"
                        },
                        {
                          "internalType": "address",
                          "name": "expression",
                          "type": "address"
                        }
                      ],
                      "internalType": "struct Evaluable",
                      "name": "evaluable",
                      "type": "tuple"
                    },
                    {
                      "components": [
                        {
                          "internalType": "address",
                          "name": "token",
                          "type": "address"
                        },
                        {
                          "internalType": "uint8",
                          "name": "decimals",
                          "type": "uint8"
                        },
                        {
                          "internalType": "uint256",
                          "name": "vaultId",
                          "type": "uint256"
                        }
                      ],
                      "internalType": "struct IO[]",
                      "name": "validInputs",
                      "type": "tuple[]"
                    },
                    {
                      "components": [
                        {
                          "internalType": "address",
                          "name": "token",
                          "type": "address"
                        },
                        {
                          "internalType": "uint8",
                          "name": "decimals",
                          "type": "uint8"
                        },
                        {
                          "internalType": "uint256",
                          "name": "vaultId",
                          "type": "uint256"
                        }
                      ],
                      "internalType": "struct IO[]",
                      "name": "validOutputs",
                      "type": "tuple[]"
                    },
                    {
                      "internalType": "bytes",
                      "name": "data",
                      "type": "bytes"
                    }
                  ],
                  "internalType": "struct Order",
                  "name": "order",
                  "type": "tuple"
                },
                {
                  "internalType": "uint256",
                  "name": "inputIOIndex",
                  "type": "uint256"
                },
                {
                  "internalType": "uint256",
                  "name": "outputIOIndex",
                  "type": "uint256"
                }
              ],
              "internalType": "struct TakeOrderConfig[]",
              "name": "orders",
              "type": "tuple[]"
            }
          ],
          "internalType": "struct TakeOrdersConfig",
          "name": "takeOrders_",
          "type": "tuple"
        }
      ],
      "name": "takeOrders",
      "outputs": [
        {
          "internalType": "uint256",
          "name": "totalInput_",
          "type": "uint256"
        },
        {
          "internalType": "uint256",
          "name": "totalOutput_",
          "type": "uint256"
        }
      ],
      "stateMutability": "nonpayable",
      "type": "function"
    },
    {
      "inputs": [
        {
          "internalType": "address",
          "name": "",
          "type": "address"
        },
        {
          "internalType": "address",
          "name": "",
          "type": "address"
        },
        {
          "internalType": "uint256",
          "name": "",
          "type": "uint256"
        }
      ],
      "name": "vaultBalance",
      "outputs": [
        {
          "internalType": "uint256",
          "name": "",
          "type": "uint256"
        }
      ],
      "stateMutability": "view",
      "type": "function"
    },
    {
      "inputs": [
        {
          "components": [
            {
              "internalType": "address",
              "name": "token",
              "type": "address"
            },
            {
              "internalType": "uint256",
              "name": "vaultId",
              "type": "uint256"
            },
            {
              "internalType": "uint256",
              "name": "amount",
              "type": "uint256"
            }
          ],
          "internalType": "struct WithdrawConfig",
          "name": "config_",
          "type": "tuple"
        }
      ],
      "name": "withdraw",
      "outputs": [],
      "stateMutability": "nonpayable",
      "type": "function"
    }
  ],
  "bytecode": "0x6080604052606580546001600160a01b031990811690915560668054909116905560006067553480156200003257600080fd5b5060405162004f7d38038062004f7d833981016040819052620000559162000556565b7fffcbb17af8a5dfa67579100f93fbf210b354fa7f165212d2fd35802f312f2e3860001b81620000958282602001516200023160201b620016e51760201c565b7f20b33fd5188a57eebbb3ccd67ceef094e73dbda848ba098e82859bf860eb1d7f338260200151604051620000cc92919062000664565b60405180910390a1620000ee8160000151620002aa60201b620017861760201c565b5050600054610100900460ff1615808015620001115750600054600160ff909116105b806200014157506200012e306200036e60201b620018681760201c565b15801562000141575060005460ff166001145b620001aa5760405162461bcd60e51b815260206004820152602e60248201527f496e697469616c697a61626c653a20636f6e747261637420697320616c72656160448201526d191e481a5b9a5d1a585b1a5e995960921b60648201526084015b60405180910390fd5b6000805460ff191660011790558015620001ce576000805461ff0019166101001790555b620001d86200037d565b620001e2620003e5565b801562000229576000805461ff0019169055604051600181527f7f26b83ff96e1f2b6a682f133852f6798a09c465da95921460cefb38474024989060200160405180910390a15b5050620007d2565b80516020820120828114620002645760405163074fe10f60e41b81526004810184905260248101829052604401620001a1565b6200028382600801516001600160401b031667ff0a89c674ee78741490565b620002a55781604051630c89984b60e31b8152600401620001a1919062000692565b505050565b604080516000808252602082019092526001600160a01b03831691635511cb679190620002e8565b6060815260200190600190039081620002d25790505b5060408051600080825260208201908152818301928390526001600160e01b031960e086901b1690925262000322929160448201620006eb565b6060604051808303816000875af115801562000342573d6000803e3d6000fd5b505050506040513d601f19601f820116820180604052508101906200036891906200077e565b50505050565b6001600160a01b03163b151590565b600054610100900460ff16620003d95760405162461bcd60e51b815260206004820152602b602482015260008051602062004f5d83398151915260448201526a6e697469616c697a696e6760a81b6064820152608401620001a1565b620003e362000441565b565b600054610100900460ff16620003e35760405162461bcd60e51b815260206004820152602b602482015260008051602062004f5d83398151915260448201526a6e697469616c697a696e6760a81b6064820152608401620001a1565b600054610100900460ff166200049d5760405162461bcd60e51b815260206004820152602b602482015260008051602062004f5d83398151915260448201526a6e697469616c697a696e6760a81b6064820152608401620001a1565b60018055565b634e487b7160e01b600052604160045260246000fd5b604080519081016001600160401b0381118282101715620004de57620004de620004a3565b60405290565b604051601f8201601f191681016001600160401b03811182821017156200050f576200050f620004a3565b604052919050565b6001600160a01b03811681146200052d57600080fd5b50565b60005b838110156200054d57818101518382015260200162000533565b50506000910152565b600060208083850312156200056a57600080fd5b82516001600160401b03808211156200058257600080fd5b90840190604082870312156200059757600080fd5b620005a1620004b9565b8251620005ae8162000517565b81528284015182811115620005c257600080fd5b80840193505086601f840112620005d857600080fd5b825182811115620005ed57620005ed620004a3565b62000601601f8201601f19168601620004e4565b925080835287858286010111156200061857600080fd5b620006298186850187870162000530565b5092830152509392505050565b600081518084526200065081602086016020860162000530565b601f01601f19169290920160200192915050565b6001600160a01b03831681526040602082018190526000906200068a9083018462000636565b949350505050565b602081526000620006a7602083018462000636565b9392505050565b600081518084526020808501945080840160005b83811015620006e057815187529582019590820190600101620006c2565b509495945050505050565b6000606082016060835280865180835260808501915060808160051b8601019250602080890160005b838110156200074657607f198887030185526200073386835162000636565b9550938201939082019060010162000714565b5050858403818701525050506200075e8186620006ae565b90508281036040840152620007748185620006ae565b9695505050505050565b6000806000606084860312156200079457600080fd5b8351620007a18162000517565b6020850151909350620007b48162000517565b6040850151909250620007c78162000517565b809150509250925092565b61477b80620007e26000396000f3fe608060405234801561001057600080fd5b50600436106100c95760003560e01c80639635d7e611610081578063d97b2e481161005b578063d97b2e48146101ad578063d9d98ce4146101de578063e6b62636146101f157600080fd5b80639635d7e614610152578063a2dd80d614610165578063ac9650d81461018d57600080fd5b8063613255ab116100b2578063613255ab1461010b578063702766781461012c578063863764831461013f57600080fd5b80634f266187146100ce5780635cffe9de146100e3575b600080fd5b6100e16100dc366004613180565b610204565b005b6100f66100f13660046131c9565b610351565b60405190151581526020015b60405180910390f35b61011e610119366004613268565b610548565b604051908152602001610102565b6100e161013a366004613285565b6105f2565b6100e161014d3660046132c0565b610923565b6100e1610160366004613691565b610a37565b610178610173366004613707565b610ff5565b60408051928352602083019190915201610102565b6101a061019b36600461373c565b611509565b6040516101029190613874565b61011e6101bb366004613887565b606960209081526000938452604080852082529284528284209052825290205481565b61011e6101ec3660046138c8565b6105e9565b6100e16101ff366004613180565b6115fe565b61020c611884565b336000908152606960209081526040822090829061022c90850185613268565b73ffffffffffffffffffffffffffffffffffffffff1681526020808201929092526040908101600090812085840135825290925280822054925061027390840135836118f7565b905061027f8183613923565b3360009081526069602090815260408220919061029e90870187613268565b73ffffffffffffffffffffffffffffffffffffffff1673ffffffffffffffffffffffffffffffffffffffff168152602001908152602001600020600085602001358152602001908152602001600020819055507f2538ccc7ad2a119a36f2e65c1e2fc908beef800cd59b5d6680db24de18e7847a3384836040516103249392919061396e565b60405180910390a161034361033c6020850185613268565b338361190f565b505061034e60018055565b50565b600061035b6119bd565b6066805473ffffffffffffffffffffffffffffffffffffffff8088167fffffffffffffffffffffffff0000000000000000000000000000000000000000928316811790935560658054918a169190921617905560678590556103be908786611a2e565b6040517f23e30c8b00000000000000000000000000000000000000000000000000000000815260009073ffffffffffffffffffffffffffffffffffffffff8816906323e30c8b9061041d9033908a908a9087908b908b906004016139ef565b6020604051808303816000875af115801561043c573d6000803e3d6000fd5b505050506040513d601f19601f820116820180604052508101906104609190613a41565b90507f439148f0bbc682ca079e46d6e2c2f0c1e3b820f1a291b069d8882abf8cf18dd981146104c3576040517f5b62c548000000000000000000000000000000000000000000000000000000008152600481018290526024015b60405180910390fd5b606754945084156104ff576065546066546104f99173ffffffffffffffffffffffffffffffffffffffff91821691163088611b02565b60006067555b606580547fffffffffffffffffffffffff000000000000000000000000000000000000000090811690915560668054909116905561053b6119bd565b5060019695505050505050565b6000610552611b60565b6105e9576040517f70a0823100000000000000000000000000000000000000000000000000000000815230600482015273ffffffffffffffffffffffffffffffffffffffff8316906370a0823190602401602060405180830381865afa1580156105c0573d6000803e3d6000fd5b505050506040513d601f19601f820116820180604052508101906105e49190613a41565b6105ec565b60005b92915050565b6105fa611884565b6000808061060b6040850185613a5a565b610619906020810190613268565b73ffffffffffffffffffffffffffffffffffffffff16635511cb676106416040870187613a5a565b61064f906020810190613a98565b61065c6040890189613a5a565b61066a906040810190613a98565b61067660026000611bb1565b6040518663ffffffff1660e01b8152600401610696959493929190613ba6565b6060604051808303816000875af11580156106b5573d6000803e3d6000fd5b505050506040513d601f19601f820116820180604052508101906106d99190613c7e565b92509250925060006040518060c001604052803373ffffffffffffffffffffffffffffffffffffffff168152602001600087806040019061071a9190613a5a565b610728906020810190613a98565b600181811061073957610739613ccb565b905060200281019061074b9190613cfa565b919091118252506040805160608101825273ffffffffffffffffffffffffffffffffffffffff808916825287811660208381019190915290871682840152830152016107978780613d5f565b808060200260200160405190810160405280939291908181526020016000905b828210156107e3576107d460608302860136819003810190613dc6565b815260200190600101906107b7565b505050505081526020018680602001906107fd9190613d5f565b808060200260200160405190810160405280939291908181526020016000905b828210156108495761083a60608302860136819003810190613dc6565b8152602001906001019061081d565b50505091835250506020016108616060880188613cfa565b8080601f0160208091040260200160405190810160405280939291908181526020018383808284376000920182905250939094525092935091506108a6905082611be5565b60008181526068602052604090819020600190559091507fd27ee89a29b68eae1b9f10474e73f3887718c0183bd819b68f964406b9efaae19033906108ed90890189613a5a565b6108fb906020810190613268565b848460405161090d9493929190613ee0565b60405180910390a1505050505061034e60018055565b61092b611884565b6109386020820182613268565b73ffffffffffffffffffffffffffffffffffffffff163373ffffffffffffffffffffffffffffffffffffffff16146109ca57336109786020830183613268565b6040517f4702b91400000000000000000000000000000000000000000000000000000000815273ffffffffffffffffffffffffffffffffffffffff9283166004820152911660248201526044016104ba565b60006109dd6109d883613f2a565b611be5565b60008181526068602052604080822091909155519091507f3c9553ed16d2efa95556032b245c2bb920a3ee151227bca747ff98c365d74de690610a2590339085908590614006565b60405180910390a15061034e60018055565b610a3f611884565b8151835173ffffffffffffffffffffffffffffffffffffffff918216911603610aaf5782516040517f227e4ce900000000000000000000000000000000000000000000000000000000815273ffffffffffffffffffffffffffffffffffffffff90911660048201526024016104ba565b8160600151816040013581518110610ac957610ac9613ccb565b60200260200101516000015173ffffffffffffffffffffffffffffffffffffffff168360800151826020013581518110610b0557610b05613ccb565b60200260200101516000015173ffffffffffffffffffffffffffffffffffffffff1614610bca578260800151816020013581518110610b4657610b46613ccb565b6020026020010151600001518260600151826040013581518110610b6c57610b6c613ccb565b6020908102919091010151516040517ff902523f00000000000000000000000000000000000000000000000000000000815273ffffffffffffffffffffffffffffffffffffffff9283166004820152911660248201526044016104ba565b606083015180518235908110610be257610be2613ccb565b60200260200101516000015173ffffffffffffffffffffffffffffffffffffffff168260800151826060013581518110610c1e57610c1e613ccb565b60200260200101516000015173ffffffffffffffffffffffffffffffffffffffff1614610c85578160800151816060013581518110610c5f57610c5f613ccb565b6020026020010151600001518360600151826000013581518110610b6c57610b6c613ccb565b600060686000610c9486611be5565b81526020019081526020016000205403610d13577fe721f6888210c87666d3888f93b4139a86ab7757999ce54e268cba700d642a3b338460000151610cd886611be5565b6040805173ffffffffffffffffffffffffffffffffffffffff94851681529390921660208401529082015260600160405180910390a1610fe7565b600060686000610d2285611be5565b81526020019081526020016000205403610d66577fe721f6888210c87666d3888f93b4139a86ab7757999ce54e268cba700d642a3b338360000151610cd885611be5565b7f506975e6fe21639c549198780044a32f7a8bf6b4b336364f4d057c6737b2910133848484604051610d9b9493929190614135565b60405180910390a16000610dbd84836000013584602001358660000151611c34565b90506000610dd984846040013585606001358860000151611c34565b90506000610de783836122cb565b9050610dfd8682604001518360000151866123a0565b610e118582606001518360200151856123a0565b60608101518151600091610e2491613923565b9050600082604001518360200151610e3c9190613923565b90508115610ee257336000908152606960209081526040822060808b01518051869492938b0135908110610e7257610e72613ccb565b60200260200101516000015173ffffffffffffffffffffffffffffffffffffffff1673ffffffffffffffffffffffffffffffffffffffff1681526020019081526020016000206000886080013581526020019081526020016000206000828254610edc91906141bf565b90915550505b8015610f8657336000908152606960205260408120608089015180518493919060608b0135908110610f1657610f16613ccb565b60200260200101516000015173ffffffffffffffffffffffffffffffffffffffff1673ffffffffffffffffffffffffffffffffffffffff16815260200190815260200160002060008860a0013581526020019081526020016000206000828254610f8091906141bf565b90915550505b5050604080513381528251602080830191909152830151818301529082015160608083019190915282015160808201527f3f20e55919cca701abb2a40ab72542b25ea7eed63a50f979dd2cd3231e5f488d9060a00160405180910390a15050505b610ff060018055565b505050565b600080611000611884565b600061100a6130f7565b61105c6040805160c08101825260008082526020808301829052835160608101855282815290810182905280840191909152909182019081526020016060815260200160608152602001606081525090565b60608601355b61106f60a0880188613a98565b90508410801561107f5750600081115b156114515761109160a0880188613a98565b858181106110a1576110a1613ccb565b90506020028101906110b39190613a5a565b6110bc906141d2565b8051909350915060006110ce83611be5565b6000818152606860205260409020549091506111415782516040805133815273ffffffffffffffffffffffffffffffffffffffff909216602083015281018290527fe721f6888210c87666d3888f93b4139a86ab7757999ce54e268cba700d642a3b9060600160405180910390a1611445565b61114e6020890189613268565b73ffffffffffffffffffffffffffffffffffffffff16836060015185602001518151811061117e5761117e613ccb565b60200260200101516000015173ffffffffffffffffffffffffffffffffffffffff161461122b5782606001518460200151815181106111bf576111bf613ccb565b60209081029190910181015151906111d9908a018a613268565b6040517ff902523f00000000000000000000000000000000000000000000000000000000815273ffffffffffffffffffffffffffffffffffffffff9283166004820152911660248201526044016104ba565b61123b6040890160208a01613268565b73ffffffffffffffffffffffffffffffffffffffff16836080015185604001518151811061126b5761126b613ccb565b60200260200101516000015173ffffffffffffffffffffffffffffffffffffffff16146112cb5782608001518460400151815181106112ac576112ac613ccb565b6020026020010151600001518860200160208101906111d99190613268565b60006112e1848660200151876040015133611c34565b90508860800135816020015111156113515783516040805133815273ffffffffffffffffffffffffffffffffffffffff909216602083015281018390527f460c258f27efac20e56c4607a28003d235168e76997ffb7542637d26d45ea6d8906060015b60405180910390a1611443565b80516000036113af5783516040805133815273ffffffffffffffffffffffffffffffffffffffff909216602083015281018390527f3ba461a0ffd1b6782d4817ae7be605cfb1bbb4fa503c0dd613b8e50f1dcafacd90606001611344565b80516000906113bf9085906118f7565b905060006113dd83602001516001846128499092919063ffffffff16565b90506113e98286613923565b94506113f5818a6141bf565b9850611403868284866123a0565b7fce4cad1cab7839f3e153b1ef91b457aeee82df5524e2fabd85dc733da46e427933888484604051611438949392919061422f565b60405180910390a150505b505b50600190930192611062565b61145f816060890135613923565b955086604001358610156114ac57604080517f45094d88000000000000000000000000000000000000000000000000000000008152908801356004820152602481018790526044016104ba565b6114dd3330876114bf60208c018c613268565b73ffffffffffffffffffffffffffffffffffffffff16929190611b02565b6114f76114f06040890160208a01613268565b338861190f565b5050505061150460018055565b915091565b60608167ffffffffffffffff811115611524576115246132fc565b60405190808252806020026020018201604052801561155757816020015b60608152602001906001900390816115425790505b50905060005b828110156115f7576115c73085858481811061157b5761157b613ccb565b905060200281019061158d9190613cfa565b8080601f01602080910402602001604051908101604052809392919081815260200183838082843760009201919091525061285f92505050565b8282815181106115d9576115d9613ccb565b602002602001018190525080806115ef9061428e565b91505061155d565b5092915050565b611606611884565b7fadc7bd964a04a8a02261d33d2d09c6a7d9f539bc5eab77008e85fc6661ef123133826040516116379291906142c6565b60405180910390a1611656333060408401356114bf6020860186613268565b3360009081526069602090815260408083209084013592909161167b90850185613268565b73ffffffffffffffffffffffffffffffffffffffff1673ffffffffffffffffffffffffffffffffffffffff16815260200190815260200160002060008360200135815260200190815260200160002060008282546116d991906141bf565b90915550506001805550565b8051602082012082811461172f576040517f74fe10f000000000000000000000000000000000000000000000000000000000815260048101849052602481018290526044016104ba565b61174e826008015167ffffffffffffffff1667ff0a89c674ee78741490565b610ff057816040517f644cc2580000000000000000000000000000000000000000000000000000000081526004016104ba91906142f0565b6040805160008082526020820190925273ffffffffffffffffffffffffffffffffffffffff831691635511cb6791906117cf565b60608152602001906001900390816117ba5790505b5060408051600080825260208201908152818301928390527fffffffff0000000000000000000000000000000000000000000000000000000060e086901b1690925261181f929160448201614303565b6060604051808303816000875af115801561183e573d6000803e3d6000fd5b505050506040513d601f19601f820116820180604052508101906118629190613c7e565b50505050565b73ffffffffffffffffffffffffffffffffffffffff163b151590565b6002600154036118f0576040517f08c379a000000000000000000000000000000000000000000000000000000000815260206004820152601f60248201527f5265656e7472616e637947756172643a207265656e7472616e742063616c6c0060448201526064016104ba565b6002600155565b60008183106119065781611908565b825b9392505050565b60665473ffffffffffffffffffffffffffffffffffffffff8481169116148015611953575060655473ffffffffffffffffffffffffffffffffffffffff8381169116145b1561199657600061196f606754836118f790919063ffffffff16565b905061197b8183613923565b9150806067600082825461198f9190613923565b9091555050505b8015610ff057610ff073ffffffffffffffffffffffffffffffffffffffff84168383611a2e565b6119c5611b60565b15611a2c576065546066546067546040517f60817cfa00000000000000000000000000000000000000000000000000000000815273ffffffffffffffffffffffffffffffffffffffff938416600482015292909116602483015260448201526064016104ba565b565b60405173ffffffffffffffffffffffffffffffffffffffff8316602482015260448101829052610ff09084907fa9059cbb00000000000000000000000000000000000000000000000000000000906064015b604080517fffffffffffffffffffffffffffffffffffffffffffffffffffffffffffffffe08184030181529190526020810180517bffffffffffffffffffffffffffffffffffffffffffffffffffffffff167fffffffff000000000000000000000000000000000000000000000000000000009093169290921790915261299e565b60405173ffffffffffffffffffffffffffffffffffffffff808516602483015283166044820152606481018290526118629085907f23b872dd0000000000000000000000000000000000000000000000000000000090608401611a80565b60655460009073ffffffffffffffffffffffffffffffffffffffff16151580611ba0575060665473ffffffffffffffffffffffffffffffffffffffff1615155b80611bac575060675415155b905090565b6040805160028082526060808301845292600092919060208301908036833750505060208101949094525050604082015290565b600081604051602001611bf8919061433c565b604080517fffffffffffffffffffffffffffffffffffffffffffffffffffffffffffffffe0818403018152919052805160209091012092915050565b611c666040518060a0016040528060008152602001600081526020016060815260200160008152602001606081525090565b6000611c7186611be5565b60408051600480825260a0820190925291925060009190816020015b6060815260200190600190039081611c8d579050509050611cdf82886000015173ffffffffffffffffffffffffffffffffffffffff168673ffffffffffffffffffffffffffffffffffffffff16612aaa565b81600081518110611cf257611cf2613ccb565b6020026020010181905250611e5a87606001518781518110611d1657611d16613ccb565b60200260200101516000015173ffffffffffffffffffffffffffffffffffffffff1688606001518881518110611d4e57611d4e613ccb565b60200260200101516020015160ff1689606001518981518110611d7357611d73613ccb565b602002602001015160400151606960008c6000015173ffffffffffffffffffffffffffffffffffffffff1673ffffffffffffffffffffffffffffffffffffffff16815260200190815260200160002060008c606001518c81518110611dda57611dda613ccb565b60200260200101516000015173ffffffffffffffffffffffffffffffffffffffff1673ffffffffffffffffffffffffffffffffffffffff16815260200190815260200160002060008c606001518c81518110611e3857611e38613ccb565b6020026020010151604001518152602001908152602001600020546000612ae7565b81600281518110611e6d57611e6d613ccb565b6020026020010181905250611fb387608001518681518110611e9157611e91613ccb565b60200260200101516000015173ffffffffffffffffffffffffffffffffffffffff1688608001518781518110611ec957611ec9613ccb565b60200260200101516020015160ff1689608001518881518110611eee57611eee613ccb565b602002602001015160400151606960008c6000015173ffffffffffffffffffffffffffffffffffffffff1673ffffffffffffffffffffffffffffffffffffffff16815260200190815260200160002060008c608001518b81518110611f5557611f55613ccb565b60200260200101516000015173ffffffffffffffffffffffffffffffffffffffff1673ffffffffffffffffffffffffffffffffffffffff16815260200190815260200160002060008c608001518b81518110611e3857611e38613ccb565b81600381518110611fc657611fc6613ccb565b60200260200101819052506000876000015173ffffffffffffffffffffffffffffffffffffffff16905060008089604001516000015173ffffffffffffffffffffffffffffffffffffffff16636715f8258b6040015160200151856120328e6040015160400151612b32565b886040518563ffffffff1660e01b81526004016120529493929190614397565b600060405180830381865afa15801561206f573d6000803e3d6000fd5b505050506040513d6000823e601f3d9081017fffffffffffffffffffffffffffffffffffffffffffffffffffffffffffffffe01682016040526120b59190810190614438565b915091506000826002845103815181106120d1576120d1613ccb565b602002602001015190506000836001855103815181106120f3576120f3613ccb565b602002602001015190506121378c608001518b8151811061211657612116613ccb565b60200260200101516020015160ff16600084612b5b9092919063ffffffff16565b91506121998c608001518b8151811061215257612152613ccb565b60200260200101516020015160ff168d606001518d8151811061217757612177613ccb565b60200260200101516020015160ff16600184612bca909392919063ffffffff16565b8c5173ffffffffffffffffffffffffffffffffffffffff16600090815260696020526040812060808f01518051939450612268939192918e9081106121e0576121e0613ccb565b60200260200101516000015173ffffffffffffffffffffffffffffffffffffffff1673ffffffffffffffffffffffffffffffffffffffff16815260200190815260200160002060008e608001518d8151811061223e5761223e613ccb565b602002602001015160400151815260200190815260200160002054836118f790919063ffffffff16565b91506122748282611bb1565b8660018151811061228757612287613ccb565b60200260200101819052506040518060a00160405280838152602001828152602001878152602001868152602001848152509750505050505050505b949350505050565b6122f66040518060800160405280600081526020016000815260200160008152602001600081525090565b6123216040518060800160405280600081526020016000815260200160008152602001600081525090565b602083015183516123409161233891906001612849565b8551906118f7565b8152602084015184516123619161235991906001612849565b8451906118f7565b602080830191909152840151815161237a916001612849565b604082015260208084015190820151612394916001612849565b60608201529392505050565b8281604001516002815181106123b8576123b8613ccb565b60200260200101516004815181106123d2576123d2613ccb565b6020026020010181815250508181604001516003815181106123f6576123f6613ccb565b602002602001015160048151811061241057612410613ccb565b6020908102919091010152821561251d57835173ffffffffffffffffffffffffffffffffffffffff1660009081526069602052604080822090830151805186939190600290811061246357612463613ccb565b602002602001015160008151811061247d5761247d613ccb565b602002602001015173ffffffffffffffffffffffffffffffffffffffff1673ffffffffffffffffffffffffffffffffffffffff168152602001908152602001600020600083604001516002815181106124d8576124d8613ccb565b60200260200101516002815181106124f2576124f2613ccb565b60200260200101518152602001908152602001600020600082825461251791906141bf565b90915550505b811561261f57835173ffffffffffffffffffffffffffffffffffffffff1660009081526069602052604080822090830151805185939190600390811061256557612565613ccb565b602002602001015160008151811061257f5761257f613ccb565b602002602001015173ffffffffffffffffffffffffffffffffffffffff1673ffffffffffffffffffffffffffffffffffffffff168152602001908152602001600020600083604001516003815181106125da576125da613ccb565b60200260200101516002815181106125f4576125f4613ccb565b6020026020010151815260200190815260200160002060008282546126199190613923565b90915550505b7f17a5c0f3785132a57703932032f6863e7920434150aa1dc940e567b440fdce1f33826040015160405161265492919061449c565b60405180910390a1608081015151156126e55783604001516020015173ffffffffffffffffffffffffffffffffffffffff1663946aadc6826060015183608001516040518363ffffffff1660e01b81526004016126b29291906144cb565b600060405180830381600087803b1580156126cc57600080fd5b505af11580156126e0573d6000803e3d6000fd5b505050505b83602001511561186257600084604001516000015173ffffffffffffffffffffffffffffffffffffffff16636715f8258660400151602001518460600151612734896040015160400151612be8565b86604001516040518563ffffffff1660e01b81526004016127589493929190614397565b600060405180830381865afa158015612775573d6000803e3d6000fd5b505050506040513d6000823e601f3d9081017fffffffffffffffffffffffffffffffffffffffffffffffffffffffffffffffe01682016040526127bb9190810190614438565b9150506000815111156128425784604001516020015173ffffffffffffffffffffffffffffffffffffffff1663946aadc68360600151836040518363ffffffff1660e01b815260040161280f9291906144cb565b600060405180830381600087803b15801561282957600080fd5b505af115801561283d573d6000803e3d6000fd5b505050505b5050505050565b60006122c38484670de0b6b3a764000085612c13565b606073ffffffffffffffffffffffffffffffffffffffff83163b612905576040517f08c379a000000000000000000000000000000000000000000000000000000000815260206004820152602660248201527f416464726573733a2064656c65676174652063616c6c20746f206e6f6e2d636f60448201527f6e7472616374000000000000000000000000000000000000000000000000000060648201526084016104ba565b6000808473ffffffffffffffffffffffffffffffffffffffff168460405161292d91906144e4565b600060405180830381855af49150503d8060008114612968576040519150601f19603f3d011682016040523d82523d6000602084013e61296d565b606091505b5091509150612995828260405180606001604052806027815260200161471f60279139612c6e565b95945050505050565b6000612a00826040518060400160405280602081526020017f5361666545524332303a206c6f772d6c6576656c2063616c6c206661696c65648152508573ffffffffffffffffffffffffffffffffffffffff16612c879092919063ffffffff16565b805190915015610ff05780806020019051810190612a1e91906144f6565b610ff0576040517f08c379a000000000000000000000000000000000000000000000000000000000815260206004820152602a60248201527f5361666545524332303a204552433230206f7065726174696f6e20646964206e60448201527f6f7420737563636565640000000000000000000000000000000000000000000060648201526084016104ba565b6040805160038082526080820190925260609160009190602082018480368337505050602081019590955250506040830191909152606082015290565b60408051600580825260c08201909252606091600091906020820160a0803683375050506020810197909752505060408501939093526060840191909152608083015260a082015290565b6000602082901b77ffffffffffffffffffffffffffffffffffffffff00000000166002176105ec565b60008060128403612b6f5784915050611908565b8360121115612b9157836012039050612b89858285612c96565b915050611908565b507fffffffffffffffffffffffffffffffffffffffffffffffffffffffffffffffee8301612b89612bc382600a614633565b8690612ceb565b600061299585612be2612bdd878761463f565b612d45565b84612dde565b600062010000602083901b77ffffffffffffffffffffffffffffffffffffffff0000000016176105ec565b600080612c21868686612e2d565b90506001836002811115612c3757612c3761465f565b148015612c54575060008480612c4f57612c4f61468e565b868809115b1561299557612c646001826141bf565b9695505050505050565b60608315612c7d575081611908565b6119088383612efa565b60606122c38484600085612f3e565b600080612ca484600a614633565b90506000612cb282876146bd565b90506001846002811115612cc857612cc861465f565b148015612c545750612cda82826146f8565b861461299557612c646001826141bf565b600082600003612cfd575060006105ec565b82820282848281612d1057612d1061468e565b0403612d1c57806122c3565b7fffffffffffffffffffffffffffffffffffffffffffffffffffffffffffffffff949350505050565b80600081900b8114612dd9576040517f08c379a000000000000000000000000000000000000000000000000000000000815260206004820152602560248201527f53616665436173743a2076616c756520646f65736e27742066697420696e203860448201527f206269747300000000000000000000000000000000000000000000000000000060648201526084016104ba565b919050565b60008260000b600003612df2575082611908565b60008360000b1315612e1a57612e13612e0c84600a61470f565b8590612ceb565b9050611908565b60ff600084900316612b89858285612c96565b600080807fffffffffffffffffffffffffffffffffffffffffffffffffffffffffffffffff85870985870292508281108382030391505080600003612e8557838281612e7b57612e7b61468e565b0492505050611908565b808411612e9157600080fd5b60008486880960026001871981018816978890046003810283188082028403028082028403028082028403028082028403028082028403029081029092039091026000889003889004909101858311909403939093029303949094049190911702949350505050565b815115612f0a5781518083602001fd5b806040517f08c379a00000000000000000000000000000000000000000000000000000000081526004016104ba91906142f0565b606082471015612fd0576040517f08c379a000000000000000000000000000000000000000000000000000000000815260206004820152602660248201527f416464726573733a20696e73756666696369656e742062616c616e636520666f60448201527f722063616c6c000000000000000000000000000000000000000000000000000060648201526084016104ba565b6000808673ffffffffffffffffffffffffffffffffffffffff168587604051612ff991906144e4565b60006040518083038185875af1925050503d8060008114613036576040519150601f19603f3d011682016040523d82523d6000602084013e61303b565b606091505b509150915061304c87838387613057565b979650505050505050565b606083156130ed5782516000036130e65773ffffffffffffffffffffffffffffffffffffffff85163b6130e6576040517f08c379a000000000000000000000000000000000000000000000000000000000815260206004820152601d60248201527f416464726573733a2063616c6c20746f206e6f6e2d636f6e747261637400000060448201526064016104ba565b50816122c3565b6122c38383612efa565b60405180606001604052806131546040805160c08101825260008082526020808301829052835160608101855282815290810182905280840191909152909182019081526020016060815260200160608152602001606081525090565b815260200160008152602001600081525090565b60006060828403121561317a57600080fd5b50919050565b60006060828403121561319257600080fd5b6119088383613168565b73ffffffffffffffffffffffffffffffffffffffff8116811461034e57600080fd5b8035612dd98161319c565b6000806000806000608086880312156131e157600080fd5b85356131ec8161319c565b945060208601356131fc8161319c565b935060408601359250606086013567ffffffffffffffff8082111561322057600080fd5b818801915088601f83011261323457600080fd5b81358181111561324357600080fd5b89602082850101111561325557600080fd5b9699959850939650602001949392505050565b60006020828403121561327a57600080fd5b81356119088161319c565b60006020828403121561329757600080fd5b813567ffffffffffffffff8111156132ae57600080fd5b82016080818503121561190857600080fd5b6000602082840312156132d257600080fd5b813567ffffffffffffffff8111156132e957600080fd5b8201610100818503121561190857600080fd5b7f4e487b7100000000000000000000000000000000000000000000000000000000600052604160045260246000fd5b6040516060810167ffffffffffffffff8111828210171561334e5761334e6132fc565b60405290565b60405160c0810167ffffffffffffffff8111828210171561334e5761334e6132fc565b604051601f82017fffffffffffffffffffffffffffffffffffffffffffffffffffffffffffffffe016810167ffffffffffffffff811182821017156133be576133be6132fc565b604052919050565b801515811461034e57600080fd5b8035612dd9816133c6565b6000606082840312156133f157600080fd5b6133f961332b565b905081356134068161319c565b815260208201356134168161319c565b602082015260408201356134298161319c565b604082015292915050565b600067ffffffffffffffff82111561344e5761344e6132fc565b5060051b60200190565b803560ff81168114612dd957600080fd5b60006060828403121561347b57600080fd5b61348361332b565b905081356134908161319c565b815261349e60208301613458565b60208201526040820135604082015292915050565b600082601f8301126134c457600080fd5b813560206134d96134d483613434565b613377565b828152606092830285018201928282019190878511156134f857600080fd5b8387015b8581101561351b5761350e8982613469565b84529284019281016134fc565b5090979650505050505050565b600082601f83011261353957600080fd5b813567ffffffffffffffff811115613553576135536132fc565b61358460207fffffffffffffffffffffffffffffffffffffffffffffffffffffffffffffffe0601f84011601613377565b81815284602083860101111561359957600080fd5b816020850160208301376000918101602001919091529392505050565b600061010082840312156135c957600080fd5b6135d1613354565b90506135dc826131be565b81526135ea602083016133d4565b60208201526135fc83604084016133df565b604082015260a082013567ffffffffffffffff8082111561361c57600080fd5b613628858386016134b3565b606084015260c084013591508082111561364157600080fd5b61364d858386016134b3565b608084015260e084013591508082111561366657600080fd5b5061367384828501613528565b60a08301525092915050565b600060c0828403121561317a57600080fd5b600080600061010084860312156136a757600080fd5b833567ffffffffffffffff808211156136bf57600080fd5b6136cb878388016135b6565b945060208601359150808211156136e157600080fd5b506136ee868287016135b6565b9250506136fe856040860161367f565b90509250925092565b60006020828403121561371957600080fd5b813567ffffffffffffffff81111561373057600080fd5b6122c38482850161367f565b6000806020838503121561374f57600080fd5b823567ffffffffffffffff8082111561376757600080fd5b818501915085601f83011261377b57600080fd5b81358181111561378a57600080fd5b8660208260051b850101111561379f57600080fd5b60209290920196919550909350505050565b60005b838110156137cc5781810151838201526020016137b4565b50506000910152565b600081518084526137ed8160208601602086016137b1565b601f017fffffffffffffffffffffffffffffffffffffffffffffffffffffffffffffffe0169290920160200192915050565b600081518084526020808501808196508360051b8101915082860160005b858110156138675782840389526138558483516137d5565b9885019893509084019060010161383d565b5091979650505050505050565b602081526000611908602083018461381f565b60008060006060848603121561389c57600080fd5b83356138a78161319c565b925060208401356138b78161319c565b929592945050506040919091013590565b600080604083850312156138db57600080fd5b82356138e68161319c565b946020939093013593505050565b7f4e487b7100000000000000000000000000000000000000000000000000000000600052601160045260246000fd5b818103818111156105ec576105ec6138f4565b80356139418161319c565b73ffffffffffffffffffffffffffffffffffffffff16825260208181013590830152604090810135910152565b73ffffffffffffffffffffffffffffffffffffffff8416815260a081016139986020830185613936565b826080830152949350505050565b8183528181602085013750600060208284010152600060207fffffffffffffffffffffffffffffffffffffffffffffffffffffffffffffffe0601f840116840101905092915050565b600073ffffffffffffffffffffffffffffffffffffffff808916835280881660208401525085604083015284606083015260a06080830152613a3560a0830184866139a6565b98975050505050505050565b600060208284031215613a5357600080fd5b5051919050565b600082357fffffffffffffffffffffffffffffffffffffffffffffffffffffffffffffffa1833603018112613a8e57600080fd5b9190910192915050565b60008083357fffffffffffffffffffffffffffffffffffffffffffffffffffffffffffffffe1843603018112613acd57600080fd5b83018035915067ffffffffffffffff821115613ae857600080fd5b6020019150600581901b3603821315613b0057600080fd5b9250929050565b60008083357fffffffffffffffffffffffffffffffffffffffffffffffffffffffffffffffe1843603018112613b3c57600080fd5b830160208101925035905067ffffffffffffffff811115613b5c57600080fd5b803603821315613b0057600080fd5b600081518084526020808501945080840160005b83811015613b9b57815187529582019590820190600101613b7f565b509495945050505050565b6060808252810185905260006080600587901b8301810190830188835b89811015613c1e577fffffffffffffffffffffffffffffffffffffffffffffffffffffffffffffff80868503018352613bfc828c613b07565b613c078682846139a6565b955050506020928301929190910190600101613bc3565b50505082810360208401528481527f07ffffffffffffffffffffffffffffffffffffffffffffffffffffffffffffff851115613c5957600080fd5b8460051b808760208401370182810360209081016040850152613a3590820185613b6b565b600080600060608486031215613c9357600080fd5b8351613c9e8161319c565b6020850151909350613caf8161319c565b6040850151909250613cc08161319c565b809150509250925092565b7f4e487b7100000000000000000000000000000000000000000000000000000000600052603260045260246000fd5b60008083357fffffffffffffffffffffffffffffffffffffffffffffffffffffffffffffffe1843603018112613d2f57600080fd5b83018035915067ffffffffffffffff821115613d4a57600080fd5b602001915036819003821315613b0057600080fd5b60008083357fffffffffffffffffffffffffffffffffffffffffffffffffffffffffffffffe1843603018112613d9457600080fd5b83018035915067ffffffffffffffff821115613daf57600080fd5b6020019150606081023603821315613b0057600080fd5b600060608284031215613dd857600080fd5b6119088383613469565b600081518084526020808501945080840160005b83811015613b9b578151805173ffffffffffffffffffffffffffffffffffffffff1688528381015160ff16848901526040908101519088015260609096019590820190600101613df6565b600061010073ffffffffffffffffffffffffffffffffffffffff8084511685526020840151151560208601526040840151818151166040870152816020820151166060870152816040820151166080870152505060608301518160a0860152613eac82860182613de2565b915050608083015184820360c0860152613ec68282613de2565b91505060a083015184820360e086015261299582826137d5565b600073ffffffffffffffffffffffffffffffffffffffff808716835280861660208401525060806040830152613f196080830185613e41565b905082606083015295945050505050565b60006105ec36836135b6565b60008083357fffffffffffffffffffffffffffffffffffffffffffffffffffffffffffffffe1843603018112613f6b57600080fd5b830160208101925035905067ffffffffffffffff811115613f8b57600080fd5b606081023603821315613b0057600080fd5b8183526000602080850194508260005b85811015613b9b578135613fc08161319c565b73ffffffffffffffffffffffffffffffffffffffff16875260ff613fe5838501613458565b16878401526040828101359088015260609687019690910190600101613fad565b600073ffffffffffffffffffffffffffffffffffffffff80861683526060602084015284356140348161319c565b811660608401526020850135614049816133c6565b15156080840152604085013561405e8161319c565b811660a084015260608501356140738161319c565b811660c084015260808501356140888161319c565b1660e083015261409b60a0850185613f36565b610100848101526140b161016085018284613f9d565b9150506140c160c0860186613f36565b7fffffffffffffffffffffffffffffffffffffffffffffffffffffffffffffffa080868503016101208701526140f8848385613f9d565b935061410760e0890189613b07565b935091508086850301610140870152506141228383836139a6565b9350505050826040830152949350505050565b600061012073ffffffffffffffffffffffffffffffffffffffff8716835280602084015261416581840187613e41565b905082810360408401526141798186613e41565b9150508235606083015260208301356080830152604083013560a0830152606083013560c0830152608083013560e083015260a083013561010083015295945050505050565b808201808211156105ec576105ec6138f4565b6000606082360312156141e457600080fd5b6141ec61332b565b823567ffffffffffffffff81111561420357600080fd5b61420f368286016135b6565b825250602083013560208201526040830135604082015280915050919050565b73ffffffffffffffffffffffffffffffffffffffff8516815260806020820152600084516060608084015261426760e0840182613e41565b602087015160a085015260409687015160c085015295830194909452506060015250919050565b60007fffffffffffffffffffffffffffffffffffffffffffffffffffffffffffffffff82036142bf576142bf6138f4565b5060010190565b73ffffffffffffffffffffffffffffffffffffffff83168152608081016119086020830184613936565b60208152600061190860208301846137d5565b606081526000614316606083018661381f565b82810360208401526143288186613b6b565b90508281036040840152612c648185613b6b565b6020815260006119086020830184613e41565b600081518084526020808501808196508360051b8101915082860160005b85811015613867578284038952614385848351613b6b565b9885019893509084019060010161436d565b73ffffffffffffffffffffffffffffffffffffffff85168152836020820152826040820152608060608201526000612c64608083018461434f565b600082601f8301126143e357600080fd5b815160206143f36134d483613434565b82815260059290921b8401810191818101908684111561441257600080fd5b8286015b8481101561442d5780518352918301918301614416565b509695505050505050565b6000806040838503121561444b57600080fd5b825167ffffffffffffffff8082111561446357600080fd5b61446f868387016143d2565b9350602085015191508082111561448557600080fd5b50614492858286016143d2565b9150509250929050565b73ffffffffffffffffffffffffffffffffffffffff831681526040602082015260006122c3604083018461434f565b8281526040602082015260006122c36040830184613b6b565b60008251613a8e8184602087016137b1565b60006020828403121561450857600080fd5b8151611908816133c6565b600181815b8085111561456c57817fffffffffffffffffffffffffffffffffffffffffffffffffffffffffffffffff04821115614552576145526138f4565b8085161561455f57918102915b93841c9390800290614518565b509250929050565b600082614583575060016105ec565b81614590575060006105ec565b81600181146145a657600281146145b0576145cc565b60019150506105ec565b60ff8411156145c1576145c16138f4565b50506001821b6105ec565b5060208310610133831016604e8410600b84101617156145ef575081810a6105ec565b6145f98383614513565b807fffffffffffffffffffffffffffffffffffffffffffffffffffffffffffffffff0482111561462b5761462b6138f4565b029392505050565b60006119088383614574565b81810360008312801583831316838312821617156115f7576115f76138f4565b7f4e487b7100000000000000000000000000000000000000000000000000000000600052602160045260246000fd5b7f4e487b7100000000000000000000000000000000000000000000000000000000600052601260045260246000fd5b6000826146f3577f4e487b7100000000000000000000000000000000000000000000000000000000600052601260045260246000fd5b500490565b80820281158282048414176105ec576105ec6138f4565b600061190860ff84168361457456fe416464726573733a206c6f772d6c6576656c2064656c65676174652063616c6c206661696c6564a2646970667358221220c1ef9f03224afff41560978a00bea5356ed9bdeb8f6e07d3b9aaf9be8098bf1b64736f6c63430008110033496e697469616c697a61626c653a20636f6e7472616374206973206e6f742069",
  "linkReferences": {},
  "deployedLinkReferences": {}
}