{
  "_format": "hh-sol-artifact-1",
  "contractName": "OrderBook",
  "sourceName": "contracts/orderbook/OrderBook.sol",
  "abi": [
    {
      "inputs": [],
      "stateMutability": "nonpayable",
      "type": "constructor"
    },
    {
      "inputs": [
        {
          "internalType": "address",
          "name": "token",
          "type": "address"
        },
        {
          "internalType": "address",
          "name": "receiver",
          "type": "address"
        },
        {
          "internalType": "uint256",
          "name": "amount",
          "type": "uint256"
        }
      ],
      "name": "BadDebt",
      "type": "error"
    },
    {
      "inputs": [
        {
          "internalType": "bytes32",
          "name": "result",
          "type": "bytes32"
        }
      ],
      "name": "FlashLenderCallbackFailed",
      "type": "error"
    },
    {
      "inputs": [
        {
          "internalType": "uint256",
          "name": "minimumInput",
          "type": "uint256"
        },
        {
          "internalType": "uint256",
          "name": "input",
          "type": "uint256"
        }
      ],
      "name": "MinimumInput",
      "type": "error"
    },
    {
      "inputs": [
        {
          "internalType": "address",
          "name": "sender",
          "type": "address"
        },
        {
          "internalType": "address",
          "name": "owner",
          "type": "address"
        }
      ],
      "name": "NotOrderOwner",
      "type": "error"
    },
    {
      "inputs": [
        {
          "internalType": "address",
          "name": "owner",
          "type": "address"
        }
      ],
      "name": "SameOwner",
      "type": "error"
    },
    {
      "inputs": [
        {
          "internalType": "address",
          "name": "a",
          "type": "address"
        },
        {
          "internalType": "address",
          "name": "b",
          "type": "address"
        }
      ],
      "name": "TokenMismatch",
      "type": "error"
    },
    {
      "anonymous": false,
      "inputs": [
        {
          "indexed": false,
          "internalType": "address",
          "name": "sender",
          "type": "address"
        },
        {
          "indexed": false,
          "internalType": "contract IExpressionDeployerV1",
          "name": "expressionDeployer",
          "type": "address"
        },
        {
          "components": [
            {
              "internalType": "address",
              "name": "owner",
              "type": "address"
            },
            {
              "internalType": "bool",
              "name": "handleIO",
              "type": "bool"
            },
            {
              "components": [
                {
                  "internalType": "contract IInterpreterV1",
                  "name": "interpreter",
                  "type": "address"
                },
                {
                  "internalType": "contract IInterpreterStoreV1",
                  "name": "store",
                  "type": "address"
                },
                {
                  "internalType": "address",
                  "name": "expression",
                  "type": "address"
                }
              ],
              "internalType": "struct Evaluable",
              "name": "evaluable",
              "type": "tuple"
            },
            {
              "components": [
                {
                  "internalType": "address",
                  "name": "token",
                  "type": "address"
                },
                {
                  "internalType": "uint8",
                  "name": "decimals",
                  "type": "uint8"
                },
                {
                  "internalType": "uint256",
                  "name": "vaultId",
                  "type": "uint256"
                }
              ],
              "internalType": "struct IO[]",
              "name": "validInputs",
              "type": "tuple[]"
            },
            {
              "components": [
                {
                  "internalType": "address",
                  "name": "token",
                  "type": "address"
                },
                {
                  "internalType": "uint8",
                  "name": "decimals",
                  "type": "uint8"
                },
                {
                  "internalType": "uint256",
                  "name": "vaultId",
                  "type": "uint256"
                }
              ],
              "internalType": "struct IO[]",
              "name": "validOutputs",
              "type": "tuple[]"
            },
            {
              "internalType": "bytes",
              "name": "data",
              "type": "bytes"
            }
          ],
          "indexed": false,
          "internalType": "struct Order",
          "name": "order",
          "type": "tuple"
        },
        {
          "indexed": false,
          "internalType": "uint256",
          "name": "orderHash",
          "type": "uint256"
        }
      ],
      "name": "AddOrder",
      "type": "event"
    },
    {
      "anonymous": false,
      "inputs": [
        {
          "indexed": false,
          "internalType": "address",
          "name": "sender",
          "type": "address"
        },
        {
          "components": [
            {
              "internalType": "uint256",
              "name": "aOutput",
              "type": "uint256"
            },
            {
              "internalType": "uint256",
              "name": "bOutput",
              "type": "uint256"
            },
            {
              "internalType": "uint256",
              "name": "aInput",
              "type": "uint256"
            },
            {
              "internalType": "uint256",
              "name": "bInput",
              "type": "uint256"
            }
          ],
          "indexed": false,
          "internalType": "struct ClearStateChange",
          "name": "clearStateChange",
          "type": "tuple"
        }
      ],
      "name": "AfterClear",
      "type": "event"
    },
    {
      "anonymous": false,
      "inputs": [
        {
          "indexed": false,
          "internalType": "address",
          "name": "sender",
          "type": "address"
        },
        {
          "components": [
            {
              "internalType": "address",
              "name": "owner",
              "type": "address"
            },
            {
              "internalType": "bool",
              "name": "handleIO",
              "type": "bool"
            },
            {
              "components": [
                {
                  "internalType": "contract IInterpreterV1",
                  "name": "interpreter",
                  "type": "address"
                },
                {
                  "internalType": "contract IInterpreterStoreV1",
                  "name": "store",
                  "type": "address"
                },
                {
                  "internalType": "address",
                  "name": "expression",
                  "type": "address"
                }
              ],
              "internalType": "struct Evaluable",
              "name": "evaluable",
              "type": "tuple"
            },
            {
              "components": [
                {
                  "internalType": "address",
                  "name": "token",
                  "type": "address"
                },
                {
                  "internalType": "uint8",
                  "name": "decimals",
                  "type": "uint8"
                },
                {
                  "internalType": "uint256",
                  "name": "vaultId",
                  "type": "uint256"
                }
              ],
              "internalType": "struct IO[]",
              "name": "validInputs",
              "type": "tuple[]"
            },
            {
              "components": [
                {
                  "internalType": "address",
                  "name": "token",
                  "type": "address"
                },
                {
                  "internalType": "uint8",
                  "name": "decimals",
                  "type": "uint8"
                },
                {
                  "internalType": "uint256",
                  "name": "vaultId",
                  "type": "uint256"
                }
              ],
              "internalType": "struct IO[]",
              "name": "validOutputs",
              "type": "tuple[]"
            },
            {
              "internalType": "bytes",
              "name": "data",
              "type": "bytes"
            }
          ],
          "indexed": false,
          "internalType": "struct Order",
          "name": "a",
          "type": "tuple"
        },
        {
          "components": [
            {
              "internalType": "address",
              "name": "owner",
              "type": "address"
            },
            {
              "internalType": "bool",
              "name": "handleIO",
              "type": "bool"
            },
            {
              "components": [
                {
                  "internalType": "contract IInterpreterV1",
                  "name": "interpreter",
                  "type": "address"
                },
                {
                  "internalType": "contract IInterpreterStoreV1",
                  "name": "store",
                  "type": "address"
                },
                {
                  "internalType": "address",
                  "name": "expression",
                  "type": "address"
                }
              ],
              "internalType": "struct Evaluable",
              "name": "evaluable",
              "type": "tuple"
            },
            {
              "components": [
                {
                  "internalType": "address",
                  "name": "token",
                  "type": "address"
                },
                {
                  "internalType": "uint8",
                  "name": "decimals",
                  "type": "uint8"
                },
                {
                  "internalType": "uint256",
                  "name": "vaultId",
                  "type": "uint256"
                }
              ],
              "internalType": "struct IO[]",
              "name": "validInputs",
              "type": "tuple[]"
            },
            {
              "components": [
                {
                  "internalType": "address",
                  "name": "token",
                  "type": "address"
                },
                {
                  "internalType": "uint8",
                  "name": "decimals",
                  "type": "uint8"
                },
                {
                  "internalType": "uint256",
                  "name": "vaultId",
                  "type": "uint256"
                }
              ],
              "internalType": "struct IO[]",
              "name": "validOutputs",
              "type": "tuple[]"
            },
            {
              "internalType": "bytes",
              "name": "data",
              "type": "bytes"
            }
          ],
          "indexed": false,
          "internalType": "struct Order",
          "name": "b",
          "type": "tuple"
        },
        {
          "components": [
            {
              "internalType": "uint256",
              "name": "aInputIOIndex",
              "type": "uint256"
            },
            {
              "internalType": "uint256",
              "name": "aOutputIOIndex",
              "type": "uint256"
            },
            {
              "internalType": "uint256",
              "name": "bInputIOIndex",
              "type": "uint256"
            },
            {
              "internalType": "uint256",
              "name": "bOutputIOIndex",
              "type": "uint256"
            },
            {
              "internalType": "uint256",
              "name": "aBountyVaultId",
              "type": "uint256"
            },
            {
              "internalType": "uint256",
              "name": "bBountyVaultId",
              "type": "uint256"
            }
          ],
          "indexed": false,
          "internalType": "struct ClearConfig",
          "name": "clearConfig",
          "type": "tuple"
        }
      ],
      "name": "Clear",
      "type": "event"
    },
    {
      "anonymous": false,
      "inputs": [
        {
          "indexed": false,
          "internalType": "address",
          "name": "sender",
          "type": "address"
        },
        {
          "indexed": false,
          "internalType": "uint256[][]",
          "name": "context",
          "type": "uint256[][]"
        }
      ],
      "name": "Context",
      "type": "event"
    },
    {
      "anonymous": false,
      "inputs": [
        {
          "indexed": false,
          "internalType": "address",
          "name": "sender",
          "type": "address"
        },
        {
          "components": [
            {
              "internalType": "address",
              "name": "token",
              "type": "address"
            },
            {
              "internalType": "uint256",
              "name": "vaultId",
              "type": "uint256"
            },
            {
              "internalType": "uint256",
              "name": "amount",
              "type": "uint256"
            }
          ],
          "indexed": false,
          "internalType": "struct DepositConfig",
          "name": "config",
          "type": "tuple"
        }
      ],
      "name": "Deposit",
      "type": "event"
    },
    {
      "anonymous": false,
      "inputs": [
        {
          "indexed": false,
          "internalType": "uint8",
          "name": "version",
          "type": "uint8"
        }
      ],
      "name": "Initialized",
      "type": "event"
    },
    {
      "anonymous": false,
      "inputs": [
        {
          "indexed": false,
          "internalType": "address",
          "name": "sender",
          "type": "address"
        },
        {
          "indexed": false,
          "internalType": "address",
          "name": "owner",
          "type": "address"
        },
        {
          "indexed": false,
          "internalType": "uint256",
          "name": "orderHash",
          "type": "uint256"
        }
      ],
      "name": "OrderExceedsMaxRatio",
      "type": "event"
    },
    {
      "anonymous": false,
      "inputs": [
        {
          "indexed": false,
          "internalType": "address",
          "name": "sender",
          "type": "address"
        },
        {
          "indexed": false,
          "internalType": "address",
          "name": "owner",
          "type": "address"
        },
        {
          "indexed": false,
          "internalType": "uint256",
          "name": "orderHash",
          "type": "uint256"
        }
      ],
      "name": "OrderNotFound",
      "type": "event"
    },
    {
      "anonymous": false,
      "inputs": [
        {
          "indexed": false,
          "internalType": "address",
          "name": "sender",
          "type": "address"
        },
        {
          "indexed": false,
          "internalType": "address",
          "name": "owner",
          "type": "address"
        },
        {
          "indexed": false,
          "internalType": "uint256",
          "name": "orderHash",
          "type": "uint256"
        }
      ],
      "name": "OrderZeroAmount",
      "type": "event"
    },
    {
      "anonymous": false,
      "inputs": [
        {
          "indexed": false,
          "internalType": "address",
          "name": "sender",
          "type": "address"
        },
        {
          "components": [
            {
              "internalType": "address",
              "name": "owner",
              "type": "address"
            },
            {
              "internalType": "bool",
              "name": "handleIO",
              "type": "bool"
            },
            {
              "components": [
                {
                  "internalType": "contract IInterpreterV1",
                  "name": "interpreter",
                  "type": "address"
                },
                {
                  "internalType": "contract IInterpreterStoreV1",
                  "name": "store",
                  "type": "address"
                },
                {
                  "internalType": "address",
                  "name": "expression",
                  "type": "address"
                }
              ],
              "internalType": "struct Evaluable",
              "name": "evaluable",
              "type": "tuple"
            },
            {
              "components": [
                {
                  "internalType": "address",
                  "name": "token",
                  "type": "address"
                },
                {
                  "internalType": "uint8",
                  "name": "decimals",
                  "type": "uint8"
                },
                {
                  "internalType": "uint256",
                  "name": "vaultId",
                  "type": "uint256"
                }
              ],
              "internalType": "struct IO[]",
              "name": "validInputs",
              "type": "tuple[]"
            },
            {
              "components": [
                {
                  "internalType": "address",
                  "name": "token",
                  "type": "address"
                },
                {
                  "internalType": "uint8",
                  "name": "decimals",
                  "type": "uint8"
                },
                {
                  "internalType": "uint256",
                  "name": "vaultId",
                  "type": "uint256"
                }
              ],
              "internalType": "struct IO[]",
              "name": "validOutputs",
              "type": "tuple[]"
            },
            {
              "internalType": "bytes",
              "name": "data",
              "type": "bytes"
            }
          ],
          "indexed": false,
          "internalType": "struct Order",
          "name": "order",
          "type": "tuple"
        },
        {
          "indexed": false,
          "internalType": "uint256",
          "name": "orderHash",
          "type": "uint256"
        }
      ],
      "name": "RemoveOrder",
      "type": "event"
    },
    {
      "anonymous": false,
      "inputs": [
        {
          "indexed": false,
          "internalType": "address",
          "name": "sender",
          "type": "address"
        },
        {
          "components": [
            {
              "components": [
                {
                  "internalType": "address",
                  "name": "owner",
                  "type": "address"
                },
                {
                  "internalType": "bool",
                  "name": "handleIO",
                  "type": "bool"
                },
                {
                  "components": [
                    {
                      "internalType": "contract IInterpreterV1",
                      "name": "interpreter",
                      "type": "address"
                    },
                    {
                      "internalType": "contract IInterpreterStoreV1",
                      "name": "store",
                      "type": "address"
                    },
                    {
                      "internalType": "address",
                      "name": "expression",
                      "type": "address"
                    }
                  ],
                  "internalType": "struct Evaluable",
                  "name": "evaluable",
                  "type": "tuple"
                },
                {
                  "components": [
                    {
                      "internalType": "address",
                      "name": "token",
                      "type": "address"
                    },
                    {
                      "internalType": "uint8",
                      "name": "decimals",
                      "type": "uint8"
                    },
                    {
                      "internalType": "uint256",
                      "name": "vaultId",
                      "type": "uint256"
                    }
                  ],
                  "internalType": "struct IO[]",
                  "name": "validInputs",
                  "type": "tuple[]"
                },
                {
                  "components": [
                    {
                      "internalType": "address",
                      "name": "token",
                      "type": "address"
                    },
                    {
                      "internalType": "uint8",
                      "name": "decimals",
                      "type": "uint8"
                    },
                    {
                      "internalType": "uint256",
                      "name": "vaultId",
                      "type": "uint256"
                    }
                  ],
                  "internalType": "struct IO[]",
                  "name": "validOutputs",
                  "type": "tuple[]"
                },
                {
                  "internalType": "bytes",
                  "name": "data",
                  "type": "bytes"
                }
              ],
              "internalType": "struct Order",
              "name": "order",
              "type": "tuple"
            },
            {
              "internalType": "uint256",
              "name": "inputIOIndex",
              "type": "uint256"
            },
            {
              "internalType": "uint256",
              "name": "outputIOIndex",
              "type": "uint256"
            }
          ],
          "indexed": false,
          "internalType": "struct TakeOrderConfig",
          "name": "takeOrder",
          "type": "tuple"
        },
        {
          "indexed": false,
          "internalType": "uint256",
          "name": "input",
          "type": "uint256"
        },
        {
          "indexed": false,
          "internalType": "uint256",
          "name": "output",
          "type": "uint256"
        }
      ],
      "name": "TakeOrder",
      "type": "event"
    },
    {
      "anonymous": false,
      "inputs": [
        {
          "indexed": false,
          "internalType": "address",
          "name": "sender",
          "type": "address"
        },
        {
          "components": [
            {
              "internalType": "address",
              "name": "token",
              "type": "address"
            },
            {
              "internalType": "uint256",
              "name": "vaultId",
              "type": "uint256"
            },
            {
              "internalType": "uint256",
              "name": "amount",
              "type": "uint256"
            }
          ],
          "indexed": false,
          "internalType": "struct WithdrawConfig",
          "name": "config",
          "type": "tuple"
        },
        {
          "indexed": false,
          "internalType": "uint256",
          "name": "amount",
          "type": "uint256"
        }
      ],
      "name": "Withdraw",
      "type": "event"
    },
    {
      "inputs": [
        {
          "components": [
            {
              "components": [
                {
                  "internalType": "address",
                  "name": "token",
                  "type": "address"
                },
                {
                  "internalType": "uint8",
                  "name": "decimals",
                  "type": "uint8"
                },
                {
                  "internalType": "uint256",
                  "name": "vaultId",
                  "type": "uint256"
                }
              ],
              "internalType": "struct IO[]",
              "name": "validInputs",
              "type": "tuple[]"
            },
            {
              "components": [
                {
                  "internalType": "address",
                  "name": "token",
                  "type": "address"
                },
                {
                  "internalType": "uint8",
                  "name": "decimals",
                  "type": "uint8"
                },
                {
                  "internalType": "uint256",
                  "name": "vaultId",
                  "type": "uint256"
                }
              ],
              "internalType": "struct IO[]",
              "name": "validOutputs",
              "type": "tuple[]"
            },
            {
              "components": [
                {
                  "internalType": "contract IExpressionDeployerV1",
                  "name": "deployer",
                  "type": "address"
                },
                {
                  "internalType": "contract IInterpreterV1",
                  "name": "interpreter",
                  "type": "address"
                },
                {
                  "internalType": "contract IInterpreterStoreV1",
                  "name": "store",
                  "type": "address"
                },
                {
                  "components": [
                    {
                      "internalType": "bytes[]",
                      "name": "sources",
                      "type": "bytes[]"
                    },
                    {
                      "internalType": "uint256[]",
                      "name": "constants",
                      "type": "uint256[]"
                    }
                  ],
                  "internalType": "struct ExpressionConfig",
                  "name": "expressionConfig",
                  "type": "tuple"
                }
              ],
              "internalType": "struct EvaluableConfig",
              "name": "evaluableConfig",
              "type": "tuple"
            },
            {
              "internalType": "bytes",
              "name": "data",
              "type": "bytes"
            }
          ],
          "internalType": "struct OrderConfig",
          "name": "config_",
          "type": "tuple"
        }
      ],
      "name": "addOrder",
      "outputs": [],
      "stateMutability": "nonpayable",
      "type": "function"
    },
    {
      "inputs": [
        {
          "components": [
            {
              "internalType": "address",
              "name": "owner",
              "type": "address"
            },
            {
              "internalType": "bool",
              "name": "handleIO",
              "type": "bool"
            },
            {
              "components": [
                {
                  "internalType": "contract IInterpreterV1",
                  "name": "interpreter",
                  "type": "address"
                },
                {
                  "internalType": "contract IInterpreterStoreV1",
                  "name": "store",
                  "type": "address"
                },
                {
                  "internalType": "address",
                  "name": "expression",
                  "type": "address"
                }
              ],
              "internalType": "struct Evaluable",
              "name": "evaluable",
              "type": "tuple"
            },
            {
              "components": [
                {
                  "internalType": "address",
                  "name": "token",
                  "type": "address"
                },
                {
                  "internalType": "uint8",
                  "name": "decimals",
                  "type": "uint8"
                },
                {
                  "internalType": "uint256",
                  "name": "vaultId",
                  "type": "uint256"
                }
              ],
              "internalType": "struct IO[]",
              "name": "validInputs",
              "type": "tuple[]"
            },
            {
              "components": [
                {
                  "internalType": "address",
                  "name": "token",
                  "type": "address"
                },
                {
                  "internalType": "uint8",
                  "name": "decimals",
                  "type": "uint8"
                },
                {
                  "internalType": "uint256",
                  "name": "vaultId",
                  "type": "uint256"
                }
              ],
              "internalType": "struct IO[]",
              "name": "validOutputs",
              "type": "tuple[]"
            },
            {
              "internalType": "bytes",
              "name": "data",
              "type": "bytes"
            }
          ],
          "internalType": "struct Order",
          "name": "a_",
          "type": "tuple"
        },
        {
          "components": [
            {
              "internalType": "address",
              "name": "owner",
              "type": "address"
            },
            {
              "internalType": "bool",
              "name": "handleIO",
              "type": "bool"
            },
            {
              "components": [
                {
                  "internalType": "contract IInterpreterV1",
                  "name": "interpreter",
                  "type": "address"
                },
                {
                  "internalType": "contract IInterpreterStoreV1",
                  "name": "store",
                  "type": "address"
                },
                {
                  "internalType": "address",
                  "name": "expression",
                  "type": "address"
                }
              ],
              "internalType": "struct Evaluable",
              "name": "evaluable",
              "type": "tuple"
            },
            {
              "components": [
                {
                  "internalType": "address",
                  "name": "token",
                  "type": "address"
                },
                {
                  "internalType": "uint8",
                  "name": "decimals",
                  "type": "uint8"
                },
                {
                  "internalType": "uint256",
                  "name": "vaultId",
                  "type": "uint256"
                }
              ],
              "internalType": "struct IO[]",
              "name": "validInputs",
              "type": "tuple[]"
            },
            {
              "components": [
                {
                  "internalType": "address",
                  "name": "token",
                  "type": "address"
                },
                {
                  "internalType": "uint8",
                  "name": "decimals",
                  "type": "uint8"
                },
                {
                  "internalType": "uint256",
                  "name": "vaultId",
                  "type": "uint256"
                }
              ],
              "internalType": "struct IO[]",
              "name": "validOutputs",
              "type": "tuple[]"
            },
            {
              "internalType": "bytes",
              "name": "data",
              "type": "bytes"
            }
          ],
          "internalType": "struct Order",
          "name": "b_",
          "type": "tuple"
        },
        {
          "components": [
            {
              "internalType": "uint256",
              "name": "aInputIOIndex",
              "type": "uint256"
            },
            {
              "internalType": "uint256",
              "name": "aOutputIOIndex",
              "type": "uint256"
            },
            {
              "internalType": "uint256",
              "name": "bInputIOIndex",
              "type": "uint256"
            },
            {
              "internalType": "uint256",
              "name": "bOutputIOIndex",
              "type": "uint256"
            },
            {
              "internalType": "uint256",
              "name": "aBountyVaultId",
              "type": "uint256"
            },
            {
              "internalType": "uint256",
              "name": "bBountyVaultId",
              "type": "uint256"
            }
          ],
          "internalType": "struct ClearConfig",
          "name": "clearConfig_",
          "type": "tuple"
        }
      ],
      "name": "clear",
      "outputs": [],
      "stateMutability": "nonpayable",
      "type": "function"
    },
    {
      "inputs": [
        {
          "components": [
            {
              "internalType": "address",
              "name": "token",
              "type": "address"
            },
            {
              "internalType": "uint256",
              "name": "vaultId",
              "type": "uint256"
            },
            {
              "internalType": "uint256",
              "name": "amount",
              "type": "uint256"
            }
          ],
          "internalType": "struct DepositConfig",
          "name": "config_",
          "type": "tuple"
        }
      ],
      "name": "deposit",
      "outputs": [],
      "stateMutability": "nonpayable",
      "type": "function"
    },
    {
      "inputs": [
        {
          "internalType": "address",
          "name": "",
          "type": "address"
        },
        {
          "internalType": "uint256",
          "name": "",
          "type": "uint256"
        }
      ],
      "name": "flashFee",
      "outputs": [
        {
          "internalType": "uint256",
          "name": "",
          "type": "uint256"
        }
      ],
      "stateMutability": "pure",
      "type": "function"
    },
    {
      "inputs": [
        {
          "internalType": "contract IERC3156FlashBorrower",
          "name": "receiver_",
          "type": "address"
        },
        {
          "internalType": "address",
          "name": "token_",
          "type": "address"
        },
        {
          "internalType": "uint256",
          "name": "amount_",
          "type": "uint256"
        },
        {
          "internalType": "bytes",
          "name": "data_",
          "type": "bytes"
        }
      ],
      "name": "flashLoan",
      "outputs": [
        {
          "internalType": "bool",
          "name": "",
          "type": "bool"
        }
      ],
      "stateMutability": "nonpayable",
      "type": "function"
    },
    {
      "inputs": [
        {
          "internalType": "address",
          "name": "token_",
          "type": "address"
        }
      ],
      "name": "maxFlashLoan",
      "outputs": [
        {
          "internalType": "uint256",
          "name": "",
          "type": "uint256"
        }
      ],
      "stateMutability": "view",
      "type": "function"
    },
    {
      "inputs": [
        {
          "internalType": "bytes[]",
          "name": "data",
          "type": "bytes[]"
        }
      ],
      "name": "multicall",
      "outputs": [
        {
          "internalType": "bytes[]",
          "name": "results",
          "type": "bytes[]"
        }
      ],
      "stateMutability": "nonpayable",
      "type": "function"
    },
    {
      "inputs": [
        {
          "components": [
            {
              "internalType": "address",
              "name": "owner",
              "type": "address"
            },
            {
              "internalType": "bool",
              "name": "handleIO",
              "type": "bool"
            },
            {
              "components": [
                {
                  "internalType": "contract IInterpreterV1",
                  "name": "interpreter",
                  "type": "address"
                },
                {
                  "internalType": "contract IInterpreterStoreV1",
                  "name": "store",
                  "type": "address"
                },
                {
                  "internalType": "address",
                  "name": "expression",
                  "type": "address"
                }
              ],
              "internalType": "struct Evaluable",
              "name": "evaluable",
              "type": "tuple"
            },
            {
              "components": [
                {
                  "internalType": "address",
                  "name": "token",
                  "type": "address"
                },
                {
                  "internalType": "uint8",
                  "name": "decimals",
                  "type": "uint8"
                },
                {
                  "internalType": "uint256",
                  "name": "vaultId",
                  "type": "uint256"
                }
              ],
              "internalType": "struct IO[]",
              "name": "validInputs",
              "type": "tuple[]"
            },
            {
              "components": [
                {
                  "internalType": "address",
                  "name": "token",
                  "type": "address"
                },
                {
                  "internalType": "uint8",
                  "name": "decimals",
                  "type": "uint8"
                },
                {
                  "internalType": "uint256",
                  "name": "vaultId",
                  "type": "uint256"
                }
              ],
              "internalType": "struct IO[]",
              "name": "validOutputs",
              "type": "tuple[]"
            },
            {
              "internalType": "bytes",
              "name": "data",
              "type": "bytes"
            }
          ],
          "internalType": "struct Order",
          "name": "order_",
          "type": "tuple"
        }
      ],
      "name": "removeOrder",
      "outputs": [],
      "stateMutability": "nonpayable",
      "type": "function"
    },
    {
      "inputs": [
        {
          "components": [
            {
              "internalType": "address",
              "name": "output",
              "type": "address"
            },
            {
              "internalType": "address",
              "name": "input",
              "type": "address"
            },
            {
              "internalType": "uint256",
              "name": "minimumInput",
              "type": "uint256"
            },
            {
              "internalType": "uint256",
              "name": "maximumInput",
              "type": "uint256"
            },
            {
              "internalType": "uint256",
              "name": "maximumIORatio",
              "type": "uint256"
            },
            {
              "components": [
                {
                  "components": [
                    {
                      "internalType": "address",
                      "name": "owner",
                      "type": "address"
                    },
                    {
                      "internalType": "bool",
                      "name": "handleIO",
                      "type": "bool"
                    },
                    {
                      "components": [
                        {
                          "internalType": "contract IInterpreterV1",
                          "name": "interpreter",
                          "type": "address"
                        },
                        {
                          "internalType": "contract IInterpreterStoreV1",
                          "name": "store",
                          "type": "address"
                        },
                        {
                          "internalType": "address",
                          "name": "expression",
                          "type": "address"
                        }
                      ],
                      "internalType": "struct Evaluable",
                      "name": "evaluable",
                      "type": "tuple"
                    },
                    {
                      "components": [
                        {
                          "internalType": "address",
                          "name": "token",
                          "type": "address"
                        },
                        {
                          "internalType": "uint8",
                          "name": "decimals",
                          "type": "uint8"
                        },
                        {
                          "internalType": "uint256",
                          "name": "vaultId",
                          "type": "uint256"
                        }
                      ],
                      "internalType": "struct IO[]",
                      "name": "validInputs",
                      "type": "tuple[]"
                    },
                    {
                      "components": [
                        {
                          "internalType": "address",
                          "name": "token",
                          "type": "address"
                        },
                        {
                          "internalType": "uint8",
                          "name": "decimals",
                          "type": "uint8"
                        },
                        {
                          "internalType": "uint256",
                          "name": "vaultId",
                          "type": "uint256"
                        }
                      ],
                      "internalType": "struct IO[]",
                      "name": "validOutputs",
                      "type": "tuple[]"
                    },
                    {
                      "internalType": "bytes",
                      "name": "data",
                      "type": "bytes"
                    }
                  ],
                  "internalType": "struct Order",
                  "name": "order",
                  "type": "tuple"
                },
                {
                  "internalType": "uint256",
                  "name": "inputIOIndex",
                  "type": "uint256"
                },
                {
                  "internalType": "uint256",
                  "name": "outputIOIndex",
                  "type": "uint256"
                }
              ],
              "internalType": "struct TakeOrderConfig[]",
              "name": "orders",
              "type": "tuple[]"
            }
          ],
          "internalType": "struct TakeOrdersConfig",
          "name": "takeOrders_",
          "type": "tuple"
        }
      ],
      "name": "takeOrders",
      "outputs": [
        {
          "internalType": "uint256",
          "name": "totalInput_",
          "type": "uint256"
        },
        {
          "internalType": "uint256",
          "name": "totalOutput_",
          "type": "uint256"
        }
      ],
      "stateMutability": "nonpayable",
      "type": "function"
    },
    {
      "inputs": [
        {
          "internalType": "address",
          "name": "",
          "type": "address"
        },
        {
          "internalType": "address",
          "name": "",
          "type": "address"
        },
        {
          "internalType": "uint256",
          "name": "",
          "type": "uint256"
        }
      ],
      "name": "vaultBalance",
      "outputs": [
        {
          "internalType": "uint256",
          "name": "",
          "type": "uint256"
        }
      ],
      "stateMutability": "view",
      "type": "function"
    },
    {
      "inputs": [
        {
          "components": [
            {
              "internalType": "address",
              "name": "token",
              "type": "address"
            },
            {
              "internalType": "uint256",
              "name": "vaultId",
              "type": "uint256"
            },
            {
              "internalType": "uint256",
              "name": "amount",
              "type": "uint256"
            }
          ],
          "internalType": "struct WithdrawConfig",
          "name": "config_",
          "type": "tuple"
        }
      ],
      "name": "withdraw",
      "outputs": [],
      "stateMutability": "nonpayable",
      "type": "function"
    }
  ],
  "bytecode": "0x60806040523480156200001157600080fd5b50600054610100900460ff1615808015620000335750600054600160ff909116105b8062000063575062000050306200015260201b6200163e1760201c565b15801562000063575060005460ff166001145b620000cc5760405162461bcd60e51b815260206004820152602e60248201527f496e697469616c697a61626c653a20636f6e747261637420697320616c72656160448201526d191e481a5b9a5d1a585b1a5e995960921b60648201526084015b60405180910390fd5b6000805460ff191660011790558015620000f0576000805461ff0019166101001790555b620000fa62000161565b62000104620001c9565b80156200014b576000805461ff0019169055604051600181527f7f26b83ff96e1f2b6a682f133852f6798a09c465da95921460cefb38474024989060200160405180910390a15b5062000287565b6001600160a01b03163b151590565b600054610100900460ff16620001bd5760405162461bcd60e51b815260206004820152602b6024820152600080516020620049e883398151915260448201526a6e697469616c697a696e6760a81b6064820152608401620000c3565b620001c762000225565b565b600054610100900460ff16620001c75760405162461bcd60e51b815260206004820152602b6024820152600080516020620049e883398151915260448201526a6e697469616c697a696e6760a81b6064820152608401620000c3565b600054610100900460ff16620002815760405162461bcd60e51b815260206004820152602b6024820152600080516020620049e883398151915260448201526a6e697469616c697a696e6760a81b6064820152608401620000c3565b60018055565b61475180620002976000396000f3fe608060405234801561001057600080fd5b50600436106100c95760003560e01c80639635d7e611610081578063d97b2e481161005b578063d97b2e48146101ad578063d9d98ce4146101de578063e6b62636146101f457600080fd5b80639635d7e614610152578063a2dd80d614610165578063ac9650d81461018d57600080fd5b80635cffe9de116100b25780635cffe9de146100f6578063613255ab1461011e578063863764831461013f57600080fd5b806341b96f6b146100ce5780634f266187146100e3575b600080fd5b6100e16100dc366004613068565b610207565b005b6100e16100f13660046130bb565b610572565b610109610104366004613104565b6106bc565b60405190151581526020015b60405180910390f35b61013161012c3660046131a3565b6107e5565b604051908152602001610115565b6100e161014d3660046131c0565b61087c565b6100e1610160366004613591565b610990565b610178610173366004613607565b610f4e565b60408051928352602083019190915201610115565b6101a061019b36600461363c565b611462565b604051610115919061371f565b6101316101bb36600461379f565b606760209081526000938452604080852082529284528284209052825290205481565b6101316101ec3660046137e0565b600092915050565b6100e16102023660046130bb565b611557565b61020f61165a565b600061021e604083018361380c565b61022c9060208101906131a3565b73ffffffffffffffffffffffffffffffffffffffff16631ed061d9610254604085018561380c565b61026290606081019061384a565b61026e600260006116cd565b6040518363ffffffff1660e01b815260040161028b9291906139d4565b6020604051808303816000875af11580156102aa573d6000803e3d6000fd5b505050506040513d601f19601f820116820180604052508101906102ce9190613af7565b905060006040518060c001604052803373ffffffffffffffffffffffffffffffffffffffff168152602001600085806040019061030b919061380c565b61031990606081019061384a565b6103239080613b14565b600181811061033457610334613b7c565b90506020028101906103469190613bab565b90501115158152602001604051806060016040528086806040019061036b919061380c565b61037c9060408101906020016131a3565b73ffffffffffffffffffffffffffffffffffffffff1681526020016103a4604088018861380c565b6103b59060608101906040016131a3565b73ffffffffffffffffffffffffffffffffffffffff90811682528616602091820152908252016103e58580613c10565b808060200260200160405190810160405280939291908181526020016000905b828210156104315761042260608302860136819003810190613c77565b81526020019060010190610405565b5050505050815260200184806020019061044b9190613c10565b808060200260200160405190810160405280939291908181526020016000905b828210156104975761048860608302860136819003810190613c77565b8152602001906001019061046b565b50505091835250506020016104af6060860186613bab565b8080601f0160208091040260200160405190810160405280939291908181526020018383808284376000920182905250939094525092935091506104f4905082611701565b60008181526066602052604090819020600190559091507fd27ee89a29b68eae1b9f10474e73f3887718c0183bd819b68f964406b9efaae190339061053b9087018761380c565b6105499060208101906131a3565b848460405161055b9493929190613d91565b60405180910390a150505061056f60018055565b50565b61057a61165a565b336000908152606760209081526040822090829061059a908501856131a3565b73ffffffffffffffffffffffffffffffffffffffff168152602080820192909252604090810160009081208584013582529092528082205492506105e19084013583611750565b90506105ed8183613e0a565b3360009081526067602090815260408220919061060c908701876131a3565b73ffffffffffffffffffffffffffffffffffffffff1673ffffffffffffffffffffffffffffffffffffffff168152602001908152602001600020600085602001358152602001908152602001600020819055507f2538ccc7ad2a119a36f2e65c1e2fc908beef800cd59b5d6680db24de18e7847a33848360405161069293929190613e55565b60405180910390a16106b16106aa60208501856131a3565b3383611768565b505061056f60018055565b60006106c9858786611860565b6040517f23e30c8b00000000000000000000000000000000000000000000000000000000815260009073ffffffffffffffffffffffffffffffffffffffff8816906323e30c8b906107289033908a908a9087908b908b90600401613e8d565b6020604051808303816000875af1158015610747573d6000803e3d6000fd5b505050506040513d601f19601f8201168201806040525081019061076b9190613edf565b90507f439148f0bbc682ca079e46d6e2c2f0c1e3b820f1a291b069d8882abf8cf18dd981146107ce576040517f5b62c548000000000000000000000000000000000000000000000000000000008152600481018290526024015b60405180910390fd5b6107d886886118cb565b5060019695505050505050565b6040517f70a0823100000000000000000000000000000000000000000000000000000000815230600482015260009073ffffffffffffffffffffffffffffffffffffffff8316906370a0823190602401602060405180830381865afa158015610852573d6000803e3d6000fd5b505050506040513d601f19601f820116820180604052508101906108769190613edf565b92915050565b61088461165a565b61089160208201826131a3565b73ffffffffffffffffffffffffffffffffffffffff163373ffffffffffffffffffffffffffffffffffffffff161461092357336108d160208301836131a3565b6040517f4702b91400000000000000000000000000000000000000000000000000000000815273ffffffffffffffffffffffffffffffffffffffff9283166004820152911660248201526044016107c5565b600061093661093183613ef8565b611701565b60008181526066602052604080822091909155519091507f3c9553ed16d2efa95556032b245c2bb920a3ee151227bca747ff98c365d74de69061097e90339085908590613fd4565b60405180910390a15061056f60018055565b61099861165a565b8151835173ffffffffffffffffffffffffffffffffffffffff918216911603610a085782516040517f227e4ce900000000000000000000000000000000000000000000000000000000815273ffffffffffffffffffffffffffffffffffffffff90911660048201526024016107c5565b8160600151816040013581518110610a2257610a22613b7c565b60200260200101516000015173ffffffffffffffffffffffffffffffffffffffff168360800151826020013581518110610a5e57610a5e613b7c565b60200260200101516000015173ffffffffffffffffffffffffffffffffffffffff1614610b23578260800151816020013581518110610a9f57610a9f613b7c565b6020026020010151600001518260600151826040013581518110610ac557610ac5613b7c565b6020908102919091010151516040517ff902523f00000000000000000000000000000000000000000000000000000000815273ffffffffffffffffffffffffffffffffffffffff9283166004820152911660248201526044016107c5565b606083015180518235908110610b3b57610b3b613b7c565b60200260200101516000015173ffffffffffffffffffffffffffffffffffffffff168260800151826060013581518110610b7757610b77613b7c565b60200260200101516000015173ffffffffffffffffffffffffffffffffffffffff1614610bde578160800151816060013581518110610bb857610bb8613b7c565b6020026020010151600001518360600151826000013581518110610ac557610ac5613b7c565b600060666000610bed86611701565b81526020019081526020016000205403610c6c577fe721f6888210c87666d3888f93b4139a86ab7757999ce54e268cba700d642a3b338460000151610c3186611701565b6040805173ffffffffffffffffffffffffffffffffffffffff94851681529390921660208401529082015260600160405180910390a1610f40565b600060666000610c7b85611701565b81526020019081526020016000205403610cbf577fe721f6888210c87666d3888f93b4139a86ab7757999ce54e268cba700d642a3b338360000151610c3185611701565b7f506975e6fe21639c549198780044a32f7a8bf6b4b336364f4d057c6737b2910133848484604051610cf49493929190614103565b60405180910390a16000610d1684836000013584602001358660000151611a02565b90506000610d3284846040013585606001358860000151611a02565b90506000610d408383612099565b9050610d5686826040015183600001518661216e565b610d6a85826060015183602001518561216e565b60608101518151600091610d7d91613e0a565b9050600082604001518360200151610d959190613e0a565b90508115610e3b57336000908152606760209081526040822060808b01518051869492938b0135908110610dcb57610dcb613b7c565b60200260200101516000015173ffffffffffffffffffffffffffffffffffffffff1673ffffffffffffffffffffffffffffffffffffffff1681526020019081526020016000206000886080013581526020019081526020016000206000828254610e35919061418d565b90915550505b8015610edf57336000908152606760205260408120608089015180518493919060608b0135908110610e6f57610e6f613b7c565b60200260200101516000015173ffffffffffffffffffffffffffffffffffffffff1673ffffffffffffffffffffffffffffffffffffffff16815260200190815260200160002060008860a0013581526020019081526020016000206000828254610ed9919061418d565b90915550505b5050604080513381528251602080830191909152830151818301529082015160608083019190915282015160808201527f3f20e55919cca701abb2a40ab72542b25ea7eed63a50f979dd2cd3231e5f488d9060a00160405180910390a15050505b610f4960018055565b505050565b600080610f5961165a565b6000610f63612ff7565b610fb56040805160c08101825260008082526020808301829052835160608101855282815290810182905280840191909152909182019081526020016060815260200160608152602001606081525090565b60608601355b610fc860a0880188613b14565b905084108015610fd85750600081115b156113aa57610fea60a0880188613b14565b85818110610ffa57610ffa613b7c565b905060200281019061100c91906141a0565b611015906141d4565b80519093509150600061102783611701565b60008181526066602052604090205490915061109a5782516040805133815273ffffffffffffffffffffffffffffffffffffffff909216602083015281018290527fe721f6888210c87666d3888f93b4139a86ab7757999ce54e268cba700d642a3b9060600160405180910390a161139e565b6110a760208901896131a3565b73ffffffffffffffffffffffffffffffffffffffff1683606001518560200151815181106110d7576110d7613b7c565b60200260200101516000015173ffffffffffffffffffffffffffffffffffffffff161461118457826060015184602001518151811061111857611118613b7c565b6020908102919091018101515190611132908a018a6131a3565b6040517ff902523f00000000000000000000000000000000000000000000000000000000815273ffffffffffffffffffffffffffffffffffffffff9283166004820152911660248201526044016107c5565b6111946040890160208a016131a3565b73ffffffffffffffffffffffffffffffffffffffff1683608001518560400151815181106111c4576111c4613b7c565b60200260200101516000015173ffffffffffffffffffffffffffffffffffffffff161461122457826080015184604001518151811061120557611205613b7c565b60200260200101516000015188602001602081019061113291906131a3565b600061123a848660200151876040015133611a02565b90508860800135816020015111156112aa5783516040805133815273ffffffffffffffffffffffffffffffffffffffff909216602083015281018390527f460c258f27efac20e56c4607a28003d235168e76997ffb7542637d26d45ea6d8906060015b60405180910390a161139c565b80516000036113085783516040805133815273ffffffffffffffffffffffffffffffffffffffff909216602083015281018390527f3ba461a0ffd1b6782d4817ae7be605cfb1bbb4fa503c0dd613b8e50f1dcafacd9060600161129d565b8051600090611318908590611750565b9050600061133683602001516001846126179092919063ffffffff16565b90506113428286613e0a565b945061134e818a61418d565b985061135c8682848661216e565b7fce4cad1cab7839f3e153b1ef91b457aeee82df5524e2fabd85dc733da46e4279338884846040516113919493929190614231565b60405180910390a150505b505b50600190930192610fbb565b6113b8816060890135613e0a565b9550866040013586101561140557604080517f45094d88000000000000000000000000000000000000000000000000000000008152908801356004820152602481018790526044016107c5565b61143633308761141860208c018c6131a3565b73ffffffffffffffffffffffffffffffffffffffff1692919061262d565b6114506114496040890160208a016131a3565b3388611768565b5050505061145d60018055565b915091565b60608167ffffffffffffffff81111561147d5761147d6131fc565b6040519080825280602002602001820160405280156114b057816020015b606081526020019060019003908161149b5790505b50905060005b8281101561155057611520308585848181106114d4576114d4613b7c565b90506020028101906114e69190613bab565b8080601f01602080910402602001604051908101604052809392919081815260200183838082843760009201919091525061270992505050565b82828151811061153257611532613b7c565b6020026020010181905250808061154890614290565b9150506114b6565b5092915050565b61155f61165a565b7fadc7bd964a04a8a02261d33d2d09c6a7d9f539bc5eab77008e85fc6661ef123133826040516115909291906142c8565b60405180910390a16115af3330604084013561141860208601866131a3565b336000908152606760209081526040808320908401359290916115d4908501856131a3565b73ffffffffffffffffffffffffffffffffffffffff1673ffffffffffffffffffffffffffffffffffffffff1681526020019081526020016000206000836020013581526020019081526020016000206000828254611632919061418d565b90915550506001805550565b73ffffffffffffffffffffffffffffffffffffffff163b151590565b6002600154036116c6576040517f08c379a000000000000000000000000000000000000000000000000000000000815260206004820152601f60248201527f5265656e7472616e637947756172643a207265656e7472616e742063616c6c0060448201526064016107c5565b6002600155565b6040805160028082526060808301845292600092919060208301908036833750505060208101949094525050604082015290565b60008160405160200161171491906142f2565b604080517fffffffffffffffffffffffffffffffffffffffffffffffffffffffffffffffe0818403018152919052805160209091012092915050565b600081831061175f5781611761565b825b9392505050565b73ffffffffffffffffffffffffffffffffffffffff808416600090815260656020908152604080832093861683529290522054808211156118105780156117df5773ffffffffffffffffffffffffffffffffffffffff80851660009081526065602090815260408083209387168352929052908120555b61180b836117ed8385613e0a565b73ffffffffffffffffffffffffffffffffffffffff87169190612848565b61185a565b73ffffffffffffffffffffffffffffffffffffffff808516600090815260656020908152604080832093871683529290529081208054849290611854908490613e0a565b90915550505b50505050565b73ffffffffffffffffffffffffffffffffffffffff8084166000908152606560209081526040808320938616835292905290812080548392906118a490849061418d565b90915550610f49905073ffffffffffffffffffffffffffffffffffffffff84168383612848565b73ffffffffffffffffffffffffffffffffffffffff80831660009081526065602090815260408083209385168352929052205480156119705761192673ffffffffffffffffffffffffffffffffffffffff841683308461262d565b73ffffffffffffffffffffffffffffffffffffffff80841660009081526065602090815260408083209386168352929052908120805483929061196a908490613e0a565b90915550505b73ffffffffffffffffffffffffffffffffffffffff808416600090815260656020908152604080832093861683529290522054801561185a576040517fb3e596b400000000000000000000000000000000000000000000000000000000815273ffffffffffffffffffffffffffffffffffffffff808616600483015284166024820152604481018290526064016107c5565b611a346040518060a0016040528060008152602001600081526020016060815260200160008152602001606081525090565b6000611a3f86611701565b60408051600480825260a0820190925291925060009190816020015b6060815260200190600190039081611a5b579050509050611aad82886000015173ffffffffffffffffffffffffffffffffffffffff168673ffffffffffffffffffffffffffffffffffffffff1661289e565b81600081518110611ac057611ac0613b7c565b6020026020010181905250611c2887606001518781518110611ae457611ae4613b7c565b60200260200101516000015173ffffffffffffffffffffffffffffffffffffffff1688606001518881518110611b1c57611b1c613b7c565b60200260200101516020015160ff1689606001518981518110611b4157611b41613b7c565b602002602001015160400151606760008c6000015173ffffffffffffffffffffffffffffffffffffffff1673ffffffffffffffffffffffffffffffffffffffff16815260200190815260200160002060008c606001518c81518110611ba857611ba8613b7c565b60200260200101516000015173ffffffffffffffffffffffffffffffffffffffff1673ffffffffffffffffffffffffffffffffffffffff16815260200190815260200160002060008c606001518c81518110611c0657611c06613b7c565b60200260200101516040015181526020019081526020016000205460006128db565b81600281518110611c3b57611c3b613b7c565b6020026020010181905250611d8187608001518681518110611c5f57611c5f613b7c565b60200260200101516000015173ffffffffffffffffffffffffffffffffffffffff1688608001518781518110611c9757611c97613b7c565b60200260200101516020015160ff1689608001518881518110611cbc57611cbc613b7c565b602002602001015160400151606760008c6000015173ffffffffffffffffffffffffffffffffffffffff1673ffffffffffffffffffffffffffffffffffffffff16815260200190815260200160002060008c608001518b81518110611d2357611d23613b7c565b60200260200101516000015173ffffffffffffffffffffffffffffffffffffffff1673ffffffffffffffffffffffffffffffffffffffff16815260200190815260200160002060008c608001518b81518110611c0657611c06613b7c565b81600381518110611d9457611d94613b7c565b60200260200101819052506000876000015173ffffffffffffffffffffffffffffffffffffffff16905060008089604001516000015173ffffffffffffffffffffffffffffffffffffffff16636715f8258b604001516020015185611e008e6040015160400151612926565b886040518563ffffffff1660e01b8152600401611e20949392919061435a565b600060405180830381865afa158015611e3d573d6000803e3d6000fd5b505050506040513d6000823e601f3d9081017fffffffffffffffffffffffffffffffffffffffffffffffffffffffffffffffe0168201604052611e8391908101906143fb565b91509150600082600284510381518110611e9f57611e9f613b7c565b60200260200101519050600083600185510381518110611ec157611ec1613b7c565b60200260200101519050611f058c608001518b81518110611ee457611ee4613b7c565b60200260200101516020015160ff1660008461294f9092919063ffffffff16565b9150611f678c608001518b81518110611f2057611f20613b7c565b60200260200101516020015160ff168d606001518d81518110611f4557611f45613b7c565b60200260200101516020015160ff166001846129be909392919063ffffffff16565b8c5173ffffffffffffffffffffffffffffffffffffffff16600090815260676020526040812060808f01518051939450612036939192918e908110611fae57611fae613b7c565b60200260200101516000015173ffffffffffffffffffffffffffffffffffffffff1673ffffffffffffffffffffffffffffffffffffffff16815260200190815260200160002060008e608001518d8151811061200c5761200c613b7c565b6020026020010151604001518152602001908152602001600020548361175090919063ffffffff16565b915061204282826116cd565b8660018151811061205557612055613b7c565b60200260200101819052506040518060a00160405280838152602001828152602001878152602001868152602001848152509750505050505050505b949350505050565b6120c46040518060800160405280600081526020016000815260200160008152602001600081525090565b6120ef6040518060800160405280600081526020016000815260200160008152602001600081525090565b6020830151835161210e9161210691906001612617565b855190611750565b81526020840151845161212f9161212791906001612617565b845190611750565b6020808301919091528401518151612148916001612617565b604082015260208084015190820151612162916001612617565b60608201529392505050565b82816040015160028151811061218657612186613b7c565b60200260200101516004815181106121a0576121a0613b7c565b6020026020010181815250508181604001516003815181106121c4576121c4613b7c565b60200260200101516004815181106121de576121de613b7c565b602090810291909101015282156122eb57835173ffffffffffffffffffffffffffffffffffffffff1660009081526067602052604080822090830151805186939190600290811061223157612231613b7c565b602002602001015160008151811061224b5761224b613b7c565b602002602001015173ffffffffffffffffffffffffffffffffffffffff1673ffffffffffffffffffffffffffffffffffffffff168152602001908152602001600020600083604001516002815181106122a6576122a6613b7c565b60200260200101516002815181106122c0576122c0613b7c565b6020026020010151815260200190815260200160002060008282546122e5919061418d565b90915550505b81156123ed57835173ffffffffffffffffffffffffffffffffffffffff1660009081526067602052604080822090830151805185939190600390811061233357612333613b7c565b602002602001015160008151811061234d5761234d613b7c565b602002602001015173ffffffffffffffffffffffffffffffffffffffff1673ffffffffffffffffffffffffffffffffffffffff168152602001908152602001600020600083604001516003815181106123a8576123a8613b7c565b60200260200101516002815181106123c2576123c2613b7c565b6020026020010151815260200190815260200160002060008282546123e79190613e0a565b90915550505b7f17a5c0f3785132a57703932032f6863e7920434150aa1dc940e567b440fdce1f33826040015160405161242292919061445f565b60405180910390a1608081015151156124b35783604001516020015173ffffffffffffffffffffffffffffffffffffffff1663946aadc6826060015183608001516040518363ffffffff1660e01b815260040161248092919061448e565b600060405180830381600087803b15801561249a57600080fd5b505af11580156124ae573d6000803e3d6000fd5b505050505b83602001511561185a57600084604001516000015173ffffffffffffffffffffffffffffffffffffffff16636715f82586604001516020015184606001516125028960400151604001516129dc565b86604001516040518563ffffffff1660e01b8152600401612526949392919061435a565b600060405180830381865afa158015612543573d6000803e3d6000fd5b505050506040513d6000823e601f3d9081017fffffffffffffffffffffffffffffffffffffffffffffffffffffffffffffffe016820160405261258991908101906143fb565b9150506000815111156126105784604001516020015173ffffffffffffffffffffffffffffffffffffffff1663946aadc68360600151836040518363ffffffff1660e01b81526004016125dd92919061448e565b600060405180830381600087803b1580156125f757600080fd5b505af115801561260b573d6000803e3d6000fd5b505050505b5050505050565b60006120918484670de0b6b3a764000085612a07565b60405173ffffffffffffffffffffffffffffffffffffffff8085166024830152831660448201526064810182905261185a9085907f23b872dd00000000000000000000000000000000000000000000000000000000906084015b604080517fffffffffffffffffffffffffffffffffffffffffffffffffffffffffffffffe08184030181529190526020810180517bffffffffffffffffffffffffffffffffffffffffffffffffffffffff167fffffffff0000000000000000000000000000000000000000000000000000000090931692909217909152612a62565b606073ffffffffffffffffffffffffffffffffffffffff83163b6127af576040517f08c379a000000000000000000000000000000000000000000000000000000000815260206004820152602660248201527f416464726573733a2064656c65676174652063616c6c20746f206e6f6e2d636f60448201527f6e7472616374000000000000000000000000000000000000000000000000000060648201526084016107c5565b6000808473ffffffffffffffffffffffffffffffffffffffff16846040516127d791906144a7565b600060405180830381855af49150503d8060008114612812576040519150601f19603f3d011682016040523d82523d6000602084013e612817565b606091505b509150915061283f82826040518060600160405280602781526020016146f560279139612b6e565b95945050505050565b60405173ffffffffffffffffffffffffffffffffffffffff8316602482015260448101829052610f499084907fa9059cbb0000000000000000000000000000000000000000000000000000000090606401612687565b6040805160038082526080820190925260609160009190602082018480368337505050602081019590955250506040830191909152606082015290565b60408051600580825260c08201909252606091600091906020820160a0803683375050506020810197909752505060408501939093526060840191909152608083015260a082015290565b6000602082901b77ffffffffffffffffffffffffffffffffffffffff0000000016600217610876565b600080601284036129635784915050611761565b83601211156129855783601203905061297d858285612b87565b915050611761565b507fffffffffffffffffffffffffffffffffffffffffffffffffffffffffffffffee830161297d6129b782600a6145d9565b8690612bdc565b600061283f856129d66129d187876145e5565b612c36565b84612ccf565b600062010000602083901b77ffffffffffffffffffffffffffffffffffffffff000000001617610876565b600080612a15868686612d1e565b90506001836002811115612a2b57612a2b614605565b148015612a48575060008480612a4357612a43614634565b868809115b1561283f57612a5860018261418d565b9695505050505050565b6000612ac4826040518060400160405280602081526020017f5361666545524332303a206c6f772d6c6576656c2063616c6c206661696c65648152508573ffffffffffffffffffffffffffffffffffffffff16612deb9092919063ffffffff16565b805190915015610f495780806020019051810190612ae29190614663565b610f49576040517f08c379a000000000000000000000000000000000000000000000000000000000815260206004820152602a60248201527f5361666545524332303a204552433230206f7065726174696f6e20646964206e60448201527f6f7420737563636565640000000000000000000000000000000000000000000060648201526084016107c5565b60608315612b7d575081611761565b6117618383612dfa565b600080612b9584600a6145d9565b90506000612ba38287614680565b90506001846002811115612bb957612bb9614605565b148015612a485750612bcb82826146bb565b861461283f57612a5860018261418d565b600082600003612bee57506000610876565b82820282848281612c0157612c01614634565b0403612c0d5780612091565b7fffffffffffffffffffffffffffffffffffffffffffffffffffffffffffffffff949350505050565b80600081900b8114612cca576040517f08c379a000000000000000000000000000000000000000000000000000000000815260206004820152602560248201527f53616665436173743a2076616c756520646f65736e27742066697420696e203860448201527f206269747300000000000000000000000000000000000000000000000000000060648201526084016107c5565b919050565b60008260000b600003612ce3575082611761565b60008360000b1315612d0b57612d04612cfd84600a6146d2565b8590612bdc565b9050611761565b60ff60008490031661297d858285612b87565b600080807fffffffffffffffffffffffffffffffffffffffffffffffffffffffffffffffff85870985870292508281108382030391505080600003612d7657838281612d6c57612d6c614634565b0492505050611761565b808411612d8257600080fd5b60008486880960026001871981018816978890046003810283188082028403028082028403028082028403028082028403028082028403029081029092039091026000889003889004909101858311909403939093029303949094049190911702949350505050565b60606120918484600085612e3e565b815115612e0a5781518083602001fd5b806040517f08c379a00000000000000000000000000000000000000000000000000000000081526004016107c591906146e1565b606082471015612ed0576040517f08c379a000000000000000000000000000000000000000000000000000000000815260206004820152602660248201527f416464726573733a20696e73756666696369656e742062616c616e636520666f60448201527f722063616c6c000000000000000000000000000000000000000000000000000060648201526084016107c5565b6000808673ffffffffffffffffffffffffffffffffffffffff168587604051612ef991906144a7565b60006040518083038185875af1925050503d8060008114612f36576040519150601f19603f3d011682016040523d82523d6000602084013e612f3b565b606091505b5091509150612f4c87838387612f57565b979650505050505050565b60608315612fed578251600003612fe65773ffffffffffffffffffffffffffffffffffffffff85163b612fe6576040517f08c379a000000000000000000000000000000000000000000000000000000000815260206004820152601d60248201527f416464726573733a2063616c6c20746f206e6f6e2d636f6e747261637400000060448201526064016107c5565b5081612091565b6120918383612dfa565b60405180606001604052806130546040805160c08101825260008082526020808301829052835160608101855282815290810182905280840191909152909182019081526020016060815260200160608152602001606081525090565b815260200160008152602001600081525090565b60006020828403121561307a57600080fd5b813567ffffffffffffffff81111561309157600080fd5b82016080818503121561176157600080fd5b6000606082840312156130b557600080fd5b50919050565b6000606082840312156130cd57600080fd5b61176183836130a3565b73ffffffffffffffffffffffffffffffffffffffff8116811461056f57600080fd5b8035612cca816130d7565b60008060008060006080868803121561311c57600080fd5b8535613127816130d7565b94506020860135613137816130d7565b935060408601359250606086013567ffffffffffffffff8082111561315b57600080fd5b818801915088601f83011261316f57600080fd5b81358181111561317e57600080fd5b89602082850101111561319057600080fd5b9699959850939650602001949392505050565b6000602082840312156131b557600080fd5b8135611761816130d7565b6000602082840312156131d257600080fd5b813567ffffffffffffffff8111156131e957600080fd5b8201610100818503121561176157600080fd5b7f4e487b7100000000000000000000000000000000000000000000000000000000600052604160045260246000fd5b6040516060810167ffffffffffffffff8111828210171561324e5761324e6131fc565b60405290565b60405160c0810167ffffffffffffffff8111828210171561324e5761324e6131fc565b604051601f82017fffffffffffffffffffffffffffffffffffffffffffffffffffffffffffffffe016810167ffffffffffffffff811182821017156132be576132be6131fc565b604052919050565b801515811461056f57600080fd5b8035612cca816132c6565b6000606082840312156132f157600080fd5b6132f961322b565b90508135613306816130d7565b81526020820135613316816130d7565b60208201526040820135613329816130d7565b604082015292915050565b600067ffffffffffffffff82111561334e5761334e6131fc565b5060051b60200190565b803560ff81168114612cca57600080fd5b60006060828403121561337b57600080fd5b61338361322b565b90508135613390816130d7565b815261339e60208301613358565b60208201526040820135604082015292915050565b600082601f8301126133c457600080fd5b813560206133d96133d483613334565b613277565b828152606092830285018201928282019190878511156133f857600080fd5b8387015b8581101561341b5761340e8982613369565b84529284019281016133fc565b5090979650505050505050565b600082601f83011261343957600080fd5b813567ffffffffffffffff811115613453576134536131fc565b61348460207fffffffffffffffffffffffffffffffffffffffffffffffffffffffffffffffe0601f84011601613277565b81815284602083860101111561349957600080fd5b816020850160208301376000918101602001919091529392505050565b600061010082840312156134c957600080fd5b6134d1613254565b90506134dc826130f9565b81526134ea602083016132d4565b60208201526134fc83604084016132df565b604082015260a082013567ffffffffffffffff8082111561351c57600080fd5b613528858386016133b3565b606084015260c084013591508082111561354157600080fd5b61354d858386016133b3565b608084015260e084013591508082111561356657600080fd5b5061357384828501613428565b60a08301525092915050565b600060c082840312156130b557600080fd5b600080600061010084860312156135a757600080fd5b833567ffffffffffffffff808211156135bf57600080fd5b6135cb878388016134b6565b945060208601359150808211156135e157600080fd5b506135ee868287016134b6565b9250506135fe856040860161357f565b90509250925092565b60006020828403121561361957600080fd5b813567ffffffffffffffff81111561363057600080fd5b6120918482850161357f565b6000806020838503121561364f57600080fd5b823567ffffffffffffffff8082111561366757600080fd5b818501915085601f83011261367b57600080fd5b81358181111561368a57600080fd5b8660208260051b850101111561369f57600080fd5b60209290920196919550909350505050565b60005b838110156136cc5781810151838201526020016136b4565b50506000910152565b600081518084526136ed8160208601602086016136b1565b601f017fffffffffffffffffffffffffffffffffffffffffffffffffffffffffffffffe0169290920160200192915050565b6000602080830181845280855180835260408601915060408160051b870101925083870160005b82811015613792577fffffffffffffffffffffffffffffffffffffffffffffffffffffffffffffffc08886030184526137808583516136d5565b94509285019290850190600101613746565b5092979650505050505050565b6000806000606084860312156137b457600080fd5b83356137bf816130d7565b925060208401356137cf816130d7565b929592945050506040919091013590565b600080604083850312156137f357600080fd5b82356137fe816130d7565b946020939093013593505050565b600082357fffffffffffffffffffffffffffffffffffffffffffffffffffffffffffffff8183360301811261384057600080fd5b9190910192915050565b600082357fffffffffffffffffffffffffffffffffffffffffffffffffffffffffffffffc183360301811261384057600080fd5b60008083357fffffffffffffffffffffffffffffffffffffffffffffffffffffffffffffffe18436030181126138b357600080fd5b830160208101925035905067ffffffffffffffff8111156138d357600080fd5b8060051b36038213156138e557600080fd5b9250929050565b8183528181602085013750600060208284010152600060207fffffffffffffffffffffffffffffffffffffffffffffffffffffffffffffffe0601f840116840101905092915050565b60008083357fffffffffffffffffffffffffffffffffffffffffffffffffffffffffffffffe184360301811261396a57600080fd5b830160208101925035905067ffffffffffffffff81111561398a57600080fd5b8036038213156138e557600080fd5b600081518084526020808501945080840160005b838110156139c9578151875295820195908201906001016139ad565b509495945050505050565b604081526000608082016139e8858661387e565b6040808601528281845260a08601905060a08260051b87010193508260005b83811015613a62577fffffffffffffffffffffffffffffffffffffffffffffffffffffffffffffff60888703018352613a408286613935565b613a4b8882846138ec565b975050506020928301929190910190600101613a07565b5050505050613a74602086018661387e565b7fffffffffffffffffffffffffffffffffffffffffffffffffffffffffffffffc08584030160608601528083527f07ffffffffffffffffffffffffffffffffffffffffffffffffffffffffffffff811115613ace57600080fd5b60051b8082602085013780830192505050602083820301602084015261283f6020820185613999565b600060208284031215613b0957600080fd5b8151611761816130d7565b60008083357fffffffffffffffffffffffffffffffffffffffffffffffffffffffffffffffe1843603018112613b4957600080fd5b83018035915067ffffffffffffffff821115613b6457600080fd5b6020019150600581901b36038213156138e557600080fd5b7f4e487b7100000000000000000000000000000000000000000000000000000000600052603260045260246000fd5b60008083357fffffffffffffffffffffffffffffffffffffffffffffffffffffffffffffffe1843603018112613be057600080fd5b83018035915067ffffffffffffffff821115613bfb57600080fd5b6020019150368190038213156138e557600080fd5b60008083357fffffffffffffffffffffffffffffffffffffffffffffffffffffffffffffffe1843603018112613c4557600080fd5b83018035915067ffffffffffffffff821115613c6057600080fd5b60200191506060810236038213156138e557600080fd5b600060608284031215613c8957600080fd5b6117618383613369565b600081518084526020808501945080840160005b838110156139c9578151805173ffffffffffffffffffffffffffffffffffffffff1688528381015160ff16848901526040908101519088015260609096019590820190600101613ca7565b600061010073ffffffffffffffffffffffffffffffffffffffff8084511685526020840151151560208601526040840151818151166040870152816020820151166060870152816040820151166080870152505060608301518160a0860152613d5d82860182613c93565b915050608083015184820360c0860152613d778282613c93565b91505060a083015184820360e086015261283f82826136d5565b600073ffffffffffffffffffffffffffffffffffffffff808716835280861660208401525060806040830152613dca6080830185613cf2565b905082606083015295945050505050565b7f4e487b7100000000000000000000000000000000000000000000000000000000600052601160045260246000fd5b8181038181111561087657610876613ddb565b8035613e28816130d7565b73ffffffffffffffffffffffffffffffffffffffff16825260208181013590830152604090810135910152565b73ffffffffffffffffffffffffffffffffffffffff8416815260a08101613e7f6020830185613e1d565b826080830152949350505050565b600073ffffffffffffffffffffffffffffffffffffffff808916835280881660208401525085604083015284606083015260a06080830152613ed360a0830184866138ec565b98975050505050505050565b600060208284031215613ef157600080fd5b5051919050565b600061087636836134b6565b60008083357fffffffffffffffffffffffffffffffffffffffffffffffffffffffffffffffe1843603018112613f3957600080fd5b830160208101925035905067ffffffffffffffff811115613f5957600080fd5b6060810236038213156138e557600080fd5b8183526000602080850194508260005b858110156139c9578135613f8e816130d7565b73ffffffffffffffffffffffffffffffffffffffff16875260ff613fb3838501613358565b16878401526040828101359088015260609687019690910190600101613f7b565b600073ffffffffffffffffffffffffffffffffffffffff8086168352606060208401528435614002816130d7565b811660608401526020850135614017816132c6565b15156080840152604085013561402c816130d7565b811660a08401526060850135614041816130d7565b811660c08401526080850135614056816130d7565b1660e083015261406960a0850185613f04565b6101008481015261407f61016085018284613f6b565b91505061408f60c0860186613f04565b7fffffffffffffffffffffffffffffffffffffffffffffffffffffffffffffffa080868503016101208701526140c6848385613f6b565b93506140d560e0890189613935565b935091508086850301610140870152506140f08383836138ec565b9350505050826040830152949350505050565b600061012073ffffffffffffffffffffffffffffffffffffffff8716835280602084015261413381840187613cf2565b905082810360408401526141478186613cf2565b9150508235606083015260208301356080830152604083013560a0830152606083013560c0830152608083013560e083015260a083013561010083015295945050505050565b8082018082111561087657610876613ddb565b600082357fffffffffffffffffffffffffffffffffffffffffffffffffffffffffffffffa183360301811261384057600080fd5b6000606082360312156141e657600080fd5b6141ee61322b565b823567ffffffffffffffff81111561420557600080fd5b614211368286016134b6565b825250602083013560208201526040830135604082015280915050919050565b73ffffffffffffffffffffffffffffffffffffffff8516815260806020820152600084516060608084015261426960e0840182613cf2565b602087015160a085015260409687015160c085015295830194909452506060015250919050565b60007fffffffffffffffffffffffffffffffffffffffffffffffffffffffffffffffff82036142c1576142c1613ddb565b5060010190565b73ffffffffffffffffffffffffffffffffffffffff83168152608081016117616020830184613e1d565b6020815260006117616020830184613cf2565b600081518084526020808501808196508360051b8101915082860160005b8581101561434d57828403895261433b848351613999565b98850198935090840190600101614323565b5091979650505050505050565b73ffffffffffffffffffffffffffffffffffffffff85168152836020820152826040820152608060608201526000612a586080830184614305565b600082601f8301126143a657600080fd5b815160206143b66133d483613334565b82815260059290921b840181019181810190868411156143d557600080fd5b8286015b848110156143f057805183529183019183016143d9565b509695505050505050565b6000806040838503121561440e57600080fd5b825167ffffffffffffffff8082111561442657600080fd5b61443286838701614395565b9350602085015191508082111561444857600080fd5b5061445585828601614395565b9150509250929050565b73ffffffffffffffffffffffffffffffffffffffff831681526040602082015260006120916040830184614305565b8281526040602082015260006120916040830184613999565b600082516138408184602087016136b1565b600181815b8085111561451257817fffffffffffffffffffffffffffffffffffffffffffffffffffffffffffffffff048211156144f8576144f8613ddb565b8085161561450557918102915b93841c93908002906144be565b509250929050565b60008261452957506001610876565b8161453657506000610876565b816001811461454c576002811461455657614572565b6001915050610876565b60ff84111561456757614567613ddb565b50506001821b610876565b5060208310610133831016604e8410600b8410161715614595575081810a610876565b61459f83836144b9565b807fffffffffffffffffffffffffffffffffffffffffffffffffffffffffffffffff048211156145d1576145d1613ddb565b029392505050565b6000611761838361451a565b818103600083128015838313168383128216171561155057611550613ddb565b7f4e487b7100000000000000000000000000000000000000000000000000000000600052602160045260246000fd5b7f4e487b7100000000000000000000000000000000000000000000000000000000600052601260045260246000fd5b60006020828403121561467557600080fd5b8151611761816132c6565b6000826146b6577f4e487b7100000000000000000000000000000000000000000000000000000000600052601260045260246000fd5b500490565b808202811582820484141761087657610876613ddb565b600061176160ff84168361451a565b60208152600061176160208301846136d556fe416464726573733a206c6f772d6c6576656c2064656c65676174652063616c6c206661696c6564a264697066735822122011642d212e5aba1ff27b2d44f195d375095c26c136ff92a6f4acce3662c7fdaf64736f6c63430008110033496e697469616c697a61626c653a20636f6e7472616374206973206e6f742069",
  "linkReferences": {},
  "deployedLinkReferences": {}
}