{
  "_format": "hh-sol-artifact-1",
  "contractName": "OrderBook",
  "sourceName": "contracts/orderbook/OrderBook.sol",
  "abi": [
    {
      "anonymous": false,
      "inputs": [
        {
          "indexed": false,
          "internalType": "address",
          "name": "sender",
          "type": "address"
        },
        {
          "components": [
            {
              "internalType": "address",
              "name": "owner",
              "type": "address"
            },
            {
              "internalType": "address",
              "name": "interpreter",
              "type": "address"
            },
            {
              "internalType": "address",
              "name": "expression",
              "type": "address"
            },
            {
              "components": [
                {
                  "internalType": "address",
                  "name": "token",
                  "type": "address"
                },
                {
                  "internalType": "uint256",
                  "name": "vaultId",
                  "type": "uint256"
                }
              ],
              "internalType": "struct IO[]",
              "name": "validInputs",
              "type": "tuple[]"
            },
            {
              "components": [
                {
                  "internalType": "address",
                  "name": "token",
                  "type": "address"
                },
                {
                  "internalType": "uint256",
                  "name": "vaultId",
                  "type": "uint256"
                }
              ],
              "internalType": "struct IO[]",
              "name": "validOutputs",
              "type": "tuple[]"
            }
          ],
          "indexed": false,
          "internalType": "struct Order",
          "name": "order",
          "type": "tuple"
        },
        {
          "indexed": false,
          "internalType": "uint256",
          "name": "orderHash",
          "type": "uint256"
        }
      ],
      "name": "AddOrder",
      "type": "event"
    },
    {
      "anonymous": false,
      "inputs": [
        {
          "components": [
            {
              "internalType": "uint256",
              "name": "aOutput",
              "type": "uint256"
            },
            {
              "internalType": "uint256",
              "name": "bOutput",
              "type": "uint256"
            },
            {
              "internalType": "uint256",
              "name": "aInput",
              "type": "uint256"
            },
            {
              "internalType": "uint256",
              "name": "bInput",
              "type": "uint256"
            }
          ],
          "indexed": false,
          "internalType": "struct ClearStateChange",
          "name": "stateChange",
          "type": "tuple"
        }
      ],
      "name": "AfterClear",
      "type": "event"
    },
    {
      "anonymous": false,
      "inputs": [
        {
          "indexed": false,
          "internalType": "address",
          "name": "sender",
          "type": "address"
        },
        {
          "components": [
            {
              "internalType": "address",
              "name": "owner",
              "type": "address"
            },
            {
              "internalType": "address",
              "name": "interpreter",
              "type": "address"
            },
            {
              "internalType": "address",
              "name": "expression",
              "type": "address"
            },
            {
              "components": [
                {
                  "internalType": "address",
                  "name": "token",
                  "type": "address"
                },
                {
                  "internalType": "uint256",
                  "name": "vaultId",
                  "type": "uint256"
                }
              ],
              "internalType": "struct IO[]",
              "name": "validInputs",
              "type": "tuple[]"
            },
            {
              "components": [
                {
                  "internalType": "address",
                  "name": "token",
                  "type": "address"
                },
                {
                  "internalType": "uint256",
                  "name": "vaultId",
                  "type": "uint256"
                }
              ],
              "internalType": "struct IO[]",
              "name": "validOutputs",
              "type": "tuple[]"
            }
          ],
          "indexed": false,
          "internalType": "struct Order",
          "name": "a",
          "type": "tuple"
        },
        {
          "components": [
            {
              "internalType": "address",
              "name": "owner",
              "type": "address"
            },
            {
              "internalType": "address",
              "name": "interpreter",
              "type": "address"
            },
            {
              "internalType": "address",
              "name": "expression",
              "type": "address"
            },
            {
              "components": [
                {
                  "internalType": "address",
                  "name": "token",
                  "type": "address"
                },
                {
                  "internalType": "uint256",
                  "name": "vaultId",
                  "type": "uint256"
                }
              ],
              "internalType": "struct IO[]",
              "name": "validInputs",
              "type": "tuple[]"
            },
            {
              "components": [
                {
                  "internalType": "address",
                  "name": "token",
                  "type": "address"
                },
                {
                  "internalType": "uint256",
                  "name": "vaultId",
                  "type": "uint256"
                }
              ],
              "internalType": "struct IO[]",
              "name": "validOutputs",
              "type": "tuple[]"
            }
          ],
          "indexed": false,
          "internalType": "struct Order",
          "name": "b",
          "type": "tuple"
        },
        {
          "components": [
            {
              "internalType": "uint256",
              "name": "aInputIOIndex",
              "type": "uint256"
            },
            {
              "internalType": "uint256",
              "name": "aOutputIOIndex",
              "type": "uint256"
            },
            {
              "internalType": "uint256",
              "name": "bInputIOIndex",
              "type": "uint256"
            },
            {
              "internalType": "uint256",
              "name": "bOutputIOIndex",
              "type": "uint256"
            },
            {
              "internalType": "uint256",
              "name": "aBountyVaultId",
              "type": "uint256"
            },
            {
              "internalType": "uint256",
              "name": "bBountyVaultId",
              "type": "uint256"
            }
          ],
          "indexed": false,
          "internalType": "struct ClearConfig",
          "name": "clearConfig",
          "type": "tuple"
        }
      ],
      "name": "Clear",
      "type": "event"
    },
    {
      "anonymous": false,
      "inputs": [
        {
          "indexed": false,
          "internalType": "address",
          "name": "sender",
          "type": "address"
        },
        {
          "components": [
            {
              "internalType": "address",
              "name": "token",
              "type": "address"
            },
            {
              "internalType": "uint256",
              "name": "vaultId",
              "type": "uint256"
            },
            {
              "internalType": "uint256",
              "name": "amount",
              "type": "uint256"
            }
          ],
          "indexed": false,
          "internalType": "struct DepositConfig",
          "name": "config",
          "type": "tuple"
        }
      ],
      "name": "Deposit",
      "type": "event"
    },
    {
      "anonymous": false,
      "inputs": [
        {
          "indexed": false,
          "internalType": "address",
          "name": "sender",
          "type": "address"
        },
        {
          "indexed": false,
          "internalType": "address",
          "name": "owner",
          "type": "address"
        },
        {
          "indexed": false,
          "internalType": "uint256",
          "name": "orderHash",
          "type": "uint256"
        }
      ],
      "name": "OrderExceedsMaxRatio",
      "type": "event"
    },
    {
      "anonymous": false,
      "inputs": [
        {
          "indexed": false,
          "internalType": "address",
          "name": "sender",
          "type": "address"
        },
        {
          "indexed": false,
          "internalType": "address",
          "name": "owner",
          "type": "address"
        },
        {
          "indexed": false,
          "internalType": "uint256",
          "name": "orderHash",
          "type": "uint256"
        }
      ],
      "name": "OrderNotFound",
      "type": "event"
    },
    {
      "anonymous": false,
      "inputs": [
        {
          "indexed": false,
          "internalType": "address",
          "name": "sender",
          "type": "address"
        },
        {
          "indexed": false,
          "internalType": "address",
          "name": "owner",
          "type": "address"
        },
        {
          "indexed": false,
          "internalType": "uint256",
          "name": "orderHash",
          "type": "uint256"
        }
      ],
      "name": "OrderZeroAmount",
      "type": "event"
    },
    {
      "anonymous": false,
      "inputs": [
        {
          "indexed": false,
          "internalType": "address",
          "name": "sender",
          "type": "address"
        },
        {
          "components": [
            {
              "internalType": "address",
              "name": "owner",
              "type": "address"
            },
            {
              "internalType": "address",
              "name": "interpreter",
              "type": "address"
            },
            {
              "internalType": "address",
              "name": "expression",
              "type": "address"
            },
            {
              "components": [
                {
                  "internalType": "address",
                  "name": "token",
                  "type": "address"
                },
                {
                  "internalType": "uint256",
                  "name": "vaultId",
                  "type": "uint256"
                }
              ],
              "internalType": "struct IO[]",
              "name": "validInputs",
              "type": "tuple[]"
            },
            {
              "components": [
                {
                  "internalType": "address",
                  "name": "token",
                  "type": "address"
                },
                {
                  "internalType": "uint256",
                  "name": "vaultId",
                  "type": "uint256"
                }
              ],
              "internalType": "struct IO[]",
              "name": "validOutputs",
              "type": "tuple[]"
            }
          ],
          "indexed": false,
          "internalType": "struct Order",
          "name": "order",
          "type": "tuple"
        },
        {
          "indexed": false,
          "internalType": "uint256",
          "name": "orderHash",
          "type": "uint256"
        }
      ],
      "name": "RemoveOrder",
      "type": "event"
    },
    {
      "anonymous": false,
      "inputs": [
        {
          "indexed": false,
          "internalType": "address",
          "name": "sender",
          "type": "address"
        },
        {
          "components": [
            {
              "components": [
                {
                  "internalType": "address",
                  "name": "owner",
                  "type": "address"
                },
                {
                  "internalType": "address",
                  "name": "interpreter",
                  "type": "address"
                },
                {
                  "internalType": "address",
                  "name": "expression",
                  "type": "address"
                },
                {
                  "components": [
                    {
                      "internalType": "address",
                      "name": "token",
                      "type": "address"
                    },
                    {
                      "internalType": "uint256",
                      "name": "vaultId",
                      "type": "uint256"
                    }
                  ],
                  "internalType": "struct IO[]",
                  "name": "validInputs",
                  "type": "tuple[]"
                },
                {
                  "components": [
                    {
                      "internalType": "address",
                      "name": "token",
                      "type": "address"
                    },
                    {
                      "internalType": "uint256",
                      "name": "vaultId",
                      "type": "uint256"
                    }
                  ],
                  "internalType": "struct IO[]",
                  "name": "validOutputs",
                  "type": "tuple[]"
                }
              ],
              "internalType": "struct Order",
              "name": "order",
              "type": "tuple"
            },
            {
              "internalType": "uint256",
              "name": "inputIOIndex",
              "type": "uint256"
            },
            {
              "internalType": "uint256",
              "name": "outputIOIndex",
              "type": "uint256"
            }
          ],
          "indexed": false,
          "internalType": "struct TakeOrderConfig",
          "name": "takeOrder",
          "type": "tuple"
        },
        {
          "indexed": false,
          "internalType": "uint256",
          "name": "input",
          "type": "uint256"
        },
        {
          "indexed": false,
          "internalType": "uint256",
          "name": "output",
          "type": "uint256"
        }
      ],
      "name": "TakeOrder",
      "type": "event"
    },
    {
      "anonymous": false,
      "inputs": [
        {
          "indexed": false,
          "internalType": "address",
          "name": "sender",
          "type": "address"
        },
        {
          "components": [
            {
              "internalType": "address",
              "name": "token",
              "type": "address"
            },
            {
              "internalType": "uint256",
              "name": "vaultId",
              "type": "uint256"
            },
            {
              "internalType": "uint256",
              "name": "amount",
              "type": "uint256"
            }
          ],
          "indexed": false,
          "internalType": "struct WithdrawConfig",
          "name": "config",
          "type": "tuple"
        },
        {
          "indexed": false,
          "internalType": "uint256",
          "name": "amount",
          "type": "uint256"
        }
      ],
      "name": "Withdraw",
      "type": "event"
    },
    {
      "inputs": [],
      "name": "CALLBACK_SUCCESS",
      "outputs": [
        {
          "internalType": "bytes32",
          "name": "",
          "type": "bytes32"
        }
      ],
      "stateMutability": "view",
      "type": "function"
    },
    {
      "inputs": [
        {
          "components": [
            {
              "internalType": "address",
              "name": "expressionDeployer",
              "type": "address"
            },
            {
              "internalType": "address",
              "name": "interpreter",
              "type": "address"
            },
            {
              "components": [
                {
                  "internalType": "bytes[]",
                  "name": "sources",
                  "type": "bytes[]"
                },
                {
                  "internalType": "uint256[]",
                  "name": "constants",
                  "type": "uint256[]"
                }
              ],
              "internalType": "struct StateConfig",
              "name": "interpreterStateConfig",
              "type": "tuple"
            },
            {
              "components": [
                {
                  "internalType": "address",
                  "name": "token",
                  "type": "address"
                },
                {
                  "internalType": "uint256",
                  "name": "vaultId",
                  "type": "uint256"
                }
              ],
              "internalType": "struct IO[]",
              "name": "validInputs",
              "type": "tuple[]"
            },
            {
              "components": [
                {
                  "internalType": "address",
                  "name": "token",
                  "type": "address"
                },
                {
                  "internalType": "uint256",
                  "name": "vaultId",
                  "type": "uint256"
                }
              ],
              "internalType": "struct IO[]",
              "name": "validOutputs",
              "type": "tuple[]"
            }
          ],
          "internalType": "struct OrderConfig",
          "name": "config_",
          "type": "tuple"
        }
      ],
      "name": "addOrder",
      "outputs": [],
      "stateMutability": "nonpayable",
      "type": "function"
    },
    {
      "inputs": [
        {
          "components": [
            {
              "internalType": "address",
              "name": "owner",
              "type": "address"
            },
            {
              "internalType": "address",
              "name": "interpreter",
              "type": "address"
            },
            {
              "internalType": "address",
              "name": "expression",
              "type": "address"
            },
            {
              "components": [
                {
                  "internalType": "address",
                  "name": "token",
                  "type": "address"
                },
                {
                  "internalType": "uint256",
                  "name": "vaultId",
                  "type": "uint256"
                }
              ],
              "internalType": "struct IO[]",
              "name": "validInputs",
              "type": "tuple[]"
            },
            {
              "components": [
                {
                  "internalType": "address",
                  "name": "token",
                  "type": "address"
                },
                {
                  "internalType": "uint256",
                  "name": "vaultId",
                  "type": "uint256"
                }
              ],
              "internalType": "struct IO[]",
              "name": "validOutputs",
              "type": "tuple[]"
            }
          ],
          "internalType": "struct Order",
          "name": "a_",
          "type": "tuple"
        },
        {
          "components": [
            {
              "internalType": "address",
              "name": "owner",
              "type": "address"
            },
            {
              "internalType": "address",
              "name": "interpreter",
              "type": "address"
            },
            {
              "internalType": "address",
              "name": "expression",
              "type": "address"
            },
            {
              "components": [
                {
                  "internalType": "address",
                  "name": "token",
                  "type": "address"
                },
                {
                  "internalType": "uint256",
                  "name": "vaultId",
                  "type": "uint256"
                }
              ],
              "internalType": "struct IO[]",
              "name": "validInputs",
              "type": "tuple[]"
            },
            {
              "components": [
                {
                  "internalType": "address",
                  "name": "token",
                  "type": "address"
                },
                {
                  "internalType": "uint256",
                  "name": "vaultId",
                  "type": "uint256"
                }
              ],
              "internalType": "struct IO[]",
              "name": "validOutputs",
              "type": "tuple[]"
            }
          ],
          "internalType": "struct Order",
          "name": "b_",
          "type": "tuple"
        },
        {
          "components": [
            {
              "internalType": "uint256",
              "name": "aInputIOIndex",
              "type": "uint256"
            },
            {
              "internalType": "uint256",
              "name": "aOutputIOIndex",
              "type": "uint256"
            },
            {
              "internalType": "uint256",
              "name": "bInputIOIndex",
              "type": "uint256"
            },
            {
              "internalType": "uint256",
              "name": "bOutputIOIndex",
              "type": "uint256"
            },
            {
              "internalType": "uint256",
              "name": "aBountyVaultId",
              "type": "uint256"
            },
            {
              "internalType": "uint256",
              "name": "bBountyVaultId",
              "type": "uint256"
            }
          ],
          "internalType": "struct ClearConfig",
          "name": "clearConfig_",
          "type": "tuple"
        }
      ],
      "name": "clear",
      "outputs": [],
      "stateMutability": "nonpayable",
      "type": "function"
    },
    {
      "inputs": [
        {
          "components": [
            {
              "internalType": "address",
              "name": "token",
              "type": "address"
            },
            {
              "internalType": "uint256",
              "name": "vaultId",
              "type": "uint256"
            },
            {
              "internalType": "uint256",
              "name": "amount",
              "type": "uint256"
            }
          ],
          "internalType": "struct DepositConfig",
          "name": "config_",
          "type": "tuple"
        }
      ],
      "name": "deposit",
      "outputs": [],
      "stateMutability": "nonpayable",
      "type": "function"
    },
    {
      "inputs": [
        {
          "internalType": "address",
          "name": "",
          "type": "address"
        },
        {
          "internalType": "uint256",
          "name": "",
          "type": "uint256"
        }
      ],
      "name": "flashFee",
      "outputs": [
        {
          "internalType": "uint256",
          "name": "",
          "type": "uint256"
        }
      ],
      "stateMutability": "pure",
      "type": "function"
    },
    {
      "inputs": [
        {
          "internalType": "contract IERC3156FlashBorrower",
          "name": "receiver_",
          "type": "address"
        },
        {
          "internalType": "address",
          "name": "token_",
          "type": "address"
        },
        {
          "internalType": "uint256",
          "name": "amount_",
          "type": "uint256"
        },
        {
          "internalType": "bytes",
          "name": "data_",
          "type": "bytes"
        }
      ],
      "name": "flashLoan",
      "outputs": [
        {
          "internalType": "bool",
          "name": "",
          "type": "bool"
        }
      ],
      "stateMutability": "nonpayable",
      "type": "function"
    },
    {
      "inputs": [
        {
          "internalType": "address",
          "name": "token_",
          "type": "address"
        }
      ],
      "name": "maxFlashLoan",
      "outputs": [
        {
          "internalType": "uint256",
          "name": "",
          "type": "uint256"
        }
      ],
      "stateMutability": "view",
      "type": "function"
    },
    {
      "inputs": [
        {
          "components": [
            {
              "internalType": "address",
              "name": "owner",
              "type": "address"
            },
            {
              "internalType": "address",
              "name": "interpreter",
              "type": "address"
            },
            {
              "internalType": "address",
              "name": "expression",
              "type": "address"
            },
            {
              "components": [
                {
                  "internalType": "address",
                  "name": "token",
                  "type": "address"
                },
                {
                  "internalType": "uint256",
                  "name": "vaultId",
                  "type": "uint256"
                }
              ],
              "internalType": "struct IO[]",
              "name": "validInputs",
              "type": "tuple[]"
            },
            {
              "components": [
                {
                  "internalType": "address",
                  "name": "token",
                  "type": "address"
                },
                {
                  "internalType": "uint256",
                  "name": "vaultId",
                  "type": "uint256"
                }
              ],
              "internalType": "struct IO[]",
              "name": "validOutputs",
              "type": "tuple[]"
            }
          ],
          "internalType": "struct Order",
          "name": "order_",
          "type": "tuple"
        }
      ],
      "name": "removeOrder",
      "outputs": [],
      "stateMutability": "nonpayable",
      "type": "function"
    },
    {
      "inputs": [
        {
          "components": [
            {
              "internalType": "address",
              "name": "output",
              "type": "address"
            },
            {
              "internalType": "address",
              "name": "input",
              "type": "address"
            },
            {
              "internalType": "uint256",
              "name": "minimumInput",
              "type": "uint256"
            },
            {
              "internalType": "uint256",
              "name": "maximumInput",
              "type": "uint256"
            },
            {
              "internalType": "uint256",
              "name": "maximumIORatio",
              "type": "uint256"
            },
            {
              "components": [
                {
                  "components": [
                    {
                      "internalType": "address",
                      "name": "owner",
                      "type": "address"
                    },
                    {
                      "internalType": "address",
                      "name": "interpreter",
                      "type": "address"
                    },
                    {
                      "internalType": "address",
                      "name": "expression",
                      "type": "address"
                    },
                    {
                      "components": [
                        {
                          "internalType": "address",
                          "name": "token",
                          "type": "address"
                        },
                        {
                          "internalType": "uint256",
                          "name": "vaultId",
                          "type": "uint256"
                        }
                      ],
                      "internalType": "struct IO[]",
                      "name": "validInputs",
                      "type": "tuple[]"
                    },
                    {
                      "components": [
                        {
                          "internalType": "address",
                          "name": "token",
                          "type": "address"
                        },
                        {
                          "internalType": "uint256",
                          "name": "vaultId",
                          "type": "uint256"
                        }
                      ],
                      "internalType": "struct IO[]",
                      "name": "validOutputs",
                      "type": "tuple[]"
                    }
                  ],
                  "internalType": "struct Order",
                  "name": "order",
                  "type": "tuple"
                },
                {
                  "internalType": "uint256",
                  "name": "inputIOIndex",
                  "type": "uint256"
                },
                {
                  "internalType": "uint256",
                  "name": "outputIOIndex",
                  "type": "uint256"
                }
              ],
              "internalType": "struct TakeOrderConfig[]",
              "name": "orders",
              "type": "tuple[]"
            }
          ],
          "internalType": "struct TakeOrdersConfig",
          "name": "takeOrders_",
          "type": "tuple"
        }
      ],
      "name": "takeOrders",
      "outputs": [
        {
          "internalType": "uint256",
          "name": "totalInput_",
          "type": "uint256"
        },
        {
          "internalType": "uint256",
          "name": "totalOutput_",
          "type": "uint256"
        }
      ],
      "stateMutability": "nonpayable",
      "type": "function"
    },
    {
      "inputs": [
        {
          "internalType": "address",
          "name": "",
          "type": "address"
        },
        {
          "internalType": "address",
          "name": "",
          "type": "address"
        },
        {
          "internalType": "uint256",
          "name": "",
          "type": "uint256"
        }
      ],
      "name": "vaultBalance",
      "outputs": [
        {
          "internalType": "uint256",
          "name": "",
          "type": "uint256"
        }
      ],
      "stateMutability": "view",
      "type": "function"
    },
    {
      "inputs": [
        {
          "components": [
            {
              "internalType": "address",
              "name": "token",
              "type": "address"
            },
            {
              "internalType": "uint256",
              "name": "vaultId",
              "type": "uint256"
            },
            {
              "internalType": "uint256",
              "name": "amount",
              "type": "uint256"
            }
          ],
          "internalType": "struct WithdrawConfig",
          "name": "config_",
          "type": "tuple"
        }
      ],
      "name": "withdraw",
      "outputs": [],
      "stateMutability": "nonpayable",
      "type": "function"
    }
  ],
  "bytecode": "0x608060405234801561001057600080fd5b506130d1806100206000396000f3fe608060405234801561001057600080fd5b50600436106100c95760003560e01c8063798178bf11610081578063d9d98ce41161005b578063d9d98ce4146101bd578063e6b62636146101d3578063f392b851146101e657600080fd5b8063798178bf146101525780638237e53814610165578063d97b2e481461018c57600080fd5b80634f266187116100b25780634f266187146100f65780635cffe9de14610109578063613255ab1461013157600080fd5b80632132b4a6146100ce57806323abf701146100e3575b600080fd5b6100e16100dc366004612041565b61020e565b005b6100e16100f13660046122ef565b61031b565b6100e1610104366004612377565b6109df565b61011c610117366004612393565b610b1b565b60405190151581526020015b60405180910390f35b61014461013f366004612432565b610c67565b604051908152602001610128565b6100e1610160366004612041565b610cfe565b6101447f439148f0bbc682ca079e46d6e2c2f0c1e3b820f1a291b069d8882abf8cf18dd981565b61014461019a36600461244f565b600260209081526000938452604080852082529284528284209052825290205481565b6101446101cb366004612490565b600092915050565b6100e16101e1366004612377565b610f1b565b6101f96101f43660046124bc565b611015565b60408051928352602083019190915201610128565b61021b6020820182612432565b73ffffffffffffffffffffffffffffffffffffffff163373ffffffffffffffffffffffffffffffffffffffff16146102b4576040517f08c379a000000000000000000000000000000000000000000000000000000000815260206004820152600560248201527f4f574e455200000000000000000000000000000000000000000000000000000060448201526064015b60405180910390fd5b60006102c76102c2836124f1565b61152c565b60008181526001602052604080822091909155519091507f472857f2c22e9b1c102a8f38af7fc0aaa84f6ae973e3d019373252ea02462bfc9061030f903390859085906125cb565b60405180910390a15050565b8151835173ffffffffffffffffffffffffffffffffffffffff9182169116036103a0576040517f08c379a000000000000000000000000000000000000000000000000000000000815260206004820152600a60248201527f53414d455f4f574e45520000000000000000000000000000000000000000000060448201526064016102ab565b81606001518160400135815181106103ba576103ba6126a4565b60200260200101516000015173ffffffffffffffffffffffffffffffffffffffff1683608001518260200135815181106103f6576103f66126a4565b60200260200101516000015173ffffffffffffffffffffffffffffffffffffffff161461047f576040517f08c379a000000000000000000000000000000000000000000000000000000000815260206004820152600e60248201527f544f4b454e5f4d49534d4154434800000000000000000000000000000000000060448201526064016102ab565b606083015180518235908110610497576104976126a4565b60200260200101516000015173ffffffffffffffffffffffffffffffffffffffff1682608001518260600135815181106104d3576104d36126a4565b60200260200101516000015173ffffffffffffffffffffffffffffffffffffffff161461055c576040517f08c379a000000000000000000000000000000000000000000000000000000000815260206004820152600e60248201527f544f4b454e5f4d49534d4154434800000000000000000000000000000000000060448201526064016102ab565b60006001600061056b8661152c565b815260200190815260200160002054116105e1576040517f08c379a000000000000000000000000000000000000000000000000000000000815260206004820152600a60248201527f415f4e4f545f4c4956450000000000000000000000000000000000000000000060448201526064016102ab565b6000600160006105f08561152c565b81526020019081526020016000205411610666576040517f08c379a000000000000000000000000000000000000000000000000000000000815260206004820152600a60248201527f425f4e4f545f4c4956450000000000000000000000000000000000000000000060448201526064016102ab565b6106916040518060800160405280600081526020016000815260200160008152602001600081525090565b6000806000807f9acb00ea925105d88423d074fcbf2784a3e839b2f8beacf0ec51fac72c37571c338989896040516106cc9493929190612795565b60405180910390a16106e7888760200135896000015161157b565b895190955090925061070090889060608901359061157b565b93509050610718610711828561174b565b8390611767565b855261072e610727838661174b565b8290611767565b60208601528451151580610746575060008560200151115b6107ac576040517f08c379a000000000000000000000000000000000000000000000000000000000815260206004820152600760248201527f305f434c4541520000000000000000000000000000000000000000000000000060448201526064016102ab565b84516107b8908561174b565b604086015260208501516107cc908461174b565b6060860152505050604082015182516107f09250869185359160208701359061177d565b61080d83836040013583606001518560600135856020015161177d565b606081015181516000916108209161284e565b9050600082604001518360200151610838919061284e565b905081156108de573360009081526002602090815260408220608089015180518694929389013590811061086e5761086e6126a4565b60200260200101516000015173ffffffffffffffffffffffffffffffffffffffff1673ffffffffffffffffffffffffffffffffffffffff16815260200190815260200160002060008660800135815260200190815260200160002060008282546108d89190612861565b90915550505b80156109825733600090815260026020526040812060808701518051849391906060890135908110610912576109126126a4565b60200260200101516000015173ffffffffffffffffffffffffffffffffffffffff1673ffffffffffffffffffffffffffffffffffffffff16815260200190815260200160002060008660a001358152602001908152602001600020600082825461097c9190612861565b90915550505b50506040805182518152602080840151908201528183015191810191909152606080830151908201527f3e673c18070310617c4b157f17e875bbc59a81b0f5107d346dfed8775de6f0f7906080015b60405180910390a150505050565b33600090815260026020908152604082209082906109ff90850185612432565b73ffffffffffffffffffffffffffffffffffffffff16815260208082019290925260409081016000908120858401358252909252808220549250610a469084013583611767565b9050610a52818361284e565b33600090815260026020908152604082209190610a7190870187612432565b73ffffffffffffffffffffffffffffffffffffffff1673ffffffffffffffffffffffffffffffffffffffff168152602001908152602001600020600085602001358152602001908152602001600020819055507f2538ccc7ad2a119a36f2e65c1e2fc908beef800cd59b5d6680db24de18e7847a338483604051610af7939291906128ac565b60405180910390a1610b16610b0f6020850185612432565b338361189d565b505050565b6000610b2885878661198f565b6040517f23e30c8b0000000000000000000000000000000000000000000000000000000081527f439148f0bbc682ca079e46d6e2c2f0c1e3b820f1a291b069d8882abf8cf18dd99073ffffffffffffffffffffffffffffffffffffffff8816906323e30c8b90610ba79033908a908a906000908b908b9060040161292d565b6020604051808303816000875af1158015610bc6573d6000803e3d6000fd5b505050506040513d601f19601f82011682018060405250810190610bea919061297f565b14610c51576040517f08c379a000000000000000000000000000000000000000000000000000000000815260206004820152601c60248201527f466c6173684c656e6465723a2043616c6c6261636b206661696c65640000000060448201526064016102ab565b610c5b85876119f8565b50600195945050505050565b6040517f70a0823100000000000000000000000000000000000000000000000000000000815230600482015260009073ffffffffffffffffffffffffffffffffffffffff8316906370a0823190602401602060405180830381865afa158015610cd4573d6000803e3d6000fd5b505050506040513d601f19601f82011682018060405250810190610cf8919061297f565b92915050565b6000610d0d6020830183612432565b73ffffffffffffffffffffffffffffffffffffffff16631ed061d9610d356040850185612998565b610d3f6002611a71565b6040518363ffffffff1660e01b8152600401610d5c929190612ab8565b60408051808303816000875af1158015610d7a573d6000803e3d6000fd5b505050506040513d601f19601f82011682018060405250810190610d9e9190612bf7565b50905060006040518060a001604052803373ffffffffffffffffffffffffffffffffffffffff168152602001846020016020810190610ddd9190612432565b73ffffffffffffffffffffffffffffffffffffffff908116825284166020820152604001610e0e6060860186612c25565b808060200260200160405190810160405280939291908181526020016000905b82821015610e5a57610e4b60408302860136819003810190612c8d565b81526020019060010190610e2e565b5050509183525050602001610e726080860186612c25565b808060200260200160405190810160405280939291908181526020016000905b82821015610ebe57610eaf60408302860136819003810190612c8d565b81526020019060010190610e92565b505050505081525090506000610ed38261152c565b60008181526001602081905260409182902055519091507fdf492703d86d52993d34aad33487d33a01a48dfe75334365699d82415badeeb9906109d190339085908590612ca9565b33600090815260026020908152604080832090840135929091610f4090850185612432565b73ffffffffffffffffffffffffffffffffffffffff1673ffffffffffffffffffffffffffffffffffffffff1681526020019081526020016000206000836020013581526020019081526020016000206000828254610f9e9190612861565b90915550506040517fadc7bd964a04a8a02261d33d2d09c6a7d9f539bc5eab77008e85fc6661ef123190610fd59033908490612ce8565b60405180910390a161101233306040840135610ff46020860186612432565b73ffffffffffffffffffffffffffffffffffffffff16929190611aa3565b50565b6000806000611064604080516101008101909152600060608083018281526080840183905260a084019290925260c0830181905260e08301528190815260200160008152602001600081525090565b6040805160a081018252600080825260208201819052918101919091526060808201819052608082015260608601355b6110a160a0880188612d12565b9050841080156110b15750600081115b15611478576110c360a0880188612d12565b858181106110d3576110d36126a4565b90506020028101906110e59190612d7a565b6110ee90612dae565b8051909350915060006111008361152c565b600081815260016020526040812054919250036111745782516040805133815273ffffffffffffffffffffffffffffffffffffffff909216602083015281018290527fe721f6888210c87666d3888f93b4139a86ab7757999ce54e268cba700d642a3b9060600160405180910390a161146c565b6111816020890189612432565b73ffffffffffffffffffffffffffffffffffffffff1683606001518560200151815181106111b1576111b16126a4565b60200260200101516000015173ffffffffffffffffffffffffffffffffffffffff161461123a576040517f08c379a000000000000000000000000000000000000000000000000000000000815260206004820152600e60248201527f544f4b454e5f4d49534d4154434800000000000000000000000000000000000060448201526064016102ab565b61124a6040890160208a01612432565b73ffffffffffffffffffffffffffffffffffffffff16836080015185604001518151811061127a5761127a6126a4565b60200260200101516000015173ffffffffffffffffffffffffffffffffffffffff1614611303576040517f08c379a000000000000000000000000000000000000000000000000000000000815260206004820152600e60248201527f544f4b454e5f4d49534d4154434800000000000000000000000000000000000060448201526064016102ab565b6000806113158587604001513361157b565b9150915089608001358111156113835784516040805133815273ffffffffffffffffffffffffffffffffffffffff909216602083015281018490527f460c258f27efac20e56c4607a28003d235168e76997ffb7542637d26d45ea6d8906060015b60405180910390a1611469565b816000036113e05784516040805133815273ffffffffffffffffffffffffffffffffffffffff909216602083015281018490527f3ba461a0ffd1b6782d4817ae7be605cfb1bbb4fa503c0dd613b8e50f1dcafacd90606001611376565b60006113ec8584611767565b905060006113fa828461174b565b9050611406828761284e565b9550611412818b612861565b9950611429878960200151838b604001518661177d565b7f0339ee11f9e5f83b2c1e9aaf52bc901fd17bb4611863b4e923cbb9ba5865feb63389848460405161145e9493929190612e26565b60405180910390a150505b50505b50600190930192611094565b61148681606089013561284e565b955086604001358610156114f6576040517f08c379a000000000000000000000000000000000000000000000000000000000815260206004820152600960248201527f4d494e5f494e505554000000000000000000000000000000000000000000000060448201526064016102ab565b611509333087610ff460208c018c612432565b61152361151c6040890160208a01612432565b338861189d565b50505050915091565b60008160405160200161153f9190612e85565b604080517fffffffffffffffffffffffffffffffffffffffffffffffffffffffffffffffe0818403018152919052805160209091012092915050565b60008060006115898661152c565b905060006115b66115b1833373ffffffffffffffffffffffffffffffffffffffff8916611b7f565b611bbc565b90506116c2611675886020015173ffffffffffffffffffffffffffffffffffffffff166366ee83578a604001516000866040518463ffffffff1660e01b815260040161160493929190612e98565b600060405180830381865afa158015611621573d6000803e3d6000fd5b505050506040513d6000823e601f3d9081017fffffffffffffffffffffffffffffffffffffffffffffffffffffffffffffffe01682016040526116679190810190612f3d565b805160209081029091010190565b7fffffffffffffffffffffffffffffffffffffffffffffffffffffffffffffffc08101517fffffffffffffffffffffffffffffffffffffffffffffffffffffffffffffffe0909101519091565b80945081955050506000876080015187815181106116e2576116e26126a4565b602090810291909101810151895173ffffffffffffffffffffffffffffffffffffffff9081166000908152600284526040808220845190931682529184528181208385015182529093529091205490915061173e908690611767565b9450505050935093915050565b60006117608383670de0b6b3a7640000611bfa565b9392505050565b60008183106117765781611760565b5090919050565b6040805180820190915260008082526020820152831561181357856060015185815181106117ad576117ad6126a4565b602090810291909101810151875173ffffffffffffffffffffffffffffffffffffffff908116600090815260028452604080822084519093168252918452818120838501518252909352822080549193508692909161180d908490612861565b90915550505b8115611895578560800151838151811061182f5761182f6126a4565b602090810291909101810151875173ffffffffffffffffffffffffffffffffffffffff908116600090815260028452604080822084519093168252918452818120838501518252909352822080549193508492909161188f90849061284e565b90915550505b505050505050565b73ffffffffffffffffffffffffffffffffffffffff80841660009081526020818152604080832093861683529290522054808211156119415780156119105773ffffffffffffffffffffffffffffffffffffffff8085166000908152602081815260408083209387168352929052908120555b61193c8361191e838561284e565b73ffffffffffffffffffffffffffffffffffffffff87169190611cc7565b611989565b73ffffffffffffffffffffffffffffffffffffffff8085166000908152602081815260408083209387168352929052908120805484929061198390849061284e565b90915550505b50505050565b73ffffffffffffffffffffffffffffffffffffffff808416600090815260208181526040808320938616835292905290812080548392906119d1908490612861565b90915550610b16905073ffffffffffffffffffffffffffffffffffffffff84168383611cc7565b73ffffffffffffffffffffffffffffffffffffffff808316600090815260208181526040808320938516835292905220548015610b165773ffffffffffffffffffffffffffffffffffffffff808416600081815260208181526040808320948716835293905291822091909155610b1690833084611aa3565b604080516001808252818301909252606091600091906020808301908036833750505060208101939093525090919050565b60405173ffffffffffffffffffffffffffffffffffffffff808516602483015283166044820152606481018290526119899085907f23b872dd00000000000000000000000000000000000000000000000000000000906084015b604080517fffffffffffffffffffffffffffffffffffffffffffffffffffffffffffffffe08184030181529190526020810180517bffffffffffffffffffffffffffffffffffffffffffffffffffffffff167fffffffff0000000000000000000000000000000000000000000000000000000090931692909217909152611d1d565b6040805160038082526080820190925260609160009190602082018480368337505050602081019590955250506040830191909152606082015290565b60408051600180825281830190925260609160009190816020015b6060815260200190600190039081611bd757505060208101939093525090919050565b600080807fffffffffffffffffffffffffffffffffffffffffffffffffffffffffffffffff85870985870292508281108382030391505080600003611c5257838281611c4857611c48612fc3565b0492505050611760565b808411611c5e57600080fd5b60008486880960026001871981018816978890046003810283188082028403028082028403028082028403028082028403028082028403029081029092039091026000889003889004909101858311909403939093029303949094049190911702949350505050565b60405173ffffffffffffffffffffffffffffffffffffffff8316602482015260448101829052610b169084907fa9059cbb0000000000000000000000000000000000000000000000000000000090606401611afd565b6000611d7f826040518060400160405280602081526020017f5361666545524332303a206c6f772d6c6576656c2063616c6c206661696c65648152508573ffffffffffffffffffffffffffffffffffffffff16611e299092919063ffffffff16565b805190915015610b165780806020019051810190611d9d9190612ff2565b610b16576040517f08c379a000000000000000000000000000000000000000000000000000000000815260206004820152602a60248201527f5361666545524332303a204552433230206f7065726174696f6e20646964206e60448201527f6f7420737563636565640000000000000000000000000000000000000000000060648201526084016102ab565b6060611e388484600085611e40565b949350505050565b606082471015611ed2576040517f08c379a000000000000000000000000000000000000000000000000000000000815260206004820152602660248201527f416464726573733a20696e73756666696369656e742062616c616e636520666f60448201527f722063616c6c000000000000000000000000000000000000000000000000000060648201526084016102ab565b73ffffffffffffffffffffffffffffffffffffffff85163b611f50576040517f08c379a000000000000000000000000000000000000000000000000000000000815260206004820152601d60248201527f416464726573733a2063616c6c20746f206e6f6e2d636f6e747261637400000060448201526064016102ab565b6000808673ffffffffffffffffffffffffffffffffffffffff168587604051611f799190613038565b60006040518083038185875af1925050503d8060008114611fb6576040519150601f19603f3d011682016040523d82523d6000602084013e611fbb565b606091505b5091509150611fcb828286611fd6565b979650505050505050565b60608315611fe5575081611760565b825115611ff55782518084602001fd5b816040517f08c379a00000000000000000000000000000000000000000000000000000000081526004016102ab919061304a565b600060a0828403121561203b57600080fd5b50919050565b60006020828403121561205357600080fd5b813567ffffffffffffffff81111561206a57600080fd5b611e3884828501612029565b7f4e487b7100000000000000000000000000000000000000000000000000000000600052604160045260246000fd5b604051601f82017fffffffffffffffffffffffffffffffffffffffffffffffffffffffffffffffe016810167ffffffffffffffff811182821017156120ec576120ec612076565b604052919050565b73ffffffffffffffffffffffffffffffffffffffff8116811461101257600080fd5b8035612121816120f4565b919050565b600067ffffffffffffffff82111561214057612140612076565b5060051b60200190565b60006040828403121561215c57600080fd5b6040516040810181811067ffffffffffffffff8211171561217f5761217f612076565b6040529050808235612190816120f4565b8152602092830135920191909152919050565b600082601f8301126121b457600080fd5b813560206121c96121c483612126565b6120a5565b82815260069290921b840181019181810190868411156121e857600080fd5b8286015b8481101561220c576121fe888261214a565b8352918301916040016121ec565b509695505050505050565b600060a0828403121561222957600080fd5b60405160a0810167ffffffffffffffff828210818311171561224d5761224d612076565b8160405282935084359150612261826120f4565b908252602084013590612273826120f4565b81602084015261228560408601612116565b6040840152606085013591508082111561229e57600080fd5b6122aa868387016121a3565b606084015260808501359150808211156122c357600080fd5b506122d0858286016121a3565b6080830152505092915050565b600060c0828403121561203b57600080fd5b6000806000610100848603121561230557600080fd5b833567ffffffffffffffff8082111561231d57600080fd5b61232987838801612217565b9450602086013591508082111561233f57600080fd5b5061234c86828701612217565b92505061235c85604086016122dd565b90509250925092565b60006060828403121561203b57600080fd5b60006060828403121561238957600080fd5b6117608383612365565b6000806000806000608086880312156123ab57600080fd5b85356123b6816120f4565b945060208601356123c6816120f4565b935060408601359250606086013567ffffffffffffffff808211156123ea57600080fd5b818801915088601f8301126123fe57600080fd5b81358181111561240d57600080fd5b89602082850101111561241f57600080fd5b9699959850939650602001949392505050565b60006020828403121561244457600080fd5b8135611760816120f4565b60008060006060848603121561246457600080fd5b833561246f816120f4565b9250602084013561247f816120f4565b929592945050506040919091013590565b600080604083850312156124a357600080fd5b82356124ae816120f4565b946020939093013593505050565b6000602082840312156124ce57600080fd5b813567ffffffffffffffff8111156124e557600080fd5b611e38848285016122dd565b6000610cf83683612217565b60008083357fffffffffffffffffffffffffffffffffffffffffffffffffffffffffffffffe184360301811261253257600080fd5b830160208101925035905067ffffffffffffffff81111561255257600080fd5b8060061b360382131561256457600080fd5b9250929050565b8183526000602080850194508260005b858110156125c057813561258e816120f4565b73ffffffffffffffffffffffffffffffffffffffff16875281830135838801526040968701969091019060010161257b565b509495945050505050565b600073ffffffffffffffffffffffffffffffffffffffff80861683526060602084015284356125f9816120f4565b81166060840152602085013561260e816120f4565b811660808401526040850135612623816120f4565b1660a083015261263660608501856124fd565b60a060c085015261264c6101008501828461256b565b91505061265c60808601866124fd565b7fffffffffffffffffffffffffffffffffffffffffffffffffffffffffffffffa08584030160e086015261269183828461256b565b9350505050826040830152949350505050565b7f4e487b7100000000000000000000000000000000000000000000000000000000600052603260045260246000fd5b600081518084526020808501945080840160005b838110156125c0578151805173ffffffffffffffffffffffffffffffffffffffff16885283015183880152604090960195908201906001016126e7565b600073ffffffffffffffffffffffffffffffffffffffff80835116845280602084015116602085015280604084015116604085015250606082015160a0606085015261277360a08501826126d3565b90506080830151848203608086015261278c82826126d3565b95945050505050565b600061012073ffffffffffffffffffffffffffffffffffffffff871683528060208401526127c581840187612724565b905082810360408401526127d98186612724565b9150508235606083015260208301356080830152604083013560a0830152606083013560c0830152608083013560e083015260a083013561010083015295945050505050565b7f4e487b7100000000000000000000000000000000000000000000000000000000600052601160045260246000fd5b81810381811115610cf857610cf861281f565b80820180821115610cf857610cf861281f565b803561287f816120f4565b73ffffffffffffffffffffffffffffffffffffffff16825260208181013590830152604090810135910152565b73ffffffffffffffffffffffffffffffffffffffff8416815260a081016128d66020830185612874565b826080830152949350505050565b8183528181602085013750600060208284010152600060207fffffffffffffffffffffffffffffffffffffffffffffffffffffffffffffffe0601f840116840101905092915050565b600073ffffffffffffffffffffffffffffffffffffffff808916835280881660208401525085604083015284606083015260a0608083015261297360a0830184866128e4565b98975050505050505050565b60006020828403121561299157600080fd5b5051919050565b600082357fffffffffffffffffffffffffffffffffffffffffffffffffffffffffffffffc18336030181126129cc57600080fd5b9190910192915050565b60008083357fffffffffffffffffffffffffffffffffffffffffffffffffffffffffffffffe1843603018112612a0b57600080fd5b830160208101925035905067ffffffffffffffff811115612a2b57600080fd5b8060051b360382131561256457600080fd5b81835260007f07ffffffffffffffffffffffffffffffffffffffffffffffffffffffffffffff831115612a6f57600080fd5b8260051b80836020870137939093016020019392505050565b600081518084526020808501945080840160005b838110156125c057815187529582019590820190600101612a9c565b60408152600060808201612acc85866129d6565b6040808601528281845260a08601905060a08260051b87010193508260005b83811015612b9a577fffffffffffffffffffffffffffffffffffffffffffffffffffffffffffffff6088870301835281357fffffffffffffffffffffffffffffffffffffffffffffffffffffffffffffffe1863603018112612b4c57600080fd5b8501602081810191359067ffffffffffffffff821115612b6b57600080fd5b813603831315612b7a57600080fd5b612b858983856128e4565b98509485019493909301925050600101612aeb565b5050505050612bac60208601866129d6565b7fffffffffffffffffffffffffffffffffffffffffffffffffffffffffffffffc0858403016060860152612be1838284612a3d565b92505050828103602084015261278c8185612a88565b60008060408385031215612c0a57600080fd5b8251612c15816120f4565b6020939093015192949293505050565b60008083357fffffffffffffffffffffffffffffffffffffffffffffffffffffffffffffffe1843603018112612c5a57600080fd5b83018035915067ffffffffffffffff821115612c7557600080fd5b6020019150600681901b360382131561256457600080fd5b600060408284031215612c9f57600080fd5b611760838361214a565b73ffffffffffffffffffffffffffffffffffffffff84168152606060208201526000612cd86060830185612724565b9050826040830152949350505050565b73ffffffffffffffffffffffffffffffffffffffff83168152608081016117606020830184612874565b60008083357fffffffffffffffffffffffffffffffffffffffffffffffffffffffffffffffe1843603018112612d4757600080fd5b83018035915067ffffffffffffffff821115612d6257600080fd5b6020019150600581901b360382131561256457600080fd5b600082357fffffffffffffffffffffffffffffffffffffffffffffffffffffffffffffffa18336030181126129cc57600080fd5b600060608236031215612dc057600080fd5b6040516060810167ffffffffffffffff8282108183111715612de457612de4612076565b816040528435915080821115612df957600080fd5b50612e0636828601612217565b825250602083013560208201526040830135604082015280915050919050565b73ffffffffffffffffffffffffffffffffffffffff85168152608060208201526000845160606080840152612e5e60e0840182612724565b602087015160a085015260409687015160c085015295830194909452506060015250919050565b6020815260006117606020830184612724565b60006060820173ffffffffffffffffffffffffffffffffffffffff86168352602085818501526060604085015281855180845260808601915060808160051b870101935082870160005b82811015612f2e577fffffffffffffffffffffffffffffffffffffffffffffffffffffffffffffff80888703018452612f1c868351612a88565b95509284019290840190600101612ee2565b50939998505050505050505050565b60006020808385031215612f5057600080fd5b825167ffffffffffffffff811115612f6757600080fd5b8301601f81018513612f7857600080fd5b8051612f866121c482612126565b81815260059190911b82018301908381019087831115612fa557600080fd5b928401925b82841015611fcb57835182529284019290840190612faa565b7f4e487b7100000000000000000000000000000000000000000000000000000000600052601260045260246000fd5b60006020828403121561300457600080fd5b8151801515811461176057600080fd5b60005b8381101561302f578181015183820152602001613017565b50506000910152565b600082516129cc818460208701613014565b6020815260008251806020840152613069816040850160208701613014565b601f017fffffffffffffffffffffffffffffffffffffffffffffffffffffffffffffffe016919091016040019291505056fea26469706673582212201ae0afbc126f38bd0c8527306cfb9ab0c36dbc0f1cf46c710107b86d111da99364736f6c63430008110033",
  "linkReferences": {},
  "deployedLinkReferences": {}
}