{
  "_format": "hh-sol-artifact-1",
  "contractName": "Vapour721A",
  "sourceName": "contracts/Vapour721A.sol",
  "abi": [
    {
      "inputs": [],
      "name": "ApprovalCallerNotOwnerNorApproved",
      "type": "error"
    },
    {
      "inputs": [],
      "name": "ApprovalQueryForNonexistentToken",
      "type": "error"
    },
    {
      "inputs": [],
      "name": "ApproveToCaller",
      "type": "error"
    },
    {
      "inputs": [],
      "name": "BalanceQueryForZeroAddress",
      "type": "error"
    },
    {
      "inputs": [
        {
          "internalType": "uint256",
          "name": "_size",
          "type": "uint256"
        },
        {
          "internalType": "uint256",
          "name": "_start",
          "type": "uint256"
        },
        {
          "internalType": "uint256",
          "name": "_end",
          "type": "uint256"
        }
      ],
      "name": "InvalidCodeAtRange",
      "type": "error"
    },
    {
      "inputs": [],
      "name": "MintERC2309QuantityExceedsLimit",
      "type": "error"
    },
    {
      "inputs": [],
      "name": "MintToZeroAddress",
      "type": "error"
    },
    {
      "inputs": [],
      "name": "MintZeroQuantity",
      "type": "error"
    },
    {
      "inputs": [],
      "name": "OwnerQueryForNonexistentToken",
      "type": "error"
    },
    {
      "inputs": [],
      "name": "OwnershipNotInitializedForExtraData",
      "type": "error"
    },
    {
      "inputs": [],
      "name": "TransferCallerNotOwnerNorApproved",
      "type": "error"
    },
    {
      "inputs": [],
      "name": "TransferFromIncorrectOwner",
      "type": "error"
    },
    {
      "inputs": [],
      "name": "TransferToNonERC721ReceiverImplementer",
      "type": "error"
    },
    {
      "inputs": [],
      "name": "TransferToZeroAddress",
      "type": "error"
    },
    {
      "inputs": [],
      "name": "URIQueryForNonexistentToken",
      "type": "error"
    },
    {
      "inputs": [],
      "name": "WriteError",
      "type": "error"
    },
    {
      "anonymous": false,
      "inputs": [
        {
          "indexed": true,
          "internalType": "address",
          "name": "owner",
          "type": "address"
        },
        {
          "indexed": true,
          "internalType": "address",
          "name": "approved",
          "type": "address"
        },
        {
          "indexed": true,
          "internalType": "uint256",
          "name": "tokenId",
          "type": "uint256"
        }
      ],
      "name": "Approval",
      "type": "event"
    },
    {
      "anonymous": false,
      "inputs": [
        {
          "indexed": true,
          "internalType": "address",
          "name": "owner",
          "type": "address"
        },
        {
          "indexed": true,
          "internalType": "address",
          "name": "operator",
          "type": "address"
        },
        {
          "indexed": false,
          "internalType": "bool",
          "name": "approved",
          "type": "bool"
        }
      ],
      "name": "ApprovalForAll",
      "type": "event"
    },
    {
      "anonymous": false,
      "inputs": [
        {
          "indexed": false,
          "internalType": "address",
          "name": "_receiver",
          "type": "address"
        },
        {
          "indexed": false,
          "internalType": "uint256",
          "name": "_units",
          "type": "uint256"
        },
        {
          "indexed": false,
          "internalType": "uint256",
          "name": "_cost",
          "type": "uint256"
        }
      ],
      "name": "Buy",
      "type": "event"
    },
    {
      "anonymous": false,
      "inputs": [
        {
          "indexed": true,
          "internalType": "uint256",
          "name": "fromTokenId",
          "type": "uint256"
        },
        {
          "indexed": false,
          "internalType": "uint256",
          "name": "toTokenId",
          "type": "uint256"
        },
        {
          "indexed": true,
          "internalType": "address",
          "name": "from",
          "type": "address"
        },
        {
          "indexed": true,
          "internalType": "address",
          "name": "to",
          "type": "address"
        }
      ],
      "name": "ConsecutiveTransfer",
      "type": "event"
    },
    {
      "anonymous": false,
      "inputs": [
        {
          "components": [
            {
              "internalType": "string",
              "name": "name",
              "type": "string"
            },
            {
              "internalType": "string",
              "name": "symbol",
              "type": "string"
            },
            {
              "internalType": "string",
              "name": "baseURI",
              "type": "string"
            },
            {
              "internalType": "uint256",
              "name": "supplyLimit",
              "type": "uint256"
            },
            {
              "internalType": "address",
              "name": "recipient",
              "type": "address"
            },
            {
              "internalType": "address",
              "name": "owner",
              "type": "address"
            },
            {
              "internalType": "address",
              "name": "admin",
              "type": "address"
            },
            {
              "internalType": "uint256",
              "name": "royaltyBPS",
              "type": "uint256"
            },
            {
              "internalType": "address",
              "name": "currency",
              "type": "address"
            },
            {
              "components": [
                {
                  "internalType": "bytes[]",
                  "name": "sources",
                  "type": "bytes[]"
                },
                {
                  "internalType": "uint256[]",
                  "name": "constants",
                  "type": "uint256[]"
                }
              ],
              "internalType": "struct StateConfig",
              "name": "vmStateConfig",
              "type": "tuple"
            }
          ],
          "indexed": false,
          "internalType": "struct InitializeConfig",
          "name": "config_",
          "type": "tuple"
        },
        {
          "indexed": false,
          "internalType": "address",
          "name": "vmStateBuilder_",
          "type": "address"
        }
      ],
      "name": "Initialize",
      "type": "event"
    },
    {
      "anonymous": false,
      "inputs": [
        {
          "indexed": false,
          "internalType": "uint8",
          "name": "version",
          "type": "uint8"
        }
      ],
      "name": "Initialized",
      "type": "event"
    },
    {
      "anonymous": false,
      "inputs": [
        {
          "indexed": true,
          "internalType": "address",
          "name": "previousOwner",
          "type": "address"
        },
        {
          "indexed": true,
          "internalType": "address",
          "name": "newOwner",
          "type": "address"
        }
      ],
      "name": "OwnershipTransferred",
      "type": "event"
    },
    {
      "anonymous": false,
      "inputs": [
        {
          "indexed": false,
          "internalType": "address",
          "name": "newRecipient",
          "type": "address"
        }
      ],
      "name": "RecipientChanged",
      "type": "event"
    },
    {
      "anonymous": false,
      "inputs": [
        {
          "indexed": true,
          "internalType": "bytes32",
          "name": "role",
          "type": "bytes32"
        },
        {
          "indexed": true,
          "internalType": "bytes32",
          "name": "previousAdminRole",
          "type": "bytes32"
        },
        {
          "indexed": true,
          "internalType": "bytes32",
          "name": "newAdminRole",
          "type": "bytes32"
        }
      ],
      "name": "RoleAdminChanged",
      "type": "event"
    },
    {
      "anonymous": false,
      "inputs": [
        {
          "indexed": true,
          "internalType": "bytes32",
          "name": "role",
          "type": "bytes32"
        },
        {
          "indexed": true,
          "internalType": "address",
          "name": "account",
          "type": "address"
        },
        {
          "indexed": true,
          "internalType": "address",
          "name": "sender",
          "type": "address"
        }
      ],
      "name": "RoleGranted",
      "type": "event"
    },
    {
      "anonymous": false,
      "inputs": [
        {
          "indexed": true,
          "internalType": "bytes32",
          "name": "role",
          "type": "bytes32"
        },
        {
          "indexed": true,
          "internalType": "address",
          "name": "account",
          "type": "address"
        },
        {
          "indexed": true,
          "internalType": "address",
          "name": "sender",
          "type": "address"
        }
      ],
      "name": "RoleRevoked",
      "type": "event"
    },
    {
      "anonymous": false,
      "inputs": [
        {
          "indexed": true,
          "internalType": "address",
          "name": "from",
          "type": "address"
        },
        {
          "indexed": true,
          "internalType": "address",
          "name": "to",
          "type": "address"
        },
        {
          "indexed": true,
          "internalType": "uint256",
          "name": "tokenId",
          "type": "uint256"
        }
      ],
      "name": "Transfer",
      "type": "event"
    },
    {
      "anonymous": false,
      "inputs": [
        {
          "indexed": false,
          "internalType": "address",
          "name": "_withdrawer",
          "type": "address"
        },
        {
          "indexed": false,
          "internalType": "uint256",
          "name": "_amountWithdrawn",
          "type": "uint256"
        },
        {
          "indexed": false,
          "internalType": "uint256",
          "name": "_totalWithdrawn",
          "type": "uint256"
        }
      ],
      "name": "Withdraw",
      "type": "event"
    },
    {
      "inputs": [],
      "name": "DEFAULT_ADMIN_ROLE",
      "outputs": [
        {
          "internalType": "bytes32",
          "name": "",
          "type": "bytes32"
        }
      ],
      "stateMutability": "view",
      "type": "function"
    },
    {
      "inputs": [],
      "name": "amountPayable",
      "outputs": [
        {
          "internalType": "uint256",
          "name": "",
          "type": "uint256"
        }
      ],
      "stateMutability": "view",
      "type": "function"
    },
    {
      "inputs": [],
      "name": "amountWithdrawn",
      "outputs": [
        {
          "internalType": "uint256",
          "name": "",
          "type": "uint256"
        }
      ],
      "stateMutability": "view",
      "type": "function"
    },
    {
      "inputs": [
        {
          "internalType": "address",
          "name": "to",
          "type": "address"
        },
        {
          "internalType": "uint256",
          "name": "tokenId",
          "type": "uint256"
        }
      ],
      "name": "approve",
      "outputs": [],
      "stateMutability": "nonpayable",
      "type": "function"
    },
    {
      "inputs": [
        {
          "internalType": "address",
          "name": "owner",
          "type": "address"
        }
      ],
      "name": "balanceOf",
      "outputs": [
        {
          "internalType": "uint256",
          "name": "",
          "type": "uint256"
        }
      ],
      "stateMutability": "view",
      "type": "function"
    },
    {
      "inputs": [
        {
          "internalType": "uint256",
          "name": "tokenId",
          "type": "uint256"
        }
      ],
      "name": "burn",
      "outputs": [],
      "stateMutability": "nonpayable",
      "type": "function"
    },
    {
      "inputs": [
        {
          "internalType": "address",
          "name": "account_",
          "type": "address"
        },
        {
          "internalType": "uint256",
          "name": "targetUnits_",
          "type": "uint256"
        }
      ],
      "name": "calculateBuy",
      "outputs": [
        {
          "internalType": "uint256",
          "name": "maxUnits_",
          "type": "uint256"
        },
        {
          "internalType": "uint256",
          "name": "price_",
          "type": "uint256"
        }
      ],
      "stateMutability": "view",
      "type": "function"
    },
    {
      "inputs": [],
      "name": "fnPtrs",
      "outputs": [
        {
          "internalType": "bytes",
          "name": "",
          "type": "bytes"
        }
      ],
      "stateMutability": "pure",
      "type": "function"
    },
    {
      "inputs": [
        {
          "internalType": "uint256",
          "name": "tokenId",
          "type": "uint256"
        }
      ],
      "name": "getApproved",
      "outputs": [
        {
          "internalType": "address",
          "name": "",
          "type": "address"
        }
      ],
      "stateMutability": "view",
      "type": "function"
    },
    {
      "inputs": [
        {
          "internalType": "bytes32",
          "name": "role",
          "type": "bytes32"
        }
      ],
      "name": "getRoleAdmin",
      "outputs": [
        {
          "internalType": "bytes32",
          "name": "",
          "type": "bytes32"
        }
      ],
      "stateMutability": "view",
      "type": "function"
    },
    {
      "inputs": [
        {
          "internalType": "bytes32",
          "name": "role",
          "type": "bytes32"
        },
        {
          "internalType": "address",
          "name": "account",
          "type": "address"
        }
      ],
      "name": "grantRole",
      "outputs": [],
      "stateMutability": "nonpayable",
      "type": "function"
    },
    {
      "inputs": [
        {
          "internalType": "bytes32",
          "name": "role",
          "type": "bytes32"
        },
        {
          "internalType": "address",
          "name": "account",
          "type": "address"
        }
      ],
      "name": "hasRole",
      "outputs": [
        {
          "internalType": "bool",
          "name": "",
          "type": "bool"
        }
      ],
      "stateMutability": "view",
      "type": "function"
    },
    {
      "inputs": [
        {
          "components": [
            {
              "internalType": "string",
              "name": "name",
              "type": "string"
            },
            {
              "internalType": "string",
              "name": "symbol",
              "type": "string"
            },
            {
              "internalType": "string",
              "name": "baseURI",
              "type": "string"
            },
            {
              "internalType": "uint256",
              "name": "supplyLimit",
              "type": "uint256"
            },
            {
              "internalType": "address",
              "name": "recipient",
              "type": "address"
            },
            {
              "internalType": "address",
              "name": "owner",
              "type": "address"
            },
            {
              "internalType": "address",
              "name": "admin",
              "type": "address"
            },
            {
              "internalType": "uint256",
              "name": "royaltyBPS",
              "type": "uint256"
            },
            {
              "internalType": "address",
              "name": "currency",
              "type": "address"
            },
            {
              "components": [
                {
                  "internalType": "bytes[]",
                  "name": "sources",
                  "type": "bytes[]"
                },
                {
                  "internalType": "uint256[]",
                  "name": "constants",
                  "type": "uint256[]"
                }
              ],
              "internalType": "struct StateConfig",
              "name": "vmStateConfig",
              "type": "tuple"
            }
          ],
          "internalType": "struct InitializeConfig",
          "name": "config_",
          "type": "tuple"
        },
        {
          "internalType": "address",
          "name": "vmStateBuilder_",
          "type": "address"
        }
      ],
      "name": "initialize",
      "outputs": [],
      "stateMutability": "nonpayable",
      "type": "function"
    },
    {
      "inputs": [
        {
          "internalType": "address",
          "name": "owner",
          "type": "address"
        },
        {
          "internalType": "address",
          "name": "operator",
          "type": "address"
        }
      ],
      "name": "isApprovedForAll",
      "outputs": [
        {
          "internalType": "bool",
          "name": "",
          "type": "bool"
        }
      ],
      "stateMutability": "view",
      "type": "function"
    },
    {
      "inputs": [
        {
          "components": [
            {
              "internalType": "uint256",
              "name": "maximumPrice",
              "type": "uint256"
            },
            {
              "internalType": "uint256",
              "name": "minimumUnits",
              "type": "uint256"
            },
            {
              "internalType": "uint256",
              "name": "desiredUnits",
              "type": "uint256"
            }
          ],
          "internalType": "struct BuyConfig",
          "name": "config_",
          "type": "tuple"
        }
      ],
      "name": "mintNFT",
      "outputs": [],
      "stateMutability": "payable",
      "type": "function"
    },
    {
      "inputs": [
        {
          "internalType": "address",
          "name": "receiver",
          "type": "address"
        },
        {
          "internalType": "uint256",
          "name": "maximumPrice",
          "type": "uint256"
        },
        {
          "internalType": "uint256",
          "name": "minimumUnits",
          "type": "uint256"
        },
        {
          "internalType": "uint256",
          "name": "desiredUnits",
          "type": "uint256"
        }
      ],
      "name": "mintNFTFor",
      "outputs": [],
      "stateMutability": "payable",
      "type": "function"
    },
    {
      "inputs": [],
      "name": "name",
      "outputs": [
        {
          "internalType": "string",
          "name": "",
          "type": "string"
        }
      ],
      "stateMutability": "view",
      "type": "function"
    },
    {
      "inputs": [
        {
          "internalType": "address",
          "name": "account_",
          "type": "address"
        }
      ],
      "name": "numberBurned",
      "outputs": [
        {
          "internalType": "uint256",
          "name": "",
          "type": "uint256"
        }
      ],
      "stateMutability": "view",
      "type": "function"
    },
    {
      "inputs": [
        {
          "internalType": "address",
          "name": "account_",
          "type": "address"
        }
      ],
      "name": "numberMinted",
      "outputs": [
        {
          "internalType": "uint256",
          "name": "",
          "type": "uint256"
        }
      ],
      "stateMutability": "view",
      "type": "function"
    },
    {
      "inputs": [],
      "name": "owner",
      "outputs": [
        {
          "internalType": "address",
          "name": "",
          "type": "address"
        }
      ],
      "stateMutability": "view",
      "type": "function"
    },
    {
      "inputs": [
        {
          "internalType": "uint256",
          "name": "tokenId",
          "type": "uint256"
        }
      ],
      "name": "ownerOf",
      "outputs": [
        {
          "internalType": "address",
          "name": "",
          "type": "address"
        }
      ],
      "stateMutability": "view",
      "type": "function"
    },
    {
      "inputs": [],
      "name": "renounceOwnership",
      "outputs": [],
      "stateMutability": "nonpayable",
      "type": "function"
    },
    {
      "inputs": [
        {
          "internalType": "bytes32",
          "name": "role",
          "type": "bytes32"
        },
        {
          "internalType": "address",
          "name": "account",
          "type": "address"
        }
      ],
      "name": "renounceRole",
      "outputs": [],
      "stateMutability": "nonpayable",
      "type": "function"
    },
    {
      "inputs": [
        {
          "internalType": "bytes32",
          "name": "role",
          "type": "bytes32"
        },
        {
          "internalType": "address",
          "name": "account",
          "type": "address"
        }
      ],
      "name": "revokeRole",
      "outputs": [],
      "stateMutability": "nonpayable",
      "type": "function"
    },
    {
      "inputs": [
        {
          "internalType": "uint256",
          "name": "",
          "type": "uint256"
        },
        {
          "internalType": "uint256",
          "name": "_salePrice",
          "type": "uint256"
        }
      ],
      "name": "royaltyInfo",
      "outputs": [
        {
          "internalType": "address",
          "name": "receiver",
          "type": "address"
        },
        {
          "internalType": "uint256",
          "name": "royaltyAmount",
          "type": "uint256"
        }
      ],
      "stateMutability": "view",
      "type": "function"
    },
    {
      "inputs": [
        {
          "internalType": "address",
          "name": "from",
          "type": "address"
        },
        {
          "internalType": "address",
          "name": "to",
          "type": "address"
        },
        {
          "internalType": "uint256",
          "name": "tokenId",
          "type": "uint256"
        }
      ],
      "name": "safeTransferFrom",
      "outputs": [],
      "stateMutability": "nonpayable",
      "type": "function"
    },
    {
      "inputs": [
        {
          "internalType": "address",
          "name": "from",
          "type": "address"
        },
        {
          "internalType": "address",
          "name": "to",
          "type": "address"
        },
        {
          "internalType": "uint256",
          "name": "tokenId",
          "type": "uint256"
        },
        {
          "internalType": "bytes",
          "name": "_data",
          "type": "bytes"
        }
      ],
      "name": "safeTransferFrom",
      "outputs": [],
      "stateMutability": "nonpayable",
      "type": "function"
    },
    {
      "inputs": [
        {
          "internalType": "address",
          "name": "operator",
          "type": "address"
        },
        {
          "internalType": "bool",
          "name": "approved",
          "type": "bool"
        }
      ],
      "name": "setApprovalForAll",
      "outputs": [],
      "stateMutability": "nonpayable",
      "type": "function"
    },
    {
      "inputs": [
        {
          "internalType": "address",
          "name": "newRecipient",
          "type": "address"
        }
      ],
      "name": "setRecipient",
      "outputs": [],
      "stateMutability": "nonpayable",
      "type": "function"
    },
    {
      "inputs": [],
      "name": "storageOpcodesRange",
      "outputs": [
        {
          "components": [
            {
              "internalType": "uint256",
              "name": "pointer",
              "type": "uint256"
            },
            {
              "internalType": "uint256",
              "name": "length",
              "type": "uint256"
            }
          ],
          "internalType": "struct StorageOpcodesRange",
          "name": "",
          "type": "tuple"
        }
      ],
      "stateMutability": "pure",
      "type": "function"
    },
    {
      "inputs": [],
      "name": "supplyLimit",
      "outputs": [
        {
          "internalType": "uint256",
          "name": "",
          "type": "uint256"
        }
      ],
      "stateMutability": "view",
      "type": "function"
    },
    {
      "inputs": [
        {
          "internalType": "bytes4",
          "name": "interfaceId",
          "type": "bytes4"
        }
      ],
      "name": "supportsInterface",
      "outputs": [
        {
          "internalType": "bool",
          "name": "",
          "type": "bool"
        }
      ],
      "stateMutability": "view",
      "type": "function"
    },
    {
      "inputs": [],
      "name": "symbol",
      "outputs": [
        {
          "internalType": "string",
          "name": "",
          "type": "string"
        }
      ],
      "stateMutability": "view",
      "type": "function"
    },
    {
      "inputs": [
        {
          "internalType": "uint256",
          "name": "tokenId",
          "type": "uint256"
        }
      ],
      "name": "tokenURI",
      "outputs": [
        {
          "internalType": "string",
          "name": "",
          "type": "string"
        }
      ],
      "stateMutability": "view",
      "type": "function"
    },
    {
      "inputs": [],
      "name": "totalMinted",
      "outputs": [
        {
          "internalType": "uint256",
          "name": "",
          "type": "uint256"
        }
      ],
      "stateMutability": "view",
      "type": "function"
    },
    {
      "inputs": [],
      "name": "totalSupply",
      "outputs": [
        {
          "internalType": "uint256",
          "name": "",
          "type": "uint256"
        }
      ],
      "stateMutability": "view",
      "type": "function"
    },
    {
      "inputs": [
        {
          "internalType": "address",
          "name": "from",
          "type": "address"
        },
        {
          "internalType": "address",
          "name": "to",
          "type": "address"
        },
        {
          "internalType": "uint256",
          "name": "tokenId",
          "type": "uint256"
        }
      ],
      "name": "transferFrom",
      "outputs": [],
      "stateMutability": "nonpayable",
      "type": "function"
    },
    {
      "inputs": [
        {
          "internalType": "address",
          "name": "newOwner",
          "type": "address"
        }
      ],
      "name": "transferOwnership",
      "outputs": [],
      "stateMutability": "nonpayable",
      "type": "function"
    },
    {
      "inputs": [],
      "name": "withdraw",
      "outputs": [],
      "stateMutability": "nonpayable",
      "type": "function"
    }
  ],
  "bytecode": "0x608060405234801561001057600080fd5b5061541e806100206000396000f3fe6080604052600436106101c05760003560e01c806301ffc9a7146101c557806305dc5e82146101fa57806306fdde031461022f578063081812fc14610251578063095ea7b31461027e5780630d662a1f146102a057806318160ddd146102bf57806319d1997a146102d457806323b872dd146102e95780632478d63914610309578063248a9ca3146103295780632a55205a146103495780632f2ff15d1461037757806334dc96c51461039757806336568abe146103ac5780633bbed4a0146103cc5780633ccfd60b146103ec57806342842e0e1461040157806342966c681461042157806344959239146104415780636352211e1461046157806370a0823114610481578063715018a6146104a15780638da5cb5b146104b657806391d14854146104cb57806393669a15146104eb57806395d89b41146104fe578063a217fddf14610513578063a22cb46514610528578063a2309ff814610548578063b4da5e9a1461055d578063b88d4fde14610570578063c87b56dd14610590578063d547741f146105b0578063dc33e681146105d0578063e0419ae3146105f0578063e985e9c514610620578063f2cd6c0814610640578063f2fde38b14610655575b600080fd5b3480156101d157600080fd5b506101e56101e03660046141b8565b610675565b60405190151581526020015b60405180910390f35b34801561020657600080fd5b5061021a6102153660046141fa565b610686565b604080519283526020830191909152016101f1565b34801561023b57600080fd5b5061024461078b565b6040516101f1919061427e565b34801561025d57600080fd5b5061027161026c366004614291565b610826565b6040516101f191906142b7565b34801561028a57600080fd5b5061029e6102993660046141fa565b610873565b005b3480156102ac57600080fd5b5060ca545b6040519081526020016101f1565b3480156102cb57600080fd5b506102b1610921565b3480156102e057600080fd5b5060c9546102b1565b3480156102f557600080fd5b5061029e6103043660046142cb565b610941565b34801561031557600080fd5b506102b161032436600461430c565b610b2e565b34801561033557600080fd5b506102b1610344366004614291565b610b39565b34801561035557600080fd5b50610369610364366004614329565b610b4e565b6040516101f192919061434b565b34801561038357600080fd5b5061029e610392366004614364565b610bae565b3480156103a357600080fd5b5060cb546102b1565b3480156103b857600080fd5b5061029e6103c7366004614364565b610bcf565b3480156103d857600080fd5b5061029e6103e736600461430c565b610c4d565b3480156103f857600080fd5b5061029e610d61565b34801561040d57600080fd5b5061029e61041c3660046142cb565b610e95565b34801561042d57600080fd5b5061029e61043c366004614291565b610eb0565b34801561044d57600080fd5b5061029e61045c36600461460a565b610ebe565b34801561046d57600080fd5b5061027161047c366004614291565b611386565b34801561048d57600080fd5b506102b161049c36600461430c565b611391565b3480156104ad57600080fd5b5061029e6113f9565b3480156104c257600080fd5b5061027161140d565b3480156104d757600080fd5b506101e56104e6366004614364565b61141c565b61029e6104f9366004614751565b611447565b34801561050a57600080fd5b5061024461148a565b34801561051f57600080fd5b506102b1600081565b34801561053457600080fd5b5061029e61054336600461479a565b6114a2565b34801561055457600080fd5b506102b1611549565b61029e61056b3660046147c8565b611558565b34801561057c57600080fd5b5061029e61058b3660046147da565b611570565b34801561059c57600080fd5b506102446105ab366004614291565b6115ba565b3480156105bc57600080fd5b5061029e6105cb366004614364565b611614565b3480156105dc57600080fd5b506102b16105eb36600461430c565b611630565b3480156105fc57600080fd5b5061060561163b565b604080518251815260209283015192810192909252016101f1565b34801561062c57600080fd5b506101e561063b366004614845565b611664565b34801561064c57600080fd5b506102446116a1565b34801561066157600080fd5b5061029e61067036600461430c565b6116d8565b60006106808261174e565b92915050565b60cc5460009081906001600160a01b03166106da5760405162461bcd60e51b815260206004820152600f60248201526e1393d517d253925512505312569151608a1b60448201526064015b60405180910390fd5b60006106e4611783565b604080518181526060810182529192506000919060208201818036833750505060208101879052604081018690529050610720818360016117a9565b506020820151825161073490600290614889565b81518110610744576107446148a0565b60200260200101518260200151600184600001516107629190614889565b81518110610772576107726148a0565b6020026020010151809450819550505050509250929050565b6060610795611a0a565b60020180546107a3906148b6565b80601f01602080910402602001604051908101604052809291908181526020018280546107cf906148b6565b801561081c5780601f106107f15761010080835404028352916020019161081c565b820191906000526020600020905b8154815290600101906020018083116107ff57829003601f168201915b5050505050905090565b600061083182611a2e565b61084e576040516333d1c03960e21b815260040160405180910390fd5b610856611a0a565b60009283526006016020525060409020546001600160a01b031690565b600061087e82611386565b9050336001600160a01b038216146108b75761089a8133611664565b6108b7576040516367d9dca160e11b815260040160405180910390fd5b826108c0611a0a565b6000848152600691909101602052604080822080546001600160a01b0319166001600160a01b0394851617905551849286811692908516917f8c5be1e5ebec7d5bd14f71427d1e84f3dd0314c0f7b2291e5b200ac8c7c3b9259190a4505050565b6000600161092d611a0a565b60010154610939611a0a565b540303919050565b600061094c82611a77565b9050836001600160a01b0316816001600160a01b03161461097f5760405162a1148160e81b815260040160405180910390fd5b60008061098b84611b06565b915091506109b0818761099b3390565b6001600160a01b039081169116811491141790565b6109db576109be8633611664565b6109db57604051632ce44b5f60e11b815260040160405180910390fd5b6001600160a01b038516610a0257604051633a954ecd60e21b815260040160405180910390fd5b610a0f8686866001611b2e565b8015610a1a57600082555b610a22611a0a565b6001600160a01b0387166000908152600591909101602052604090208054600019019055610a4e611a0a565b6001600160a01b03861660009081526005919091016020526040902080546001019055610a7f85600160e11b611c24565b610a87611a0a565b60008681526004919091016020526040902055600160e11b8316610af65760018401610ab1611a0a565b60008281526004919091016020526040902054610af457610ad0611a0a565b548114610af45783610ae0611a0a565b600083815260049190910160205260409020555b505b83856001600160a01b0316876001600160a01b03166000805160206153a983398151915260405160405180910390a45b505050505050565b600061068082611c39565b60009081526097602052604090206001015490565b60ce5460009081906001600160a01b0316610b7857505060ce546001600160a01b03166000610ba7565b60ce5460cf546001600160a01b039091169061271090610b9890866148eb565b610ba29190614920565b915091505b9250929050565b610bb782610b39565b610bc081611c7e565b610bca8383611c88565b505050565b6001600160a01b0381163314610c3f5760405162461bcd60e51b815260206004820152602f60248201527f416363657373436f6e74726f6c3a2063616e206f6e6c792072656e6f756e636560448201526e103937b632b9903337b91039b2b63360891b60648201526084016106d1565b610c498282611d0e565b5050565b60ce546001600160a01b0316331480610c6f575060ce546001600160a01b0316155b610cac5760405162461bcd60e51b815260206004820152600e60248201526d524543495049454e545f4f4e4c5960901b60448201526064016106d1565b6001600160a01b0381163b158015610ccc57506001600160a01b03811615155b610d0b5760405162461bcd60e51b815260206004820152601060248201526f24a72b20a624a22fa0a2222922a9a99760811b60448201526064016106d1565b60ce80546001600160a01b0319166001600160a01b0383161790556040517fff2d07bd188a9eb41acbc4a7db39e18956c95ab7f54f434d97849bf6206e577c90610d569083906142b7565b60405180910390a150565b600060cb5411610d9f5760405162461bcd60e51b815260206004820152600960248201526816915493d7d195539160ba1b60448201526064016106d1565b60cb5460ca80548201908190556040517ff279e6a1f5e320cca91135676d9cb6e44ca8a08c0b88342bcdb1144f6511b56892610ddc923392614934565b60405180910390a160cd546001600160a01b0316610e125760ce5460cb54610e0d916001600160a01b031690611d75565b610e8e565b60cd5460ce5460cb5460405163a9059cbb60e01b81526001600160a01b039384169363a9059cbb93610e499391169160040161434b565b6020604051808303816000875af1158015610e68573d6000803e3d6000fd5b505050506040513d601f19601f82011682018060405250810190610e8c9190614955565b505b600060cb55565b610bca83838360405180602001604052806000815250611570565b610ebb816001611e8b565b50565b610ec6611ff9565b54610100900460ff16610ee557610edb611ff9565b5460ff1615610ee9565b303b155b610f435760405162461bcd60e51b81526020600482015260376024820152600080516020615369833981519152604482015276081a5cc8185b1c9958591e481a5b9a5d1a585b1a5e9959604a1b60648201526084016106d1565b6000610f4d611ff9565b54610100900460ff161590508015610f99576001610f69611ff9565b80549115156101000261ff00199092169190911790556001610f89611ff9565b805460ff19169115159190911790555b600054610100900460ff1615808015610fb95750600054600160ff909116105b80610fd35750303b158015610fd3575060005460ff166001145b6110365760405162461bcd60e51b815260206004820152602e60248201527f496e697469616c697a61626c653a20636f6e747261637420697320616c72656160448201526d191e481a5b9a5d1a585b1a5e995960921b60648201526084016106d1565b6000805460ff191660011790558015611059576000805461ff0019166101001790555b61106b8460000151856020015161201d565b611073612054565b606084015160c955604084015180516110949160d09160209091019061409d565b5060e084015160cf819055612710116110dd5760405162461bcd60e51b815260206004820152600b60248201526a4d41585f524f59414c545960a81b60448201526064016106d1565b6110ea8460800151610c4d565b6110f78460a001516116d8565b60c08401516001600160a01b031661113b5760405162461bcd60e51b8152602060048201526007602482015266182fa0a226a4a760c91b60448201526064016106d1565b6111616000805160206153c9833981519152600080516020615389833981519152612083565b61117d6000805160206153898339815191528560c00151611c88565b61010084015160cd80546001600160a01b0319166001600160a01b039092169190911790556111aa614121565b600081526111b6614121565b6001815260408051600280825260608201909252600091816020015b6111da614121565b8152602001906001900390816111d25790505090508281600081518110611203576112036148a0565b60200260200101819052508181600181518110611222576112226148a0565b60200260200101819052506000866001600160a01b03166317376ae0308a6101200151856040518463ffffffff1660e01b815260040161126493929190614a39565b6000604051808303816000875af1158015611283573d6000803e3d6000fd5b505050506040513d6000823e601f3d908101601f191682016040526112ab9190810190614ae0565b90506112b6816120d6565b60cc80546001600160a01b0319166001600160a01b03929092169190911790556040517f168856e8d0cd76c881da00ff445e08cae1ac9b23f6b406e769e84c4f0e9905e190611308908a908a90614b4d565b60405180910390a150505050801561135a576000805461ff0019169055604051600181527f7f26b83ff96e1f2b6a682f133852f6798a09c465da95921460cefb38474024989060200160405180910390a15b508015610bca57600061136b611ff9565b80549115156101000261ff0019909216919091179055505050565b600061068082611a77565b60006001600160a01b0382166113ba576040516323d3ad8160e21b815260040160405180910390fd5b6001600160401b036113ca611a0a565b6005016000846001600160a01b03166001600160a01b0316815260200190815260200160002054169050919050565b61140161213b565b61140b600061219a565b565b6033546001600160a01b031690565b60009182526097602090815260408084206001600160a01b0393909316845291905290205460ff1690565b6000805160206153c983398151915261145f81611c7e565b611483856040518060600160405280878152602001868152602001858152506121ec565b5050505050565b6060611494611a0a565b60030180546107a3906148b6565b6001600160a01b0382163314156114cc5760405163b06307db60e01b815260040160405180910390fd5b806114d5611a0a565b336000818152600792909201602090815260408084206001600160a01b03881680865290835293819020805460ff19169515159590951790945592518415158152919290917f17307eab39ab6107e8899845ad3d59bd9653f200f220920489ca2b5937696c31910160405180910390a35050565b60006115536124a8565b905090565b610ebb3361156b36849003840184614c41565b6121ec565b61157b848484610941565b6001600160a01b0383163b156115b457611597848484846124bb565b6115b4576040516368d2bf6b60e11b815260040160405180910390fd5b50505050565b60606115c582611a2e565b6115e257604051630a14c4b560e41b815260040160405180910390fd5b60d06115ed836125a4565b6040516020016115fe929190614cb8565b6040516020818303038152906040529050919050565b61161d82610b39565b61162681611c7e565b610bca8383611d0e565b6000610680826126a1565b6040805180820182526000808252602091820152815180830190925260c9825260039082015290565b600061166e611a0a565b6001600160a01b039384166000908152600791909101602090815260408083209490951682529290925250205460ff1690565b60606116ab6126b5565b6116b3612866565b6040516020016116c4929190614d7a565b604051602081830303815290604052905090565b6116e061213b565b6001600160a01b0381166117455760405162461bcd60e51b815260206004820152602660248201527f4f776e61626c653a206e6577206f776e657220697320746865207a65726f206160448201526564647265737360d01b60648201526084016106d1565b610ebb8161219a565b60006001600160e01b03198216637965db0b60e01b148061068057506301ffc9a760e01b6001600160e01b0319831614610680565b61178b61415e565b60cc54611553906117a4906001600160a01b03166128c3565b6128d3565b60208281015183516040850151848402018301518051606087015160a088015160009687968796879695948301938284019391820290920101906002015b848910156119f0576003890198508886015180601f1a975061ffff8160081c169850506006881015611991578761182c578660200284015182526020820191506119a4565b6001881415611849576020870283015182526020820191506119a4565b60028814156118ad578c5187602002106118965760405162461bcd60e51b815260206004820152600e60248201526d0869e9ca88ab0a8be988a9c8ea8960931b60448201526064016106d1565b866020026020018d015182526020820191506119a4565b60038814156118d25760006118c061163b565b518801548352506020909101906119a4565b60048814156118ee576118e78d8d848a6129e9565b91506119a4565b60608761191c578c6040516020016119069190614da9565b604051602081830303815290604052905061197b565b60018814156119355761192e8d612b2d565b905061197b565b6002881415611951576020808e01516040516119069201614e22565b600388141561197b578c516040805160208101929092520160405160208183030381529060405290505b80511561198b5761198b81612c2e565b506119a4565b876119a0888463ffffffff8416565b9250505b60208c0151518c5111156119eb5760405162461bcd60e51b815260206004820152600e60248201526d535441434b5f4f564552464c4f5760901b60448201526064016106d1565b6117e7565b6020838303048c52509750505050505050505b9392505050565b7f2569078dfb4b0305704d3008e7403993ae9601b85f7ae5e742de3de8f8011c4090565b600081600111158015611a485750611a44611a0a565b5482105b80156106805750600160e01b611a5c611a0a565b60008481526004919091016020526040902054161592915050565b60008180600111611aed57611a8a611a0a565b54811015611aed576000611a9c611a0a565b600083815260049190910160205260409020549050600160e01b8116611aeb575b80611a0357611aca611a0a565b60001990920160008181526004939093016020526040909220549050611abd565b505b604051636f96cda160e11b815260040160405180910390fd5b6000806000611b13611a0a565b60009485526006016020525050604090912080549092909150565b6001600160a01b038416156115b4576000611b47611783565b604080518181526060810182529192506000919060208201818036833750505060208101869052604081018590529050611b83818360006117a9565b50611bba826020015160018460000151611b9d9190614889565b81518110611bad57611bad6148a0565b6020026020010151612c71565b60208201518251611bcd90600190614889565b81518110611bdd57611bdd6148a0565b6020026020010151600114610b265760405162461bcd60e51b815260206004820152600d60248201526c21a0a72a2faa2920a729a322a960991b60448201526064016106d1565b4260a01b176001600160a01b03919091161790565b60006001600160401b036080611c4d611a0a565b6005016000856001600160a01b03166001600160a01b0316815260200190815260200160002054901c169050919050565b610ebb8133612cb6565b611c92828261141c565b610c495760008281526097602090815260408083206001600160a01b03851684529091529020805460ff19166001179055611cca3390565b6001600160a01b0316816001600160a01b0316837f2f8788117e7eff1d82e926ec794901d17c78024a50270940304540a733656f0d60405160405180910390a45050565b611d18828261141c565b15610c495760008281526097602090815260408083206001600160a01b0385168085529252808320805460ff1916905551339285917ff6391f5c32d9c69d2a47ea670b442974b53935d1edc7fd64eb21e047a839171b9190a45050565b80471015611dc55760405162461bcd60e51b815260206004820152601d60248201527f416464726573733a20696e73756666696369656e742062616c616e636500000060448201526064016106d1565b6000826001600160a01b03168260405160006040518083038185875af1925050503d8060008114611e12576040519150601f19603f3d011682016040523d82523d6000602084013e611e17565b606091505b5050905080610bca5760405162461bcd60e51b815260206004820152603a60248201527f416464726573733a20756e61626c6520746f2073656e642076616c75652c20726044820152791958da5c1a595b9d081b585e481a185d99481c995d995c9d195960321b60648201526084016106d1565b6000611e9683611a77565b905080600080611ea586611b06565b915091508415611ee557611eba81843361099b565b611ee557611ec88333611664565b611ee557604051632ce44b5f60e11b815260040160405180910390fd5b611ef3836000886001611b2e565b8015611efe57600082555b6001600160801b03611f0e611a0a565b6001600160a01b0385166000908152600591909101602052604090208054919091019055611f4083600360e01b611c24565b611f48611a0a565b60008881526004919091016020526040902055600160e11b8416611fb75760018601611f72611a0a565b60008281526004919091016020526040902054611fb557611f91611a0a565b548114611fb55784611fa1611a0a565b600083815260049190910160205260409020555b505b60405186906000906001600160a01b038616906000805160206153a9833981519152908390a4611fe5611a0a565b600190810180549091019055505050505050565b7fee151c8401928dc223602bb187aff91b9a56c7cae5476ef1b3287b085a16c85f90565b612025611ff9565b54610100900460ff1661204a5760405162461bcd60e51b81526004016106d190614e58565b610c498282612d1a565b600054610100900460ff1661207b5760405162461bcd60e51b81526004016106d190614e9a565b61140b612d96565b600061208e83610b39565b600084815260976020526040808220600101859055519192508391839186917fbd79b86ffe0ab8e8776151514217cd7cacd52c909f66475c3af44e129f0b00ff9190a4505050565b600080612101836040516020016120ed9190614ee5565b604051602081830303815290604052612dc6565b90508051602082016000f091506001600160a01b0382166121355760405163046a55db60e11b815260040160405180910390fd5b50919050565b3361214461140d565b6001600160a01b03161461140b5760405162461bcd60e51b815260206004820181905260248201527f4f776e61626c653a2063616c6c6572206973206e6f7420746865206f776e657260448201526064016106d1565b603380546001600160a01b038381166001600160a01b0319831681179093556040519116919082907f8be0079c531659141344cd1fd0a4f28419497f9722a3daafe3b4186f6b6457e090600090a35050565b806020015160001061222c5760405162461bcd60e51b8152602060048201526009602482015268305f4d494e494d554d60b81b60448201526064016106d1565b80604001518160200151111561227b5760405162461bcd60e51b81526020600482015260146024820152731352539253555357d3d5915497d11154d254915160621b60448201526064016106d1565b60006122856124a8565b60c9546122929190614889565b905060006122ad828460400151612ddc90919063ffffffff16565b90506000806122bc8684610686565b909250905060006122cd8385612ddc565b905085602001518110156123185760405162461bcd60e51b8152602060048201526012602482015271494e53554646494349454e545f53544f434b60701b60448201526064016106d1565b85518211156123595760405162461bcd60e51b815260206004820152600d60248201526c4d4158494d554d5f505249434560981b60448201526064016106d1565b600061236582846148eb565b60cd549091506001600160a01b03166123d457803410156123bc5760405162461bcd60e51b8152602060048201526011602482015270125394d551919250d251539517d1955391607a1b60448201526064016106d1565b6123cf336123ca8334614889565b611d75565b612451565b60cd546040516323b872dd60e01b8152336004820152306024820152604481018390526001600160a01b03909116906323b872dd906064016020604051808303816000875af115801561242b573d6000803e3d6000fd5b505050506040513d601f19601f8201168201806040525081019061244f9190614955565b505b60cb8054820190556124638883612df2565b7f1cbc5ab135991bd2b6a4b034a04aa2aa086dac1371cb9b16b8b5e2ed6b036bed88838360405161249693929190614934565b60405180910390a15050505050505050565b600060016124b4611a0a565b5403919050565b604051630a85bd0160e11b81526000906001600160a01b0385169063150b7a02906124f0903390899088908890600401614f0b565b6020604051808303816000875af192505050801561252b575060408051601f3d908101601f1916820190925261252891810190614f48565b60015b612586573d808015612559576040519150601f19603f3d011682016040523d82523d6000602084013e61255e565b606091505b50805161257e576040516368d2bf6b60e11b815260040160405180910390fd5b805181602001fd5b6001600160e01b031916630a85bd0160e11b1490505b949350505050565b6060816125c85750506040805180820190915260018152600360fc1b602082015290565b8160005b81156125f257806125dc81614f65565b91506125eb9050600a83614920565b91506125cc565b6000816001600160401b0381111561260c5761260c614394565b6040519080825280601f01601f191660200182016040528015612636576020820181803683370190505b5090505b841561259c5761264b600183614889565b9150612658600a86614f80565b612663906030614f94565b60f81b818381518110612678576126786148a0565b60200101906001600160f81b031916908160001a90535061269a600a86614920565b945061263a565b60006001600160401b036040611c4d611a0a565b604080516105c08082526105e082019092526060916020820181803683370190505090506000604051806105000160405280612f0e8152602001612fa2815260200161302181526020016130bf8152602001612f0e8152602001613106815260200161319f81526020016131ec81526020016133858152602001613390815260200161339b81526020016133a681526020016133b181526020016133c781526020016133f1815260200161341b81526020016134318152602001613447815260200161347c815260200161349b81526020016134b581526020016134de81526020016134f981526020016135088152602001613523815260200161357081526020016135af81526020016135ed8152602001613626815260200161365a815260200161368c81526020016136be81526020016136f08152602001613724815260200161377681526020016137af81526020016137ff81526020016138ac81526020016138cc8152602001613985815250905060005b6028811015612861576128596006820183836028811061284c5761284c6148a0565b60200201518591906139c5565b60010161282a565b505090565b60408051608080825260a08201909252606091602082018180368337019050509050612896816000613a1b6139c5565b6128a4816001613a326139c5565b6128b2816002613a3d6139c5565b6128c0816003613a526139c5565b90565b6060610680826001600019613a67565b6128db61415e565b6128e361415e565b60208301805160ff8082168352606084019290925290600882901c166001600160401b0381111561291657612916614394565b60405190808252806020026020018201604052801561293f578160200160208202803683370190505b50602083015260ff601082901c81166080840152601882901c1660606000826001600160401b0381111561297557612975614394565b60405190808252806020026020018201604052801561299e578160200160208202803683370190505b5090506020870151602002604001870160005b848110156129d85781602082026020018401528151602001820191506001810190506129b1565b505060408501525091949350505050565b600060078216600383811c16828082612a0a57506000199050610100612a4b565b8260011415612a2557506001600160801b0390506080612a4b565b8260021415612a4057506001600160401b0390506040612a4b565b5063ffffffff905060205b6001600587901c016000816001600160401b03811115612a6d57612a6d614394565b604051908082528060200260200182016040528015612a96578160200160208202803683370190505b50905060208082019083028a03815b8b821015612abd578151815260209182019101612aa5565b505060608b015160808c015160209081029091010160005b610100811015612b1b5760208502830182845b82811015612b04578051841c8a16825260209182019101612ae8565b505050612b128e8e8b6117a9565b9b508501612ad5565b50999c9b505050505050505050505050565b606060008260600151905060006018846040015151901b60108560800151901b6008866020015151901b866060015151171717905060008160001b83604051602001612b799190614e22565b60408051601f1981840301815290829052612b979291602001614fac565b604051602081830303815290604052905060005b856040015151811015612c25578186604001518281518110612bcf57612bcf6148a0565b60200260200101515160001b87604001518381518110612bf157612bf16148a0565b6020026020010151604051602001612c0b93929190614fd2565b60408051601f198184030181529190529150600101612bab565b50949350505050565b610ebb81604051602401612c42919061427e565b60408051601f198184030181529190526020810180516001600160e01b03166305f3bfab60e11b179052613b18565b610ebb81604051602401612c8791815260200190565b60408051601f198184030181529190526020810180516001600160e01b031663f82c50f160e01b179052613b18565b612cc0828261141c565b610c4957612cd8816001600160a01b03166014613b39565b612ce3836020613b39565b604051602001612cf4929190615009565b60408051601f198184030181529082905262461bcd60e51b82526106d19160040161427e565b612d22611ff9565b54610100900460ff16612d475760405162461bcd60e51b81526004016106d190614e58565b81612d50611a0a565b6002019080519060200190612d6692919061409d565b5080612d70611a0a565b6003019080519060200190612d8692919061409d565b506001612d91611a0a565b555050565b600054610100900460ff16612dbd5760405162461bcd60e51b81526004016106d190614e9a565b61140b3361219a565b60608151826040516020016115fe929190615078565b6000818310612deb5781611a03565b5090919050565b6000612dfc611a0a565b54905081612e1d5760405163b562e8dd60e01b815260040160405180910390fd5b612e2a6000848385611b2e565b6001600160401b018202612e3c611a0a565b6001600160a01b0385166000908152600591909101602052604090208054919091019055612e70836001841460e11b611c24565b612e78611a0a565b600083815260049190910160205260408120919091556001600160a01b0384169083830190839083906000805160206153a98339815191528180a4600183015b818114612ede57808360006000805160206153a9833981519152600080a4600101612eb8565b5081612efc57604051622e076360e81b815260040160405180910390fd5b80612f05611a0a565b5550610bca9050565b603f1981018051601f1990920180516040516370a0823160e01b815291936000939290919084906001600160a01b038416906370a0823190612f549085906004016142b7565b602060405180830381865afa158015612f71573d6000803e3d6000fd5b505050506040513d601f19601f82011682018060405250810190612f9591906150c9565b9093525092949350505050565b6000806000602084039150815190506000816001600160a01b03166318160ddd6040518163ffffffff1660e01b8152600401602060405180830381865afa158015612ff1573d6000803e3d6000fd5b505050506040513d601f19601f8201168201806040525081019061301591906150c9565b90925250919392505050565b605f1981018051603f1983018051601f199094015160405163277166bf60e11b81529194600094939290919085906001600160a01b03851690634ee2cd7e90613070908690869060040161434b565b602060405180830381865afa15801561308d573d6000803e3d6000fd5b505050506040513d601f19601f820116820180604052508101906130b191906150c9565b909452509395945050505050565b603f1981018051601f199092018051604051630981b24d60e41b81526004810182905291936000939290919084906001600160a01b0384169063981b24d090602401612f54565b603f1981018051601f1990920180516040516331a9108f60e11b81526004810182905291936000939290919084906001600160a01b03841690636352211e90602401602060405180830381865afa158015613165573d6000803e3d6000fd5b505050506040513d601f19601f8201168201806040525081019061318991906150e2565b6001600160a01b03169093525092949350505050565b605f1981018051603f1983018051601f1990940151604051627eeac760e11b81529194600094939290919085906001600160a01b0385169062fdd58e90613070908690869060040161434b565b6000806000846001600160401b0381111561320957613209614394565b604051908082528060200260200182016040528015613232578160200160208202803683370190505b5090506000856001600160401b0381111561324f5761324f614394565b604051908082528060200260200182016040528015613278578160200160208202803683370190505b50604087028603601f1981018051909550919250602080890282019085015b818310156132af578251815260209283019201613297565b5050602088028101602084015b818310156132d45782518152602092830192016132bc565b50506040516313849cfd60e21b8152600091506001600160a01b03831690634e1273f49061330890879087906004016150ff565b600060405180830381865afa158015613325573d6000803e3d6000fd5b505050506040513d6000823e601f3d908101601f1916820160405261334d9190810190615155565b9050846020820160208a0281015b8082101561337657815183526020928301929091019061335b565b50909998505050505050505050565b438152602001919050565b338152602001919050565b308152602001919050565b428152602001919050565b601f198101805160009190826130158287613cd4565b603f1981018051601f19909201805190926000929183612f95826133eb858a613cd4565b90613d37565b603f1981018051601f19909201805190926000929183612f9582613415858a613cd4565b90613d56565b601f198101805160009190826130158287613d6b565b601f198101805160009190826130158287613db6565b6000602083028203805b838110156134715780518015613468578252613471565b50602001613451565b506020019392505050565b605f1981018051156020028201603f1990810151909152018092915050565b601f1981018051603f199092018051909214909152919050565b6000602083028203805b838110156134715780516134d65760008252613471565b6020016134bf565b601f1981018051603f19909201805192909211909152919050565b601f1981018051159052919050565b601f1981018051603f19909201805192909210909152919050565b6020828102820380516000928201835b8582108015613543575060001983105b156135625750805160209091019061355b8382613df6565b9250613533565b505081526020019392505050565b6020828102820380516000928201835b8582108015613590575060001983105b15613562575080516020909101906135a88382613e13565b9250613580565b6020828102820380516000928201835b85821080156135ce5750826000105b15613562575080516020909101906135e68382613e42565b92506135bf565b600060208302820380516000602083015b85811015613562578051830191508282101561361957600080fd5b90915081906020016135fe565b600060208302820380516000602083015b8581101561356257805191508161364d57600080fd5b9181900491602001613637565b6020828102820380516000928201835b858210156135625750805160209091019061368581846152c9565b925061366a565b6020828102820380516000928201835b8582101561356257508051828111156136b3578092505b60208201915061369c565b6020828102820380516000928201835b8582101561356257508051828110156136e5578092505b6020820191506136ce565b600060208302820380516000602083015b8581101561356257805191508161371757600080fd5b9181900691602001613701565b60006020830282038051600080602084015b8681101561376757831561375f57805192508284029150828483041461375b57600080fd5b8193505b602001613736565b50505081526020019392505050565b600060208302820380516000602083015b8581101561356257805183039150828211156137a257600080fd5b9091508190602001613787565b819003603f1981018051601f199092018051848252604051632235a18160e21b8152919360009392909190859085906001600160a01b038516906388d686049061307090869086906004016152d5565b819003605f1981018051603f19830151601f19909301805185825260405163caa0eb3b60e01b815291946000949392909190869086906001600160a01b0386169063caa0eb3b90613858908790879087906004016152f9565b602060405180830381865afa158015613875573d6000803e3d6000fd5b505050506040513d601f19601f8201168201806040525081019061389991906150c9565b8652505060209093019695505050505050565b603f1981018051601f19909201805190926000929183612f958383613e58565b6000600783901c6003600585901c16601f85168380826001600160401b038111156138f9576138f9614394565b604051908082528060200260200182016040528015613922578160200160208202803683370190505b509050600060206001850102880392506020840283018360005b8282101561395e5781518160200186015260208201915060208101905061393c565b5050519050600061397183838989613eb7565b845250506020909101979650505050505050565b603f1981018051601f199092018051909260009291600f80871691600488901c90911690856139b685858585613fad565b90955250949695505050505050565b825160208302908110613a0d5760405162461bcd60e51b815260206004820152601060248201526f464e5f505452535f4f564552464c4f5760801b60448201526064016106d1565b506020918202929092010152565b600080613a26610921565b83525050602001919050565b600080613a266124a8565b601f19810180516000919082613015826126a1565b601f1981018051600091908261301582611c39565b6060833b80613a86575050604080516020810190915260008152611a03565b80841115613aa4575050604080516020810190915260008152611a03565b83831015613ad65760405163162544fd60e11b81526004810182905260248101859052604481018490526064016106d1565b8383038482036000828210613aeb5782613aed565b815b60408051603f8301601f19168101909152818152955090508087602087018a3c505050509392505050565b80516a636f6e736f6c652e6c6f67602083016000808483855afa5050505050565b60606000613b488360026148eb565b613b53906002614f94565b6001600160401b03811115613b6a57613b6a614394565b6040519080825280601f01601f191660200182016040528015613b94576020820181803683370190505b509050600360fc1b81600081518110613baf57613baf6148a0565b60200101906001600160f81b031916908160001a905350600f60fb1b81600181518110613bde57613bde6148a0565b60200101906001600160f81b031916908160001a9053506000613c028460026148eb565b613c0d906001614f94565b90505b6001811115613c85576f181899199a1a9b1b9c1cb0b131b232b360811b85600f1660108110613c4157613c416148a0565b1a60f81b828281518110613c5757613c576148a0565b60200101906001600160f81b031916908160001a90535060049490941c93613c7e81615320565b9050613c10565b508315611a035760405162461bcd60e51b815260206004820181905260248201527f537472696e67733a20686578206c656e67746820696e73756666696369656e7460448201526064016106d1565b6000808260121415613ce95783915050610680565b8260121115613d1557506012829003613d0381600a6152c9565b613d0d90856148eb565b915050610680565b506011198201613d2681600a6152c9565b613d0d9085614920565b5092915050565b600081613d4c670de0b6b3a7640000856148eb565b611a039190614920565b6000670de0b6b3a7640000613d4c83856148eb565b600081810b613d7b575081610680565b60008260000b1315613da357613d9282600a615337565b613d9c90846148eb565b9050610680565b60ff600083900316613d2681600a6152c9565b6000806012831415613dcb5783915050610680565b8260121115613de557506012829003613d2681600a6152c9565b506011198201613d0381600a6152c9565b6000828201838110613e08578061259c565b600019949350505050565b600082613e2257506000610680565b82820282848281613e3557613e3561490a565b041415613e08578061259c565b6000818311613e52576000611a03565b50900390565b60008060015b60088111613eaf576000613e728683614009565b90506000613e808684614009565b90506000613e8e8383613e42565b9050613e9e85600186038361404e565b94505060019092019150613e5e9050565b509392505050565b835160009081908190819060015b60088111613f9f57600092508287613ee05750600019613ee4565b5060005b60005b83811015613f7b57613f128c8281518110613f0457613f046148a0565b602002602001015184614009565b95508a8611613f645788613f3157613f2a8683612ddc565b9150613f5b565b6001891415613f4457613f2a868361408d565b600289148015613f52575084155b15613f5b578591505b60019450613f73565b89613f73576000199150613f7b565b600101613ee7565b5083613f8657506000195b613f9486600184038361404e565b955050600101613ec5565b509298975050505050505050565b6000826008811115613fd15760405162461bcd60e51b81526004016106d190615346565b6000855b85811015613ffd5763ffffffff6020820290811b199890981685891b17979150600101613fd5565b50959695505050505050565b600081600881111561402d5760405162461bcd60e51b81526004016106d190615346565b8261403b5760009150613d30565b5050600019016020021c63ffffffff1690565b60008260088111156140725760405162461bcd60e51b81526004016106d190615346565b505063ffffffff602090920291821b199290921691901b1790565b600081831015612deb5781611a03565b8280546140a9906148b6565b90600052602060002090601f0160209004810192826140cb5760008555614111565b82601f106140e457805160ff1916838001178555614111565b82800160010185558215614111579182015b828111156141115782518255916020019190600101906140f6565b5061411d92915061418d565b5090565b6040518060e00160405280600081526020016000815260200160008152602001600081526020016000815260200160008152602001600081525090565b6040518060a0016040528060008152602001606081526020016060815260200160608152602001600081525090565b5b8082111561411d576000815560010161418e565b6001600160e01b031981168114610ebb57600080fd5b6000602082840312156141ca57600080fd5b8135611a03816141a2565b6001600160a01b0381168114610ebb57600080fd5b80356141f5816141d5565b919050565b6000806040838503121561420d57600080fd5b8235614218816141d5565b946020939093013593505050565b60005b83811015614241578181015183820152602001614229565b838111156115b45750506000910152565b6000815180845261426a816020860160208601614226565b601f01601f19169290920160200192915050565b602081526000611a036020830184614252565b6000602082840312156142a357600080fd5b5035919050565b6001600160a01b03169052565b6001600160a01b0391909116815260200190565b6000806000606084860312156142e057600080fd5b83356142eb816141d5565b925060208401356142fb816141d5565b929592945050506040919091013590565b60006020828403121561431e57600080fd5b8135611a03816141d5565b6000806040838503121561433c57600080fd5b50508035926020909101359150565b6001600160a01b03929092168252602082015260400190565b6000806040838503121561437757600080fd5b823591506020830135614389816141d5565b809150509250929050565b634e487b7160e01b600052604160045260246000fd5b604080519081016001600160401b03811182821017156143cc576143cc614394565b60405290565b60405161014081016001600160401b03811182821017156143cc576143cc614394565b604051601f8201601f191681016001600160401b038111828210171561441d5761441d614394565b604052919050565b60006001600160401b0382111561443e5761443e614394565b50601f01601f191660200190565b600082601f83011261445d57600080fd5b813561447061446b82614425565b6143f5565b81815284602083860101111561448557600080fd5b816020850160208301376000918101602001919091529392505050565b60006001600160401b038211156144bb576144bb614394565b5060051b60200190565b600082601f8301126144d657600080fd5b813560206144e661446b836144a2565b82815260059290921b8401810191818101908684111561450557600080fd5b8286015b848110156145205780358352918301918301614509565b509695505050505050565b60006040828403121561453d57600080fd5b6145456143aa565b905081356001600160401b038082111561455e57600080fd5b818401915084601f83011261457257600080fd5b8135602061458261446b836144a2565b82815260059290921b840181019181810190888411156145a157600080fd5b8286015b848110156145d9578035868111156145bd5760008081fd5b6145cb8b86838b010161444c565b8452509183019183016145a5565b50865250858101359350828411156145f057600080fd5b6145fc878588016144c5565b818601525050505092915050565b6000806040838503121561461d57600080fd5b82356001600160401b038082111561463457600080fd5b90840190610140828703121561464957600080fd5b6146516143d2565b82358281111561466057600080fd5b61466c8882860161444c565b82525060208301358281111561468157600080fd5b61468d8882860161444c565b6020830152506040830135828111156146a557600080fd5b6146b18882860161444c565b604083015250606083013560608201526146cd608084016141ea565b60808201526146de60a084016141ea565b60a08201526146ef60c084016141ea565b60c082015260e083013560e082015261010061470c8185016141ea565b90820152610120838101358381111561472457600080fd5b6147308982870161452b565b828401525050809450505050614748602084016141ea565b90509250929050565b6000806000806080858703121561476757600080fd5b8435614772816141d5565b966020860135965060408601359560600135945092505050565b8015158114610ebb57600080fd5b600080604083850312156147ad57600080fd5b82356147b8816141d5565b915060208301356143898161478c565b60006060828403121561213557600080fd5b600080600080608085870312156147f057600080fd5b84356147fb816141d5565b9350602085013561480b816141d5565b92506040850135915060608501356001600160401b0381111561482d57600080fd5b6148398782880161444c565b91505092959194509250565b6000806040838503121561485857600080fd5b8235614863816141d5565b91506020830135614389816141d5565b634e487b7160e01b600052601160045260246000fd5b60008282101561489b5761489b614873565b500390565b634e487b7160e01b600052603260045260246000fd5b600181811c908216806148ca57607f821691505b6020821081141561213557634e487b7160e01b600052602260045260246000fd5b600081600019048311821515161561490557614905614873565b500290565b634e487b7160e01b600052601260045260246000fd5b60008261492f5761492f61490a565b500490565b6001600160a01b039390931683526020830191909152604082015260600190565b60006020828403121561496757600080fd5b8151611a038161478c565b600081518084526020808501808196508360051b8101915082860160005b858110156149ba5782840389526149a8848351614252565b98850198935090840190600101614990565b5091979650505050505050565b600081518084526020808501945080840160005b838110156149f7578151875295820195908201906001016149db565b509495945050505050565b6000815160408452614a176040850182614972565b905060208301518482036020860152614a3082826149c7565b95945050505050565b6001600160a01b03841681526060602080830182905260009190614a5f84830187614a02565b84810360408681019190915286518083528388019284019060005b81811015614ad0578451805184528681015187850152848101518585015287810151888501526080808201519085015260a0808201519085015260c090810151908401529385019360e090920191600101614a7a565b50909a9950505050505050505050565b600060208284031215614af257600080fd5b81516001600160401b03811115614b0857600080fd5b8201601f81018413614b1957600080fd5b8051614b2761446b82614425565b818152856020838501011115614b3c57600080fd5b614a30826020830160208601614226565b6040815260008351610140806040850152614b6c610180850183614252565b91506020860151603f1980868503016060870152614b8a8483614252565b93506040880151915080868503016080870152614ba78483614252565b9350606088015160a087015260808801519150614bc760c08701836142aa565b60a08801519150614bdb60e08701836142aa565b60c08801519150610100614bf1818801846142aa565b60e089015192506101208381890152818a01519350614c12858901856142aa565b890151878603909201610160880152509150614c3090508282614a02565b92505050611a0360208301846142aa565b600060608284031215614c5357600080fd5b604051606081016001600160401b0381118282101715614c7557614c75614394565b80604052508235815260208301356020820152604083013560408201528091505092915050565b60008151614cae818560208601614226565b9290920192915050565b600080845481600182811c915080831680614cd457607f831692505b6020808410821415614cf457634e487b7160e01b86526022600452602486fd5b818015614d085760018114614d1957614d46565b60ff19861689528489019650614d46565b60008b81526020902060005b86811015614d3e5781548b820152908501908301614d25565b505084890196505b505050505050614a30614d69614d6383602f60f81b815260010190565b86614c9c565b64173539b7b760d91b815260050190565b60008351614d8c818460208801614226565b835190830190614da0818360208801614226565b01949350505050565b60208152815160208201526000602083015160a06040840152614dcf60c08401826149c7565b90506040840151601f1980858403016060860152614ded8383614972565b9250606086015191508085840301608086015250614e0b82826149c7565b915050608084015160a08401528091505092915050565b815160009082906020808601845b83811015614e4c57815185529382019390820190600101614e30565b50929695505050505050565b6020808252603490820152600080516020615369833981519152604082015273206973206e6f7420696e697469616c697a696e6760601b606082015260800190565b6020808252602b908201527f496e697469616c697a61626c653a20636f6e7472616374206973206e6f74206960408201526a6e697469616c697a696e6760a81b606082015260800190565b6000815260008251614efe816001850160208701614226565b9190910160010192915050565b6001600160a01b0385811682528416602082015260408101839052608060608201819052600090614f3e90830184614252565b9695505050505050565b600060208284031215614f5a57600080fd5b8151611a03816141a2565b6000600019821415614f7957614f79614873565b5060010190565b600082614f8f57614f8f61490a565b500690565b60008219821115614fa757614fa7614873565b500190565b82815260008251614fc4816020850160208701614226565b919091016020019392505050565b60008451614fe4818460208901614226565b82018481528351614ffc816020808501908801614226565b0160200195945050505050565b76020b1b1b2b9b9a1b7b73a3937b61d1030b1b1b7bab73a1604d1b81526000835161503b816017850160208801614226565b7001034b99036b4b9b9b4b733903937b6329607d1b601791840191820152835161506c816028840160208801614226565b01602801949350505050565b606360f81b815260e083901b6001600160e01b03191660018201526880600e6000396000f360b81b600582015281516000906150bb81600e850160208701614226565b91909101600e019392505050565b6000602082840312156150db57600080fd5b5051919050565b6000602082840312156150f457600080fd5b8151611a03816141d5565b604080825283519082018190526000906020906060840190828701845b828110156151415781516001600160a01b03168452928401929084019060010161511c565b50505083810382850152614f3e81866149c7565b6000602080838503121561516857600080fd5b82516001600160401b0381111561517e57600080fd5b8301601f8101851361518f57600080fd5b805161519d61446b826144a2565b81815260059190911b820183019083810190878311156151bc57600080fd5b928401925b828410156151da578351825292840192908401906151c1565b979650505050505050565b600181815b8085111561522057816000190482111561520657615206614873565b8085161561521357918102915b93841c93908002906151ea565b509250929050565b60008261523757506001610680565b8161524457506000610680565b816001811461525a576002811461526457615280565b6001915050610680565b60ff84111561527557615275614873565b50506001821b610680565b5060208310610133831016604e8410600b84101617156152a3575081810a610680565b6152ad83836151e5565b80600019048211156152c1576152c1614873565b029392505050565b6000611a038383615228565b6001600160a01b038316815260406020820181905260009061259c908301846149c7565b60018060a01b0384168152826020820152606060408201526000614a3060608301846149c7565b60008161532f5761532f614873565b506000190190565b6000611a0360ff841683615228565b60208082526008908201526726a0ac2faa24a2a960c11b60408201526060019056fe455243373231415f5f496e697469616c697a61626c653a20636f6e74726163745ed6f179f99b86220df7cbd206c7334b24cb795a85808301007ee7b2ff91a820ddf252ad1be2c89b69c2b068fc378daa952ba7f163c4a11628f55a4df523b3ef637062c33901e7d06867eef333d6cabd2aa851e91f8ce674ab4dba45bdc99c70a2646970667358221220bd332229d73e114a3e5a2af7d42b7c0334fcb9d3a7fc1c656491098d9899c7a364736f6c634300080a0033",
  "linkReferences": {},
  "deployedLinkReferences": {}
}